{
  "contractName": "ClaimsData",
  "abi": [
    {
      "constant": true,
      "inputs": [],
      "name": "minVoteThreshold",
      "outputs": [
        {
          "name": "",
          "type": "uint256"
        }
      ],
      "payable": false,
      "stateMutability": "view",
      "type": "function"
    },
    {
      "constant": true,
      "inputs": [],
      "name": "majorityConsensus",
      "outputs": [
        {
          "name": "",
          "type": "uint256"
        }
      ],
      "payable": false,
      "stateMutability": "view",
      "type": "function"
    },
    {
      "constant": true,
      "inputs": [],
      "name": "maxVotingTime",
      "outputs": [
        {
          "name": "",
          "type": "uint256"
        }
      ],
      "payable": false,
      "stateMutability": "view",
      "type": "function"
    },
    {
      "constant": true,
      "inputs": [
        {
          "name": "",
          "type": "address"
        }
      ],
      "name": "userClaimVotePausedOn",
      "outputs": [
        {
          "name": "",
          "type": "uint256"
        }
      ],
      "payable": false,
      "stateMutability": "view",
      "type": "function"
    },
    {
      "constant": true,
      "inputs": [],
      "name": "maxVoteThreshold",
      "outputs": [
        {
          "name": "",
          "type": "uint256"
        }
      ],
      "payable": false,
      "stateMutability": "view",
      "type": "function"
    },
    {
      "constant": true,
      "inputs": [],
      "name": "pendingClaimStart",
      "outputs": [
        {
          "name": "",
          "type": "uint256"
        }
      ],
      "payable": false,
      "stateMutability": "view",
      "type": "function"
    },
    {
      "constant": true,
      "inputs": [],
      "name": "minVotingTime",
      "outputs": [
        {
          "name": "",
          "type": "uint256"
        }
      ],
      "payable": false,
      "stateMutability": "view",
      "type": "function"
    },
    {
      "constant": true,
      "inputs": [],
      "name": "ms",
      "outputs": [
        {
          "name": "",
          "type": "address"
        }
      ],
      "payable": false,
      "stateMutability": "view",
      "type": "function"
    },
    {
      "constant": true,
      "inputs": [],
      "name": "claimRewardPerc",
      "outputs": [
        {
          "name": "",
          "type": "uint256"
        }
      ],
      "payable": false,
      "stateMutability": "view",
      "type": "function"
    },
    {
      "constant": true,
      "inputs": [],
      "name": "claimDepositTime",
      "outputs": [
        {
          "name": "",
          "type": "uint256"
        }
      ],
      "payable": false,
      "stateMutability": "view",
      "type": "function"
    },
    {
      "constant": true,
      "inputs": [],
      "name": "pauseDaysCA",
      "outputs": [
        {
          "name": "",
          "type": "uint256"
        }
      ],
      "payable": false,
      "stateMutability": "view",
      "type": "function"
    },
    {
      "constant": false,
      "inputs": [
        {
          "name": "_masterAddress",
          "type": "address"
        }
      ],
      "name": "changeMasterAddress",
      "outputs": [],
      "payable": false,
      "stateMutability": "nonpayable",
      "type": "function"
    },
    {
      "constant": true,
      "inputs": [],
      "name": "payoutRetryTime",
      "outputs": [
        {
          "name": "",
          "type": "uint256"
        }
      ],
      "payable": false,
      "stateMutability": "view",
      "type": "function"
    },
    {
      "constant": true,
      "inputs": [],
      "name": "nxMasterAddress",
      "outputs": [
        {
          "name": "",
          "type": "address"
        }
      ],
      "payable": false,
      "stateMutability": "view",
      "type": "function"
    },
    {
      "inputs": [],
      "payable": false,
      "stateMutability": "nonpayable",
      "type": "constructor"
    },
    {
      "anonymous": false,
      "inputs": [
        {
          "indexed": true,
          "name": "coverId",
          "type": "uint256"
        },
        {
          "indexed": true,
          "name": "userAddress",
          "type": "address"
        },
        {
          "indexed": false,
          "name": "claimId",
          "type": "uint256"
        },
        {
          "indexed": false,
          "name": "dateSubmit",
          "type": "uint256"
        }
      ],
      "name": "ClaimRaise",
      "type": "event"
    },
    {
      "anonymous": false,
      "inputs": [
        {
          "indexed": true,
          "name": "userAddress",
          "type": "address"
        },
        {
          "indexed": true,
          "name": "claimId",
          "type": "uint256"
        },
        {
          "indexed": true,
          "name": "typeOf",
          "type": "bytes4"
        },
        {
          "indexed": false,
          "name": "tokens",
          "type": "uint256"
        },
        {
          "indexed": false,
          "name": "submitDate",
          "type": "uint256"
        },
        {
          "indexed": false,
          "name": "verdict",
          "type": "int8"
        }
      ],
      "name": "VoteCast",
      "type": "event"
    },
    {
      "constant": false,
      "inputs": [
        {
          "name": "_start",
          "type": "uint256"
        }
      ],
      "name": "setpendingClaimStart",
      "outputs": [],
      "payable": false,
      "stateMutability": "nonpayable",
      "type": "function"
    },
    {
      "constant": false,
      "inputs": [
        {
          "name": "_voter",
          "type": "address"
        },
        {
          "name": "caIndex",
          "type": "uint256"
        }
      ],
      "name": "setRewardDistributedIndexCA",
      "outputs": [],
      "payable": false,
      "stateMutability": "nonpayable",
      "type": "function"
    },
    {
      "constant": false,
      "inputs": [
        {
          "name": "user",
          "type": "address"
        }
      ],
      "name": "setUserClaimVotePausedOn",
      "outputs": [],
      "payable": false,
      "stateMutability": "nonpayable",
      "type": "function"
    },
    {
      "constant": false,
      "inputs": [
        {
          "name": "_voter",
          "type": "address"
        },
        {
          "name": "mvIndex",
          "type": "uint256"
        }
      ],
      "name": "setRewardDistributedIndexMV",
      "outputs": [],
      "payable": false,
      "stateMutability": "nonpayable",
      "type": "function"
    },
    {
      "constant": false,
      "inputs": [
        {
          "name": "claimid",
          "type": "uint256"
        },
        {
          "name": "percCA",
          "type": "uint256"
        },
        {
          "name": "percMV",
          "type": "uint256"
        },
        {
          "name": "tokens",
          "type": "uint256"
        }
      ],
      "name": "setClaimRewardDetail",
      "outputs": [],
      "payable": false,
      "stateMutability": "nonpayable",
      "type": "function"
    },
    {
      "constant": false,
      "inputs": [
        {
          "name": "_voteid",
          "type": "uint256"
        },
        {
          "name": "claimed",
          "type": "bool"
        }
      ],
      "name": "setRewardClaimed",
      "outputs": [],
      "payable": false,
      "stateMutability": "nonpayable",
      "type": "function"
    },
    {
      "constant": false,
      "inputs": [
        {
          "name": "_claimId",
          "type": "uint256"
        },
        {
          "name": "_verdict",
          "type": "int8"
        }
      ],
      "name": "changeFinalVerdict",
      "outputs": [],
      "payable": false,
      "stateMutability": "nonpayable",
      "type": "function"
    },
    {
      "constant": false,
      "inputs": [
        {
          "name": "_claimId",
          "type": "uint256"
        },
        {
          "name": "_coverId",
          "type": "uint256"
        },
        {
          "name": "_from",
          "type": "address"
        },
        {
          "name": "_nowtime",
          "type": "uint256"
        }
      ],
      "name": "addClaim",
      "outputs": [],
      "payable": false,
      "stateMutability": "nonpayable",
      "type": "function"
    },
    {
      "constant": false,
      "inputs": [
        {
          "name": "_voter",
          "type": "address"
        },
        {
          "name": "_tokens",
          "type": "uint256"
        },
        {
          "name": "claimId",
          "type": "uint256"
        },
        {
          "name": "_verdict",
          "type": "int8"
        }
      ],
      "name": "addVote",
      "outputs": [],
      "payable": false,
      "stateMutability": "nonpayable",
      "type": "function"
    },
    {
      "constant": false,
      "inputs": [
        {
          "name": "_claimId",
          "type": "uint256"
        },
        {
          "name": "_voteid",
          "type": "uint256"
        }
      ],
      "name": "addClaimVoteCA",
      "outputs": [],
      "payable": false,
      "stateMutability": "nonpayable",
      "type": "function"
    },
    {
      "constant": false,
      "inputs": [
        {
          "name": "_from",
          "type": "address"
        },
        {
          "name": "_claimId",
          "type": "uint256"
        },
        {
          "name": "_voteid",
          "type": "uint256"
        }
      ],
      "name": "setUserClaimVoteCA",
      "outputs": [],
      "payable": false,
      "stateMutability": "nonpayable",
      "type": "function"
    },
    {
      "constant": false,
      "inputs": [
        {
          "name": "_claimId",
          "type": "uint256"
        },
        {
          "name": "_vote",
          "type": "int8"
        },
        {
          "name": "_tokens",
          "type": "uint256"
        }
      ],
      "name": "setClaimTokensCA",
      "outputs": [],
      "payable": false,
      "stateMutability": "nonpayable",
      "type": "function"
    },
    {
      "constant": false,
      "inputs": [
        {
          "name": "_claimId",
          "type": "uint256"
        },
        {
          "name": "_vote",
          "type": "int8"
        },
        {
          "name": "_tokens",
          "type": "uint256"
        }
      ],
      "name": "setClaimTokensMV",
      "outputs": [],
      "payable": false,
      "stateMutability": "nonpayable",
      "type": "function"
    },
    {
      "constant": false,
      "inputs": [
        {
          "name": "_claimId",
          "type": "uint256"
        },
        {
          "name": "_voteid",
          "type": "uint256"
        }
      ],
      "name": "addClaimVotemember",
      "outputs": [],
      "payable": false,
      "stateMutability": "nonpayable",
      "type": "function"
    },
    {
      "constant": false,
      "inputs": [
        {
          "name": "_from",
          "type": "address"
        },
        {
          "name": "_claimId",
          "type": "uint256"
        },
        {
          "name": "_voteid",
          "type": "uint256"
        }
      ],
      "name": "setUserClaimVoteMember",
      "outputs": [],
      "payable": false,
      "stateMutability": "nonpayable",
      "type": "function"
    },
    {
      "constant": false,
      "inputs": [
        {
          "name": "_claimId",
          "type": "uint256"
        },
        {
          "name": "_cnt",
          "type": "uint256"
        }
      ],
      "name": "updateState12Count",
      "outputs": [],
      "payable": false,
      "stateMutability": "nonpayable",
      "type": "function"
    },
    {
      "constant": false,
      "inputs": [
        {
          "name": "_claimId",
          "type": "uint256"
        },
        {
          "name": "_stat",
          "type": "uint256"
        }
      ],
      "name": "setClaimStatus",
      "outputs": [],
      "payable": false,
      "stateMutability": "nonpayable",
      "type": "function"
    },
    {
      "constant": false,
      "inputs": [
        {
          "name": "_claimId",
          "type": "uint256"
        },
        {
          "name": "_dateUpd",
          "type": "uint256"
        }
      ],
      "name": "setClaimdateUpd",
      "outputs": [],
      "payable": false,
      "stateMutability": "nonpayable",
      "type": "function"
    },
    {
      "constant": false,
      "inputs": [
        {
          "name": "_coverId",
          "type": "uint256"
        },
        {
          "name": "_dateUpd",
          "type": "uint256"
        },
        {
          "name": "_submit",
          "type": "bool"
        }
      ],
      "name": "setClaimAtEmergencyPause",
      "outputs": [],
      "payable": false,
      "stateMutability": "nonpayable",
      "type": "function"
    },
    {
      "constant": false,
      "inputs": [
        {
          "name": "_index",
          "type": "uint256"
        },
        {
          "name": "_submit",
          "type": "bool"
        }
      ],
      "name": "setClaimSubmittedAtEPTrue",
      "outputs": [],
      "payable": false,
      "stateMutability": "nonpayable",
      "type": "function"
    },
    {
      "constant": false,
      "inputs": [
        {
          "name": "_firstClaimIndexToSubmit",
          "type": "uint256"
        }
      ],
      "name": "setFirstClaimIndexToSubmitAfterEP",
      "outputs": [],
      "payable": false,
      "stateMutability": "nonpayable",
      "type": "function"
    },
    {
      "constant": false,
      "inputs": [
        {
          "name": "_claimId",
          "type": "uint256"
        },
        {
          "name": "_pendingTime",
          "type": "uint256"
        },
        {
          "name": "_voting",
          "type": "bool"
        }
      ],
      "name": "setPendingClaimDetails",
      "outputs": [],
      "payable": false,
      "stateMutability": "nonpayable",
      "type": "function"
    },
    {
      "constant": false,
      "inputs": [
        {
          "name": "_claimId",
          "type": "uint256"
        },
        {
          "name": "_vote",
          "type": "bool"
        }
      ],
      "name": "setPendingClaimVoteStatus",
      "outputs": [],
      "payable": false,
      "stateMutability": "nonpayable",
      "type": "function"
    },
    {
      "constant": false,
      "inputs": [
        {
          "name": "_claimStartVotingFirstIndex",
          "type": "uint256"
        }
      ],
      "name": "setFirstClaimIndexToStartVotingAfterEP",
      "outputs": [],
      "payable": false,
      "stateMutability": "nonpayable",
      "type": "function"
    },
    {
      "constant": false,
      "inputs": [
        {
          "name": "_userAddress",
          "type": "address"
        },
        {
          "name": "_claimId",
          "type": "uint256"
        },
        {
          "name": "_typeOf",
          "type": "bytes4"
        },
        {
          "name": "_tokens",
          "type": "uint256"
        },
        {
          "name": "_submitDate",
          "type": "uint256"
        },
        {
          "name": "_verdict",
          "type": "int8"
        }
      ],
      "name": "callVoteEvent",
      "outputs": [],
      "payable": false,
      "stateMutability": "nonpayable",
      "type": "function"
    },
    {
      "constant": false,
      "inputs": [
        {
          "name": "_coverId",
          "type": "uint256"
        },
        {
          "name": "_userAddress",
          "type": "address"
        },
        {
          "name": "_claimId",
          "type": "uint256"
        },
        {
          "name": "_datesubmit",
          "type": "uint256"
        }
      ],
      "name": "callClaimEvent",
      "outputs": [],
      "payable": false,
      "stateMutability": "nonpayable",
      "type": "function"
    },
    {
      "constant": true,
      "inputs": [
        {
          "name": "code",
          "type": "bytes8"
        }
      ],
      "name": "getUintParameters",
      "outputs": [
        {
          "name": "codeVal",
          "type": "bytes8"
        },
        {
          "name": "val",
          "type": "uint256"
        }
      ],
      "payable": false,
      "stateMutability": "view",
      "type": "function"
    },
    {
      "constant": true,
      "inputs": [
        {
          "name": "_index",
          "type": "uint256"
        }
      ],
      "name": "getClaimOfEmergencyPauseByIndex",
      "outputs": [
        {
          "name": "coverId",
          "type": "uint256"
        },
        {
          "name": "dateUpd",
          "type": "uint256"
        },
        {
          "name": "submit",
          "type": "bool"
        }
      ],
      "payable": false,
      "stateMutability": "view",
      "type": "function"
    },
    {
      "constant": true,
      "inputs": [
        {
          "name": "_claimId",
          "type": "uint256"
        }
      ],
      "name": "getAllClaimsByIndex",
      "outputs": [
        {
          "name": "coverId",
          "type": "uint256"
        },
        {
          "name": "vote",
          "type": "int8"
        },
        {
          "name": "status",
          "type": "uint256"
        },
        {
          "name": "dateUpd",
          "type": "uint256"
        },
        {
          "name": "state12Count",
          "type": "uint256"
        }
      ],
      "payable": false,
      "stateMutability": "view",
      "type": "function"
    },
    {
      "constant": true,
      "inputs": [
        {
          "name": "_add",
          "type": "address"
        },
        {
          "name": "_claimId",
          "type": "uint256"
        }
      ],
      "name": "getUserClaimVoteCA",
      "outputs": [
        {
          "name": "idVote",
          "type": "uint256"
        }
      ],
      "payable": false,
      "stateMutability": "view",
      "type": "function"
    },
    {
      "constant": true,
      "inputs": [
        {
          "name": "_add",
          "type": "address"
        },
        {
          "name": "_claimId",
          "type": "uint256"
        }
      ],
      "name": "getUserClaimVoteMember",
      "outputs": [
        {
          "name": "idVote",
          "type": "uint256"
        }
      ],
      "payable": false,
      "stateMutability": "view",
      "type": "function"
    },
    {
      "constant": true,
      "inputs": [],
      "name": "getAllVoteLength",
      "outputs": [
        {
          "name": "voteCount",
          "type": "uint256"
        }
      ],
      "payable": false,
      "stateMutability": "view",
      "type": "function"
    },
    {
      "constant": true,
      "inputs": [
        {
          "name": "_claimId",
          "type": "uint256"
        }
      ],
      "name": "getClaimStatusNumber",
      "outputs": [
        {
          "name": "claimId",
          "type": "uint256"
        },
        {
          "name": "statno",
          "type": "uint256"
        }
      ],
      "payable": false,
      "stateMutability": "view",
      "type": "function"
    },
    {
      "constant": true,
      "inputs": [
        {
          "name": "statusNumber",
          "type": "uint256"
        }
      ],
      "name": "getRewardStatus",
      "outputs": [
        {
          "name": "percCA",
          "type": "uint256"
        },
        {
          "name": "percMV",
          "type": "uint256"
        }
      ],
      "payable": false,
      "stateMutability": "view",
      "type": "function"
    },
    {
      "constant": true,
      "inputs": [
        {
          "name": "_claimId",
          "type": "uint256"
        }
      ],
      "name": "getClaimState12Count",
      "outputs": [
        {
          "name": "num",
          "type": "uint256"
        }
      ],
      "payable": false,
      "stateMutability": "view",
      "type": "function"
    },
    {
      "constant": true,
      "inputs": [
        {
          "name": "_claimId",
          "type": "uint256"
        }
      ],
      "name": "getClaimDateUpd",
      "outputs": [
        {
          "name": "dateupd",
          "type": "uint256"
        }
      ],
      "payable": false,
      "stateMutability": "view",
      "type": "function"
    },
    {
      "constant": true,
      "inputs": [
        {
          "name": "_member",
          "type": "address"
        }
      ],
      "name": "getAllClaimsByAddress",
      "outputs": [
        {
          "name": "claimarr",
          "type": "uint256[]"
        }
      ],
      "payable": false,
      "stateMutability": "view",
      "type": "function"
    },
    {
      "constant": true,
      "inputs": [
        {
          "name": "_claimId",
          "type": "uint256"
        }
      ],
      "name": "getClaimsTokenCA",
      "outputs": [
        {
          "name": "claimId",
          "type": "uint256"
        },
        {
          "name": "accept",
          "type": "uint256"
        },
        {
          "name": "deny",
          "type": "uint256"
        }
      ],
      "payable": false,
      "stateMutability": "view",
      "type": "function"
    },
    {
      "constant": true,
      "inputs": [
        {
          "name": "_claimId",
          "type": "uint256"
        }
      ],
      "name": "getClaimsTokenMV",
      "outputs": [
        {
          "name": "claimId",
          "type": "uint256"
        },
        {
          "name": "accept",
          "type": "uint256"
        },
        {
          "name": "deny",
          "type": "uint256"
        }
      ],
      "payable": false,
      "stateMutability": "view",
      "type": "function"
    },
    {
      "constant": true,
      "inputs": [
        {
          "name": "_claimId",
          "type": "uint256"
        }
      ],
      "name": "getCaClaimVotesToken",
      "outputs": [
        {
          "name": "claimId",
          "type": "uint256"
        },
        {
          "name": "cnt",
          "type": "uint256"
        }
      ],
      "payable": false,
      "stateMutability": "view",
      "type": "function"
    },
    {
      "constant": true,
      "inputs": [
        {
          "name": "_claimId",
          "type": "uint256"
        }
      ],
      "name": "getMemberClaimVotesToken",
      "outputs": [
        {
          "name": "claimId",
          "type": "uint256"
        },
        {
          "name": "cnt",
          "type": "uint256"
        }
      ],
      "payable": false,
      "stateMutability": "view",
      "type": "function"
    },
    {
      "constant": true,
      "inputs": [
        {
          "name": "_voteid",
          "type": "uint256"
        }
      ],
      "name": "getVoteDetails",
      "outputs": [
        {
          "name": "tokens",
          "type": "uint256"
        },
        {
          "name": "claimId",
          "type": "uint256"
        },
        {
          "name": "verdict",
          "type": "int8"
        },
        {
          "name": "rewardClaimed",
          "type": "bool"
        }
      ],
      "payable": false,
      "stateMutability": "view",
      "type": "function"
    },
    {
      "constant": true,
      "inputs": [
        {
          "name": "_voteid",
          "type": "uint256"
        }
      ],
      "name": "getVoterVote",
      "outputs": [
        {
          "name": "voter",
          "type": "address"
        }
      ],
      "payable": false,
      "stateMutability": "view",
      "type": "function"
    },
    {
      "constant": true,
      "inputs": [
        {
          "name": "_claimId",
          "type": "uint256"
        }
      ],
      "name": "getClaim",
      "outputs": [
        {
          "name": "claimId",
          "type": "uint256"
        },
        {
          "name": "coverId",
          "type": "uint256"
        },
        {
          "name": "vote",
          "type": "int8"
        },
        {
          "name": "status",
          "type": "uint256"
        },
        {
          "name": "dateUpd",
          "type": "uint256"
        },
        {
          "name": "state12Count",
          "type": "uint256"
        }
      ],
      "payable": false,
      "stateMutability": "view",
      "type": "function"
    },
    {
      "constant": true,
      "inputs": [
        {
          "name": "_claimId",
          "type": "uint256"
        },
        {
          "name": "_ca",
          "type": "uint8"
        }
      ],
      "name": "getClaimVoteLength",
      "outputs": [
        {
          "name": "claimId",
          "type": "uint256"
        },
        {
          "name": "len",
          "type": "uint256"
        }
      ],
      "payable": false,
      "stateMutability": "view",
      "type": "function"
    },
    {
      "constant": true,
      "inputs": [
        {
          "name": "_claimId",
          "type": "uint256"
        },
        {
          "name": "_index",
          "type": "uint256"
        },
        {
          "name": "_ca",
          "type": "uint8"
        }
      ],
      "name": "getVoteVerdict",
      "outputs": [
        {
          "name": "ver",
          "type": "int8"
        }
      ],
      "payable": false,
      "stateMutability": "view",
      "type": "function"
    },
    {
      "constant": true,
      "inputs": [
        {
          "name": "_claimId",
          "type": "uint256"
        },
        {
          "name": "_index",
          "type": "uint256"
        },
        {
          "name": "_ca",
          "type": "uint8"
        }
      ],
      "name": "getVoteToken",
      "outputs": [
        {
          "name": "tok",
          "type": "uint256"
        }
      ],
      "payable": false,
      "stateMutability": "view",
      "type": "function"
    },
    {
      "constant": true,
      "inputs": [
        {
          "name": "_claimId",
          "type": "uint256"
        },
        {
          "name": "_index",
          "type": "uint256"
        },
        {
          "name": "_ca",
          "type": "uint8"
        }
      ],
      "name": "getVoteVoter",
      "outputs": [
        {
          "name": "voter",
          "type": "address"
        }
      ],
      "payable": false,
      "stateMutability": "view",
      "type": "function"
    },
    {
      "constant": true,
      "inputs": [
        {
          "name": "_add",
          "type": "address"
        }
      ],
      "name": "getUserClaimCount",
      "outputs": [
        {
          "name": "len",
          "type": "uint256"
        }
      ],
      "payable": false,
      "stateMutability": "view",
      "type": "function"
    },
    {
      "constant": true,
      "inputs": [],
      "name": "getClaimLength",
      "outputs": [
        {
          "name": "len",
          "type": "uint256"
        }
      ],
      "payable": false,
      "stateMutability": "view",
      "type": "function"
    },
    {
      "constant": true,
      "inputs": [],
      "name": "actualClaimLength",
      "outputs": [
        {
          "name": "len",
          "type": "uint256"
        }
      ],
      "payable": false,
      "stateMutability": "view",
      "type": "function"
    },
    {
      "constant": true,
      "inputs": [
        {
          "name": "_index",
          "type": "uint256"
        },
        {
          "name": "_add",
          "type": "address"
        }
      ],
      "name": "getClaimFromNewStart",
      "outputs": [
        {
          "name": "coverid",
          "type": "uint256"
        },
        {
          "name": "claimId",
          "type": "uint256"
        },
        {
          "name": "voteCA",
          "type": "int8"
        },
        {
          "name": "voteMV",
          "type": "int8"
        },
        {
          "name": "statusnumber",
          "type": "uint256"
        }
      ],
      "payable": false,
      "stateMutability": "view",
      "type": "function"
    },
    {
      "constant": true,
      "inputs": [
        {
          "name": "_index",
          "type": "uint256"
        },
        {
          "name": "_add",
          "type": "address"
        }
      ],
      "name": "getUserClaimByIndex",
      "outputs": [
        {
          "name": "status",
          "type": "uint256"
        },
        {
          "name": "coverid",
          "type": "uint256"
        },
        {
          "name": "claimId",
          "type": "uint256"
        }
      ],
      "payable": false,
      "stateMutability": "view",
      "type": "function"
    },
    {
      "constant": true,
      "inputs": [
        {
          "name": "_claimId",
          "type": "uint256"
        }
      ],
      "name": "getAllVotesForClaim",
      "outputs": [
        {
          "name": "claimId",
          "type": "uint256"
        },
        {
          "name": "ca",
          "type": "uint256[]"
        },
        {
          "name": "mv",
          "type": "uint256[]"
        }
      ],
      "payable": false,
      "stateMutability": "view",
      "type": "function"
    },
    {
      "constant": true,
      "inputs": [
        {
          "name": "_of",
          "type": "address"
        },
        {
          "name": "_claimId",
          "type": "uint256"
        }
      ],
      "name": "getTokensClaim",
      "outputs": [
        {
          "name": "claimId",
          "type": "uint256"
        },
        {
          "name": "tokens",
          "type": "uint256"
        }
      ],
      "payable": false,
      "stateMutability": "view",
      "type": "function"
    },
    {
      "constant": true,
      "inputs": [
        {
          "name": "_voter",
          "type": "address"
        }
      ],
      "name": "getRewardDistributedIndex",
      "outputs": [
        {
          "name": "lastCAvoteIndex",
          "type": "uint256"
        },
        {
          "name": "lastMVvoteIndex",
          "type": "uint256"
        }
      ],
      "payable": false,
      "stateMutability": "view",
      "type": "function"
    },
    {
      "constant": true,
      "inputs": [
        {
          "name": "claimid",
          "type": "uint256"
        }
      ],
      "name": "getClaimRewardDetail",
      "outputs": [
        {
          "name": "percCA",
          "type": "uint256"
        },
        {
          "name": "percMV",
          "type": "uint256"
        },
        {
          "name": "tokens",
          "type": "uint256"
        }
      ],
      "payable": false,
      "stateMutability": "view",
      "type": "function"
    },
    {
      "constant": true,
      "inputs": [
        {
          "name": "_claimId",
          "type": "uint256"
        }
      ],
      "name": "getClaimCoverId",
      "outputs": [
        {
          "name": "claimId",
          "type": "uint256"
        },
        {
          "name": "coverid",
          "type": "uint256"
        }
      ],
      "payable": false,
      "stateMutability": "view",
      "type": "function"
    },
    {
      "constant": true,
      "inputs": [
        {
          "name": "_claimId",
          "type": "uint256"
        },
        {
          "name": "_verdict",
          "type": "int8"
        }
      ],
      "name": "getClaimVote",
      "outputs": [
        {
          "name": "claimId",
          "type": "uint256"
        },
        {
          "name": "token",
          "type": "uint256"
        }
      ],
      "payable": false,
      "stateMutability": "view",
      "type": "function"
    },
    {
      "constant": true,
      "inputs": [
        {
          "name": "_claimId",
          "type": "uint256"
        },
        {
          "name": "_verdict",
          "type": "int8"
        }
      ],
      "name": "getClaimMVote",
      "outputs": [
        {
          "name": "claimId",
          "type": "uint256"
        },
        {
          "name": "token",
          "type": "uint256"
        }
      ],
      "payable": false,
      "stateMutability": "view",
      "type": "function"
    },
    {
      "constant": true,
      "inputs": [
        {
          "name": "_voter",
          "type": "address"
        },
        {
          "name": "index",
          "type": "uint256"
        }
      ],
      "name": "getVoteAddressCA",
      "outputs": [
        {
          "name": "",
          "type": "uint256"
        }
      ],
      "payable": false,
      "stateMutability": "view",
      "type": "function"
    },
    {
      "constant": true,
      "inputs": [
        {
          "name": "_voter",
          "type": "address"
        },
        {
          "name": "index",
          "type": "uint256"
        }
      ],
      "name": "getVoteAddressMember",
      "outputs": [
        {
          "name": "",
          "type": "uint256"
        }
      ],
      "payable": false,
      "stateMutability": "view",
      "type": "function"
    },
    {
      "constant": true,
      "inputs": [
        {
          "name": "_voter",
          "type": "address"
        }
      ],
      "name": "getVoteAddressCALength",
      "outputs": [
        {
          "name": "",
          "type": "uint256"
        }
      ],
      "payable": false,
      "stateMutability": "view",
      "type": "function"
    },
    {
      "constant": true,
      "inputs": [
        {
          "name": "_voter",
          "type": "address"
        }
      ],
      "name": "getVoteAddressMemberLength",
      "outputs": [
        {
          "name": "",
          "type": "uint256"
        }
      ],
      "payable": false,
      "stateMutability": "view",
      "type": "function"
    },
    {
      "constant": true,
      "inputs": [
        {
          "name": "_claimId",
          "type": "uint256"
        }
      ],
      "name": "getFinalVerdict",
      "outputs": [
        {
          "name": "verdict",
          "type": "int8"
        }
      ],
      "payable": false,
      "stateMutability": "view",
      "type": "function"
    },
    {
      "constant": true,
      "inputs": [],
      "name": "getLengthOfClaimSubmittedAtEP",
      "outputs": [
        {
          "name": "len",
          "type": "uint256"
        }
      ],
      "payable": false,
      "stateMutability": "view",
      "type": "function"
    },
    {
      "constant": true,
      "inputs": [],
      "name": "getFirstClaimIndexToSubmitAfterEP",
      "outputs": [
        {
          "name": "indexToSubmit",
          "type": "uint256"
        }
      ],
      "payable": false,
      "stateMutability": "view",
      "type": "function"
    },
    {
      "constant": true,
      "inputs": [],
      "name": "getLengthOfClaimVotingPause",
      "outputs": [
        {
          "name": "len",
          "type": "uint256"
        }
      ],
      "payable": false,
      "stateMutability": "view",
      "type": "function"
    },
    {
      "constant": true,
      "inputs": [
        {
          "name": "_index",
          "type": "uint256"
        }
      ],
      "name": "getPendingClaimDetailsByIndex",
      "outputs": [
        {
          "name": "claimId",
          "type": "uint256"
        },
        {
          "name": "pendingTime",
          "type": "uint256"
        },
        {
          "name": "voting",
          "type": "bool"
        }
      ],
      "payable": false,
      "stateMutability": "view",
      "type": "function"
    },
    {
      "constant": true,
      "inputs": [],
      "name": "getFirstClaimIndexToStartVotingAfterEP",
      "outputs": [
        {
          "name": "firstindex",
          "type": "uint256"
        }
      ],
      "payable": false,
      "stateMutability": "view",
      "type": "function"
    },
    {
      "constant": false,
      "inputs": [
        {
          "name": "code",
          "type": "bytes8"
        },
        {
          "name": "val",
          "type": "uint256"
        }
      ],
      "name": "updateUintParameters",
      "outputs": [],
      "payable": false,
      "stateMutability": "nonpayable",
      "type": "function"
    },
    {
      "constant": false,
      "inputs": [],
      "name": "changeDependentContractAddress",
      "outputs": [],
      "payable": false,
      "stateMutability": "nonpayable",
      "type": "function"
    }
  ],
  "bytecode": "0x60806040523480156200001157600080fd5b50600160188190556202a300601a5561a8c0601b5562015180601c556040805160a08101825260008082526020808301828152838501838152606085018481526080860185815260048054808b018255818852975197027f8a35acfbc15ff81a39ae7d344fd709f28e8600b4aa8c65c6b64bfe7fe36bd19b810180546001600160a01b03999099166001600160a01b03199099169890981790975592517f8a35acfbc15ff81a39ae7d344fd709f28e8600b4aa8c65c6b64bfe7fe36bd19c87015590517f8a35acfbc15ff81a39ae7d344fd709f28e8600b4aa8c65c6b64bfe7fe36bd19d860155517f8a35acfbc15ff81a39ae7d344fd709f28e8600b4aa8c65c6b64bfe7fe36bd19e9094018054915115156101000261ff001995850b60ff1660ff19909316929092179490941617909255825180840190935280835282820181815260038054958601815590915291516002939093027fc2575a0e9e593c00f959f8c92f12db2869c3395a3b0502d05e2516446f71f85b81019390935590517fc2575a0e9e593c00f959f8c92f12db2869c3395a3b0502d05e2516446f71f85c9092019190915562093a806019556014601d556005601e55600a601f55604681556203f480602155620001e990620001ef811b901c565b62000388565b620002026000806200031260201b60201c565b620002156000806200031260201b60201c565b620002286000806200031260201b60201c565b6200023b6000806200031260201b60201c565b6200024e6000806200031260201b60201c565b620002616000806200031260201b60201c565b62000275606460006200031260201b60201c565b62000289606460006200031260201b60201c565b6200029d600060646200031260201b60201c565b620002b1600060646200031260201b60201c565b620002c46000806200031260201b60201c565b620002d76000806200031260201b60201c565b620002ea6000806200031260201b60201c565b620002fd6000806200031260201b60201c565b620003106000806200031260201b60201c565b565b6040805180820190915291825260208201908152600280546001810182556000829052925192027f405787fa12a823e0f2b7631cc41b3ba8828b3321ca811111fa75cd3aa3bb5ace810192909255517f405787fa12a823e0f2b7631cc41b3ba8828b3321ca811111fa75cd3aa3bb5acf90910155565b61394f80620003986000396000f3fe608060405234801561001057600080fd5b50600436106104c25760003560e01c8063990dcb9011610278578063bc82d0891161015c578063e3d10ed8116100ce578063f2d16e2a11610092578063f2d16e2a1461102b578063f2eb3b6b14611057578063f4f4c6dd14611074578063f511bdfe14611131578063fc57c9bb14611154578063fd61265e14611180576104c2565b8063e3d10ed814610f98578063ee8dea6314610fca578063f0f7587a14610fd2578063f17a3bec14610ffe578063f27a104714611006576104c2565b8063c672724a11610120578063c672724a14610eba578063cfda120614610ee9578063d46655f414610f06578063d654c6bc14610f2c578063dbd0064c14610f49578063e0fd6e8214610f66576104c2565b8063bc82d08914610df3578063be7cbc5c14610e44578063c344ccc614610e70578063c46b77c214610e95578063c49a8b1914610e9d576104c2565b8063a8b395aa116101f5578063af3bd83f116101b9578063af3bd83f14610d60578063b18e594114610d68578063b2dd6f7914610d70578063b32c787914610d93578063bb67643a14610dbf578063bbd275ee14610dc7576104c2565b8063a8b395aa14610ccf578063a90a6e1114610cd7578063a924813614610cdf578063aad0ec7a14610cfc578063aee9274114610d34576104c2565b8063a0b2d57f1161023c578063a0b2d57f14610c1a578063a35d093a14610c3e578063a40d351814610c61578063a788c1ff14610c7e578063a7b1346f14610ca3576104c2565b8063990dcb9014610b0b578063999770ac14610b375780639bc5aa2314610b545780639dd86e0f14610b775780639e4d73ca14610ba4576104c2565b806354d0f8d8116103aa5780637c2af6ee1161031c578063923b0a81116102e0578063923b0a8114610a265780639449059214610a43578063949d9d7614610a6e5780639600d64714610a8b578063965bfafb14610ab157806396ff592f14610aee576104c2565b80637c2af6ee1461098d5780637eb7b2ee146109b057806385d49496146109db57806386d2b201146109e357806389b11cfe14610a1e576104c2565b80636122f8401161036e5780636122f840146108ba578063623c2bca146109055780636e3979e21461092b57806370e2630b146109755780637532b0911461097d57806379c80e7214610985576104c2565b806354d0f8d8146107d95780635aef2447146107f65780635ca1ce8b1461084b5780635d2462e4146108715780635f39579d1461089d576104c2565b80633852a2ec11610443578063436f1fc511610407578063436f1fc51461071657806346f4da571461071e5780634e06c014146107445780634fa6b27214610761578063542753241461076957806354a1b4311461078f576104c2565b80633852a2ec146106355780633aee2f7c1461063d5780633cc17a541461069e5780633fce4328146106ca57806340676a51146106f0576104c2565b806321fffaea1161048a57806321fffaea14610564578063274d865f146105a957806334f19e2c146105cf57806337bc7f90146105f557806337c8266d1461062d576104c2565b80630325ea37146104c757806304ecffeb146104fd57806309ed2a4b146105235780630ea9c9841461053d5780631cc464fe14610547575b600080fd5b6104e4600480360360208110156104dd57600080fd5b50356111cd565b6040805192835260208301919091528051918290030190f35b6104e46004803603602081101561051357600080fd5b50356001600160a01b03166111e4565b61052b611207565b60408051918252519081900360200190f35b61054561120d565b005b61052b6004803603602081101561055d57600080fd5b5035611292565b6105906004803603606081101561057a57600080fd5b508035906020810135906040013560ff166112a4565b60408051600092830b90920b8252519081900360200190f35b61052b600480360360208110156105bf57600080fd5b50356001600160a01b0316611353565b61052b600480360360208110156105e557600080fd5b50356001600160a01b031661136e565b6105456004803603608081101561060b57600080fd5b508035906001600160a01b036020820135169060408101359060600135611389565b61052b61145c565b61052b611462565b6106696004803603604081101561065357600080fd5b50803590602001356001600160a01b0316611468565b604080519586526020860194909452600092830b830b8585015290820b90910b60608401526080830152519081900360a00190f35b610545600480360360408110156106b457600080fd5b506001600160a01b0381351690602001356115c1565b61052b600480360360208110156106e057600080fd5b50356001600160a01b0316611663565b61052b6004803603602081101561070657600080fd5b50356001600160a01b0316611675565b61052b611690565b6105456004803603604081101561073457600080fd5b508035906020013560000b611696565b6105906004803603602081101561075a57600080fd5b503561173b565b61052b61174f565b6104e46004803603604081101561077f57600080fd5b508035906020013560000b611755565b6107ac600480360360208110156107a557600080fd5b5035611830565b604080519485526020850193909352600091820b90910b8383015215156060830152519081900360800190f35b61052b600480360360208110156107ef57600080fd5b50356118d1565b6108136004803603602081101561080c57600080fd5b50356118f9565b604080519687526020870195909552600093840b90930b858501526060850191909152608084015260a0830152519081900360c00190f35b6104e46004803603604081101561086157600080fd5b508035906020013560000b611985565b61052b6004803603606081101561088757600080fd5b508035906020810135906040013560ff16611a22565b6104e4600480360360208110156108b357600080fd5b5035611aca565b6108e1600480360360208110156108d057600080fd5b50356001600160c01b031916611b14565b604080516001600160c01b0319909316835260208301919091528051918290030190f35b6105456004803603602081101561091b57600080fd5b50356001600160a01b0316611ca8565b6109576004803603604081101561094157600080fd5b50803590602001356001600160a01b0316611d47565b60408051938452602084019290925282820152519081900360600190f35b61052b611dba565b61052b611dd6565b61052b611ddc565b610545600480360360408110156109a357600080fd5b5080359060200135611de2565b610545600480360360608110156109c657600080fd5b50803590602081013590604001351515611e8c565b61052b611fc4565b610545600480360360808110156109f957600080fd5b506001600160a01b03813516906020810135906040810135906060013560000b611fdd565b61052b61217b565b6104e460048036036020811015610a3c57600080fd5b5035612181565b61054560048036036060811015610a5957600080fd5b508035906020810135906040013515156121cd565b61095760048036036020811015610a8457600080fd5b5035612305565b6104e460048036036040811015610aa157600080fd5b508035906020013560ff16612322565b610ace60048036036020811015610ac757600080fd5b503561235e565b604080519384526020840192909252151582820152519081900360600190f35b6104e460048036036020811015610b0457600080fd5b50356123d4565b61052b60048036036040811015610b2157600080fd5b506001600160a01b038135169060200135612400565b6104e460048036036020811015610b4d57600080fd5b5035612428565b61054560048036036040811015610b6a57600080fd5b508035906020013561246e565b61054560048036036040811015610b8d57600080fd5b506001600160c01b03198135169060200135612526565b610bca60048036036020811015610bba57600080fd5b50356001600160a01b0316612783565b60408051602080825283518183015283519192839290830191858101910280838360005b83811015610c06578181015183820152602001610bee565b505050509050019250505060405180910390f35b610c226127ef565b604080516001600160a01b039092168252519081900360200190f35b61054560048036036040811015610c5457600080fd5b50803590602001356127fe565b610ace60048036036020811015610c7757600080fd5b50356128a4565b61054560048036036040811015610c9457600080fd5b508035906020013515156128f8565b6104e460048036036040811015610cb957600080fd5b506001600160a01b0381351690602001356129af565b61052b612a01565b61052b612a07565b61054560048036036020811015610cf557600080fd5b5035612a0d565b61054560048036036080811015610d1257600080fd5b508035906020810135906001600160a01b036040820135169060600135612a95565b61052b60048036036040811015610d4a57600080fd5b506001600160a01b038135169060200135612bb4565b61052b612bdc565b61052b612be2565b61054560048036036040811015610d8657600080fd5b5080359060200135612be8565b610c2260048036036060811015610da957600080fd5b508035906020810135906040013560ff16612c8e565b61052b612d45565b61054560048036036060811015610ddd57600080fd5b50803590602081013560000b9060400135612d4b565b610545600480360360c0811015610e0957600080fd5b506001600160a01b03813516906020810135906001600160e01b03196040820135169060608101359060808101359060a0013560000b612e50565b61054560048036036040811015610e5a57600080fd5b506001600160a01b038135169060200135612f3a565b61054560048036036040811015610e8657600080fd5b50803590602001351515612fd9565b61052b61306a565b61095760048036036020811015610eb357600080fd5b5035613070565b61054560048036036080811015610ed057600080fd5b508035906020810135906040810135906060013561308f565b61054560048036036020811015610eff57600080fd5b503561312f565b61054560048036036020811015610f1c57600080fd5b50356001600160a01b03166131c6565b610c2260048036036020811015610f4257600080fd5b5035613255565b61095760048036036020811015610f5f57600080fd5b5035613284565b61054560048036036060811015610f7c57600080fd5b506001600160a01b0381351690602081013590604001356132a1565b61054560048036036060811015610fae57600080fd5b506001600160a01b038135169060208101359060400135613367565b61052b61342d565b61054560048036036060811015610fe857600080fd5b50803590602081013560000b9060400135613433565b610c22613537565b6105456004803603604081101561101c57600080fd5b50803590602001351515613546565b61052b6004803603604081101561104157600080fd5b506001600160a01b038135169060200135613603565b6105456004803603602081101561106d57600080fd5b503561363a565b6110916004803603602081101561108a57600080fd5b50356136c2565b604051808481526020018060200180602001838103835285818151815260200191508051906020019060200280838360005b838110156110db5781810151838201526020016110c3565b50505050905001838103825284818151815260200191508051906020019060200280838360005b8381101561111a578181015183820152602001611102565b505050509050019550505050505060405180910390f35b6105456004803603604081101561114757600080fd5b508035906020013561378e565b61052b6004803603604081101561116a57600080fd5b506001600160a01b038135169060200135613823565b61119d6004803603602081101561119657600080fd5b5035613847565b60408051958652600094850b90940b60208601528484019290925260608401526080830152519081900360a00190f35b6000818152600c602052604090205481905b915091565b6001600160a01b0316600090815260076020526040902080546001909101549091565b601e5481565b60005460408051600160e21b6323c5b10702815233600482015290516001600160a01b0390921691638f16c41c91602480820192602092909190829003018186803b15801561125b57600080fd5b505afa15801561126f573d6000803e3d6000fd5b505050506040513d602081101561128557600080fd5b505161129057600080fd5b565b6000908152600d602052604090205490565b60008160ff1660011415611301576000848152600e60205260409020805460049190859081106112d057fe5b9060005260206000200154815481106112e557fe5b60009182526020822060036004909202010154900b905061134c565b6000848152600f602052604090208054600491908590811061131f57fe5b90600052602060002001548154811061133457fe5b60009182526020822060036004909202010154900b90505b9392505050565b6001600160a01b031660009081526011602052604090205490565b6001600160a01b031660009081526010602052604090205490565b60005460408051600160e21b6323c5b10702815233600482015290516001600160a01b0390921691638f16c41c91602480820192602092909190829003018186803b1580156113d757600080fd5b505afa1580156113eb573d6000803e3d6000fd5b505050506040513d602081101561140157600080fd5b505161140c57600080fd5b826001600160a01b0316847f040b2cc991821ffe51dd33e7f7a2d0e6f64d2ad487cdabbf9e8c1805a93028c48484604051808381526020018281526020019250505060405180910390a350505050565b60205481565b601a5481565b600080600080600080611486886018546138cf90919063ffffffff16565b90506003818154811061149557fe5b600091825260208083206002909202909101546001600160a01b038a168352601382526040808420858552909252912054909650909450849015611522576001600160a01b038716600090815260136020908152604080832084845290915290205460048054909190811061150657fe5b60009182526020822060036004909202010154900b9350611527565b600093505b6001600160a01b03871660009081526014602090815260408083208484529091529020541561159f576001600160a01b038716600090815260146020908152604080832084845290915290205460048054909190811061158357fe5b60009182526020822060036004909202010154900b92506115a4565b600092505b6000908152600c6020526040902054949793965091945092919050565b60005460408051600160e21b6323c5b10702815233600482015290516001600160a01b0390921691638f16c41c91602480820192602092909190829003018186803b15801561160f57600080fd5b505afa158015611623573d6000803e3d6000fd5b505050506040513d602081101561163957600080fd5b505161164457600080fd5b6001600160a01b03909116600090815260076020526040902060010155565b60156020526000908152604090205481565b6001600160a01b031660009081526012602052604090205490565b601f5481565b60005460408051600160e21b6323c5b10702815233600482015290516001600160a01b0390921691638f16c41c91602480820192602092909190829003018186803b1580156116e457600080fd5b505afa1580156116f8573d6000803e3d6000fd5b505050506040513d602081101561170e57600080fd5b505161171957600080fd5b6000918252600b6020526040822080549190920b60ff1660ff19909116179055565b6000908152600b6020526040812054900b90565b60185481565b816000805b6000858152600e6020526040902054811015611828578360000b6004600e6000888152602001908152602001600020838154811061179457fe5b9060005260206000200154815481106117a957fe5b60009182526020822060036004909202010154810b900b1415611820576000858152600e60205260409020805461181d91600491849081106117e757fe5b9060005260206000200154815481106117fc57fe5b906000526020600020906004020160010154836138cf90919063ffffffff16565b91505b60010161175a565b509250929050565b6000806000806004858154811061184357fe5b9060005260206000209060040201600101546004868154811061186257fe5b9060005260206000209060040201600201546004878154811061188157fe5b600091825260208220600491820201600301548154920b91899081106118a357fe5b906000526020600020906004020160030160019054906101000a900460ff1693509350935093509193509193565b6000600382815481106118e057fe5b9060005260206000209060020201600101549050919050565b600080600080600080866003888154811061191057fe5b600091825260208083206002909202909101548a8352600b8252604080842054600c9093528320546003805492949390930b9290918c90811061194f57fe5b60009182526020808320600160029093020191909101549c8252600d90526040902054939b929a91995097509550909350915050565b816000805b6000858152600f6020526040902054811015611828578360000b6004600f600088815260200190815260200160002083815481106119c457fe5b9060005260206000200154815481106119d957fe5b60009182526020822060036004909202010154810b900b1415611a1a576000858152600f602052604090208054611a1791600491849081106117e757fe5b91505b60010161198a565b60008160ff1660011415611a7c576000848152600e6020526040902080546004919085908110611a4e57fe5b906000526020600020015481548110611a6357fe5b906000526020600020906004020160010154905061134c565b6000848152600f6020526040902080546004919085908110611a9a57fe5b906000526020600020015481548110611aaf57fe5b90600052602060002090600402016001015490509392505050565b60008060028381548110611ada57fe5b90600052602060002090600202016000015460028481548110611af957fe5b90600052602060002090600202016001015491509150915091565b806000600160ca1b6610d05350561595026001600160c01b031983161415611b4b57610e10601a5481611b4357fe5b0490506111df565b600160ca1b6610d05352539595026001600160c01b031984161415611b7757610e10601b5481611b4357fe5b600160c01b674341505245545259026001600160c01b031984161415611ba457610e10601c5481611b4357fe5b600160d21b6510d051115415026001600160c01b031984161415611bd0576201518060195481611b4357fe5b600160c11b6721a0a922aba822a9026001600160c01b031984161415611bf95750601d546111df565b600160cb1b66086829a929ca89026001600160c01b031984161415611c215750601e546111df565b600160cb1b66086829a82b0a89026001600160c01b031984161415611c495750601f546111df565b600160c11b6721a0a1a7a72822a9026001600160c01b031984161415611c7257506020546111df565b600160c21b6710d054105554d155026001600160c01b0319841614156111df576201518060215481611ca057fe5b049050915091565b60005460408051600160e11b632c1a733d02815233600482015290516001600160a01b0390921691635834e67a91602480820192602092909190829003018186803b158015611cf657600080fd5b505afa158015611d0a573d6000803e3d6000fd5b505050506040513d6020811015611d2057600080fd5b5051611d2b57600080fd5b6001600160a01b03166000908152601560205260409020429055565b6001600160a01b038116600090815260126020526040812080548291829186908110611d6f57fe5b90600052602060002001549050600c600082815260200190815260200160002054925060038181548110611d9f57fe5b90600052602060002090600202016000015491509250925092565b600454600090611dd190600163ffffffff6138e116565b905090565b60055490565b601b5481565b60005460408051600160e21b6323c5b10702815233600482015290516001600160a01b0390921691638f16c41c91602480820192602092909190829003018186803b158015611e3057600080fd5b505afa158015611e44573d6000803e3d6000fd5b505050506040513d6020811015611e5a57600080fd5b5051611e6557600080fd5b8060038381548110611e7357fe5b9060005260206000209060020201600101819055505050565b60005460408051600160e21b6323c5b10702815233600482015290516001600160a01b0390921691638f16c41c91602480820192602092909190829003018186803b158015611eda57600080fd5b505afa158015611eee573d6000803e3d6000fd5b505050506040513d6020811015611f0457600080fd5b5051611f0f57600080fd5b60408051606081018252938452602084019283529015159083019081526006805460018101825560009190915292517ff652222313e28459528d920b65115c16c04f3efc82aaedc97be59f3f377c0d3f60039094029384015590517ff652222313e28459528d920b65115c16c04f3efc82aaedc97be59f3f377c0d40830155517ff652222313e28459528d920b65115c16c04f3efc82aaedc97be59f3f377c0d41909101805460ff1916911515919091179055565b601854600354600091611dd1919063ffffffff6138e116565b60005460408051600160e21b6323c5b10702815233600482015290516001600160a01b0390921691638f16c41c91602480820192602092909190829003018186803b15801561202b57600080fd5b505afa15801561203f573d6000803e3d6000fd5b505050506040513d602081101561205557600080fd5b505161206057600080fd5b6040805160a0810182526001600160a01b03958616815260208101948552908101928352600091820b606082019081526080820183815260048054600181018255818652935193027f8a35acfbc15ff81a39ae7d344fd709f28e8600b4aa8c65c6b64bfe7fe36bd19b81018054949098166001600160a01b03199094169390931790965593517f8a35acfbc15ff81a39ae7d344fd709f28e8600b4aa8c65c6b64bfe7fe36bd19c82015591517f8a35acfbc15ff81a39ae7d344fd709f28e8600b4aa8c65c6b64bfe7fe36bd19d83015591517f8a35acfbc15ff81a39ae7d344fd709f28e8600b4aa8c65c6b64bfe7fe36bd19e9091018054935115156101000261ff00199290930b60ff1660ff199094169390931716179055565b60065490565b806000805b6000848152600f60205260409020548110156121c7576000848152600f6020526040902080546121bd91600491849081106117e757fe5b9150600101612186565b50915091565b60005460408051600160e21b6323c5b10702815233600482015290516001600160a01b0390921691638f16c41c91602480820192602092909190829003018186803b15801561221b57600080fd5b505afa15801561222f573d6000803e3d6000fd5b505050506040513d602081101561224557600080fd5b505161225057600080fd5b60408051606081018252938452602084019283529015159083019081526005805460018101825560009190915292517f036b6384b5eca791c62761152d0c79bb0604c104a5fb6f4eb0703f3154bb3db060039094029384015590517f036b6384b5eca791c62761152d0c79bb0604c104a5fb6f4eb0703f3154bb3db1830155517f036b6384b5eca791c62761152d0c79bb0604c104a5fb6f4eb0703f3154bb3db2909101805460ff1916911515919091179055565b6000818152600a6020526040902080546001909101549192909190565b816000600160ff8416141561234657506000838152600e6020526040902054612357565b506000838152600f60205260409020545b9250929050565b60008060006005848154811061237057fe5b90600052602060002090600302016000015492506005848154811061239157fe5b9060005260206000209060030201600101549150600584815481106123b257fe5b600091825260209091206002600390920201015492949193505060ff90911690565b60008082600384815481106123e557fe5b90600052602060002090600202016000015491509150915091565b6001600160a01b03919091166000908152601360209081526040808320938352929052205490565b806000805b6000848152600e60205260409020548110156121c7576000848152600e60205260409020805461246491600491849081106117e757fe5b915060010161242d565b60005460408051600160e21b6323c5b10702815233600482015290516001600160a01b0390921691638f16c41c91602480820192602092909190829003018186803b1580156124bc57600080fd5b505afa1580156124d0573d6000803e3d6000fd5b505050506040513d60208110156124e657600080fd5b50516124f157600080fd5b6000828152600d6020526040902054612510908263ffffffff6138cf16565b6000928352600d60205260409092209190915550565b60005460408051600160e11b632c1a733d02815233600482015290516001600160a01b0390921691635834e67a91602480820192602092909190829003018186803b15801561257457600080fd5b505afa158015612588573d6000803e3d6000fd5b505050506040513d602081101561259e57600080fd5b50516125a957600080fd5b600160ca1b6610d05350561595026001600160c01b0319831614156125da576125d581610e10026138f6565b61277f565b600160ca1b6610d05352539595026001600160c01b031983161415612606576125d581610e10026138fb565b600160c01b674341505245545259026001600160c01b031983161415612633576125d581610e1002613900565b600160d21b6510d051115415026001600160c01b03198316141561265f576125d5816201518002613905565b600160c11b6721a0a922aba822a9026001600160c01b031983161415612688576125d58161390a565b600160cb1b66086829a929ca89026001600160c01b0319831614156126b0576125d58161390f565b600160cb1b66086829a82b0a89026001600160c01b0319831614156126d8576125d581613914565b600160c11b6721a0a1a7a72822a9026001600160c01b031983161415612701576125d581613919565b600160c21b6710d054105554d155026001600160c01b03198316141561272f576125d581620151800261391e565b60408051600160e51b62461bcd02815260206004820152601260248201527f496e76616c696420706172616d20636f64650000000000000000000000000000604482015290519081900360640190fd5b5050565b6001600160a01b0381166000908152601260209081526040918290208054835181840281018401909452808452606093928301828280156127e357602002820191906000526020600020905b8154815260200190600101908083116127cf575b50505050509050919050565b6000546001600160a01b031681565b60005460408051600160e21b6323c5b10702815233600482015290516001600160a01b0390921691638f16c41c91602480820192602092909190829003018186803b15801561284c57600080fd5b505afa158015612860573d6000803e3d6000fd5b505050506040513d602081101561287657600080fd5b505161288157600080fd5b6000918252600e6020908152604083208054600181018255908452922090910155565b6000806000600684815481106128b657fe5b9060005260206000209060030201600001549250600684815481106128d757fe5b9060005260206000209060030201600101549150600684815481106123b257fe5b60005460408051600160e21b6323c5b10702815233600482015290516001600160a01b0390921691638f16c41c91602480820192602092909190829003018186803b15801561294657600080fd5b505afa15801561295a573d6000803e3d6000fd5b505050506040513d602081101561297057600080fd5b505161297b57600080fd5b806006838154811061298957fe5b60009182526020909120600390910201600201805460ff19169115159190911790555050565b6001600160a01b038216600090815260136020908152604080832084845290915281205460048054839285929181106129e457fe5b906000526020600020906004020160010154915091509250929050565b601d5481565b60195481565b60005460408051600160e21b6323c5b10702815233600482015290516001600160a01b0390921691638f16c41c91602480820192602092909190829003018186803b158015612a5b57600080fd5b505afa158015612a6f573d6000803e3d6000fd5b505050506040513d6020811015612a8557600080fd5b5051612a9057600080fd5b601655565b60005460408051600160e21b6323c5b10702815233600482015290516001600160a01b0390921691638f16c41c91602480820192602092909190829003018186803b158015612ae357600080fd5b505afa158015612af7573d6000803e3d6000fd5b505050506040513d6020811015612b0d57600080fd5b5051612b1857600080fd5b60408051808201825293845260208085019283526003805460018082018355600092835296517fc2575a0e9e593c00f959f8c92f12db2869c3395a3b0502d05e2516446f71f85b60029092029182015593517fc2575a0e9e593c00f959f8c92f12db2869c3395a3b0502d05e2516446f71f85c909401939093556001600160a01b03939093168252601283528120805493840181558152200155565b6001600160a01b03919091166000908152601460209081526040808320938352929052205490565b60165490565b60175490565b60005460408051600160e21b6323c5b10702815233600482015290516001600160a01b0390921691638f16c41c91602480820192602092909190829003018186803b158015612c3657600080fd5b505afa158015612c4a573d6000803e3d6000fd5b505050506040513d6020811015612c6057600080fd5b5051612c6b57600080fd5b6000918252600f6020908152604083208054600181018255908452922090910155565b60008160ff1660011415612cf0576000848152600e6020526040902080546004919085908110612cba57fe5b906000526020600020015481548110612ccf57fe5b60009182526020909120600490910201546001600160a01b0316905061134c565b6000848152600f6020526040902080546004919085908110612d0e57fe5b906000526020600020015481548110612d2357fe5b60009182526020909120600490910201546001600160a01b0316949350505050565b60215481565b60005460408051600160e21b6323c5b10702815233600482015290516001600160a01b0390921691638f16c41c91602480820192602092909190829003018186803b158015612d9957600080fd5b505afa158015612dad573d6000803e3d6000fd5b505050506040513d6020811015612dc357600080fd5b5051612dce57600080fd5b8160000b60011415612e09576000838152600a6020526040902054612df9908263ffffffff6138cf16565b6000848152600a60205260409020555b8160000b6000191415612e4b576000838152600a6020526040902060010154612e38908263ffffffff6138cf16565b6000848152600a60205260409020600101555b505050565b60005460408051600160e21b6323c5b10702815233600482015290516001600160a01b0390921691638f16c41c91602480820192602092909190829003018186803b158015612e9e57600080fd5b505afa158015612eb2573d6000803e3d6000fd5b505050506040513d6020811015612ec857600080fd5b5051612ed357600080fd5b6040805184815260208101849052600083810b900b8183015290516001600160e01b031986169187916001600160a01b038a16917fccc99158fb6c7b960e4d6e873692c8e8f8785c44da681aad285f3251940840d9919081900360600190a4505050505050565b60005460408051600160e21b6323c5b10702815233600482015290516001600160a01b0390921691638f16c41c91602480820192602092909190829003018186803b158015612f8857600080fd5b505afa158015612f9c573d6000803e3d6000fd5b505050506040513d6020811015612fb257600080fd5b5051612fbd57600080fd5b6001600160a01b03909116600090815260076020526040902055565b60005460408051600160e21b6323c5b10702815233600482015290516001600160a01b0390921691638f16c41c91602480820192602092909190829003018186803b15801561302757600080fd5b505afa15801561303b573d6000803e3d6000fd5b505050506040513d602081101561305157600080fd5b505161305c57600080fd5b806005838154811061298957fe5b60035490565b6000908152600860205260409020805460018201546002909201549092565b60005460408051600160e21b6323c5b10702815233600482015290516001600160a01b0390921691638f16c41c91602480820192602092909190829003018186803b1580156130dd57600080fd5b505afa1580156130f1573d6000803e3d6000fd5b505050506040513d602081101561310757600080fd5b505161311257600080fd5b600093845260086020526040909320918255600182015560020155565b60005460408051600160e21b6323c5b10702815233600482015290516001600160a01b0390921691638f16c41c91602480820192602092909190829003018186803b15801561317d57600080fd5b505afa158015613191573d6000803e3d6000fd5b505050506040513d60208110156131a757600080fd5b50516131b257600080fd5b8060185411156131c157600080fd5b601855565b6000546001600160a01b031615613229576000546001600160a01b031633146132295760408051600160e51b62461bcd02815260206004820152600a6024820152600160b11b692737ba1036b0b9ba32b902604482015290519081900360640190fd5b600080546001600160a01b039092166001600160a01b0319928316811790915560018054909216179055565b60006004828154811061326457fe5b60009182526020909120600490910201546001600160a01b031692915050565b600081815260096020526040902080546001909101549192909190565b60005460408051600160e21b6323c5b10702815233600482015290516001600160a01b0390921691638f16c41c91602480820192602092909190829003018186803b1580156132ef57600080fd5b505afa158015613303573d6000803e3d6000fd5b505050506040513d602081101561331957600080fd5b505161332457600080fd5b6001600160a01b03909216600081815260136020908152604080832094835293815283822085905591815260108252918220805460018101825590835291200155565b60005460408051600160e21b6323c5b10702815233600482015290516001600160a01b0390921691638f16c41c91602480820192602092909190829003018186803b1580156133b557600080fd5b505afa1580156133c9573d6000803e3d6000fd5b505050506040513d60208110156133df57600080fd5b50516133ea57600080fd5b6001600160a01b03909216600081815260146020908152604080832094835293815283822085905591815260118252918220805460018101825590835291200155565b601c5481565b60005460408051600160e21b6323c5b10702815233600482015290516001600160a01b0390921691638f16c41c91602480820192602092909190829003018186803b15801561348157600080fd5b505afa158015613495573d6000803e3d6000fd5b505050506040513d60208110156134ab57600080fd5b50516134b657600080fd5b8160000b600114156134f1576000838152600960205260409020546134e1908263ffffffff6138cf16565b6000848152600960205260409020555b8160000b6000191415612e4b57600083815260096020526040902060010154613520908263ffffffff6138cf16565b600084815260096020526040902060010155505050565b6001546001600160a01b031681565b60005460408051600160e21b6323c5b10702815233600482015290516001600160a01b0390921691638f16c41c91602480820192602092909190829003018186803b15801561359457600080fd5b505afa1580156135a8573d6000803e3d6000fd5b505050506040513d60208110156135be57600080fd5b50516135c957600080fd5b80600483815481106135d757fe5b906000526020600020906004020160030160016101000a81548160ff0219169083151502179055505050565b6001600160a01b038216600090815260116020526040812080548390811061362757fe5b9060005260206000200154905092915050565b60005460408051600160e21b6323c5b10702815233600482015290516001600160a01b0390921691638f16c41c91602480820192602092909190829003018186803b15801561368857600080fd5b505afa15801561369c573d6000803e3d6000fd5b505050506040513d60208110156136b257600080fd5b50516136bd57600080fd5b601755565b6000818152600e60209081526040808320600f83528184208154835181860281018601909452808452606094859488949392909184919083018282801561372857602002820191906000526020600020905b815481526020019060010190808311613714575b505050505091508080548060200260200160405190810160405280929190818152602001828054801561377a57602002820191906000526020600020905b815481526020019060010190808311613766575b505050505090509250925092509193909250565b60005460408051600160e21b6323c5b10702815233600482015290516001600160a01b0390921691638f16c41c91602480820192602092909190829003018186803b1580156137dc57600080fd5b505afa1580156137f0573d6000803e3d6000fd5b505050506040513d602081101561380657600080fd5b505161381157600080fd5b6000918252600c602052604090912055565b6001600160a01b038216600090815260106020526040812080548390811061362757fe5b60008060008060006003868154811061385c57fe5b60009182526020808320600290920290910154888352600b8252604080842054600c9093528320546003805492949390930b9290918a90811061389b57fe5b60009182526020808320600160029093020191909101549a8252600d90526040902054929991989097509550909350915050565b60008282018381101561134c57600080fd5b6000828211156138f057600080fd5b50900390565b601a55565b601b55565b601c55565b601955565b601d55565b601e55565b601f55565b602055565b60215556fea165627a7a72305820d1e2b3c80ec2c814bd97664278233a3f5a728144136eac27373787f4d94e0cac0029",
  "source": "/* Copyright (C) 2017 NexusMutual.io\n\n  This program is free software: you can redistribute it and/or modify\n    it under the terms of the GNU General Public License as published by\n    the Free Software Foundation, either version 3 of the License, or\n    (at your option) any later version.\n\n  This program is distributed in the hope that it will be useful,\n    but WITHOUT ANY WARRANTY; without even the implied warranty of\n    MERCHANTABILITY or FITNESS FOR A PARTICULAR PURPOSE.  See the\n    GNU General Public License for more details.\n\n  You should have received a copy of the GNU General Public License\n    along with this program.  If not, see http://www.gnu.org/licenses/ */\n\npragma solidity 0.5.7;\n\nimport \"./Iupgradable.sol\";\nimport \"./external/openzeppelin-solidity/math/SafeMath.sol\";\n\n\ncontract ClaimsData is Iupgradable {\n    using SafeMath for uint;\n\n    struct Claim {\n        uint coverId;\n        uint dateUpd;\n    }\n\n    struct Vote {\n        address voter;\n        uint tokens;\n        uint claimId;\n        int8 verdict;\n        bool rewardClaimed;\n    }\n\n    struct ClaimsPause {\n        uint coverid;\n        uint dateUpd;\n        bool submit;\n    }\n\n    struct ClaimPauseVoting {\n        uint claimid;\n        uint pendingTime;\n        bool voting;\n    }\n\n    struct RewardDistributed {\n        uint lastCAvoteIndex;\n        uint lastMVvoteIndex;\n\n    }\n\n    struct ClaimRewardDetails {\n        uint percCA;\n        uint percMV;\n        uint tokenToBeDist;\n\n    }\n\n    struct ClaimTotalTokens {\n        uint accept;\n        uint deny;\n    }\n\n    struct ClaimRewardStatus {\n        uint percCA;\n        uint percMV;\n    }\n\n    ClaimRewardStatus[] internal rewardStatus;\n\n    Claim[] internal allClaims;\n    Vote[] internal allvotes;\n    ClaimsPause[] internal claimPause;\n    ClaimPauseVoting[] internal claimPauseVotingEP;\n\n    mapping(address => RewardDistributed) internal voterVoteRewardReceived;\n    mapping(uint => ClaimRewardDetails) internal claimRewardDetail;\n    mapping(uint => ClaimTotalTokens) internal claimTokensCA;\n    mapping(uint => ClaimTotalTokens) internal claimTokensMV;\n    mapping(uint => int8) internal claimVote;\n    mapping(uint => uint) internal claimsStatus;\n    mapping(uint => uint) internal claimState12Count;\n    mapping(uint => uint[]) internal claimVoteCA;\n    mapping(uint => uint[]) internal claimVoteMember;\n    mapping(address => uint[]) internal voteAddressCA;\n    mapping(address => uint[]) internal voteAddressMember;\n    mapping(address => uint[]) internal allClaimsByAddress;\n    mapping(address => mapping(uint => uint)) internal userClaimVoteCA;\n    mapping(address => mapping(uint => uint)) internal userClaimVoteMember;\n    mapping(address => uint) public userClaimVotePausedOn;\n\n    uint internal claimPauseLastsubmit;\n    uint internal claimStartVotingFirstIndex;\n    uint public pendingClaimStart;\n    uint public claimDepositTime;\n    uint public maxVotingTime;\n    uint public minVotingTime;\n    uint public payoutRetryTime;\n    uint public claimRewardPerc;\n    uint public minVoteThreshold;\n    uint public maxVoteThreshold;\n    uint public majorityConsensus;\n    uint public pauseDaysCA;\n   \n    event ClaimRaise(\n        uint indexed coverId,\n        address indexed userAddress,\n        uint claimId,\n        uint dateSubmit\n    );\n\n    event VoteCast(\n        address indexed userAddress,\n        uint indexed claimId,\n        bytes4 indexed typeOf,\n        uint tokens,\n        uint submitDate,\n        int8 verdict\n    );\n\n    constructor() public {\n        pendingClaimStart = 1;\n        maxVotingTime = 48 * 1 hours;\n        minVotingTime = 12 * 1 hours;\n        payoutRetryTime = 24 * 1 hours;\n        allvotes.push(Vote(address(0), 0, 0, 0, false));\n        allClaims.push(Claim(0, 0));\n        claimDepositTime = 7 days;\n        claimRewardPerc = 20;\n        minVoteThreshold = 5;\n        maxVoteThreshold = 10;\n        majorityConsensus = 70;\n        pauseDaysCA = 3 days;\n        _addRewardIncentive();\n    }\n\n    /**\n     * @dev Updates the pending claim start variable, \n     * the lowest claim id with a pending decision/payout.\n     */ \n    function setpendingClaimStart(uint _start) external onlyInternal {\n        require(pendingClaimStart <= _start);\n        pendingClaimStart = _start;\n    }\n\n    /** \n     * @dev Updates the max vote index for which claim assessor has received reward \n     * @param _voter address of the voter.\n     * @param caIndex last index till which reward was distributed for CA\n     */ \n    function setRewardDistributedIndexCA(address _voter, uint caIndex) external onlyInternal {\n        voterVoteRewardReceived[_voter].lastCAvoteIndex = caIndex;\n\n    }\n\n    /** \n     * @dev Used to pause claim assessor activity for 3 days \n     * @param user Member address whose claim voting ability needs to be paused\n     */ \n    function setUserClaimVotePausedOn(address user) external {\n        require(ms.checkIsAuthToGoverned(msg.sender));\n        userClaimVotePausedOn[user] = now;\n    }\n\n    /**\n     * @dev Updates the max vote index for which member has received reward \n     * @param _voter address of the voter.\n     * @param mvIndex last index till which reward was distributed for member \n     */ \n    function setRewardDistributedIndexMV(address _voter, uint mvIndex) external onlyInternal {\n\n        voterVoteRewardReceived[_voter].lastMVvoteIndex = mvIndex;\n    }\n\n    /**\n     * @param claimid claim id.\n     * @param percCA reward Percentage reward for claim assessor\n     * @param percMV reward Percentage reward for members\n     * @param tokens total tokens to be rewarded\n     */ \n    function setClaimRewardDetail(\n        uint claimid,\n        uint percCA,\n        uint percMV,\n        uint tokens\n    )\n        external\n        onlyInternal\n    {\n        claimRewardDetail[claimid].percCA = percCA;\n        claimRewardDetail[claimid].percMV = percMV;\n        claimRewardDetail[claimid].tokenToBeDist = tokens;\n    }\n\n    /**\n     * @dev Sets the reward claim status against a vote id.\n     * @param _voteid vote Id.\n     * @param claimed true if reward for vote is claimed, else false.\n     */ \n    function setRewardClaimed(uint _voteid, bool claimed) external onlyInternal {\n        allvotes[_voteid].rewardClaimed = claimed;\n    }\n\n    /**\n     * @dev Sets the final vote's result(either accepted or declined)of a claim.\n     * @param _claimId Claim Id.\n     * @param _verdict 1 if claim is accepted,-1 if declined.\n     */ \n    function changeFinalVerdict(uint _claimId, int8 _verdict) external onlyInternal {\n        claimVote[_claimId] = _verdict;\n    }\n    \n    /**\n     * @dev Creates a new claim.\n     */ \n    function addClaim(\n        uint _claimId,\n        uint _coverId,\n        address _from,\n        uint _nowtime\n    )\n        external\n        onlyInternal\n    {\n        allClaims.push(Claim(_coverId, _nowtime));\n        allClaimsByAddress[_from].push(_claimId);\n    }\n\n    /**\n     * @dev Add Vote's details of a given claim.\n     */ \n    function addVote(\n        address _voter,\n        uint _tokens,\n        uint claimId,\n        int8 _verdict\n    ) \n        external\n        onlyInternal\n    {\n        allvotes.push(Vote(_voter, _tokens, claimId, _verdict, false));\n    }\n\n    /** \n     * @dev Stores the id of the claim assessor vote given to a claim.\n     * Maintains record of all votes given by all the CA to a claim.\n     * @param _claimId Claim Id to which vote has given by the CA.\n     * @param _voteid Vote Id.\n     */\n    function addClaimVoteCA(uint _claimId, uint _voteid) external onlyInternal {\n        claimVoteCA[_claimId].push(_voteid);\n    }\n\n    /** \n     * @dev Sets the id of the vote.\n     * @param _from Claim assessor's address who has given the vote.\n     * @param _claimId Claim Id for which vote has been given by the CA.\n     * @param _voteid Vote Id which will be stored against the given _from and claimid.\n     */ \n    function setUserClaimVoteCA(\n        address _from,\n        uint _claimId,\n        uint _voteid\n    )\n        external\n        onlyInternal\n    {\n        userClaimVoteCA[_from][_claimId] = _voteid;\n        voteAddressCA[_from].push(_voteid);\n    }\n\n    /**\n     * @dev Stores the tokens locked by the Claim Assessors during voting of a given claim.\n     * @param _claimId Claim Id.\n     * @param _vote 1 for accept and increases the tokens of claim as accept,\n     * -1 for deny and increases the tokens of claim as deny.\n     * @param _tokens Number of tokens.\n     */ \n    function setClaimTokensCA(uint _claimId, int8 _vote, uint _tokens) external onlyInternal {\n        if (_vote == 1)\n            claimTokensCA[_claimId].accept = claimTokensCA[_claimId].accept.add(_tokens);\n        if (_vote == -1)\n            claimTokensCA[_claimId].deny = claimTokensCA[_claimId].deny.add(_tokens);\n    }\n\n    /** \n     * @dev Stores the tokens locked by the Members during voting of a given claim.\n     * @param _claimId Claim Id.\n     * @param _vote 1 for accept and increases the tokens of claim as accept,\n     * -1 for deny and increases the tokens of claim as deny.\n     * @param _tokens Number of tokens.\n     */ \n    function setClaimTokensMV(uint _claimId, int8 _vote, uint _tokens) external onlyInternal {\n        if (_vote == 1)\n            claimTokensMV[_claimId].accept = claimTokensMV[_claimId].accept.add(_tokens);\n        if (_vote == -1)\n            claimTokensMV[_claimId].deny = claimTokensMV[_claimId].deny.add(_tokens);\n    }\n\n    /** \n     * @dev Stores the id of the member vote given to a claim.\n     * Maintains record of all votes given by all the Members to a claim.\n     * @param _claimId Claim Id to which vote has been given by the Member.\n     * @param _voteid Vote Id.\n     */ \n    function addClaimVotemember(uint _claimId, uint _voteid) external onlyInternal {\n        claimVoteMember[_claimId].push(_voteid);\n    }\n\n    /** \n     * @dev Sets the id of the vote.\n     * @param _from Member's address who has given the vote.\n     * @param _claimId Claim Id for which vote has been given by the Member.\n     * @param _voteid Vote Id which will be stored against the given _from and claimid.\n     */ \n    function setUserClaimVoteMember(\n        address _from,\n        uint _claimId,\n        uint _voteid\n    )\n        external\n        onlyInternal\n    {\n        userClaimVoteMember[_from][_claimId] = _voteid;\n        voteAddressMember[_from].push(_voteid);\n\n    }\n\n    /** \n     * @dev Increases the count of failure until payout of a claim is successful.\n     */ \n    function updateState12Count(uint _claimId, uint _cnt) external onlyInternal {\n        claimState12Count[_claimId] = claimState12Count[_claimId].add(_cnt);\n    }\n\n    /** \n     * @dev Sets status of a claim.\n     * @param _claimId Claim Id.\n     * @param _stat Status number.\n     */\n    function setClaimStatus(uint _claimId, uint _stat) external onlyInternal {\n        claimsStatus[_claimId] = _stat;\n    }\n\n    /** \n     * @dev Sets the timestamp of a given claim at which the Claim's details has been updated.\n     * @param _claimId Claim Id of claim which has been changed.\n     * @param _dateUpd timestamp at which claim is updated.\n     */ \n    function setClaimdateUpd(uint _claimId, uint _dateUpd) external onlyInternal {\n        allClaims[_claimId].dateUpd = _dateUpd;\n    }\n\n    /** \n     @dev Queues Claims during Emergency Pause.\n     */ \n    function setClaimAtEmergencyPause(\n        uint _coverId,\n        uint _dateUpd,\n        bool _submit\n    )\n        external\n        onlyInternal\n    {\n        claimPause.push(ClaimsPause(_coverId, _dateUpd, _submit));\n    }\n\n    /** \n     * @dev Set submission flag for Claims queued during emergency pause.\n     * Set to true after EP is turned off and the claim is submitted .\n     */ \n    function setClaimSubmittedAtEPTrue(uint _index, bool _submit) external onlyInternal {\n        claimPause[_index].submit = _submit;\n    }\n\n    /** \n     * @dev Sets the index from which claim needs to be \n     * submitted when emergency pause is swithched off.\n     */ \n    function setFirstClaimIndexToSubmitAfterEP(\n        uint _firstClaimIndexToSubmit\n    )\n        external\n        onlyInternal\n    {\n        claimPauseLastsubmit = _firstClaimIndexToSubmit;\n    }\n\n    /** \n     * @dev Sets the pending vote duration for a claim in case of emergency pause.\n     */ \n    function setPendingClaimDetails(\n        uint _claimId,\n        uint _pendingTime,\n        bool _voting\n    )\n        external\n        onlyInternal\n    {\n        claimPauseVotingEP.push(ClaimPauseVoting(_claimId, _pendingTime, _voting));\n    }\n\n    /** \n     * @dev Sets voting flag true after claim is reopened for voting after emergency pause.\n     */ \n    function setPendingClaimVoteStatus(uint _claimId, bool _vote) external onlyInternal {\n        claimPauseVotingEP[_claimId].voting = _vote;\n    }\n    \n    /** \n     * @dev Sets the index from which claim needs to be \n     * reopened when emergency pause is swithched off. \n     */ \n    function setFirstClaimIndexToStartVotingAfterEP(\n        uint _claimStartVotingFirstIndex\n    )\n        external\n        onlyInternal\n    {\n        claimStartVotingFirstIndex = _claimStartVotingFirstIndex;\n    }\n\n    /** \n     * @dev Calls Vote Event.\n     */ \n    function callVoteEvent(\n        address _userAddress,\n        uint _claimId,\n        bytes4 _typeOf,\n        uint _tokens,\n        uint _submitDate,\n        int8 _verdict\n    )\n        external\n        onlyInternal\n    {\n        emit VoteCast(\n            _userAddress,\n            _claimId,\n            _typeOf,\n            _tokens,\n            _submitDate,\n            _verdict\n        );\n    }\n\n    /** \n     * @dev Calls Claim Event. \n     */ \n    function callClaimEvent(\n        uint _coverId,\n        address _userAddress,\n        uint _claimId,\n        uint _datesubmit\n    ) \n        external\n        onlyInternal\n    {\n        emit ClaimRaise(_coverId, _userAddress, _claimId, _datesubmit);\n    }\n\n    /**\n     * @dev Gets Uint Parameters by parameter code\n     * @param code whose details we want\n     * @return string value of the parameter\n     * @return associated amount (time or perc or value) to the code\n     */\n    function getUintParameters(bytes8 code) external view returns (bytes8 codeVal, uint val) {\n        codeVal = code;\n        if (code == \"CAMAXVT\") {\n            val = maxVotingTime / (1 hours);\n\n        } else if (code == \"CAMINVT\") {\n\n            val = minVotingTime / (1 hours);\n\n        } else if (code == \"CAPRETRY\") {\n\n            val = payoutRetryTime / (1 hours);\n\n        } else if (code == \"CADEPT\") {\n\n            val = claimDepositTime / (1 days);\n\n        } else if (code == \"CAREWPER\") {\n\n            val = claimRewardPerc;\n\n        } else if (code == \"CAMINTH\") {\n\n            val = minVoteThreshold;\n\n        } else if (code == \"CAMAXTH\") {\n\n            val = maxVoteThreshold;\n\n        } else if (code == \"CACONPER\") {\n\n            val = majorityConsensus;\n\n        } else if (code == \"CAPAUSET\") {\n            val = pauseDaysCA / (1 days);\n        }\n    \n    }\n\n    /**\n     * @dev Get claim queued during emergency pause by index.\n     */ \n    function getClaimOfEmergencyPauseByIndex(\n        uint _index\n    ) \n        external\n        view\n        returns(\n            uint coverId,\n            uint dateUpd,\n            bool submit\n        )\n    {\n        coverId = claimPause[_index].coverid;\n        dateUpd = claimPause[_index].dateUpd;\n        submit = claimPause[_index].submit;\n    }\n\n    /**\n     * @dev Gets the Claim's details of given claimid.   \n     */ \n    function getAllClaimsByIndex(\n        uint _claimId\n    )\n        external\n        view\n        returns(\n            uint coverId,\n            int8 vote,\n            uint status,\n            uint dateUpd,\n            uint state12Count\n        )\n    {\n        return(\n            allClaims[_claimId].coverId,\n            claimVote[_claimId],\n            claimsStatus[_claimId],\n            allClaims[_claimId].dateUpd,\n            claimState12Count[_claimId]\n        );\n    }\n\n    /** \n     * @dev Gets the vote id of a given claim of a given Claim Assessor.\n     */ \n    function getUserClaimVoteCA(\n        address _add,\n        uint _claimId\n    )\n        external\n        view\n        returns(uint idVote)\n    {\n        return userClaimVoteCA[_add][_claimId];\n    }\n\n    /** \n     * @dev Gets the vote id of a given claim of a given member.\n     */\n    function getUserClaimVoteMember(\n        address _add,\n        uint _claimId\n    )\n        external\n        view\n        returns(uint idVote)\n    {\n        return userClaimVoteMember[_add][_claimId];\n    }\n\n    /** \n     * @dev Gets the count of all votes.\n     */ \n    function getAllVoteLength() external view returns(uint voteCount) {\n        return allvotes.length.sub(1); //Start Index always from 1.\n    }\n\n    /**\n     * @dev Gets the status number of a given claim.\n     * @param _claimId Claim id.\n     * @return statno Status Number. \n     */ \n    function getClaimStatusNumber(uint _claimId) external view returns(uint claimId, uint statno) {\n        return (_claimId, claimsStatus[_claimId]);\n    }\n\n    /**\n     * @dev Gets the reward percentage to be distributed for a given status id\n     * @param statusNumber the number of type of status\n     * @return percCA reward Percentage for claim assessor\n     * @return percMV reward Percentage for members\n     */\n    function getRewardStatus(uint statusNumber) external view returns(uint percCA, uint percMV) {\n        return (rewardStatus[statusNumber].percCA, rewardStatus[statusNumber].percMV);\n    }\n\n    /** \n     * @dev Gets the number of tries that have been made for a successful payout of a Claim.\n     */ \n    function getClaimState12Count(uint _claimId) external view returns(uint num) {\n        num = claimState12Count[_claimId];\n    }\n\n    /** \n     * @dev Gets the last update date of a claim.\n     */ \n    function getClaimDateUpd(uint _claimId) external view returns(uint dateupd) {\n        dateupd = allClaims[_claimId].dateUpd;\n    }\n\n    /**\n     * @dev Gets all Claims created by a user till date.\n     * @param _member user's address.\n     * @return claimarr List of Claims id.\n     */ \n    function getAllClaimsByAddress(address _member) external view returns(uint[] memory claimarr) {\n        return allClaimsByAddress[_member];\n    }\n\n    /**\n     * @dev Gets the number of tokens that has been locked \n     * while giving vote to a claim by  Claim Assessors.\n     * @param _claimId Claim Id.\n     * @return accept Total number of tokens when CA accepts the claim.\n     * @return deny Total number of tokens when CA declines the claim.\n     */ \n    function getClaimsTokenCA(\n        uint _claimId\n    )\n        external\n        view\n        returns(\n            uint claimId,\n            uint accept,\n            uint deny\n        )\n    {\n        return (\n            _claimId,\n            claimTokensCA[_claimId].accept,\n            claimTokensCA[_claimId].deny\n        );\n    }\n\n    /** \n     * @dev Gets the number of tokens that have been\n     * locked while assessing a claim as a member.\n     * @param _claimId Claim Id.\n     * @return accept Total number of tokens in acceptance of the claim.\n     * @return deny Total number of tokens against the claim.\n     */ \n    function getClaimsTokenMV(\n        uint _claimId\n    )\n        external\n        view\n        returns(\n            uint claimId,\n            uint accept,\n            uint deny\n        )\n    {\n        return (\n            _claimId,\n            claimTokensMV[_claimId].accept,\n            claimTokensMV[_claimId].deny\n        );\n    }\n\n    /**\n     * @dev Gets the total number of votes cast as Claims assessor for/against a given claim\n     */ \n    function getCaClaimVotesToken(uint _claimId) external view returns(uint claimId, uint cnt) {\n        claimId = _claimId;\n        cnt = 0;\n        for (uint i = 0; i < claimVoteCA[_claimId].length; i++) {\n            cnt = cnt.add(allvotes[claimVoteCA[_claimId][i]].tokens);\n        }\n    }\n\n    /**\n     * @dev Gets the total number of tokens cast as a member for/against a given claim  \n     */ \n    function getMemberClaimVotesToken(\n        uint _claimId\n    )   \n        external\n        view\n        returns(uint claimId, uint cnt)\n    {\n        claimId = _claimId;\n        cnt = 0;\n        for (uint i = 0; i < claimVoteMember[_claimId].length; i++) {\n            cnt = cnt.add(allvotes[claimVoteMember[_claimId][i]].tokens);\n        }\n    }\n\n    /**\n     * @dev Provides information of a vote when given its vote id.\n     * @param _voteid Vote Id.\n     */\n    function getVoteDetails(uint _voteid)\n    external view\n    returns(\n        uint tokens,\n        uint claimId,\n        int8 verdict,\n        bool rewardClaimed\n        )\n    {\n        return (\n            allvotes[_voteid].tokens,\n            allvotes[_voteid].claimId,\n            allvotes[_voteid].verdict,\n            allvotes[_voteid].rewardClaimed\n        );\n    }\n\n    /**\n     * @dev Gets the voter's address of a given vote id.\n     */ \n    function getVoterVote(uint _voteid) external view returns(address voter) {\n        return allvotes[_voteid].voter;\n    }\n\n    /**\n     * @dev Provides information of a Claim when given its claim id.\n     * @param _claimId Claim Id.\n     */ \n    function getClaim(\n        uint _claimId\n    )\n        external\n        view\n        returns(\n            uint claimId,\n            uint coverId,\n            int8 vote,\n            uint status,\n            uint dateUpd,\n            uint state12Count\n        )\n    {\n        return (\n            _claimId,\n            allClaims[_claimId].coverId,\n            claimVote[_claimId],\n            claimsStatus[_claimId],\n            allClaims[_claimId].dateUpd,\n            claimState12Count[_claimId]\n            );\n    }\n\n    /**\n     * @dev Gets the total number of votes of a given claim.\n     * @param _claimId Claim Id.\n     * @param _ca if 1: votes given by Claim Assessors to a claim,\n     * else returns the number of votes of given by Members to a claim.\n     * @return len total number of votes for/against a given claim.\n     */ \n    function getClaimVoteLength(\n        uint _claimId,\n        uint8 _ca\n    )\n        external\n        view\n        returns(uint claimId, uint len)\n    {\n        claimId = _claimId;\n        if (_ca == 1)\n            len = claimVoteCA[_claimId].length;\n        else\n            len = claimVoteMember[_claimId].length;\n    }\n\n    /**\n     * @dev Gets the verdict of a vote using claim id and index.\n     * @param _ca 1 for vote given as a CA, else for vote given as a member.\n     * @return ver 1 if vote was given in favour,-1 if given in against.\n     */ \n    function getVoteVerdict(\n        uint _claimId,\n        uint _index,\n        uint8 _ca\n    )\n        external\n        view\n        returns(int8 ver)\n    {\n        if (_ca == 1)\n            ver = allvotes[claimVoteCA[_claimId][_index]].verdict;\n        else\n            ver = allvotes[claimVoteMember[_claimId][_index]].verdict;\n    }\n\n    /**\n     * @dev Gets the Number of tokens of a vote using claim id and index.\n     * @param _ca 1 for vote given as a CA, else for vote given as a member.\n     * @return tok Number of tokens.\n     */ \n    function getVoteToken(\n        uint _claimId,\n        uint _index,\n        uint8 _ca\n    )   \n        external\n        view\n        returns(uint tok)\n    {\n        if (_ca == 1)\n            tok = allvotes[claimVoteCA[_claimId][_index]].tokens;\n        else\n            tok = allvotes[claimVoteMember[_claimId][_index]].tokens;\n    }\n\n    /**\n     * @dev Gets the Voter's address of a vote using claim id and index.\n     * @param _ca 1 for vote given as a CA, else for vote given as a member.\n     * @return voter Voter's address.\n     */ \n    function getVoteVoter(\n        uint _claimId,\n        uint _index,\n        uint8 _ca\n    )\n        external\n        view\n        returns(address voter)\n    {\n        if (_ca == 1)\n            voter = allvotes[claimVoteCA[_claimId][_index]].voter;\n        else\n            voter = allvotes[claimVoteMember[_claimId][_index]].voter;\n    }\n\n    /** \n     * @dev Gets total number of Claims created by a user till date.\n     * @param _add User's address.\n     */ \n    function getUserClaimCount(address _add) external view returns(uint len) {\n        len = allClaimsByAddress[_add].length;\n    }\n\n    /**\n     * @dev Calculates number of Claims that are in pending state.\n     */ \n    function getClaimLength() external view returns(uint len) {\n        len = allClaims.length.sub(pendingClaimStart);\n    }\n\n    /**\n     * @dev Gets the Number of all the Claims created till date.\n     */ \n    function actualClaimLength() external view returns(uint len) {\n        len = allClaims.length;\n    }\n\n    /** \n     * @dev Gets details of a claim.\n     * @param _index claim id = pending claim start + given index\n     * @param _add User's address.\n     * @return coverid cover against which claim has been submitted.\n     * @return claimId Claim  Id.\n     * @return voteCA verdict of vote given as a Claim Assessor.  \n     * @return voteMV verdict of vote given as a Member.\n     * @return statusnumber Status of claim.\n     */ \n    function getClaimFromNewStart(\n        uint _index,\n        address _add\n    )\n        external\n        view\n        returns(\n            uint coverid,\n            uint claimId,\n            int8 voteCA,\n            int8 voteMV,\n            uint statusnumber\n        )\n    {\n        uint i = pendingClaimStart.add(_index);\n        coverid = allClaims[i].coverId;\n        claimId = i;\n        if (userClaimVoteCA[_add][i] > 0)\n            voteCA = allvotes[userClaimVoteCA[_add][i]].verdict;\n        else\n            voteCA = 0;\n\n        if (userClaimVoteMember[_add][i] > 0)\n            voteMV = allvotes[userClaimVoteMember[_add][i]].verdict;\n        else\n            voteMV = 0;\n\n        statusnumber = claimsStatus[i];\n    }\n\n    /**\n     * @dev Gets details of a claim of a user at a given index.  \n     */ \n    function getUserClaimByIndex(\n        uint _index,\n        address _add\n    )\n        external\n        view\n        returns(\n            uint status,\n            uint coverid,\n            uint claimId\n        )\n    {\n        claimId = allClaimsByAddress[_add][_index];\n        status = claimsStatus[claimId];\n        coverid = allClaims[claimId].coverId;\n    }\n\n    /**\n     * @dev Gets Id of all the votes given to a claim.\n     * @param _claimId Claim Id.\n     * @return ca id of all the votes given by Claim assessors to a claim.\n     * @return mv id of all the votes given by members to a claim.\n     */ \n    function getAllVotesForClaim(\n        uint _claimId\n    )\n        external\n        view\n        returns(\n            uint claimId,\n            uint[] memory ca,\n            uint[] memory mv\n        )\n    {\n        return (_claimId, claimVoteCA[_claimId], claimVoteMember[_claimId]);\n    }\n\n    /** \n     * @dev Gets Number of tokens deposit in a vote using\n     * Claim assessor's address and claim id.\n     * @return tokens Number of deposited tokens.\n     */ \n    function getTokensClaim(\n        address _of,\n        uint _claimId\n    )\n        external\n        view\n        returns(\n            uint claimId,\n            uint tokens\n        )\n    {\n        return (_claimId, allvotes[userClaimVoteCA[_of][_claimId]].tokens);\n    }\n\n    /**\n     * @param _voter address of the voter.\n     * @return lastCAvoteIndex last index till which reward was distributed for CA\n     * @return lastMVvoteIndex last index till which reward was distributed for member\n     */ \n    function getRewardDistributedIndex(\n        address _voter\n    ) \n        external\n        view\n        returns(\n            uint lastCAvoteIndex,\n            uint lastMVvoteIndex\n        )\n    {\n        return (\n            voterVoteRewardReceived[_voter].lastCAvoteIndex,\n            voterVoteRewardReceived[_voter].lastMVvoteIndex\n        );\n    }\n\n    /**\n     * @param claimid claim id.\n     * @return perc_CA reward Percentage for claim assessor\n     * @return perc_MV reward Percentage for members\n     * @return tokens total tokens to be rewarded \n     */ \n    function getClaimRewardDetail(\n        uint claimid\n    ) \n        external\n        view\n        returns(\n            uint percCA,\n            uint percMV,\n            uint tokens\n        )\n    {\n        return (\n            claimRewardDetail[claimid].percCA,\n            claimRewardDetail[claimid].percMV,\n            claimRewardDetail[claimid].tokenToBeDist\n        );\n    }\n\n    /**\n     * @dev Gets cover id of a claim.\n     */ \n    function getClaimCoverId(uint _claimId) external view returns(uint claimId, uint coverid) {\n        return (_claimId, allClaims[_claimId].coverId);\n    }\n\n    /**\n     * @dev Gets total number of tokens staked during voting by Claim Assessors.\n     * @param _claimId Claim Id.\n     * @param _verdict 1 to get total number of accept tokens, -1 to get total number of deny tokens.\n     * @return token token Number of tokens(either accept or deny on the basis of verdict given as parameter).\n     */ \n    function getClaimVote(uint _claimId, int8 _verdict) external view returns(uint claimId, uint token) {\n        claimId = _claimId;\n        token = 0;\n        for (uint i = 0; i < claimVoteCA[_claimId].length; i++) {\n            if (allvotes[claimVoteCA[_claimId][i]].verdict == _verdict)\n                token = token.add(allvotes[claimVoteCA[_claimId][i]].tokens);\n        }\n    }\n\n    /**\n     * @dev Gets total number of tokens staked during voting by Members.\n     * @param _claimId Claim Id.\n     * @param _verdict 1 to get total number of accept tokens,\n     *  -1 to get total number of deny tokens.\n     * @return token token Number of tokens(either accept or \n     * deny on the basis of verdict given as parameter).\n     */ \n    function getClaimMVote(uint _claimId, int8 _verdict) external view returns(uint claimId, uint token) {\n        claimId = _claimId;\n        token = 0;\n        for (uint i = 0; i < claimVoteMember[_claimId].length; i++) {\n            if (allvotes[claimVoteMember[_claimId][i]].verdict == _verdict)\n                token = token.add(allvotes[claimVoteMember[_claimId][i]].tokens);\n        }\n    }\n\n    /**\n     * @param _voter address  of voteid\n     * @param index index to get voteid in CA\n     */ \n    function getVoteAddressCA(address _voter, uint index) external view returns(uint) {\n        return voteAddressCA[_voter][index];\n    }\n\n    /**\n     * @param _voter address  of voter\n     * @param index index to get voteid in member vote\n     */ \n    function getVoteAddressMember(address _voter, uint index) external view returns(uint) {\n        return voteAddressMember[_voter][index];\n    }\n\n    /**\n     * @param _voter address  of voter   \n     */ \n    function getVoteAddressCALength(address _voter) external view returns(uint) {\n        return voteAddressCA[_voter].length;\n    }\n\n    /**\n     * @param _voter address  of voter   \n     */ \n    function getVoteAddressMemberLength(address _voter) external view returns(uint) {\n        return voteAddressMember[_voter].length;\n    }\n\n    /**\n     * @dev Gets the Final result of voting of a claim.\n     * @param _claimId Claim id.\n     * @return verdict 1 if claim is accepted, -1 if declined.\n     */ \n    function getFinalVerdict(uint _claimId) external view returns(int8 verdict) {\n        return claimVote[_claimId];\n    }\n\n    /**\n     * @dev Get number of Claims queued for submission during emergency pause.\n     */ \n    function getLengthOfClaimSubmittedAtEP() external view returns(uint len) {\n        len = claimPause.length;\n    }\n\n    /**\n     * @dev Gets the index from which claim needs to be \n     * submitted when emergency pause is swithched off.\n     */ \n    function getFirstClaimIndexToSubmitAfterEP() external view returns(uint indexToSubmit) {\n        indexToSubmit = claimPauseLastsubmit;\n    }\n    \n    /**\n     * @dev Gets number of Claims to be reopened for voting post emergency pause period.\n     */ \n    function getLengthOfClaimVotingPause() external view returns(uint len) {\n        len = claimPauseVotingEP.length;\n    }\n\n    /**\n     * @dev Gets claim details to be reopened for voting after emergency pause.\n     */ \n    function getPendingClaimDetailsByIndex(\n        uint _index\n    )\n        external\n        view\n        returns(\n            uint claimId,\n            uint pendingTime,\n            bool voting\n        )\n    {\n        claimId = claimPauseVotingEP[_index].claimid;\n        pendingTime = claimPauseVotingEP[_index].pendingTime;\n        voting = claimPauseVotingEP[_index].voting;\n    }\n\n    /** \n     * @dev Gets the index from which claim needs to be reopened when emergency pause is swithched off.\n     */ \n    function getFirstClaimIndexToStartVotingAfterEP() external view returns(uint firstindex) {\n        firstindex = claimStartVotingFirstIndex;\n    }\n\n    /**\n     * @dev Updates Uint Parameters of a code\n     * @param code whose details we want to update\n     * @param val value to set\n     */\n    function updateUintParameters(bytes8 code, uint val) public {\n        require(ms.checkIsAuthToGoverned(msg.sender));\n        if (code == \"CAMAXVT\") {\n            _setMaxVotingTime(val * 1 hours);\n\n        } else if (code == \"CAMINVT\") {\n\n            _setMinVotingTime(val * 1 hours);\n\n        } else if (code == \"CAPRETRY\") {\n\n            _setPayoutRetryTime(val * 1 hours);\n\n        } else if (code == \"CADEPT\") {\n\n            _setClaimDepositTime(val * 1 days);\n\n        } else if (code == \"CAREWPER\") {\n\n            _setClaimRewardPerc(val);\n\n        } else if (code == \"CAMINTH\") {\n\n            _setMinVoteThreshold(val);\n\n        } else if (code == \"CAMAXTH\") {\n\n            _setMaxVoteThreshold(val);\n\n        } else if (code == \"CACONPER\") {\n\n            _setMajorityConsensus(val);\n\n        } else if (code == \"CAPAUSET\") {\n            _setPauseDaysCA(val * 1 days);\n        } else {\n\n            revert(\"Invalid param code\");\n        }\n    \n    }\n\n    /**\n     * @dev Iupgradable Interface to update dependent contract address\n     */\n    function changeDependentContractAddress() public onlyInternal {}\n\n    /**\n     * @dev Adds status under which a claim can lie.\n     * @param percCA reward percentage for claim assessor\n     * @param percMV reward percentage for members\n     */\n    function _pushStatus(uint percCA, uint percMV) internal {\n        rewardStatus.push(ClaimRewardStatus(percCA, percMV));\n    }\n\n    /**\n     * @dev adds reward incentive for all possible claim status for Claim assessors and members\n     */\n    function _addRewardIncentive() internal {\n        _pushStatus(0, 0); //0  Pending-Claim Assessor Vote\n        _pushStatus(0, 0); //1 Pending-Claim Assessor Vote Denied, Pending Member Vote\n        _pushStatus(0, 0); //2 Pending-CA Vote Threshold not Reached Accept, Pending Member Vote\n        _pushStatus(0, 0); //3 Pending-CA Vote Threshold not Reached Deny, Pending Member Vote\n        _pushStatus(0, 0); //4 Pending-CA Consensus not reached Accept, Pending Member Vote\n        _pushStatus(0, 0); //5 Pending-CA Consensus not reached Deny, Pending Member Vote\n        _pushStatus(100, 0); //6 Final-Claim Assessor Vote Denied\n        _pushStatus(100, 0); //7 Final-Claim Assessor Vote Accepted\n        _pushStatus(0, 100); //8 Final-Claim Assessor Vote Denied, MV Accepted\n        _pushStatus(0, 100); //9 Final-Claim Assessor Vote Denied, MV Denied\n        _pushStatus(0, 0); //10 Final-Claim Assessor Vote Accept, MV Nodecision\n        _pushStatus(0, 0); //11 Final-Claim Assessor Vote Denied, MV Nodecision\n        _pushStatus(0, 0); //12 Claim Accepted Payout Pending\n        _pushStatus(0, 0); //13 Claim Accepted No Payout \n        _pushStatus(0, 0); //14 Claim Accepted Payout Done\n    }\n\n    /**\n     * @dev Sets Maximum time(in seconds) for which claim assessment voting is open\n     */ \n    function _setMaxVotingTime(uint _time) internal {\n        maxVotingTime = _time;\n    }\n\n    /**\n     *  @dev Sets Minimum time(in seconds) for which claim assessment voting is open\n     */ \n    function _setMinVotingTime(uint _time) internal {\n        minVotingTime = _time;\n    }\n\n    /**\n     *  @dev Sets Minimum vote threshold required\n     */ \n    function _setMinVoteThreshold(uint val) internal {\n        minVoteThreshold = val;\n    }\n\n    /**\n     *  @dev Sets Maximum vote threshold required\n     */ \n    function _setMaxVoteThreshold(uint val) internal {\n        maxVoteThreshold = val;\n    }\n    \n    /**\n     *  @dev Sets the value considered as Majority Consenus in voting\n     */ \n    function _setMajorityConsensus(uint val) internal {\n        majorityConsensus = val;\n    }\n\n    /**\n     * @dev Sets the payout retry time\n     */ \n    function _setPayoutRetryTime(uint _time) internal {\n        payoutRetryTime = _time;\n    }\n\n    /**\n     *  @dev Sets percentage of reward given for claim assessment\n     */ \n    function _setClaimRewardPerc(uint _val) internal {\n\n        claimRewardPerc = _val;\n    }\n  \n    /** \n     * @dev Sets the time for which claim is deposited.\n     */ \n    function _setClaimDepositTime(uint _time) internal {\n\n        claimDepositTime = _time;\n    }\n\n    /**\n     *  @dev Sets number of days claim assessment will be paused\n     */ \n    function _setPauseDaysCA(uint val) internal {\n        pauseDaysCA = val;\n    }\n}\n",
  "sourcePath": "/Users/oker/Downloads/smart-contracts-master/contracts/ClaimsData.sol",
  "compiler": {
    "name": "solc",
    "version": "0.5.7+commit.6da8b019.Emscripten.clang"
  },
  "schemaVersion": "3.2.3",
  "updatedAt": "2020-11-02T03:12:11.747Z",
  "devdoc": {
    "methods": {
      "actualClaimLength()": {
        "details": "Gets the Number of all the Claims created till date."
      },
      "addClaim(uint256,uint256,address,uint256)": {
        "details": "Creates a new claim."
      },
      "addClaimVoteCA(uint256,uint256)": {
        "details": "Stores the id of the claim assessor vote given to a claim. Maintains record of all votes given by all the CA to a claim.",
        "params": {
          "_claimId": "Claim Id to which vote has given by the CA.",
          "_voteid": "Vote Id."
        }
      },
      "addClaimVotemember(uint256,uint256)": {
        "details": "Stores the id of the member vote given to a claim. Maintains record of all votes given by all the Members to a claim.",
        "params": {
          "_claimId": "Claim Id to which vote has been given by the Member.",
          "_voteid": "Vote Id."
        }
      },
      "addVote(address,uint256,uint256,int8)": {
        "details": "Add Vote's details of a given claim."
      },
      "callClaimEvent(uint256,address,uint256,uint256)": {
        "details": "Calls Claim Event. "
      },
      "callVoteEvent(address,uint256,bytes4,uint256,uint256,int8)": {
        "details": "Calls Vote Event."
      },
      "changeDependentContractAddress()": {
        "details": "Iupgradable Interface to update dependent contract address"
      },
      "changeFinalVerdict(uint256,int8)": {
        "details": "Sets the final vote's result(either accepted or declined)of a claim.",
        "params": {
          "_claimId": "Claim Id.",
          "_verdict": "1 if claim is accepted,-1 if declined."
        }
      },
      "changeMasterAddress(address)": {
        "details": "change master address",
        "params": {
          "_masterAddress": "is the new address"
        }
      },
      "getAllClaimsByAddress(address)": {
        "details": "Gets all Claims created by a user till date.",
        "params": {
          "_member": "user's address."
        },
        "return": "claimarr List of Claims id."
      },
      "getAllClaimsByIndex(uint256)": {
        "details": "Gets the Claim's details of given claimid.   "
      },
      "getAllVoteLength()": {
        "details": "Gets the count of all votes."
      },
      "getAllVotesForClaim(uint256)": {
        "details": "Gets Id of all the votes given to a claim.",
        "params": {
          "_claimId": "Claim Id."
        },
        "return": "ca id of all the votes given by Claim assessors to a claim.mv id of all the votes given by members to a claim."
      },
      "getCaClaimVotesToken(uint256)": {
        "details": "Gets the total number of votes cast as Claims assessor for/against a given claim"
      },
      "getClaim(uint256)": {
        "details": "Provides information of a Claim when given its claim id.",
        "params": {
          "_claimId": "Claim Id."
        }
      },
      "getClaimCoverId(uint256)": {
        "details": "Gets cover id of a claim."
      },
      "getClaimDateUpd(uint256)": {
        "details": "Gets the last update date of a claim."
      },
      "getClaimFromNewStart(uint256,address)": {
        "details": "Gets details of a claim.",
        "params": {
          "_add": "User's address.",
          "_index": "claim id = pending claim start + given index"
        },
        "return": "coverid cover against which claim has been submitted.claimId Claim  Id.voteCA verdict of vote given as a Claim Assessor.  voteMV verdict of vote given as a Member.statusnumber Status of claim."
      },
      "getClaimLength()": {
        "details": "Calculates number of Claims that are in pending state."
      },
      "getClaimMVote(uint256,int8)": {
        "details": "Gets total number of tokens staked during voting by Members.",
        "params": {
          "_claimId": "Claim Id.",
          "_verdict": "1 to get total number of accept tokens, -1 to get total number of deny tokens."
        },
        "return": "token token Number of tokens(either accept or  deny on the basis of verdict given as parameter)."
      },
      "getClaimOfEmergencyPauseByIndex(uint256)": {
        "details": "Get claim queued during emergency pause by index."
      },
      "getClaimRewardDetail(uint256)": {
        "params": {
          "claimid": "claim id."
        },
        "return": "perc_CA reward Percentage for claim assessorperc_MV reward Percentage for memberstokens total tokens to be rewarded "
      },
      "getClaimState12Count(uint256)": {
        "details": "Gets the number of tries that have been made for a successful payout of a Claim."
      },
      "getClaimStatusNumber(uint256)": {
        "details": "Gets the status number of a given claim.",
        "params": {
          "_claimId": "Claim id."
        },
        "return": "statno Status Number. "
      },
      "getClaimVote(uint256,int8)": {
        "details": "Gets total number of tokens staked during voting by Claim Assessors.",
        "params": {
          "_claimId": "Claim Id.",
          "_verdict": "1 to get total number of accept tokens, -1 to get total number of deny tokens."
        },
        "return": "token token Number of tokens(either accept or deny on the basis of verdict given as parameter)."
      },
      "getClaimVoteLength(uint256,uint8)": {
        "details": "Gets the total number of votes of a given claim.",
        "params": {
          "_ca": "if 1: votes given by Claim Assessors to a claim, else returns the number of votes of given by Members to a claim.",
          "_claimId": "Claim Id."
        },
        "return": "len total number of votes for/against a given claim."
      },
      "getClaimsTokenCA(uint256)": {
        "details": "Gets the number of tokens that has been locked  while giving vote to a claim by  Claim Assessors.",
        "params": {
          "_claimId": "Claim Id."
        },
        "return": "accept Total number of tokens when CA accepts the claim.deny Total number of tokens when CA declines the claim."
      },
      "getClaimsTokenMV(uint256)": {
        "details": "Gets the number of tokens that have been locked while assessing a claim as a member.",
        "params": {
          "_claimId": "Claim Id."
        },
        "return": "accept Total number of tokens in acceptance of the claim.deny Total number of tokens against the claim."
      },
      "getFinalVerdict(uint256)": {
        "details": "Gets the Final result of voting of a claim.",
        "params": {
          "_claimId": "Claim id."
        },
        "return": "verdict 1 if claim is accepted, -1 if declined."
      },
      "getFirstClaimIndexToStartVotingAfterEP()": {
        "details": "Gets the index from which claim needs to be reopened when emergency pause is swithched off."
      },
      "getFirstClaimIndexToSubmitAfterEP()": {
        "details": "Gets the index from which claim needs to be  submitted when emergency pause is swithched off."
      },
      "getLengthOfClaimSubmittedAtEP()": {
        "details": "Get number of Claims queued for submission during emergency pause."
      },
      "getLengthOfClaimVotingPause()": {
        "details": "Gets number of Claims to be reopened for voting post emergency pause period."
      },
      "getMemberClaimVotesToken(uint256)": {
        "details": "Gets the total number of tokens cast as a member for/against a given claim  "
      },
      "getPendingClaimDetailsByIndex(uint256)": {
        "details": "Gets claim details to be reopened for voting after emergency pause."
      },
      "getRewardDistributedIndex(address)": {
        "params": {
          "_voter": "address of the voter."
        },
        "return": "lastCAvoteIndex last index till which reward was distributed for CAlastMVvoteIndex last index till which reward was distributed for member"
      },
      "getRewardStatus(uint256)": {
        "details": "Gets the reward percentage to be distributed for a given status id",
        "params": {
          "statusNumber": "the number of type of status"
        },
        "return": "percCA reward Percentage for claim assessorpercMV reward Percentage for members"
      },
      "getTokensClaim(address,uint256)": {
        "details": "Gets Number of tokens deposit in a vote using Claim assessor's address and claim id.",
        "return": "tokens Number of deposited tokens."
      },
      "getUintParameters(bytes8)": {
        "details": "Gets Uint Parameters by parameter code",
        "params": {
          "code": "whose details we want"
        },
        "return": "string value of the parameterassociated amount (time or perc or value) to the code"
      },
      "getUserClaimByIndex(uint256,address)": {
        "details": "Gets details of a claim of a user at a given index.  "
      },
      "getUserClaimCount(address)": {
        "details": "Gets total number of Claims created by a user till date.",
        "params": {
          "_add": "User's address."
        }
      },
      "getUserClaimVoteCA(address,uint256)": {
        "details": "Gets the vote id of a given claim of a given Claim Assessor."
      },
      "getUserClaimVoteMember(address,uint256)": {
        "details": "Gets the vote id of a given claim of a given member."
      },
      "getVoteAddressCA(address,uint256)": {
        "params": {
          "_voter": "address  of voteid",
          "index": "index to get voteid in CA"
        }
      },
      "getVoteAddressCALength(address)": {
        "params": {
          "_voter": "address  of voter   "
        }
      },
      "getVoteAddressMember(address,uint256)": {
        "params": {
          "_voter": "address  of voter",
          "index": "index to get voteid in member vote"
        }
      },
      "getVoteAddressMemberLength(address)": {
        "params": {
          "_voter": "address  of voter   "
        }
      },
      "getVoteDetails(uint256)": {
        "details": "Provides information of a vote when given its vote id.",
        "params": {
          "_voteid": "Vote Id."
        }
      },
      "getVoteToken(uint256,uint256,uint8)": {
        "details": "Gets the Number of tokens of a vote using claim id and index.",
        "params": {
          "_ca": "1 for vote given as a CA, else for vote given as a member."
        },
        "return": "tok Number of tokens."
      },
      "getVoteVerdict(uint256,uint256,uint8)": {
        "details": "Gets the verdict of a vote using claim id and index.",
        "params": {
          "_ca": "1 for vote given as a CA, else for vote given as a member."
        },
        "return": "ver 1 if vote was given in favour,-1 if given in against."
      },
      "getVoteVoter(uint256,uint256,uint8)": {
        "details": "Gets the Voter's address of a vote using claim id and index.",
        "params": {
          "_ca": "1 for vote given as a CA, else for vote given as a member."
        },
        "return": "voter Voter's address."
      },
      "getVoterVote(uint256)": {
        "details": "Gets the voter's address of a given vote id."
      },
      "setClaimAtEmergencyPause(uint256,uint256,bool)": {
        "details": "Queues Claims during Emergency Pause."
      },
      "setClaimRewardDetail(uint256,uint256,uint256,uint256)": {
        "params": {
          "claimid": "claim id.",
          "percCA": "reward Percentage reward for claim assessor",
          "percMV": "reward Percentage reward for members",
          "tokens": "total tokens to be rewarded"
        }
      },
      "setClaimStatus(uint256,uint256)": {
        "details": "Sets status of a claim.",
        "params": {
          "_claimId": "Claim Id.",
          "_stat": "Status number."
        }
      },
      "setClaimSubmittedAtEPTrue(uint256,bool)": {
        "details": "Set submission flag for Claims queued during emergency pause. Set to true after EP is turned off and the claim is submitted ."
      },
      "setClaimTokensCA(uint256,int8,uint256)": {
        "details": "Stores the tokens locked by the Claim Assessors during voting of a given claim.",
        "params": {
          "_claimId": "Claim Id.",
          "_tokens": "Number of tokens.",
          "_vote": "1 for accept and increases the tokens of claim as accept, -1 for deny and increases the tokens of claim as deny."
        }
      },
      "setClaimTokensMV(uint256,int8,uint256)": {
        "details": "Stores the tokens locked by the Members during voting of a given claim.",
        "params": {
          "_claimId": "Claim Id.",
          "_tokens": "Number of tokens.",
          "_vote": "1 for accept and increases the tokens of claim as accept, -1 for deny and increases the tokens of claim as deny."
        }
      },
      "setClaimdateUpd(uint256,uint256)": {
        "details": "Sets the timestamp of a given claim at which the Claim's details has been updated.",
        "params": {
          "_claimId": "Claim Id of claim which has been changed.",
          "_dateUpd": "timestamp at which claim is updated."
        }
      },
      "setFirstClaimIndexToStartVotingAfterEP(uint256)": {
        "details": "Sets the index from which claim needs to be  reopened when emergency pause is swithched off. "
      },
      "setFirstClaimIndexToSubmitAfterEP(uint256)": {
        "details": "Sets the index from which claim needs to be  submitted when emergency pause is swithched off."
      },
      "setPendingClaimDetails(uint256,uint256,bool)": {
        "details": "Sets the pending vote duration for a claim in case of emergency pause."
      },
      "setPendingClaimVoteStatus(uint256,bool)": {
        "details": "Sets voting flag true after claim is reopened for voting after emergency pause."
      },
      "setRewardClaimed(uint256,bool)": {
        "details": "Sets the reward claim status against a vote id.",
        "params": {
          "_voteid": "vote Id.",
          "claimed": "true if reward for vote is claimed, else false."
        }
      },
      "setRewardDistributedIndexCA(address,uint256)": {
        "details": "Updates the max vote index for which claim assessor has received reward ",
        "params": {
          "_voter": "address of the voter.",
          "caIndex": "last index till which reward was distributed for CA"
        }
      },
      "setRewardDistributedIndexMV(address,uint256)": {
        "details": "Updates the max vote index for which member has received reward ",
        "params": {
          "_voter": "address of the voter.",
          "mvIndex": "last index till which reward was distributed for member "
        }
      },
      "setUserClaimVoteCA(address,uint256,uint256)": {
        "details": "Sets the id of the vote.",
        "params": {
          "_claimId": "Claim Id for which vote has been given by the CA.",
          "_from": "Claim assessor's address who has given the vote.",
          "_voteid": "Vote Id which will be stored against the given _from and claimid."
        }
      },
      "setUserClaimVoteMember(address,uint256,uint256)": {
        "details": "Sets the id of the vote.",
        "params": {
          "_claimId": "Claim Id for which vote has been given by the Member.",
          "_from": "Member's address who has given the vote.",
          "_voteid": "Vote Id which will be stored against the given _from and claimid."
        }
      },
      "setUserClaimVotePausedOn(address)": {
        "details": "Used to pause claim assessor activity for 3 days ",
        "params": {
          "user": "Member address whose claim voting ability needs to be paused"
        }
      },
      "setpendingClaimStart(uint256)": {
        "details": "Updates the pending claim start variable,  the lowest claim id with a pending decision/payout."
      },
      "updateState12Count(uint256,uint256)": {
        "details": "Increases the count of failure until payout of a claim is successful."
      },
      "updateUintParameters(bytes8,uint256)": {
        "details": "Updates Uint Parameters of a code",
        "params": {
          "code": "whose details we want to update",
          "val": "value to set"
        }
      }
    }
  },
  "userdoc": {
    "methods": {}
  }
}