{
  "contractName": "ClaimsReward",
  "abi": [
    {
      "constant": true,
      "inputs": [],
      "name": "ms",
      "outputs": [
        {
          "name": "",
          "type": "address"
        }
      ],
      "payable": false,
      "stateMutability": "view",
      "type": "function"
    },
    {
      "constant": false,
      "inputs": [
        {
          "name": "_masterAddress",
          "type": "address"
        }
      ],
      "name": "changeMasterAddress",
      "outputs": [],
      "payable": false,
      "stateMutability": "nonpayable",
      "type": "function"
    },
    {
      "constant": true,
      "inputs": [],
      "name": "nxMasterAddress",
      "outputs": [
        {
          "name": "",
          "type": "address"
        }
      ],
      "payable": false,
      "stateMutability": "view",
      "type": "function"
    },
    {
      "constant": false,
      "inputs": [],
      "name": "changeDependentContractAddress",
      "outputs": [],
      "payable": false,
      "stateMutability": "nonpayable",
      "type": "function"
    },
    {
      "constant": false,
      "inputs": [
        {
          "name": "claimid",
          "type": "uint256"
        }
      ],
      "name": "changeClaimStatus",
      "outputs": [],
      "payable": false,
      "stateMutability": "nonpayable",
      "type": "function"
    },
    {
      "constant": true,
      "inputs": [
        {
          "name": "check",
          "type": "uint256"
        },
        {
          "name": "voteid",
          "type": "uint256"
        },
        {
          "name": "flag",
          "type": "uint256"
        }
      ],
      "name": "getRewardToBeGiven",
      "outputs": [
        {
          "name": "tokenCalculated",
          "type": "uint256"
        },
        {
          "name": "lastClaimedCheck",
          "type": "bool"
        },
        {
          "name": "tokens",
          "type": "uint256"
        },
        {
          "name": "perc",
          "type": "uint256"
        }
      ],
      "payable": false,
      "stateMutability": "view",
      "type": "function"
    },
    {
      "constant": false,
      "inputs": [
        {
          "name": "_newAdd",
          "type": "address"
        }
      ],
      "name": "upgrade",
      "outputs": [],
      "payable": false,
      "stateMutability": "nonpayable",
      "type": "function"
    },
    {
      "constant": true,
      "inputs": [
        {
          "name": "_add",
          "type": "address"
        }
      ],
      "name": "getRewardToBeDistributedByUser",
      "outputs": [
        {
          "name": "total",
          "type": "uint256"
        }
      ],
      "payable": false,
      "stateMutability": "view",
      "type": "function"
    },
    {
      "constant": true,
      "inputs": [
        {
          "name": "check",
          "type": "uint256"
        },
        {
          "name": "claimId",
          "type": "uint256"
        }
      ],
      "name": "getRewardAndClaimedStatus",
      "outputs": [
        {
          "name": "reward",
          "type": "uint256"
        },
        {
          "name": "claimed",
          "type": "bool"
        }
      ],
      "payable": false,
      "stateMutability": "view",
      "type": "function"
    },
    {
      "constant": false,
      "inputs": [
        {
          "name": "records",
          "type": "uint256"
        }
      ],
      "name": "claimAllPendingReward",
      "outputs": [],
      "payable": false,
      "stateMutability": "nonpayable",
      "type": "function"
    },
    {
      "constant": false,
      "inputs": [
        {
          "name": "records",
          "type": "uint256"
        }
      ],
      "name": "claimPendingReward",
      "outputs": [],
      "payable": false,
      "stateMutability": "nonpayable",
      "type": "function"
    },
    {
      "constant": true,
      "inputs": [
        {
          "name": "_add",
          "type": "address"
        }
      ],
      "name": "getPendingRewardOfUser",
      "outputs": [
        {
          "name": "",
          "type": "uint256"
        }
      ],
      "payable": false,
      "stateMutability": "view",
      "type": "function"
    },
    {
      "constant": true,
      "inputs": [
        {
          "name": "_add",
          "type": "address"
        }
      ],
      "name": "getAllPendingRewardOfUser",
      "outputs": [
        {
          "name": "",
          "type": "uint256"
        }
      ],
      "payable": false,
      "stateMutability": "view",
      "type": "function"
    },
    {
      "constant": false,
      "inputs": [
        {
          "name": "_records",
          "type": "uint256"
        },
        {
          "name": "_user",
          "type": "address"
        }
      ],
      "name": "_claimStakeCommission",
      "outputs": [],
      "payable": false,
      "stateMutability": "nonpayable",
      "type": "function"
    }
  ],
  "bytecode": "0x608060405234801561001057600080fd5b50614921806100206000396000f3fe608060405234801561001057600080fd5b50600436106100ea5760003560e01c806363bb23be1161008c578063b033b38e11610066578063b033b38e14610260578063d46655f414610286578063df31f208146102ac578063f17a3bec146102fb576100ea565b806363bb23be146102025780637f6715c91461021f578063a0b2d57f1461023c576100ea565b806335afb14e116100c857806335afb14e1461014b5780633959aaef1461018357806341becc07146101a0578063452efce9146101dc576100ea565b806304ee27c6146100ef5780630900f0101461011d5780630ea9c98414610143575b600080fd5b61011b6004803603604081101561010557600080fd5b50803590602001356001600160a01b0316610303565b005b61011b6004803603602081101561013357600080fd5b50356001600160a01b031661095e565b61011b610af5565b6101716004803603602081101561016157600080fd5b50356001600160a01b0316611274565b60408051918252519081900360200190f35b61011b6004803603602081101561019957600080fd5b50356113af565b6101c3600480360360408110156101b657600080fd5b50803590602001356114c5565b6040805192835290151560208301528051918290030190f35b610171600480360360208110156101f257600080fd5b50356001600160a01b031661184d565b61011b6004803603602081101561021857600080fd5b5035611b60565b61011b6004803603602081101561023557600080fd5b5035611dbd565b610244612371565b604080516001600160a01b039092168252519081900360200190f35b6101716004803603602081101561027657600080fd5b50356001600160a01b0316612380565b61011b6004803603602081101561029c57600080fd5b50356001600160a01b0316612428565b6102d5600480360360608110156102c257600080fd5b50803590602081013590604001356124b7565b604080519485529215156020850152838301919091526060830152519081900360800190f35b6102446129b5565b60005460408051600160e21b6323c5b10702815233600482015290516001600160a01b0390921691638f16c41c91602480820192602092909190829003018186803b15801561035157600080fd5b505afa158015610365573d6000803e3d6000fd5b505050506040513d602081101561037b57600080fd5b505161038657600080fd5b60055460408051600160e21b6338c97bdd0281526001600160a01b03848116600483015291516000938493169163e325ef74916024808301926020929190829003018186803b1580156103d857600080fd5b505afa1580156103ec573d6000803e3d6000fd5b505050506040513d602081101561040257600080fd5b505160055460408051600160e31b631bb5ffcb0281526001600160a01b0387811660048301529151939450600093919092169163ddaffe58916024808301926020929190829003018186803b15801561045a57600080fd5b505afa15801561046e573d6000803e3d6000fd5b505050506040513d602081101561048457600080fd5b50519050600080808481855b878110801561049e57508a82105b156107cf5760055460408051600160e11b637b89c5570281526001600160a01b038d81166004830152602482018590529151919092169163f7138aae916044808301926020929190829003018186803b1580156104fa57600080fd5b505afa15801561050e573d6000803e3d6000fd5b505050506040513d602081101561052457600080fd5b505160055460408051600160e31b63057844c50281526001600160a01b038e81166004830152602482018690529151939850911691632bc2262891604480820192602092909190829003018186803b15801561057f57600080fd5b505afa158015610593573d6000803e3d6000fd5b505050506040513d60208110156105a957600080fd5b505160055460408051600160e01b636a96445102815290519298506106f3926064926106e7926001600160a01b0390911691636a96445191600480820192602092909190829003018186803b15801561060157600080fd5b505afa158015610615573d6000803e3d6000fd5b505050506040513d602081101561062b57600080fd5b8101908080519060200190929190505050600560009054906101000a90046001600160a01b03166001600160a01b03166343148d238f876040518363ffffffff1660e01b815260040180836001600160a01b03166001600160a01b031681526020018281526020019250505060206040518083038186803b1580156106af57600080fd5b505afa1580156106c3573d6000803e3d6000fd5b505050506040513d60208110156106d957600080fd5b50519063ffffffff6129c416565b9063ffffffff6129f416565b935087831480156107045750858414155b1561070d578092505b6005546001600160a01b031663d9249bff8b836107308a8a63ffffffff612a1616565b6040518463ffffffff1660e01b815260040180846001600160a01b03166001600160a01b031681526020018381526020018281526020019350505050600060405180830381600087803b15801561078657600080fd5b505af115801561079a573d6000803e3d6000fd5b505050506107c16107b48688612a1690919063ffffffff16565b8a9063ffffffff612a2b16565b985060019182019101610490565b8783141561084c5760055460408051600160e01b63181908170281526001600160a01b038d811660048301526024820185905291519190921691631819081791604480830192600092919082900301818387803b15801561082f57600080fd5b505af1158015610843573d6000803e3d6000fd5b505050506108bd565b60055460408051600160e01b63181908170281526001600160a01b038d811660048301526024820187905291519190921691631819081791604480830192600092919082900301818387803b1580156108a457600080fd5b505af11580156108b8573d6000803e3d6000fd5b505050505b88156109515760025460408051600160e01b63a9059cbb0281526001600160a01b038d81166004830152602482018d90529151919092169163a9059cbb9160448083019260209291908290030181600087803b15801561091c57600080fd5b505af1158015610930573d6000803e3d6000fd5b505050506040513d602081101561094657600080fd5b505161095157600080fd5b5050505050505050505050565b60005460408051600160e21b6323c5b10702815233600482015290516001600160a01b0390921691638f16c41c91602480820192602092909190829003018186803b1580156109ac57600080fd5b505afa1580156109c0573d6000803e3d6000fd5b505050506040513d60208110156109d657600080fd5b50516109e157600080fd5b60025460408051600160e01b6370a0823102815230600482015290516000926001600160a01b0316916370a08231916024808301926020929190829003018186803b158015610a2f57600080fd5b505afa158015610a43573d6000803e3d6000fd5b505050506040513d6020811015610a5957600080fd5b505190508015610af15760025460408051600160e01b63a9059cbb0281526001600160a01b038581166004830152602482018590529151919092169163a9059cbb9160448083019260209291908290030181600087803b158015610abc57600080fd5b505af1158015610ad0573d6000803e3d6000fd5b505050506040513d6020811015610ae657600080fd5b5051610af157600080fd5b5050565b60005460408051600160e21b6323c5b10702815233600482015290516001600160a01b0390921691638f16c41c91602480820192602092909190829003018186803b158015610b4357600080fd5b505afa158015610b57573d6000803e3d6000fd5b505050506040513d6020811015610b6d57600080fd5b5051610b7857600080fd5b60005460408051600160e31b6227050b028152600160f21b6110d302600482015290516001600160a01b0390921691630138285891602480820192602092909190829003018186803b158015610bcd57600080fd5b505afa158015610be1573d6000803e3d6000fd5b505050506040513d6020811015610bf757600080fd5b5051600780546001600160a01b0319166001600160a01b0392831617905560005460408051600160e31b6227050b028152600160f21b6110d1026004820152905191909216916301382858916024808301926020929190829003018186803b158015610c6257600080fd5b505afa158015610c76573d6000803e3d6000fd5b505050506040513d6020811015610c8c57600080fd5b5051600880546001600160a01b0319166001600160a01b0392831617905560005460408051600160e31b6313aedd4b02815290519190921691639d76ea58916004808301926020929190829003018186803b158015610cea57600080fd5b505afa158015610cfe573d6000803e3d6000fd5b505050506040513d6020811015610d1457600080fd5b5051600280546001600160a01b0319166001600160a01b0392831617905560005460408051600160e31b6227050b028152600160f01b615443026004820152905191909216916301382858916024808301926020929190829003018186803b158015610d7f57600080fd5b505afa158015610d93573d6000803e3d6000fd5b505050506040513d6020811015610da957600080fd5b5051600380546001600160a01b0319166001600160a01b0392831617905560005460408051600160e31b6227050b028152600160f21b611511026004820152905191909216916301382858916024808301926020929190829003018186803b158015610e1457600080fd5b505afa158015610e28573d6000803e3d6000fd5b505050506040513d6020811015610e3e57600080fd5b5051600580546001600160a01b0319166001600160a01b0392831617905560005460408051600160e31b6227050b028152600160f11b612a23026004820152905191909216916301382858916024808301926020929190829003018186803b158015610ea957600080fd5b505afa158015610ebd573d6000803e3d6000fd5b505050506040513d6020811015610ed357600080fd5b5051600480546001600160a01b0319166001600160a01b0392831617815560005460408051600160e31b6227050b028152600160f01b615031029381019390935251921691630138285891602480820192602092909190829003018186803b158015610f3e57600080fd5b505afa158015610f52573d6000803e3d6000fd5b505050506040513d6020811015610f6857600080fd5b5051600980546001600160a01b0319166001600160a01b0392831617905560005460408051600160e31b6227050b028152600160f11b612819026004820152905191909216916301382858916024808301926020929190829003018186803b158015610fd357600080fd5b505afa158015610fe7573d6000803e3d6000fd5b505050506040513d6020811015610ffd57600080fd5b5051600a80546001600160a01b0319166001600160a01b0392831617905560005460408051600160e31b6227050b028152600160f21b611411026004820152905191909216916301382858916024808301926020929190829003018186803b15801561106857600080fd5b505afa15801561107c573d6000803e3d6000fd5b505050506040513d602081101561109257600080fd5b5051600b80546001600160a01b0319166001600160a01b0392831617905560005460408051600160e31b6227050b028152600160f21b611451026004820152905191909216916301382858916024808301926020929190829003018186803b1580156110fd57600080fd5b505afa158015611111573d6000803e3d6000fd5b505050506040513d602081101561112757600080fd5b5051600680546001600160a01b0319166001600160a01b0392831617905560005460408051600160e31b6227050b028152600160f11b6123ab026004820152905191909216916301382858916024808301926020929190829003018186803b15801561119257600080fd5b505afa1580156111a6573d6000803e3d6000fd5b505050506040513d60208110156111bc57600080fd5b5051600c80546001600160a01b0319166001600160a01b0392831617905560005460408051600160e31b6227050b028152600160f01b615053026004820152905191909216916301382858916024808301926020929190829003018186803b15801561122757600080fd5b505afa15801561123b573d6000803e3d6000fd5b505050506040513d602081101561125157600080fd5b5051600d80546001600160a01b0319166001600160a01b03909216919091179055565b6000806112808361184d565b600d5460408051600160e01b630ea474c70281526001600160a01b03878116600483015291519394506000939190921691630ea474c7916024808301926020929190829003018186803b1580156112d657600080fd5b505afa1580156112ea573d6000803e3d6000fd5b505050506040513d602081101561130057600080fd5b5051600c5460408051600160e11b6326fceb5d0281526001600160a01b03888116600483015291519394506000939190921691634df9d6ba916024808301926020929190829003018186803b15801561135857600080fd5b505afa15801561136c573d6000803e3d6000fd5b505050506040513d602081101561138257600080fd5b505190506113a68161139a858563ffffffff612a2b16565b9063ffffffff612a2b16565b95945050505050565b6000809054906101000a90046001600160a01b03166001600160a01b031663ff0938a76040518163ffffffff1660e01b815260040160206040518083038186803b1580156113fc57600080fd5b505afa158015611410573d6000803e3d6000fd5b505050506040513d602081101561142657600080fd5b50511580156114b0575060005460408051600160e21b63288c314902815233600482015290516001600160a01b039092169163a230c52491602480820192602092909190829003018186803b15801561147e57600080fd5b505afa158015611492573d6000803e3d6000fd5b505050506040513d60208110156114a857600080fd5b505115156001145b6114b957600080fd5b6114c281612a3d565b50565b600080600080600086600114156116855760085460408051600160e21b630d3c678b02815233600482015290516001600160a01b03909216916334f19e2c91602480820192602092909190829003018186803b15801561152457600080fd5b505afa158015611538573d6000803e3d6000fd5b505050506040513d602081101561154e57600080fd5b5051905060005b8181101561167f5760085460408051600160e01b63fc57c9bb0281523360048201526024810184905290516001600160a01b039092169163fc57c9bb91604480820192602092909190829003018186803b1580156115b257600080fd5b505afa1580156115c6573d6000803e3d6000fd5b505050506040513d60208110156115dc57600080fd5b505160085460408051600160e01b6354a1b4310281526004810184905290519296506001600160a01b03909116916354a1b43191602480820192608092909190829003018186803b15801561163057600080fd5b505afa158015611644573d6000803e3d6000fd5b505050506040513d608081101561165a57600080fd5b50602081015160609091015195509250868314156116775761167f565b600101611555565b50611830565b60085460408051600160e01b63274d865f02815233600482015290516001600160a01b039092169163274d865f91602480820192602092909190829003018186803b1580156116d357600080fd5b505afa1580156116e7573d6000803e3d6000fd5b505050506040513d60208110156116fd57600080fd5b5051905060005b8181101561182e5760085460408051600160e11b637968b7150281523360048201526024810184905290516001600160a01b039092169163f2d16e2a91604480820192602092909190829003018186803b15801561176157600080fd5b505afa158015611775573d6000803e3d6000fd5b505050506040513d602081101561178b57600080fd5b505160085460408051600160e01b6354a1b4310281526004810184905290519296506001600160a01b03909116916354a1b43191602480820192608092909190829003018186803b1580156117df57600080fd5b505afa1580156117f3573d6000803e3d6000fd5b505050506040513d608081101561180957600080fd5b50602081015160609091015195509250868314156118265761182e565b600101611704565b505b61183c878460016124b7565b509199959850949650505050505050565b60085460408051600160e21b630d3c678b0281526001600160a01b0384811660048301529151600093849316916334f19e2c916024808301926020929190829003018186803b15801561189f57600080fd5b505afa1580156118b3573d6000803e3d6000fd5b505050506040513d60208110156118c957600080fd5b505160085460408051600160e01b6304ecffeb0281526001600160a01b038781166004830152825194955060009485948594859493909116926304ecffeb9260248083019392829003018186803b15801561192357600080fd5b505afa158015611937573d6000803e3d6000fd5b505050506040513d604081101561194d57600080fd5b5080516020909101519094509250835b85811015611a195760085460408051600160e01b63fc57c9bb0281526001600160a01b038b81166004830152602482018590529151919092169163fc57c9bb916044808301926020929190829003018186803b1580156119bc57600080fd5b505afa1580156119d0573d6000803e3d6000fd5b505050506040513d60208110156119e657600080fd5b505191506119f760018360006124b7565b50919450611a0f91508890508463ffffffff612a2b16565b965060010161195d565b5060085460408051600160e01b63274d865f0281526001600160a01b038a811660048301529151919092169163274d865f916024808301926020929190829003018186803b158015611a6a57600080fd5b505afa158015611a7e573d6000803e3d6000fd5b505050506040513d6020811015611a9457600080fd5b50519450825b85811015611b555760085460408051600160e11b637968b7150281526001600160a01b038b81166004830152602482018590529151919092169163f2d16e2a916044808301926020929190829003018186803b158015611af957600080fd5b505afa158015611b0d573d6000803e3d6000fd5b505050506040513d6020811015611b2357600080fd5b50519150611b33600083816124b7565b50919450611b4b91508890508463ffffffff612a2b16565b9650600101611a9a565b505050505050919050565b6000809054906101000a90046001600160a01b03166001600160a01b031663ff0938a76040518163ffffffff1660e01b815260040160206040518083038186803b158015611bad57600080fd5b505afa158015611bc1573d6000803e3d6000fd5b505050506040513d6020811015611bd757600080fd5b5051158015611c61575060005460408051600160e21b63288c314902815233600482015290516001600160a01b039092169163a230c52491602480820192602092909190829003018186803b158015611c2f57600080fd5b505afa158015611c43573d6000803e3d6000fd5b505050506040513d6020811015611c5957600080fd5b505115156001145b611c6a57600080fd5b611c7381612a3d565b600d5460408051600160e21b632e1b8c8702815233600482015290516001600160a01b039092169163b86e321c9160248082019260009290919082900301818387803b158015611cc257600080fd5b505af1158015611cd6573d6000803e3d6000fd5b5050600c5460408051600160e21b6305d38c71028152336004820152602481018690529051600094506001600160a01b03909216925063174e31c491604480830192602092919082900301818787803b158015611d3257600080fd5b505af1158015611d46573d6000803e3d6000fd5b505050506040513d6020811015611d5c57600080fd5b505190508015610af15760025460408051600160e01b63a9059cbb0281523360048201526024810184905290516001600160a01b039092169163a9059cbb916044808201926020929091908290030181600087803b158015610abc57600080fd5b6000809054906101000a90046001600160a01b03166001600160a01b031663ff0938a76040518163ffffffff1660e01b815260040160206040518083038186803b158015611e0a57600080fd5b505afa158015611e1e573d6000803e3d6000fd5b505050506040513d6020811015611e3457600080fd5b505115611e4057600080fd5b60005460408051600160e21b6323c5b10702815233600482015290516001600160a01b0390921691638f16c41c91602480820192602092909190829003018186803b158015611e8e57600080fd5b505afa158015611ea2573d6000803e3d6000fd5b505050506040513d6020811015611eb857600080fd5b5051611ec357600080fd5b60085460408051600160e01b6396ff592f0281526004810184905281516000936001600160a01b0316926396ff592f9260248082019391829003018186803b158015611f0e57600080fd5b505afa158015611f22573d6000803e3d6000fd5b505050506040513d6040811015611f3857600080fd5b506020015160085460408051600160e01b630325ea370281526004810186905281519394506000936001600160a01b0390931692630325ea3792602480840193919291829003018186803b158015611f8f57600080fd5b505afa158015611fa3573d6000803e3d6000fd5b505050506040513d6040811015611fb957600080fd5b5060200151905080611fd557611fd0838383613666565b612304565b60018110158015611fe7575060058111155b15611ff757611fd0838383613b08565b80600c14156123045760065460408051600160e01b631ce48f3d02815260048101859052905160009261206092670de0b6b3a7640000926001600160a01b0390921691631ce48f3d91602480820192602092909190829003018186803b1580156106af57600080fd5b60065460408051600160e01b633c2d4daf0281526004810187905290519293506000926001600160a01b0390921691633c2d4daf91602480820192602092909190829003018186803b1580156120b557600080fd5b505afa1580156120c9573d6000803e3d6000fd5b505050506040513d60208110156120df57600080fd5b505160065460408051600160e21b6322d5c8bd0281526004810188905290519293506000926001600160a01b0390921691638b5722f491602480820192602092909190829003018186803b15801561213657600080fd5b505afa15801561214a573d6000803e3d6000fd5b505050506040513d602081101561216057600080fd5b505160095460408051600160e11b634cddac2b02815260048101899052602481018a9052604481018790526001600160a01b0386811660648301526001600160e01b031985166084830152915193945060009391909216916399bb58569160a480830192602092919082900301818787803b1580156121de57600080fd5b505af11580156121f2573d6000803e3d6000fd5b505050506040513d602081101561220857600080fd5b5051905080156122ff576004805460408051600160e01b63fd5509b70281529283018990526001600160e01b03198516602484015260448301879052516001600160a01b039091169163fd5509b791606480830192600092919082900301818387803b15801561227757600080fd5b505af115801561228b573d6000803e3d6000fd5b505060075460408051600160e11b637a88deff028152600481018c9052600e602482015290516001600160a01b03909216935063f511bdfe925060448082019260009290919082900301818387803b1580156122e657600080fd5b505af11580156122fa573d6000803e3d6000fd5b505050505b505050505b600760009054906101000a90046001600160a01b03166001600160a01b031663b23d76346040518163ffffffff1660e01b8152600401600060405180830381600087803b15801561235457600080fd5b505af1158015612368573d6000803e3d6000fd5b50505050505050565b6000546001600160a01b031681565b60008061238c8361184d565b600d5460408051600160e01b630ea474c70281526001600160a01b03878116600483015291519394506000939190921691630ea474c7916024808301926020929190829003018186803b1580156123e257600080fd5b505afa1580156123f6573d6000803e3d6000fd5b505050506040513d602081101561240c57600080fd5b50519050612420828263ffffffff612a2b16565b949350505050565b6000546001600160a01b03161561248b576000546001600160a01b0316331461248b5760408051600160e51b62461bcd02815260206004820152600a6024820152600160b11b692737ba1036b0b9ba32b902604482015290519081900360640190fd5b600080546001600160a01b039092166001600160a01b0319928316811790915560018054909216179055565b6000806000806000806000806000600860009054906101000a90046001600160a01b03166001600160a01b03166354a1b4318c6040518263ffffffff1660e01b81526004018082815260200191505060806040518083038186803b15801561251e57600080fd5b505afa158015612532573d6000803e3d6000fd5b505050506040513d608081101561254857600080fd5b5080516020808301516040808501516060909501516008548251600160e21b631381b00502815260048101859052925160009f50959d50929a509498509396508b936001600160a01b0390911692634e06c01492602480840193919291829003018186803b1580156125b957600080fd5b505afa1580156125cd573d6000803e3d6000fd5b505050506040513d60208110156125e357600080fd5b50519050600081900b6125f557600198505b8460000b8160000b148015612612575083158061261257508a6001145b156129a6578c600114156126ac5760085460408051600160e01b63c49a8b190281526004810189905290516001600160a01b039092169163c49a8b1991602480820192606092909190829003018186803b15801561266f57600080fd5b505afa158015612683573d6000803e3d6000fd5b505050506040513d606081101561269957600080fd5b5080516040909101519097509250612737565b60085460408051600160e01b63c49a8b190281526004810189905290516001600160a01b039092169163c49a8b1991602480820192606092909190829003018186803b1580156126fb57600080fd5b505afa15801561270f573d6000803e3d6000fd5b505050506040513d606081101561272557600080fd5b50602081015160409091015190975092505b86156129a6578c6001141561285d578460000b600114156127d75760085460408051600160e21b6336f401930281526004810189905290516001600160a01b039092169163dbd0064c91602480820192606092909190829003018186803b1580156127a157600080fd5b505afa1580156127b5573d6000803e3d6000fd5b505050506040513d60608110156127cb57600080fd5b50602001519150612858565b60085460408051600160e21b6336f401930281526004810189905290516001600160a01b039092169163dbd0064c91602480820192606092909190829003018186803b15801561282657600080fd5b505afa15801561283a573d6000803e3d6000fd5b505050506040513d606081101561285057600080fd5b506040015191505b61296f565b8460000b600114156128ee5760085460408051600160e11b634a4ecebb0281526004810189905290516001600160a01b039092169163949d9d7691602480820192606092909190829003018186803b1580156128b857600080fd5b505afa1580156128cc573d6000803e3d6000fd5b505050506040513d60608110156128e257600080fd5b5060200151915061296f565b60085460408051600160e11b634a4ecebb0281526004810189905290516001600160a01b039092169163949d9d7691602480820192606092909190829003018186803b15801561293d57600080fd5b505afa158015612951573d6000803e3d6000fd5b505050506040513d606081101561296757600080fd5b506040015191505b6129a361298383606463ffffffff6129c416565b6106e7856129978b8d63ffffffff6129c416565b9063ffffffff6129c416565b99505b50505050505093509350935093565b6001546001600160a01b031681565b6000826129d3575060006129ee565b828202828482816129e057fe5b04146129eb57600080fd5b90505b92915050565b6000808211612a0257600080fd5b6000828481612a0d57fe5b04949350505050565b600082821115612a2557600080fd5b50900390565b6000828201838110156129eb57600080fd5b60085460408051600160e21b630d3c678b02815233600482015290516000926001600160a01b0316916334f19e2c916024808301926020929190829003018186803b158015612a8b57600080fd5b505afa158015612a9f573d6000803e3d6000fd5b505050506040513d6020811015612ab557600080fd5b505160085460408051600160e01b6304ecffeb028152336004820152815193945060009384936001600160a01b0316926304ecffeb9260248082019391829003018186803b158015612b0657600080fd5b505afa158015612b1a573d6000803e3d6000fd5b505050506040513d6040811015612b3057600080fd5b505160055460408051600160e21b63034b044102815290519293506000928392839283926001600160a01b0390921691630d2c110491600480820192602092909190829003018186803b158015612b8657600080fd5b505afa158015612b9a573d6000803e3d6000fd5b505050506040513d6020811015612bb057600080fd5b505190506000808080888b5b8c82108015612bca57508d85105b15612f4d5760085460408051600160e01b63fc57c9bb0281523360048201526024810185905290516001600160a01b039092169163fc57c9bb91604480820192602092909190829003018186803b158015612c2457600080fd5b505afa158015612c38573d6000803e3d6000fd5b505050506040513d6020811015612c4e57600080fd5b50519b50612c5f60018d60006124b7565b929b5090995090935050808d148015612c7a57506001881515145b15612c825750805b60085460408051600160e01b6354a1b431028152600481018f905290516001600160a01b03909216916354a1b43191602480820192608092909190829003018186803b158015612cd157600080fd5b505afa158015612ce5573d6000803e3d6000fd5b505050506040513d6080811015612cfb57600080fd5b506020810151606090910151965093508215801590612d18575085155b15612d975760085460408051600160e01b63f27a1047028152600481018f9052600160248201819052915191909701966001600160a01b039092169163f27a104791604480830192600092919082900301818387803b158015612d7a57600080fd5b505af1158015612d8e573d6000803e3d6000fd5b50505050612f29565b82158015612e21575060085460408051600160e21b631381b0050281526004810187905290516001600160a01b0390921691634e06c01491602480820192602092909190829003018186803b158015612def57600080fd5b505afa158015612e03573d6000803e3d6000fd5b505050506040513d6020811015612e1957600080fd5b505160000b15155b8015612e2b575085155b15612f295760085460408051600160e01b63c49a8b190281526004810187905290516001600160a01b039092169163c49a8b1991602480820192606092909190829003018186803b158015612e7f57600080fd5b505afa158015612e93573d6000803e3d6000fd5b505050506040513d6060811015612ea957600080fd5b5051925082612eb9576001909401935b60085460408051600160e01b63f27a1047028152600481018f90526001602482015290516001600160a01b039092169163f27a10479160448082019260009290919082900301818387803b158015612f1057600080fd5b505af1158015612f24573d6000803e3d6000fd5b505050505b8815612f4257612f3f898b63ffffffff612a2b16565b99505b600190910190612bbc565b8c811415612fc85760085460408051600160e21b632f9f2f170281523360048201526024810185905290516001600160a01b039092169163be7cbc5c9160448082019260009290919082900301818387803b158015612fab57600080fd5b505af1158015612fbf573d6000803e3d6000fd5b50505050613037565b60085460408051600160e21b632f9f2f170281523360048201526024810184905290516001600160a01b039092169163be7cbc5c9160448082019260009290919082900301818387803b15801561301e57600080fd5b505af1158015613032573d6000803e3d6000fd5b505050505b60085460408051600160e01b63274d865f02815233600482015290516001600160a01b039092169163274d865f91602480820192602092909190829003018186803b15801561308557600080fd5b505afa158015613099573d6000803e3d6000fd5b505050506040513d60208110156130af57600080fd5b50519c508c90506130c6878663ffffffff6129c416565b60035460408051600160e01b63179e91f1028152336004820152600160e81b62434c4102602482015242604482015290519299506000926001600160a01b039092169163179e91f191606480820192602092909190829003018186803b15801561312f57600080fd5b505afa158015613143573d6000803e3d6000fd5b505050506040513d602081101561315957600080fd5b505111156131df5760035460408051600160e01b631fea558f028152336004820152600160e81b62434c41026024820152604481018a905290516001600160a01b0390921691631fea558f9160648082019260009290919082900301818387803b1580156131c657600080fd5b505af11580156131da573d6000803e3d6000fd5b505050505b60085460408051600160e01b6304ecffeb02815233600482015281516001600160a01b03909316926304ecffeb92602480840193919291829003018186803b15801561322a57600080fd5b505afa15801561323e573d6000803e3d6000fd5b505050506040513d604081101561325457600080fd5b50602001519a50600094508a91508c90505b8c8210801561327457508d85105b156134da5760085460408051600160e11b637968b7150281523360048201526024810185905290516001600160a01b039092169163f2d16e2a91604480820192602092909190829003018186803b1580156132ce57600080fd5b505afa1580156132e2573d6000803e3d6000fd5b505050506040513d60208110156132f857600080fd5b50519b5061330860008d816124b7565b50919a50985050808d14801561332057506001881515145b156133285750805b60085460408051600160e01b6354a1b431028152600481018f905290516001600160a01b03909216916354a1b43191602480820192608092909190829003018186803b15801561337757600080fd5b505afa15801561338b573d6000803e3d6000fd5b505050506040513d60808110156133a157600080fd5b506020810151606090910151965093508515801561343b575060085460408051600160e21b631381b0050281526004810187905290516001600160a01b0390921691634e06c01491602480820192602092909190829003018186803b15801561340957600080fd5b505afa15801561341d573d6000803e3d6000fd5b505050506040513d602081101561343357600080fd5b505160000b15155b156134b65760085460408051600160e01b63f27a1047028152600481018f90526001602482015290516001600160a01b039092169163f27a10479160448082019260009290919082900301818387803b15801561349757600080fd5b505af11580156134ab573d6000803e3d6000fd5b505060019096019550505b88156134cf576134cc898b63ffffffff612a2b16565b99505b600190910190613266565b891561356c5760025460408051600160e01b63a9059cbb028152336004820152602481018d905290516001600160a01b039092169163a9059cbb916044808201926020929091908290030181600087803b15801561353757600080fd5b505af115801561354b573d6000803e3d6000fd5b505050506040513d602081101561356157600080fd5b505161356c57600080fd5b8c8114156135e75760085460408051600160e21b630f305e950281523360048201526024810185905290516001600160a01b0390921691633cc17a549160448082019260009290919082900301818387803b1580156135ca57600080fd5b505af11580156135de573d6000803e3d6000fd5b50505050613656565b60085460408051600160e21b630f305e950281523360048201526024810184905290516001600160a01b0390921691633cc17a549160448082019260009290919082900301818387803b15801561363d57600080fd5b505af1158015613651573d6000803e3d6000fd5b505050505b5050505050505050505050505050565b60075460408051600160e11b63778aa6790281526004810186905290516001600160a01b039092169163ef154cf291602480820192602092909190829003018186803b1580156136b557600080fd5b505afa1580156136c9573d6000803e3d6000fd5b505050506040513d60208110156136df57600080fd5b505160000b60011415613b035760075460408051600160e01b6357af051502815260048101869052600060248201819052915191926001600160a01b0316916357af051591604480820192602092909190829003018186803b15801561374457600080fd5b505afa158015613758573d6000803e3d6000fd5b505050506040513d602081101561376e57600080fd5b505160085460408051600160e21b631509d4c90281526004810188905260016024820152815193945060009384938493849384936001600160a01b0390931692635427532492604480840193919291829003018186803b1580156137d157600080fd5b505afa1580156137e5573d6000803e3d6000fd5b505050506040513d60408110156137fb57600080fd5b506020015160085460408051600160e21b631509d4c9028152600481018d9052600019602482015281519398506001600160a01b03909216926354275324926044808201939291829003018186803b15801561385657600080fd5b505afa15801561386a573d6000803e3d6000fd5b505050506040513d604081101561388057600080fd5b50602001519350613897858563ffffffff612a2b16565b92506138aa85606463ffffffff6129c416565b94506138bd84606463ffffffff6129c416565b9350856138cd5760039650613a7b565b60065460408051600160e01b631ce48f3d028152600481018b9052905161392a92670de0b6b3a7640000926001600160a01b0390911691631ce48f3d91602480820192602092909190829003018186803b1580156106af57600080fd5b905061393d81600563ffffffff6129c416565b861115613a47576046613956868563ffffffff6129f416565b11156139d957600654600797506001600160a01b031663ae1c5eca8960015b6040518363ffffffff1660e01b8152600401808381526020018260ff1660ff16815260200192505050600060405180830381600087803b1580156139b857600080fd5b505af11580156139cc573d6000803e3d6000fd5b5050505060019150613a42565b60466139eb858563ffffffff6129f416565b1115613a0e57600680549097506001600160a01b031663ae1c5eca896002613975565b613a1e848463ffffffff6129f416565b613a2e868563ffffffff6129f416565b1115613a3d5760049650613a42565b600596505b613a7b565b613a57848463ffffffff6129f416565b613a67868563ffffffff6129f416565b1115613a765760029650613a7b565b600396505b60075460408051600160e11b637a88deff028152600481018c9052602481018a905290516001600160a01b039092169163f511bdfe9160448082019260009290919082900301818387803b158015613ad257600080fd5b505af1158015613ae6573d6000803e3d6000fd5b505050508115613afc57613afc8989838a613fcb565b5050505050505b505050565b60075460408051600160e11b63778aa6790281526004810186905290516001600160a01b039092169163ef154cf291602480820192602092909190829003018186803b158015613b5757600080fd5b505afa158015613b6b573d6000803e3d6000fd5b505050506040513d6020811015613b8157600080fd5b505160000b60011415613b035760075460408051600160e01b6357af051502815260048101869052600160248201529051600092849284926001600160a01b03909216916357af051591604480820192602092909190829003018186803b158015613beb57600080fd5b505afa158015613bff573d6000803e3d6000fd5b505050506040513d6020811015613c1557600080fd5b505160065460408051600160e01b631ce48f3d028152600481018990529051929350600092613c7a92670de0b6b3a7640000926001600160a01b0390911691631ce48f3d91602480820192602092909190829003018186803b1580156106af57600080fd5b90506000613c8f82600563ffffffff6129c416565b831015613c9a575060015b60085460408051600160e01b635ca1ce8b028152600481018b90526001602482015281516000936001600160a01b031692635ca1ce8b9260448082019391829003018186803b158015613cec57600080fd5b505afa158015613d00573d6000803e3d6000fd5b505050506040513d6040811015613d1657600080fd5b506020015160085460408051600160e01b635ca1ce8b028152600481018d9052600019602482015281519394506000936001600160a01b0390931692635ca1ce8b92604480840193919291829003018186803b158015613d7557600080fd5b505afa158015613d89573d6000803e3d6000fd5b505050506040513d6040811015613d9f57600080fd5b506020015190506000613db8838363ffffffff612a2b16565b1115613e74576032613de4613dd3848463ffffffff612a2b16565b6106e785606463ffffffff6129c416565b10158015613df25750600186115b8015613dff575060058611155b8015613e09575082155b15613e1b576008975060019650613e74565b6032613e41613e30848463ffffffff612a2b16565b6106e784606463ffffffff6129c416565b10158015613e4f5750600186115b8015613e5c575060058611155b8015613e66575082155b15613e745760099750600296505b826001148015613e8e57508560021480613e8e5750856004145b15613ea057600a975060019650613ed3565b826001148015613ec557508560051480613eba5750856003145b80613ec55750856001145b15613ed357600b9750600296505b60075460408051600160e11b637a88deff028152600481018d9052602481018b905290516001600160a01b039092169163f511bdfe9160448082019260009290919082900301818387803b158015613f2a57600080fd5b505af1158015613f3e573d6000803e3d6000fd5b505060065460408051600160e11b63570e2f65028152600481018e905260ff8c16602482015290516001600160a01b03909216935063ae1c5eca925060448082019260009290919082900301818387803b158015613f9b57600080fd5b505af1158015613faf573d6000803e3d6000fd5b50505050613fbf8a8a868b613fcb565b50505050505050505050565b60065460408051600160e01b63504dbcf10281526004810186905290516000926001600160a01b03169163504dbcf1916024808301926020929190829003018186803b15801561401a57600080fd5b505afa15801561402e573d6000803e3d6000fd5b505050506040513d602081101561404457600080fd5b505160065460408051600160e21b6322d5c8bd0281526004810188905290519293506000926001600160a01b0390921691638b5722f491602480820192602092909190829003018186803b15801561409b57600080fd5b505afa1580156140af573d6000803e3d6000fd5b505050506040513d60208110156140c557600080fd5b505160085460408051600160e11b635459cad50281529051929350600092614159926064926106e7926001600160a01b039092169163a8b395aa91600480820192602092909190829003018186803b15801561412057600080fd5b505afa158015614134573d6000803e3d6000fd5b505050506040513d602081101561414a57600080fd5b5051869063ffffffff6129c416565b60085460408051600160e01b635f39579d02815260048101889052815193945060009384936001600160a01b031692635f39579d9260248082019391829003018186803b1580156141a957600080fd5b505afa1580156141bd573d6000803e3d6000fd5b505050506040513d60408110156141d357600080fd5b50805160209091015160085460408051600160e11b6363393925028152600481018e905260248101859052604481018490526064810188905290519395509193506001600160a01b03169163c672724a9160848082019260009290919082900301818387803b15801561424557600080fd5b505af1158015614259573d6000803e3d6000fd5b50505050600082118061426c5750600081115b156142e05760035460408051600160e01b6340c10f190281523060048201526024810186905290516001600160a01b03909216916340c10f199160448082019260009290919082900301818387803b1580156142c757600080fd5b505af11580156142db573d6000803e3d6000fd5b505050505b85600614806142ef5750856009145b806142fa575085600b145b156145d25760085460408051600160e01b6346f4da57028152600481018c9052600019602482015290516001600160a01b03909216916346f4da579160448082019260009290919082900301818387803b15801561435757600080fd5b505af115801561436b573d6000803e3d6000fd5b505060055460408051600160e41b6308831d59028152600481018d905260006024820181905291516001600160a01b039093169450638831d59093506044808201939182900301818387803b1580156143c357600080fd5b505af11580156143d7573d6000803e3d6000fd5b50506004805460408051600160e01b637dded30d0281529283018d9052516001600160a01b039091169350637dded30d925060248083019260209291908290030181600087803b15801561442a57600080fd5b505af115801561443e573d6000803e3d6000fd5b505050506040513d602081101561445457600080fd5b5050600b5460408051600160e81b62487d2d0281526001600160e01b03198716600482015290516001600160a01b039092169163d17505859187916144f4918c91869163487d2d00916024808301926020929190829003018186803b1580156144bc57600080fd5b505afa1580156144d0573d6000803e3d6000fd5b505050506040513d60208110156144e657600080fd5b50519063ffffffff612a1616565b6040518363ffffffff1660e01b815260040180836001600160e01b0319166001600160e01b031916815260200182815260200192505050600060405180830381600087803b15801561454557600080fd5b505af1158015614559573d6000803e3d6000fd5b5050600a5460408051600160e81b622d9fa50281526001600160e01b03198916600482015290516001600160a01b039092169350632d9fa500925060248082019260009290919082900301818387803b1580156145b557600080fd5b505af11580156145c9573d6000803e3d6000fd5b50505050613afc565b85600714806145e15750856008145b806145ec575085600a145b15613afc5760085460408051600160e01b6346f4da57028152600481018c90526001602482015290516001600160a01b03909216916346f4da579160448082019260009290919082900301818387803b15801561464857600080fd5b505af115801561465c573d6000803e3d6000fd5b505060055460408051600160e41b6308831d59028152600481018d905260006024820181905291516001600160a01b039093169450638831d59093506044808201939182900301818387803b1580156146b457600080fd5b505af11580156146c8573d6000803e3d6000fd5b50506004805460408051600160e21b63217d48810281529283018d9052516001600160a01b0390911693506385f522049250602480830192600092919082900301818387803b15801561471a57600080fd5b505af115801561472e573d6000803e3d6000fd5b505050506000600960009054906101000a90046001600160a01b03166001600160a01b03166399bb58568a8c8b600660009054906101000a90046001600160a01b03166001600160a01b0316633c2d4daf8f6040518263ffffffff1660e01b81526004018082815260200191505060206040518083038186803b1580156147b457600080fd5b505afa1580156147c8573d6000803e3d6000fd5b505050506040513d60208110156147de57600080fd5b50516040805163ffffffff871660e01b81526004810195909552602485019390935260448401919091526001600160a01b031660648301526001600160e01b0319891660848301525160a48083019260209291908290030181600087803b15801561484857600080fd5b505af115801561485c573d6000803e3d6000fd5b505050506040513d602081101561487257600080fd5b505190508015613fbf576004805460408051600160e01b63fd5509b70281529283018c90526001600160e01b031988166024840152604483018b9052516001600160a01b039091169163fd5509b791606480830192600092919082900301818387803b1580156148e157600080fd5b505af1158015613656573d6000803e3d6000fdfea165627a7a7230582027598cb89a332d3366b15e5d4162d2df3c832743043316eafc45b74e8f0e5d700029",
  "source": "/* Copyright (C) 2020 Soteria.finance\n\n  This program is free software: you can redistribute it and/or modify\n    it under the terms of the GNU General Public License as published by\n    the Free Software Foundation, either version 3 of the License, or\n    (at your option) any later version.\n\n  This program is distributed in the hope that it will be useful,\n    but WITHOUT ANY WARRANTY; without even the implied warranty of\n    MERCHANTABILITY or FITNESS FOR A PARTICULAR PURPOSE.  See the\n    GNU General Public License for more details.\n\n  You should have received a copy of the GNU General Public License\n    along with this program.  If not, see http://www.gnu.org/licenses/ */\n\n//Claims Reward Contract contains the functions for calculating number of tokens\n// that will get rewarded, unlocked or burned depending upon the status of claim.\n\npragma solidity 0.5.7;\n\nimport \"./ClaimsData.sol\";\nimport \"./Governance.sol\";\nimport \"./Claims.sol\";\nimport \"./Pool1.sol\";\nimport \"./interfaces/IPooledStaking.sol\";\n\n\ncontract ClaimsReward is Iupgradable {\n     using SafeMath for uint;\n\n    SOTEToken internal tk;\n    TokenController internal tc;\n    TokenFunctions internal tf;\n    TokenData internal td;\n    QuotationData internal qd;\n    Claims internal c1;\n    ClaimsData internal cd;\n    Pool1 internal p1;\n    Pool2 internal p2;\n    PoolData internal pd;\n    Governance internal gv;\n    IPooledStaking internal pooledStaking;\n\n    uint private constant DECIMAL1E18 = uint(10) ** 18;\n\n    function changeDependentContractAddress() public onlyInternal {\n        c1 = Claims(ms.getLatestAddress(\"CL\"));\n        cd = ClaimsData(ms.getLatestAddress(\"CD\"));\n        tk = SOTEToken(ms.tokenAddress());\n        tc = TokenController(ms.getLatestAddress(\"TC\"));\n        td = TokenData(ms.getLatestAddress(\"TD\"));\n        tf = TokenFunctions(ms.getLatestAddress(\"TF\"));\n        p1 = Pool1(ms.getLatestAddress(\"P1\"));\n        p2 = Pool2(ms.getLatestAddress(\"P2\"));\n        pd = PoolData(ms.getLatestAddress(\"PD\"));\n        qd = QuotationData(ms.getLatestAddress(\"QD\"));\n        gv = Governance(ms.getLatestAddress(\"GV\"));\n        pooledStaking = IPooledStaking(ms.getLatestAddress(\"PS\"));\n    }\n\n    /// @dev Decides the next course of action for a given claim.\n    function changeClaimStatus(uint claimid) public checkPause onlyInternal {\n\n        uint coverid;\n        (, coverid) = cd.getClaimCoverId(claimid);\n\n        uint status;\n        (, status) = cd.getClaimStatusNumber(claimid);\n\n        // when current status is \"Pending-Claim Assessor Vote\"\n        if (status == 0) {\n            _changeClaimStatusCA(claimid, coverid, status);\n        } else if (status >= 1 && status <= 5) {\n            _changeClaimStatusMV(claimid, coverid, status);\n        } else if (status == 12) { // when current status is \"Claim Accepted Payout Pending\"\n\n            uint sumAssured = qd.getCoverSumAssured(coverid).mul(DECIMAL1E18);\n            address payable coverHolder = qd.getCoverMemberAddress(coverid);\n            bytes4 coverCurrency = qd.getCurrencyOfCover(coverid);\n            bool success = p1.sendClaimPayout(coverid, claimid, sumAssured, coverHolder, coverCurrency);\n\n            if (success) {\n                tf.burnStakedTokens(coverid, coverCurrency, sumAssured);\n                c1.setClaimStatus(claimid, 14);\n            }\n        }\n\n        c1.changePendingClaimStart();\n    }\n\n    /// @dev Amount of tokens to be rewarded to a user for a particular vote id.\n    /// @param check 1 -> CA vote, else member vote\n    /// @param voteid vote id for which reward has to be Calculated\n    /// @param flag if 1 calculate even if claimed,else don't calculate if already claimed\n    /// @return tokenCalculated reward to be given for vote id\n    /// @return lastClaimedCheck true if final verdict is still pending for that voteid\n    /// @return tokens number of tokens locked under that voteid\n    /// @return perc percentage of reward to be given.\n    function getRewardToBeGiven(\n        uint check,\n        uint voteid,\n        uint flag\n    )\n        public\n        view\n        returns (\n            uint tokenCalculated,\n            bool lastClaimedCheck,\n            uint tokens,\n            uint perc\n        )\n\n    {\n        uint claimId;\n        int8 verdict;\n        bool claimed;\n        uint tokensToBeDist;\n        uint totalTokens;\n        (tokens, claimId, verdict, claimed) = cd.getVoteDetails(voteid);\n        lastClaimedCheck = false;\n        int8 claimVerdict = cd.getFinalVerdict(claimId);\n        if (claimVerdict == 0) {\n            lastClaimedCheck = true;\n        }\n\n        if (claimVerdict == verdict && (claimed == false || flag == 1)) {\n\n            if (check == 1) {\n                (perc, , tokensToBeDist) = cd.getClaimRewardDetail(claimId);\n            } else {\n                (, perc, tokensToBeDist) = cd.getClaimRewardDetail(claimId);\n            }\n\n            if (perc > 0) {\n                if (check == 1) {\n                    if (verdict == 1) {\n                        (, totalTokens, ) = cd.getClaimsTokenCA(claimId);\n                    } else {\n                        (, , totalTokens) = cd.getClaimsTokenCA(claimId);\n                    }\n                } else {\n                    if (verdict == 1) {\n                        (, totalTokens, ) = cd.getClaimsTokenMV(claimId);\n                    }else {\n                        (, , totalTokens) = cd.getClaimsTokenMV(claimId);\n                    }\n                }\n                tokenCalculated = (perc.mul(tokens).mul(tokensToBeDist)).div(totalTokens.mul(100));\n\n\n            }\n        }\n    }\n\n    /// @dev Transfers all tokens held by contract to a new contract in case of upgrade.\n    function upgrade(address _newAdd) public onlyInternal {\n        uint amount = tk.balanceOf(address(this));\n        if (amount > 0) {\n            require(tk.transfer(_newAdd, amount));\n        }\n\n    }\n\n    /// @dev Total reward in token due for claim by a user.\n    /// @return total total number of tokens\n    function getRewardToBeDistributedByUser(address _add) public view returns(uint total) {\n        uint lengthVote = cd.getVoteAddressCALength(_add);\n        uint lastIndexCA;\n        uint lastIndexMV;\n        uint tokenForVoteId;\n        uint voteId;\n        (lastIndexCA, lastIndexMV) = cd.getRewardDistributedIndex(_add);\n\n        for (uint i = lastIndexCA; i < lengthVote; i++) {\n            voteId = cd.getVoteAddressCA(_add, i);\n            (tokenForVoteId, , , ) = getRewardToBeGiven(1, voteId, 0);\n            total = total.add(tokenForVoteId);\n        }\n\n        lengthVote = cd.getVoteAddressMemberLength(_add);\n\n        for (uint j = lastIndexMV; j < lengthVote; j++) {\n            voteId = cd.getVoteAddressMember(_add, j);\n            (tokenForVoteId, , , ) = getRewardToBeGiven(0, voteId, 0);\n            total = total.add(tokenForVoteId);\n        }\n        return (total);\n    }\n\n    /// @dev Gets reward amount and claiming status for a given claim id.\n    /// @return reward amount of tokens to user.\n    /// @return claimed true if already claimed false if yet to be claimed.\n    function getRewardAndClaimedStatus(uint check, uint claimId) public view returns(uint reward, bool claimed) {\n        uint voteId;\n        uint claimid;\n        uint lengthVote;\n\n        if (check == 1) {\n            lengthVote = cd.getVoteAddressCALength(msg.sender);\n            for (uint i = 0; i < lengthVote; i++) {\n                voteId = cd.getVoteAddressCA(msg.sender, i);\n                (, claimid, , claimed) = cd.getVoteDetails(voteId);\n                if (claimid == claimId) { break; }\n            }\n        } else {\n            lengthVote = cd.getVoteAddressMemberLength(msg.sender);\n            for (uint j = 0; j < lengthVote; j++) {\n                voteId = cd.getVoteAddressMember(msg.sender, j);\n                (, claimid, , claimed) = cd.getVoteDetails(voteId);\n                if (claimid == claimId) { break; }\n            }\n        }\n        (reward, , , ) = getRewardToBeGiven(check, voteId, 1);\n\n    }\n\n    /**\n     * @dev Function used to claim all pending rewards : Claims Assessment + Risk Assessment + Governance\n     * Claim assesment, Risk assesment, Governance rewards\n     */\n    function claimAllPendingReward(uint records) public isMemberAndcheckPause {\n        _claimRewardToBeDistributed(records);\n        pooledStaking.withdrawReward(msg.sender);\n        uint governanceRewards = gv.claimReward(msg.sender, records);\n        if (governanceRewards > 0) {\n            require(tk.transfer(msg.sender, governanceRewards));\n        }\n    }\n\n    /**\n     * @dev Function used to claim all pending rewards : Claims Assessment + Risk Assessment\n     * Claim assesment, Risk assesment\n     */\n    function claimPendingReward(uint records) public isMemberAndcheckPause {\n        _claimRewardToBeDistributed(records);\n    }\n    \n    /**\n     * @dev Function used to get pending rewards of a particular user address.\n     * @param _add user address.\n     * @return total reward amount of the user\n     */\n    function getPendingRewardOfUser(address _add) public view returns(uint) {\n        uint caReward = getRewardToBeDistributedByUser(_add);\n        uint pooledStakingReward = pooledStaking.stakerReward(_add);\n        return caReward.add(pooledStakingReward);\n    }\n\n    /**\n     * @dev Function used to get pending rewards of a particular user address.\n     * @param _add user address.\n     * @return total reward amount of the user\n     */\n    function getAllPendingRewardOfUser(address _add) public view returns(uint) {\n        uint caReward = getRewardToBeDistributedByUser(_add);\n        uint pooledStakingReward = pooledStaking.stakerReward(_add);\n        uint governanceReward = gv.getPendingReward(_add);\n        return caReward.add(pooledStakingReward).add(governanceReward);\n    }\n\n    /// @dev Rewards/Punishes users who  participated in Claims assessment.\n    //    Unlocking and burning of the tokens will also depend upon the status of claim.\n    /// @param claimid Claim Id.\n    function _rewardAgainstClaim(uint claimid, uint coverid, uint sumAssured, uint status) internal {\n        uint premiumNXM = qd.getCoverPremiumSOTE(coverid);\n        bytes4 curr = qd.getCurrencyOfCover(coverid);\n        uint distributableTokens = premiumNXM.mul(cd.claimRewardPerc()).div(100);//  20% of premium\n\n        uint percCA;\n        uint percMV;\n\n        (percCA, percMV) = cd.getRewardStatus(status);\n        cd.setClaimRewardDetail(claimid, percCA, percMV, distributableTokens);\n        if (percCA > 0 || percMV > 0) {\n            tc.mint(address(this), distributableTokens);\n        }\n\n        if (status == 6 || status == 9 || status == 11) {\n            cd.changeFinalVerdict(claimid, -1);\n            td.setDepositCN(coverid, false); // Unset flag\n            tf.burnDepositCN(coverid); // burn Deposited CN\n\n            pd.changeCurrencyAssetVarMin(curr, pd.getCurrencyAssetVarMin(curr).sub(sumAssured));\n            p2.internalLiquiditySwap(curr);\n\n        } else if (status == 7 || status == 8 || status == 10) {\n            cd.changeFinalVerdict(claimid, 1);\n            td.setDepositCN(coverid, false); // Unset flag\n            tf.unlockCN(coverid);\n            bool success = p1.sendClaimPayout(coverid, claimid, sumAssured, qd.getCoverMemberAddress(coverid), curr);\n            if (success) {\n                tf.burnStakedTokens(coverid, curr, sumAssured);\n            }\n        }\n    }\n\n    /// @dev Computes the result of Claim Assessors Voting for a given claim id.\n    function _changeClaimStatusCA(uint claimid, uint coverid, uint status) internal {\n        // Check if voting should be closed or not\n        if (c1.checkVoteClosing(claimid) == 1) {\n            uint caTokens = c1.getCATokens(claimid, 0); // converted in cover currency.\n            uint accept;\n            uint deny;\n            uint acceptAndDeny;\n            bool rewardOrPunish;\n            uint sumAssured;\n            (, accept) = cd.getClaimVote(claimid, 1);\n            (, deny) = cd.getClaimVote(claimid, -1);\n            acceptAndDeny = accept.add(deny);\n            accept = accept.mul(100);\n            deny = deny.mul(100);\n\n            if (caTokens == 0) {\n                status = 3;\n            } else {\n                sumAssured = qd.getCoverSumAssured(coverid).mul(DECIMAL1E18);\n                // Min threshold reached tokens used for voting > 5* sum assured\n                if (caTokens > sumAssured.mul(5)) {\n\n                    if (accept.div(acceptAndDeny) > 70) {\n                        status = 7;\n                        qd.changeCoverStatusNo(coverid, uint8(QuotationData.CoverStatus.ClaimAccepted));\n                        rewardOrPunish = true;\n                    } else if (deny.div(acceptAndDeny) > 70) {\n                        status = 6;\n                        qd.changeCoverStatusNo(coverid, uint8(QuotationData.CoverStatus.ClaimDenied));\n                        rewardOrPunish = true;\n                    } else if (accept.div(acceptAndDeny) > deny.div(acceptAndDeny)) {\n                        status = 4;\n                    } else {\n                        status = 5;\n                    }\n\n                } else {\n\n                    if (accept.div(acceptAndDeny) > deny.div(acceptAndDeny)) {\n                        status = 2;\n                    } else {\n                        status = 3;\n                    }\n                }\n            }\n\n            c1.setClaimStatus(claimid, status);\n\n            if (rewardOrPunish) {\n                _rewardAgainstClaim(claimid, coverid, sumAssured, status);\n            }\n        }\n    }\n\n    /// @dev Computes the result of Member Voting for a given claim id.\n    function _changeClaimStatusMV(uint claimid, uint coverid, uint status) internal {\n\n        // Check if voting should be closed or not\n        if (c1.checkVoteClosing(claimid) == 1) {\n            uint8 coverStatus;\n            uint statusOrig = status;\n            uint mvTokens = c1.getCATokens(claimid, 1); // converted in cover currency.\n\n            // If tokens used for acceptance >50%, claim is accepted\n            uint sumAssured = qd.getCoverSumAssured(coverid).mul(DECIMAL1E18);\n            uint thresholdUnreached = 0;\n            // Minimum threshold for member voting is reached only when\n            // value of tokens used for voting > 5* sum assured of claim id\n            if (mvTokens < sumAssured.mul(5)) {\n                thresholdUnreached = 1;\n            }\n\n            uint accept;\n            (, accept) = cd.getClaimMVote(claimid, 1);\n            uint deny;\n            (, deny) = cd.getClaimMVote(claimid, -1);\n\n            if (accept.add(deny) > 0) {\n                if (accept.mul(100).div(accept.add(deny)) >= 50 && statusOrig > 1 &&\n                    statusOrig <= 5 && thresholdUnreached == 0) {\n                    status = 8;\n                    coverStatus = uint8(QuotationData.CoverStatus.ClaimAccepted);\n                } else if (deny.mul(100).div(accept.add(deny)) >= 50 && statusOrig > 1 &&\n                    statusOrig <= 5 && thresholdUnreached == 0) {\n                    status = 9;\n                    coverStatus = uint8(QuotationData.CoverStatus.ClaimDenied);\n                }\n            }\n\n            if (thresholdUnreached == 1 && (statusOrig == 2 || statusOrig == 4)) {\n                status = 10;\n                coverStatus = uint8(QuotationData.CoverStatus.ClaimAccepted);\n            } else if (thresholdUnreached == 1 && (statusOrig == 5 || statusOrig == 3 || statusOrig == 1)) {\n                status = 11;\n                coverStatus = uint8(QuotationData.CoverStatus.ClaimDenied);\n            }\n\n            c1.setClaimStatus(claimid, status);\n            qd.changeCoverStatusNo(coverid, uint8(coverStatus));\n            // Reward/Punish Claim Assessors and Members who participated in Claims assessment\n            _rewardAgainstClaim(claimid, coverid, sumAssured, status);\n        }\n    }\n\n    /// @dev Allows a user to claim all pending  Claims assessment rewards.\n    function _claimRewardToBeDistributed(uint _records) internal {\n        uint lengthVote = cd.getVoteAddressCALength(msg.sender);\n        uint voteid;\n        uint lastIndex;\n        (lastIndex, ) = cd.getRewardDistributedIndex(msg.sender);\n        uint total = 0;\n        uint tokenForVoteId = 0;\n        bool lastClaimedCheck;\n        uint _days = td.lockCADays();\n        bool claimed;\n        uint counter = 0;\n        uint claimId;\n        uint perc;\n        uint i;\n        uint lastClaimed = lengthVote;\n\n        for (i = lastIndex; i < lengthVote && counter < _records; i++) {\n            voteid = cd.getVoteAddressCA(msg.sender, i);\n            (tokenForVoteId, lastClaimedCheck, , perc) = getRewardToBeGiven(1, voteid, 0);\n            if (lastClaimed == lengthVote && lastClaimedCheck == true) {\n                lastClaimed = i;\n            }\n            (, claimId, , claimed) = cd.getVoteDetails(voteid);\n\n            if (perc > 0 && !claimed) {\n                counter++;\n                cd.setRewardClaimed(voteid, true);\n            } else if (perc == 0 && cd.getFinalVerdict(claimId) != 0 && !claimed) {\n                (perc, , ) = cd.getClaimRewardDetail(claimId);\n                if (perc == 0) {\n                    counter++;\n                }\n                cd.setRewardClaimed(voteid, true);\n            }\n            if (tokenForVoteId > 0) {\n                total = tokenForVoteId.add(total);\n            }\n        }\n        if (lastClaimed == lengthVote) {\n            cd.setRewardDistributedIndexCA(msg.sender, i);\n        }\n        else {\n            cd.setRewardDistributedIndexCA(msg.sender, lastClaimed);\n        }\n        lengthVote = cd.getVoteAddressMemberLength(msg.sender);\n        lastClaimed = lengthVote;\n        _days = _days.mul(counter);\n        if (tc.tokensLockedAtTime(msg.sender, \"CLA\", now) > 0) {\n            tc.reduceLock(msg.sender, \"CLA\", _days);\n        }\n        (, lastIndex) = cd.getRewardDistributedIndex(msg.sender);\n        lastClaimed = lengthVote;\n        counter = 0;\n        for (i = lastIndex; i < lengthVote && counter < _records; i++) {\n            voteid = cd.getVoteAddressMember(msg.sender, i);\n            (tokenForVoteId, lastClaimedCheck, , ) = getRewardToBeGiven(0, voteid, 0);\n            if (lastClaimed == lengthVote && lastClaimedCheck == true) {\n                lastClaimed = i;\n            }\n            (, claimId, , claimed) = cd.getVoteDetails(voteid);\n            if (claimed == false && cd.getFinalVerdict(claimId) != 0) {\n                cd.setRewardClaimed(voteid, true);\n                counter++;\n            }\n            if (tokenForVoteId > 0) {\n                total = tokenForVoteId.add(total);\n            }\n        }\n        if (total > 0) {\n            require(tk.transfer(msg.sender, total));\n        }\n        if (lastClaimed == lengthVote) {\n            cd.setRewardDistributedIndexMV(msg.sender, i);\n        }\n        else {\n            cd.setRewardDistributedIndexMV(msg.sender, lastClaimed);\n        }\n    }\n\n    /**\n     * @dev Function used to claim the commission earned by the staker.\n     */\n    function _claimStakeCommission(uint _records, address _user) external onlyInternal {\n        uint total=0;\n        uint len = td.getStakerStakedContractLength(_user);\n        uint lastCompletedStakeCommission = td.lastCompletedStakeCommission(_user);\n        uint commissionEarned;\n        uint commissionRedeemed;\n        uint maxCommission;\n        uint lastCommisionRedeemed = len;\n        uint counter;\n        uint i;\n\n        for (i = lastCompletedStakeCommission; i < len && counter < _records; i++) {\n            commissionRedeemed = td.getStakerRedeemedStakeCommission(_user, i);\n            commissionEarned = td.getStakerEarnedStakeCommission(_user, i);\n            maxCommission = td.getStakerInitialStakedAmountOnContract(\n                _user, i).mul(td.stakerMaxCommissionPer()).div(100);\n            if (lastCommisionRedeemed == len && maxCommission != commissionEarned)\n                lastCommisionRedeemed = i;\n            td.pushRedeemedStakeCommissions(_user, i, commissionEarned.sub(commissionRedeemed));\n            total = total.add(commissionEarned.sub(commissionRedeemed));\n            counter++;\n        }\n        if (lastCommisionRedeemed == len) {\n            td.setLastCompletedStakeCommissionIndex(_user, i);\n        } else {\n            td.setLastCompletedStakeCommissionIndex(_user, lastCommisionRedeemed);\n        }\n\n        if (total > 0)\n            require(tk.transfer(_user, total)); //solhint-disable-line\n    }\n}\n",
  "sourcePath": "/Users/oker/Downloads/smart-contracts-master3/contracts/ClaimsReward.sol",
  "compiler": {
    "name": "solc",
    "version": "0.5.7+commit.6da8b019.Emscripten.clang"
  },
  "schemaVersion": "3.2.3",
  "updatedAt": "2020-12-23T08:17:06.540Z",
  "devdoc": {
    "methods": {
      "_claimStakeCommission(uint256,address)": {
        "details": "Function used to claim the commission earned by the staker."
      },
      "changeClaimStatus(uint256)": {
        "details": "Decides the next course of action for a given claim."
      },
      "changeMasterAddress(address)": {
        "details": "change master address",
        "params": {
          "_masterAddress": "is the new address"
        }
      },
      "claimAllPendingReward(uint256)": {
        "details": "Function used to claim all pending rewards : Claims Assessment + Risk Assessment + Governance Claim assesment, Risk assesment, Governance rewards"
      },
      "claimPendingReward(uint256)": {
        "details": "Function used to claim all pending rewards : Claims Assessment + Risk Assessment Claim assesment, Risk assesment"
      },
      "getAllPendingRewardOfUser(address)": {
        "details": "Function used to get pending rewards of a particular user address.",
        "params": {
          "_add": "user address."
        },
        "return": "total reward amount of the user"
      },
      "getPendingRewardOfUser(address)": {
        "details": "Function used to get pending rewards of a particular user address.",
        "params": {
          "_add": "user address."
        },
        "return": "total reward amount of the user"
      },
      "getRewardAndClaimedStatus(uint256,uint256)": {
        "details": "Gets reward amount and claiming status for a given claim id.",
        "return": "reward amount of tokens to user.claimed true if already claimed false if yet to be claimed."
      },
      "getRewardToBeDistributedByUser(address)": {
        "details": "Total reward in token due for claim by a user.",
        "return": "total total number of tokens"
      },
      "getRewardToBeGiven(uint256,uint256,uint256)": {
        "details": "Amount of tokens to be rewarded to a user for a particular vote id.",
        "params": {
          "check": "1 -> CA vote, else member vote",
          "flag": "if 1 calculate even if claimed,else don't calculate if already claimed",
          "voteid": "vote id for which reward has to be Calculated"
        },
        "return": "tokenCalculated reward to be given for vote idlastClaimedCheck true if final verdict is still pending for that voteidtokens number of tokens locked under that voteidperc percentage of reward to be given."
      },
      "upgrade(address)": {
        "details": "Transfers all tokens held by contract to a new contract in case of upgrade."
      }
    }
  },
  "userdoc": {
    "methods": {}
  }
}