{
  "contractName": "PooledStaking",
  "abi": [
    {
      "constant": true,
      "inputs": [],
      "name": "MIN_UNSTAKE",
      "outputs": [
        {
          "name": "",
          "type": "uint256"
        }
      ],
      "payable": false,
      "stateMutability": "view",
      "type": "function"
    },
    {
      "constant": true,
      "inputs": [],
      "name": "initialized",
      "outputs": [
        {
          "name": "",
          "type": "bool"
        }
      ],
      "payable": false,
      "stateMutability": "view",
      "type": "function"
    },
    {
      "constant": true,
      "inputs": [],
      "name": "processedToStakerIndex",
      "outputs": [
        {
          "name": "",
          "type": "uint256"
        }
      ],
      "payable": false,
      "stateMutability": "view",
      "type": "function"
    },
    {
      "constant": true,
      "inputs": [],
      "name": "MAX_EXPOSURE",
      "outputs": [
        {
          "name": "",
          "type": "uint256"
        }
      ],
      "payable": false,
      "stateMutability": "view",
      "type": "function"
    },
    {
      "constant": true,
      "inputs": [],
      "name": "firstReward",
      "outputs": [
        {
          "name": "",
          "type": "uint256"
        }
      ],
      "payable": false,
      "stateMutability": "view",
      "type": "function"
    },
    {
      "constant": true,
      "inputs": [],
      "name": "burn",
      "outputs": [
        {
          "name": "amount",
          "type": "uint256"
        },
        {
          "name": "burnedAt",
          "type": "uint256"
        },
        {
          "name": "contractAddress",
          "type": "address"
        }
      ],
      "payable": false,
      "stateMutability": "view",
      "type": "function"
    },
    {
      "constant": true,
      "inputs": [],
      "name": "lastUnstakeRequestId",
      "outputs": [
        {
          "name": "",
          "type": "uint256"
        }
      ],
      "payable": false,
      "stateMutability": "view",
      "type": "function"
    },
    {
      "constant": true,
      "inputs": [],
      "name": "UNSTAKE_LOCK_TIME",
      "outputs": [
        {
          "name": "",
          "type": "uint256"
        }
      ],
      "payable": false,
      "stateMutability": "view",
      "type": "function"
    },
    {
      "constant": true,
      "inputs": [],
      "name": "MIN_STAKE",
      "outputs": [
        {
          "name": "",
          "type": "uint256"
        }
      ],
      "payable": false,
      "stateMutability": "view",
      "type": "function"
    },
    {
      "constant": false,
      "inputs": [
        {
          "name": "masterAddress",
          "type": "address"
        }
      ],
      "name": "changeMasterAddress",
      "outputs": [],
      "payable": false,
      "stateMutability": "nonpayable",
      "type": "function"
    },
    {
      "constant": true,
      "inputs": [],
      "name": "isContractStakeCalculated",
      "outputs": [
        {
          "name": "",
          "type": "bool"
        }
      ],
      "payable": false,
      "stateMutability": "view",
      "type": "function"
    },
    {
      "constant": true,
      "inputs": [],
      "name": "tokenController",
      "outputs": [
        {
          "name": "",
          "type": "address"
        }
      ],
      "payable": false,
      "stateMutability": "view",
      "type": "function"
    },
    {
      "constant": true,
      "inputs": [],
      "name": "master",
      "outputs": [
        {
          "name": "",
          "type": "address"
        }
      ],
      "payable": false,
      "stateMutability": "view",
      "type": "function"
    },
    {
      "constant": true,
      "inputs": [
        {
          "name": "",
          "type": "uint256"
        }
      ],
      "name": "rewards",
      "outputs": [
        {
          "name": "amount",
          "type": "uint256"
        },
        {
          "name": "rewardedAt",
          "type": "uint256"
        },
        {
          "name": "contractAddress",
          "type": "address"
        }
      ],
      "payable": false,
      "stateMutability": "view",
      "type": "function"
    },
    {
      "constant": true,
      "inputs": [],
      "name": "lastRewardId",
      "outputs": [
        {
          "name": "",
          "type": "uint256"
        }
      ],
      "payable": false,
      "stateMutability": "view",
      "type": "function"
    },
    {
      "constant": true,
      "inputs": [
        {
          "name": "",
          "type": "uint256"
        }
      ],
      "name": "unstakeRequests",
      "outputs": [
        {
          "name": "amount",
          "type": "uint256"
        },
        {
          "name": "unstakeAt",
          "type": "uint256"
        },
        {
          "name": "contractAddress",
          "type": "address"
        },
        {
          "name": "stakerAddress",
          "type": "address"
        },
        {
          "name": "next",
          "type": "uint256"
        }
      ],
      "payable": false,
      "stateMutability": "view",
      "type": "function"
    },
    {
      "constant": true,
      "inputs": [],
      "name": "token",
      "outputs": [
        {
          "name": "",
          "type": "address"
        }
      ],
      "payable": false,
      "stateMutability": "view",
      "type": "function"
    },
    {
      "anonymous": false,
      "inputs": [
        {
          "indexed": true,
          "name": "staker",
          "type": "address"
        },
        {
          "indexed": false,
          "name": "amount",
          "type": "uint256"
        }
      ],
      "name": "Deposited",
      "type": "event"
    },
    {
      "anonymous": false,
      "inputs": [
        {
          "indexed": true,
          "name": "staker",
          "type": "address"
        },
        {
          "indexed": false,
          "name": "amount",
          "type": "uint256"
        }
      ],
      "name": "Withdrawn",
      "type": "event"
    },
    {
      "anonymous": false,
      "inputs": [
        {
          "indexed": true,
          "name": "contractAddress",
          "type": "address"
        },
        {
          "indexed": true,
          "name": "staker",
          "type": "address"
        },
        {
          "indexed": false,
          "name": "amount",
          "type": "uint256"
        }
      ],
      "name": "Staked",
      "type": "event"
    },
    {
      "anonymous": false,
      "inputs": [
        {
          "indexed": true,
          "name": "contractAddress",
          "type": "address"
        },
        {
          "indexed": true,
          "name": "staker",
          "type": "address"
        },
        {
          "indexed": false,
          "name": "amount",
          "type": "uint256"
        },
        {
          "indexed": false,
          "name": "unstakeAt",
          "type": "uint256"
        }
      ],
      "name": "UnstakeRequested",
      "type": "event"
    },
    {
      "anonymous": false,
      "inputs": [
        {
          "indexed": true,
          "name": "contractAddress",
          "type": "address"
        },
        {
          "indexed": true,
          "name": "staker",
          "type": "address"
        },
        {
          "indexed": false,
          "name": "amount",
          "type": "uint256"
        }
      ],
      "name": "Unstaked",
      "type": "event"
    },
    {
      "anonymous": false,
      "inputs": [
        {
          "indexed": true,
          "name": "contractAddress",
          "type": "address"
        },
        {
          "indexed": false,
          "name": "amount",
          "type": "uint256"
        }
      ],
      "name": "BurnRequested",
      "type": "event"
    },
    {
      "anonymous": false,
      "inputs": [
        {
          "indexed": true,
          "name": "contractAddress",
          "type": "address"
        },
        {
          "indexed": false,
          "name": "amount",
          "type": "uint256"
        },
        {
          "indexed": false,
          "name": "contractStakeBeforeBurn",
          "type": "uint256"
        }
      ],
      "name": "Burned",
      "type": "event"
    },
    {
      "anonymous": false,
      "inputs": [
        {
          "indexed": true,
          "name": "contractAddress",
          "type": "address"
        },
        {
          "indexed": false,
          "name": "amount",
          "type": "uint256"
        }
      ],
      "name": "RewardRequested",
      "type": "event"
    },
    {
      "anonymous": false,
      "inputs": [
        {
          "indexed": true,
          "name": "contractAddress",
          "type": "address"
        },
        {
          "indexed": false,
          "name": "amount",
          "type": "uint256"
        },
        {
          "indexed": false,
          "name": "contractStake",
          "type": "uint256"
        }
      ],
      "name": "Rewarded",
      "type": "event"
    },
    {
      "anonymous": false,
      "inputs": [
        {
          "indexed": true,
          "name": "staker",
          "type": "address"
        },
        {
          "indexed": false,
          "name": "amount",
          "type": "uint256"
        }
      ],
      "name": "RewardWithdrawn",
      "type": "event"
    },
    {
      "anonymous": false,
      "inputs": [
        {
          "indexed": false,
          "name": "finished",
          "type": "bool"
        }
      ],
      "name": "PendingActionsProcessed",
      "type": "event"
    },
    {
      "anonymous": false,
      "inputs": [
        {
          "indexed": false,
          "name": "completed",
          "type": "bool"
        },
        {
          "indexed": false,
          "name": "memberIndex",
          "type": "uint256"
        },
        {
          "indexed": false,
          "name": "stakeIndex",
          "type": "uint256"
        }
      ],
      "name": "StakersMigrationCompleted",
      "type": "event"
    },
    {
      "anonymous": false,
      "inputs": [
        {
          "indexed": false,
          "name": "member",
          "type": "address"
        },
        {
          "indexed": false,
          "name": "memberIndex",
          "type": "uint256"
        }
      ],
      "name": "MigratedMember",
      "type": "event"
    },
    {
      "constant": true,
      "inputs": [
        {
          "name": "contractAddress",
          "type": "address"
        }
      ],
      "name": "contractStakerCount",
      "outputs": [
        {
          "name": "",
          "type": "uint256"
        }
      ],
      "payable": false,
      "stateMutability": "view",
      "type": "function"
    },
    {
      "constant": true,
      "inputs": [
        {
          "name": "contractAddress",
          "type": "address"
        },
        {
          "name": "stakerIndex",
          "type": "uint256"
        }
      ],
      "name": "contractStakerAtIndex",
      "outputs": [
        {
          "name": "",
          "type": "address"
        }
      ],
      "payable": false,
      "stateMutability": "view",
      "type": "function"
    },
    {
      "constant": true,
      "inputs": [
        {
          "name": "contractAddress",
          "type": "address"
        }
      ],
      "name": "contractStakersArray",
      "outputs": [
        {
          "name": "_stakers",
          "type": "address[]"
        }
      ],
      "payable": false,
      "stateMutability": "view",
      "type": "function"
    },
    {
      "constant": true,
      "inputs": [
        {
          "name": "contractAddress",
          "type": "address"
        }
      ],
      "name": "contractStake",
      "outputs": [
        {
          "name": "",
          "type": "uint256"
        }
      ],
      "payable": false,
      "stateMutability": "view",
      "type": "function"
    },
    {
      "constant": true,
      "inputs": [
        {
          "name": "staker",
          "type": "address"
        }
      ],
      "name": "stakerContractCount",
      "outputs": [
        {
          "name": "",
          "type": "uint256"
        }
      ],
      "payable": false,
      "stateMutability": "view",
      "type": "function"
    },
    {
      "constant": true,
      "inputs": [
        {
          "name": "staker",
          "type": "address"
        },
        {
          "name": "contractIndex",
          "type": "uint256"
        }
      ],
      "name": "stakerContractAtIndex",
      "outputs": [
        {
          "name": "",
          "type": "address"
        }
      ],
      "payable": false,
      "stateMutability": "view",
      "type": "function"
    },
    {
      "constant": true,
      "inputs": [
        {
          "name": "staker",
          "type": "address"
        }
      ],
      "name": "stakerContractsArray",
      "outputs": [
        {
          "name": "",
          "type": "address[]"
        }
      ],
      "payable": false,
      "stateMutability": "view",
      "type": "function"
    },
    {
      "constant": true,
      "inputs": [
        {
          "name": "staker",
          "type": "address"
        },
        {
          "name": "contractAddress",
          "type": "address"
        }
      ],
      "name": "stakerContractStake",
      "outputs": [
        {
          "name": "",
          "type": "uint256"
        }
      ],
      "payable": false,
      "stateMutability": "view",
      "type": "function"
    },
    {
      "constant": true,
      "inputs": [
        {
          "name": "staker",
          "type": "address"
        },
        {
          "name": "contractAddress",
          "type": "address"
        }
      ],
      "name": "stakerContractPendingUnstakeTotal",
      "outputs": [
        {
          "name": "",
          "type": "uint256"
        }
      ],
      "payable": false,
      "stateMutability": "view",
      "type": "function"
    },
    {
      "constant": true,
      "inputs": [
        {
          "name": "staker",
          "type": "address"
        }
      ],
      "name": "stakerReward",
      "outputs": [
        {
          "name": "",
          "type": "uint256"
        }
      ],
      "payable": false,
      "stateMutability": "view",
      "type": "function"
    },
    {
      "constant": true,
      "inputs": [
        {
          "name": "staker",
          "type": "address"
        }
      ],
      "name": "stakerDeposit",
      "outputs": [
        {
          "name": "",
          "type": "uint256"
        }
      ],
      "payable": false,
      "stateMutability": "view",
      "type": "function"
    },
    {
      "constant": true,
      "inputs": [
        {
          "name": "stakerAddress",
          "type": "address"
        }
      ],
      "name": "stakerMaxWithdrawable",
      "outputs": [
        {
          "name": "",
          "type": "uint256"
        }
      ],
      "payable": false,
      "stateMutability": "view",
      "type": "function"
    },
    {
      "constant": true,
      "inputs": [
        {
          "name": "unstakeRequestId",
          "type": "uint256"
        }
      ],
      "name": "unstakeRequestAtIndex",
      "outputs": [
        {
          "name": "amount",
          "type": "uint256"
        },
        {
          "name": "unstakeAt",
          "type": "uint256"
        },
        {
          "name": "contractAddress",
          "type": "address"
        },
        {
          "name": "stakerAddress",
          "type": "address"
        },
        {
          "name": "next",
          "type": "uint256"
        }
      ],
      "payable": false,
      "stateMutability": "view",
      "type": "function"
    },
    {
      "constant": true,
      "inputs": [],
      "name": "hasPendingActions",
      "outputs": [
        {
          "name": "",
          "type": "bool"
        }
      ],
      "payable": false,
      "stateMutability": "view",
      "type": "function"
    },
    {
      "constant": true,
      "inputs": [],
      "name": "hasPendingBurns",
      "outputs": [
        {
          "name": "",
          "type": "bool"
        }
      ],
      "payable": false,
      "stateMutability": "view",
      "type": "function"
    },
    {
      "constant": true,
      "inputs": [],
      "name": "hasPendingUnstakeRequests",
      "outputs": [
        {
          "name": "",
          "type": "bool"
        }
      ],
      "payable": false,
      "stateMutability": "view",
      "type": "function"
    },
    {
      "constant": true,
      "inputs": [],
      "name": "hasPendingRewards",
      "outputs": [
        {
          "name": "",
          "type": "bool"
        }
      ],
      "payable": false,
      "stateMutability": "view",
      "type": "function"
    },
    {
      "constant": false,
      "inputs": [
        {
          "name": "amount",
          "type": "uint256"
        },
        {
          "name": "_contracts",
          "type": "address[]"
        },
        {
          "name": "_stakes",
          "type": "uint256[]"
        }
      ],
      "name": "depositAndStake",
      "outputs": [],
      "payable": false,
      "stateMutability": "nonpayable",
      "type": "function"
    },
    {
      "constant": false,
      "inputs": [
        {
          "name": "amount",
          "type": "uint256"
        }
      ],
      "name": "withdraw",
      "outputs": [],
      "payable": false,
      "stateMutability": "nonpayable",
      "type": "function"
    },
    {
      "constant": false,
      "inputs": [
        {
          "name": "_contracts",
          "type": "address[]"
        },
        {
          "name": "_amounts",
          "type": "uint256[]"
        },
        {
          "name": "_insertAfter",
          "type": "uint256"
        }
      ],
      "name": "requestUnstake",
      "outputs": [],
      "payable": false,
      "stateMutability": "nonpayable",
      "type": "function"
    },
    {
      "constant": false,
      "inputs": [
        {
          "name": "stakerAddress",
          "type": "address"
        }
      ],
      "name": "withdrawReward",
      "outputs": [],
      "payable": false,
      "stateMutability": "nonpayable",
      "type": "function"
    },
    {
      "constant": false,
      "inputs": [
        {
          "name": "contractAddress",
          "type": "address"
        },
        {
          "name": "amount",
          "type": "uint256"
        }
      ],
      "name": "pushBurn",
      "outputs": [],
      "payable": false,
      "stateMutability": "nonpayable",
      "type": "function"
    },
    {
      "constant": false,
      "inputs": [
        {
          "name": "contractAddress",
          "type": "address"
        },
        {
          "name": "amount",
          "type": "uint256"
        }
      ],
      "name": "pushReward",
      "outputs": [],
      "payable": false,
      "stateMutability": "nonpayable",
      "type": "function"
    },
    {
      "constant": false,
      "inputs": [
        {
          "name": "maxIterations",
          "type": "uint256"
        }
      ],
      "name": "processPendingActions",
      "outputs": [
        {
          "name": "",
          "type": "bool"
        }
      ],
      "payable": false,
      "stateMutability": "nonpayable",
      "type": "function"
    },
    {
      "constant": false,
      "inputs": [
        {
          "name": "code",
          "type": "bytes8"
        },
        {
          "name": "value",
          "type": "uint256"
        }
      ],
      "name": "updateUintParameters",
      "outputs": [],
      "payable": false,
      "stateMutability": "nonpayable",
      "type": "function"
    },
    {
      "constant": false,
      "inputs": [
        {
          "name": "maxIterations",
          "type": "uint256"
        }
      ],
      "name": "migrateStakers",
      "outputs": [
        {
          "name": "",
          "type": "bool"
        }
      ],
      "payable": false,
      "stateMutability": "nonpayable",
      "type": "function"
    },
    {
      "constant": false,
      "inputs": [],
      "name": "changeDependentContractAddress",
      "outputs": [],
      "payable": false,
      "stateMutability": "nonpayable",
      "type": "function"
    }
  ],
  "bytecode": "0x608060405234801561001057600080fd5b50614ca5806100206000396000f3fe608060405234801561001057600080fd5b50600436106102745760003560e01c80638e91e6bd11610151578063ead4d174116100c3578063f2078db511610087578063f2078db51461085a578063f301af4214610880578063f52790bc1461089d578063f87975af146108a5578063fc0c546a146108c2578063ff551c84146108ca57610274565b8063ead4d174146107e8578063eae01718146107f0578063eddd9d821461081e578063ee97f7f314610826578063ef30375d1461082e57610274565b8063b86e321c11610115578063b86e321c14610635578063c001472e1461065b578063cb1c2b5c14610720578063d46655f414610728578063d6b5b8521461074e578063e3bc92c01461079657610274565b80638e91e6bd14610514578063908ad10a146105d25780639dd86e0f146105da578063a4cc380b14610607578063afd369fd1461060f57610274565b806334892cea116101ea57806368989a59116101ae57806368989a591461046f5780637272135a1461049b57806372af2932146104a357806375a7720f146104ab57806383ba3da4146104d157806385b39d83146104ee57610274565b806334892cea1461035057806339ac5eb91461037e57806344df8e70146103a45780635840ee44146103d357806365f212f91461044957610274565b806318417c591161023c57806318417c59146102e75780631a839ba71461031357806322b1c2961461031b57806324f41254146103235780632e1a7d4d1461032b5780632e23dc8f1461034857610274565b80630ca6de03146102795780630ea474c7146102935780630ea9c984146102b9578063158ef93e146102c357806315c5673c146102df575b600080fd5b6102816108e7565b60408051918252519081900360200190f35b610281600480360360208110156102a957600080fd5b50356001600160a01b03166108ed565b6102c161090f565b005b6102cb610a57565b604080519115158252519081900360200190f35b610281610a67565b6102c1600480360360408110156102fd57600080fd5b506001600160a01b038135169060200135610a6d565b6102cb610ce7565b6102cb610d3d565b610281610d68565b6102c16004803603602081101561034157600080fd5b5035610d6e565b6102816110cb565b6102816004803603604081101561036657600080fd5b506001600160a01b03813581169160200135166110d1565b6102816004803603602081101561039457600080fd5b50356001600160a01b0316611102565b6103ac61111d565b6040805193845260208401929092526001600160a01b031682820152519081900360600190f35b6103f9600480360360208110156103e957600080fd5b50356001600160a01b0316611132565b60408051602080825283518183015283519192839290830191858101910280838360005b8381101561043557818101518382015260200161041d565b505050509050019250505060405180910390f35b6102816004803603602081101561045f57600080fd5b50356001600160a01b03166111ab565b6102c16004803603604081101561048557600080fd5b506001600160a01b03813516906020013561125b565b6102cb6114c4565b6102816114cc565b610281600480360360208110156104c157600080fd5b50356001600160a01b03166114d2565b6102cb600480360360208110156104e757600080fd5b50356114f0565b6102816004803603602081101561050457600080fd5b50356001600160a01b0316611db7565b6102c16004803603606081101561052a57600080fd5b810190602081018135600160201b81111561054457600080fd5b82018360208201111561055657600080fd5b803590602001918460208302840111600160201b8311171561057757600080fd5b919390929091602081019035600160201b81111561059457600080fd5b8201836020820111156105a657600080fd5b803590602001918460208302840111600160201b831117156105c757600080fd5b919350915035611dd2565b6102816124e9565b6102c1600480360360408110156105f057600080fd5b506001600160c01b031981351690602001356124ef565b6102cb61264f565b6102816004803603602081101561062557600080fd5b50356001600160a01b0316612669565b6102c16004803603602081101561064b57600080fd5b50356001600160a01b0316612751565b6102c16004803603606081101561067157600080fd5b81359190810190604081016020820135600160201b81111561069257600080fd5b8201836020820111156106a457600080fd5b803590602001918460208302840111600160201b831117156106c557600080fd5b919390929091602081019035600160201b8111156106e257600080fd5b8201836020820111156106f457600080fd5b803590602001918460208302840111600160201b8311171561071557600080fd5b50909250905061293f565b610281613253565b6102c16004803603602081101561073e57600080fd5b50356001600160a01b0316613259565b61077a6004803603604081101561076457600080fd5b506001600160a01b0381351690602001356132de565b604080516001600160a01b039092168252519081900360200190f35b6107b3600480360360208110156107ac57600080fd5b503561331e565b6040805195865260208601949094526001600160a01b0392831685850152911660608401526080830152519081900360a00190f35b6102cb613358565b6102816004803603604081101561080657600080fd5b506001600160a01b0381358116916020013516613361565b61077a6133a9565b61077a6133b8565b61077a6004803603604081101561084457600080fd5b506001600160a01b0381351690602001356133c7565b6103f96004803603602081101561087057600080fd5b50356001600160a01b03166133ee565b6103ac6004803603602081101561089657600080fd5b5035613462565b61028161348c565b6107b3600480360360208110156108bb57600080fd5b5035613492565b61077a6134ce565b6102cb600480360360208110156108e057600080fd5b50356134dd565b60055481565b6001600160a01b0381166000908152600760205260409020600101545b919050565b6000809054906101000a90046001600160a01b03166001600160a01b0316639d76ea586040518163ffffffff1660e01b815260040160206040518083038186803b15801561095c57600080fd5b505afa158015610970573d6000803e3d6000fd5b505050506040513d602081101561098657600080fd5b5051600180546001600160a01b0319166001600160a01b0392831617905560005460408051600160e31b6227050b028152600160f01b615443026004820152905191909216916301382858916024808301926020929190829003018186803b1580156109f157600080fd5b505afa158015610a05573d6000803e3d6000fd5b505050506040513d6020811015610a1b57600080fd5b5051600280546001600160a01b0319166001600160a01b03909216919091179055600054600160a01b900460ff16610a5557610a556137e4565b565b600054600160a01b900460ff1681565b60145481565b60005460408051600160e21b6323c5b10702815233600482015290516001600160a01b0390921691638f16c41c91602480820192602092909190829003018186803b158015610abb57600080fd5b505afa158015610acf573d6000803e3d6000fd5b505050506040513d6020811015610ae557600080fd5b5051610b2557604051600160e51b62461bcd028152600401808060200182810382526022815260200180614b446022913960400191505060405180910390fd5b6000809054906101000a90046001600160a01b03166001600160a01b031663ff0938a76040518163ffffffff1660e01b815260040160206040518083038186803b158015610b7257600080fd5b505afa158015610b86573d6000803e3d6000fd5b505050506040513d6020811015610b9c57600080fd5b505115610be15760408051600160e51b62461bcd0281526020600482015260106024820152600080516020614a14833981519152604482015290519081900360640190fd5b600054600160a01b900460ff16610c305760408051600160e51b62461bcd02815260206004820152601b6024820152600080516020614b66833981519152604482015290519081900360640190fd5b604080516060810182528281524260208083019182526001600160a01b03868116848601908152601180546001908101918290556000918252600f90945295909520935184559151908301559151600290910180546001600160a01b03191691909216179055601054610ca4576011546010555b6040805182815290516001600160a01b038416917f5f5b850fcbd0c09e2b8624b44902a5be89312011ae945e14bc73514fb719891e919081900360200190a25050565b600080805260126020527f7e7fa33969761a458e04f477e039a608702b4f924981d6653935a8319a08ad7f5480610d22576000915050610d3a565b60009081526012602052604090206001015442101590505b90565b6000610d476114c4565b80610d555750610d55610ce7565b80610d635750610d6361264f565b905090565b60045481565b6000809054906101000a90046001600160a01b03166001600160a01b031663ff0938a76040518163ffffffff1660e01b815260040160206040518083038186803b158015610dbb57600080fd5b505afa158015610dcf573d6000803e3d6000fd5b505050506040513d6020811015610de557600080fd5b505115610e2a5760408051600160e51b62461bcd0281526020600482015260106024820152600080516020614a14833981519152604482015290519081900360640190fd5b600054600160a01b900460ff16610e795760408051600160e51b62461bcd02815260206004820152601b6024820152600080516020614b66833981519152604482015290519081900360640190fd5b60005460408051600160e21b63288c314902815233600482015290516001600160a01b039092169163a230c52491602480820192602092909190829003018186803b158015610ec757600080fd5b505afa158015610edb573d6000803e3d6000fd5b505050506040513d6020811015610ef157600080fd5b5051610f475760408051600160e51b62461bcd02815260206004820152601660248201527f43616c6c6572206973206e6f742061206d656d62657200000000000000000000604482015290519081900360640190fd5b610f4f6114c4565b15610f8e57604051600160e51b62461bcd0281526004018080602001828103825260308152602001806148b36030913960400191505060405180910390fd5b6000610f9933612669565b905081811015610fdd57604051600160e51b62461bcd0281526004018080602001828103825260308152602001806149c16030913960400191505060405180910390fd5b33600090815260076020526040902054610ffd908363ffffffff6138cd16565b336000818152600760209081526040808320949094556001548451600160e01b63a9059cbb02815260048101949094526024840187905293516001600160a01b039094169363a9059cbb93604480820194918390030190829087803b15801561106557600080fd5b505af1158015611079573d6000803e3d6000fd5b505050506040513d602081101561108f57600080fd5b505060408051838152905133917f7084f5476618d8e60b11ef0d7d3f06914655adb8793e28ff7f018d4c76d505d5919081900360200190a25050565b60105481565b6001600160a01b03808316600090815260076020908152604080832093851683526004909301905220545b92915050565b6001600160a01b031660009081526007602052604090205490565b600c54600d54600e546001600160a01b031683565b6001600160a01b03811660009081526007602090815260409182902060020180548351818402810184019094528084526060939283018282801561119f57602002820191906000526020600020905b81546001600160a01b03168152600190910190602001808311611181575b50505050509050919050565b6001600160a01b0381166000908152600b60205260408120805482805b82811015611252576000600760008684815481106111e257fe5b60009182526020808320909101546001600160a01b03908116845283820194909452604092830182208054948c168352600381019091529190205490925080821061122d578061122f565b815b9050611241858263ffffffff6138e216565b945050600190920191506111c89050565b50949350505050565b60005460408051600160e21b6323c5b10702815233600482015290516001600160a01b0390921691638f16c41c91602480820192602092909190829003018186803b1580156112a957600080fd5b505afa1580156112bd573d6000803e3d6000fd5b505050506040513d60208110156112d357600080fd5b505161131357604051600160e51b62461bcd028152600401808060200182810382526022815260200180614b446022913960400191505060405180910390fd5b6000809054906101000a90046001600160a01b03166001600160a01b031663ff0938a76040518163ffffffff1660e01b815260040160206040518083038186803b15801561136057600080fd5b505afa158015611374573d6000803e3d6000fd5b505050506040513d602081101561138a57600080fd5b5051156113cf5760408051600160e51b62461bcd0281526020600482015260106024820152600080516020614a14833981519152604482015290519081900360640190fd5b600054600160a01b900460ff1661141e5760408051600160e51b62461bcd02815260206004820152601b6024820152600080516020614b66833981519152604482015290519081900360640190fd5b6114266114c4565b1561146557604051600160e51b62461bcd0281526004018080602001828103825260308152602001806148b36030913960400191505060405180910390fd5b600c81905542600d55600e80546001600160a01b0384166001600160a01b031990911681179091556040805183815290517f5d06931c8dc69a16ea07030839ba70d3794cbda4dc0e16718165f9054db87a5a9181900360200190a25050565b600d54151590565b60135481565b6001600160a01b031660009081526007602052604090206002015490565b60008054600160a01b900460ff16156115535760408051600160e51b62461bcd02815260206004820152601b60248201527f4d6967726174696f6e20616c726561647920636f6d706c657465640000000000604482015290519081900360640190fd5b6000805460408051600160e31b6227050b028152600160f11b612a2302600482015290516001600160a01b0390921691630138285891602480820192602092909190829003018186803b1580156115a957600080fd5b505afa1580156115bd573d6000803e3d6000fd5b505050506040513d60208110156115d357600080fd5b50516000805460408051600160e31b6227050b028152600160f21b611511026004820152905193945091926001600160a01b03909116916301382858916024808301926020929190829003018186803b15801561162f57600080fd5b505afa158015611643573d6000803e3d6000fd5b505050506040513d602081101561165957600080fd5b50516000805460408051600160e31b6227050b028152600160f11b6121a9026004820152905193945091926001600160a01b03909116916301382858916024808301926020929190829003018186803b1580156116b557600080fd5b505afa1580156116c9573d6000803e3d6000fd5b505050506040513d60208110156116df57600080fd5b50516000805460408051600160e31b6227050b028152600160f11b6126a9026004820152905193945091926001600160a01b03909116916301382858916024808301926020929190829003018186803b15801561173b57600080fd5b505afa15801561174f573d6000803e3d6000fd5b505050506040513d602081101561176557600080fd5b505190508560006001600160a01b038316638bed69eb60026040518263ffffffff1660e01b81526004018082815260200191505060206040518083038186803b1580156117b157600080fd5b505afa1580156117c5573d6000803e3d6000fd5b505050506040513d60208110156117db57600080fd5b50516014549091505b81811015611d39576000806001600160a01b03861663b53e46796002856040518363ffffffff1660e01b81526004018083815260200182815260200192505050604080518083038186803b15801561183b57600080fd5b505afa15801561184f573d6000803e3d6000fd5b505050506040513d604081101561186557600080fd5b50805160209091015190925090508061187f575050611d31565b6000886001600160a01b031663e325ef74846040518263ffffffff1660e01b815260040180826001600160a01b03166001600160a01b0316815260200191505060206040518083038186803b1580156118d757600080fd5b505afa1580156118eb573d6000803e3d6000fd5b505050506040513d602081101561190157600080fd5b505160408051600160e11b631fa53f7d0281526001600160a01b0386811660048301529151929350600092611a09928d1691633f4a7efa916024808301926020929190829003018186803b15801561195857600080fd5b505afa15801561196c573d6000803e3d6000fd5b505050506040513d602081101561198257600080fd5b505160408051600160e11b633080e0b30281526001600160a01b0388811660048301529151918e1691636101c16691602480820192602092909190829003018186803b1580156119d157600080fd5b505afa1580156119e5573d6000803e3d6000fd5b505050506040513d60208110156119fb57600080fd5b50519063ffffffff6138cd16565b90508015611a8a57886001600160a01b03166304ee27c683866040518363ffffffff1660e01b815260040180838152602001826001600160a01b03166001600160a01b0316815260200192505050600060405180830381600087803b158015611a7157600080fd5b505af1158015611a85573d6000803e3d6000fd5b505050505b6010545b82811015611ce25787611afb576014869055601081905560408051600081526020810188905280820183905290517fbddd696462cb0646962da3ab27201a6c0673aa457a4037165fc2f8c62295f3a99181900360600190a160009c5050505050505050505050505061090a565b60408051600160e01b6396cf14550281526001600160a01b038781166004830152602482018490529151600019909a01996000928e16916396cf1455916044808301926020929190829003018186803b158015611b5757600080fd5b505afa158015611b6b573d6000803e3d6000fd5b505050506040513d6020811015611b8157600080fd5b505160408051600160e01b6379ade32f0281526001600160a01b038981166004830152602482018690529151929350600092918f16916379ade32f91604480820192602092909190829003018186803b158015611bdd57600080fd5b505afa158015611bf1573d6000803e3d6000fd5b505050506040513d6020811015611c0757600080fd5b50519050611c198d8f898585886138fb565b60008e6001600160a01b031663d3e3c5f28985876040518463ffffffff1660e01b815260040180846001600160a01b03166001600160a01b03168152602001836001600160a01b03166001600160a01b031681526020018281526020019350505050604080518083038186803b158015611c9257600080fd5b505afa158015611ca6573d6000803e3d6000fd5b505050506040513d6040811015611cbc57600080fd5b506020015190508015611cd757611cd78e8985848689613b29565b505050600101611a8e565b50604080516001600160a01b03861681526020810187905281517f0638af112b30d418c14a170eb59aa20fa142a879031ac49e81642fbf14fae8a8929181900390910190a15050600060105550505b6001016117e4565b506000805474ff00000000000000000000000000000000000000001916600160a01b1781556014819055601081905560408051600181526020810183905280820192909252517fbddd696462cb0646962da3ab27201a6c0673aa457a4037165fc2f8c62295f3a99181900360600190a1506001979650505050505050565b6001600160a01b03166000908152600b602052604090205490565b6000809054906101000a90046001600160a01b03166001600160a01b031663ff0938a76040518163ffffffff1660e01b815260040160206040518083038186803b158015611e1f57600080fd5b505afa158015611e33573d6000803e3d6000fd5b505050506040513d6020811015611e4957600080fd5b505115611e8e5760408051600160e51b62461bcd0281526020600482015260106024820152600080516020614a14833981519152604482015290519081900360640190fd5b600054600160a01b900460ff16611edd5760408051600160e51b62461bcd02815260206004820152601b6024820152600080516020614b66833981519152604482015290519081900360640190fd5b60005460408051600160e21b63288c314902815233600482015290516001600160a01b039092169163a230c52491602480820192602092909190829003018186803b158015611f2b57600080fd5b505afa158015611f3f573d6000803e3d6000fd5b505050506040513d6020811015611f5557600080fd5b5051611fab5760408051600160e51b62461bcd02815260206004820152601660248201527f43616c6c6572206973206e6f742061206d656d62657200000000000000000000604482015290519081900360640190fd5b838214611fec57604051600160e51b62461bcd0281526004018080602001828103825260388152602001806149896038913960400191505060405180910390fd5b60135481111561203057604051600160e51b62461bcd0281526004018080602001828103825260238152602001806149f16023913960400191505060405180910390fd5b33600090815260076020526040812080546006549192909184919061205c90429063ffffffff6138e216565b600083815260126020526040902090915082156120b65760018101546120b657604051600160e51b62461bcd028152600401808060200182810382526037815260200180614aeb6037913960400191505060405180910390fd5b60005b898110156124dc5760008b8b838181106120cf57fe5b602090810292909201356001600160a01b0316600081815260038b0190935260409092205491925050868111156121035750855b6001600160a01b0382166000908152600489016020526040812054908c8c8681811061212b57fe5b90506020020135905060008383116121525761214d848463ffffffff6138cd16565b612155565b60005b90506000811161219957604051600160e51b62461bcd028152600401808060200182810382526023815260200180614a576023913960400191505060405180910390fd5b808211156121f15760408051600160e51b62461bcd02815260206004820152601f60248201527f43616e6e6f7420756e7374616b65206d6f7265207468616e207374616b656400604482015290519081900360640190fd5b80821461228f5760055482101561223c57604051600160e51b62461bcd02815260040180806020018281038252603a815260200180614ab1603a913960400191505060405180910390fd5b60035461224f828463ffffffff6138cd16565b101561228f57604051600160e51b62461bcd02815260040180806020018281038252603a815260200180614bf8603a913960400191505060405180910390fd5b86600101548810156122d557604051600160e51b62461bcd028152600401808060200182810382526049815260200180614baf6049913960600191505060405180910390fd5b60048701541561233957600487015460009081526012602052604090206001810154891061233757604051600160e51b62461bcd0281526004018080602001828103825260478152602001806149106047913960600191505060405180910390fd5b505b60136000815460010191905081905598506040518060a00160405280838152602001898152602001866001600160a01b03168152602001336001600160a01b031681526020018860040154815250601260008b8152602001908152602001600020600082015181600001556020820151816001015560408201518160020160006101000a8154816001600160a01b0302191690836001600160a01b0316021790555060608201518160030160006101000a8154816001600160a01b0302191690836001600160a01b0316021790555060808201518160040155905050888760040181905550336001600160a01b0316856001600160a01b03167ffe07ce9fff39f8420b3de5fbc6909ce08f809e2572b62f9df35c25f56d610bb0848b604051808381526020018281526020019250505060405180910390a36001600160a01b038516600090815260048c01602052604081205461249c908463ffffffff6138e216565b6001600160a01b03909616600090815260048d0160209081526040808320989098558b82526012905295909520965050600190940193506120b992505050565b5050505050505050505050565b60065481565b60005460408051600160e11b632c1a733d02815233600482015290516001600160a01b0390921691635834e67a91602480820192602092909190829003018186803b15801561253d57600080fd5b505afa158015612551573d6000803e3d6000fd5b505050506040513d602081101561256757600080fd5b50516125a757604051600160e51b62461bcd028152600401808060200182810382526022815260200180614b226022913960400191505060405180910390fd5b600160c01b674d494e5f5354414b026001600160c01b0319831614156125d157600381905561264b565b600160c01b674d41585f4558504f026001600160c01b0319831614156125fb57600481905561264b565b600160c21b6713525397d55394d5026001600160c01b03198316141561262557600581905561264b565b600160c21b67155394d517d312d5026001600160c01b03198316141561264b5760068190555b5050565b6010546000908152600f6020526040902060010154151590565b6001600160a01b038116600090815260076020526040812080548280805b60028501548110156127085760008560020182815481106126a457fe5b60009182526020808320909101546001600160a01b0316808352600389019091526040822054909250908187106126db57816126dd565b865b90506126ef868263ffffffff6138e216565b9550848111156126fd578094505b505050600101612687565b50600061272060045484613e3890919063ffffffff16565b905060008183116127315781612733565b825b9050612745858263ffffffff6138cd16565b98975050505050505050565b6000809054906101000a90046001600160a01b03166001600160a01b031663ff0938a76040518163ffffffff1660e01b815260040160206040518083038186803b15801561279e57600080fd5b505afa1580156127b2573d6000803e3d6000fd5b505050506040513d60208110156127c857600080fd5b50511561280d5760408051600160e51b62461bcd0281526020600482015260106024820152600080516020614a14833981519152604482015290519081900360640190fd5b600054600160a01b900460ff1661285c5760408051600160e51b62461bcd02815260206004820152601b6024820152600080516020614b66833981519152604482015290519081900360640190fd5b6001600160a01b038082166000818152600760209081526040808320600190810180549085905590548251600160e01b63a9059cbb02815260048101969096526024860182905291519095919091169363a9059cbb9360448083019493928390030190829087803b1580156128d057600080fd5b505af11580156128e4573d6000803e3d6000fd5b505050506040513d60208110156128fa57600080fd5b50506040805182815290516001600160a01b038416917f1d3eee4ca001cff39eec6ec7615aacf2f2bd61791273830728ba00ccbd6e1337919081900360200190a25050565b6000809054906101000a90046001600160a01b03166001600160a01b031663ff0938a76040518163ffffffff1660e01b815260040160206040518083038186803b15801561298c57600080fd5b505afa1580156129a0573d6000803e3d6000fd5b505050506040513d60208110156129b657600080fd5b5051156129fb5760408051600160e51b62461bcd0281526020600482015260106024820152600080516020614a14833981519152604482015290519081900360640190fd5b600054600160a01b900460ff16612a4a5760408051600160e51b62461bcd02815260206004820152601b6024820152600080516020614b66833981519152604482015290519081900360640190fd5b60005460408051600160e21b63288c314902815233600482015290516001600160a01b039092169163a230c52491602480820192602092909190829003018186803b158015612a9857600080fd5b505afa158015612aac573d6000803e3d6000fd5b505050506040513d6020811015612ac257600080fd5b5051612b185760408051600160e51b62461bcd02815260206004820152601660248201527f43616c6c6572206973206e6f742061206d656d62657200000000000000000000604482015290519081900360640190fd5b612b20610d3d565b15612b5f57604051600160e51b62461bcd0281526004018080602001828103825260328152602001806149576032913960400191505060405180910390fd5b336000908152600760205260409020600281015480851015612bb557604051600160e51b62461bcd028152600401808060200182810382526029815260200180614b866029913960400191505060405180910390fd5b848314612bf657604051600160e51b62461bcd028152600401808060200182810382526037815260200180614a7a6037913960400191505060405180910390fd5b815460009081612c0c828b63ffffffff6138e216565b80865560025460408051600160e01b630d1af103028152336004820152306024820152604481018e905290519293506001600160a01b0390911691630d1af103916064808201926020929091908290030181600087803b158015612c6f57600080fd5b505af1158015612c83573d6000803e3d6000fd5b505050506040513d6020811015612c9957600080fd5b50600090505b888110156130dd5760008a8a83818110612cb557fe5b905060200201356001600160a01b0316905060008090505b82811015612d4c57816001600160a01b03168c8c83818110612ceb57fe5b905060200201356001600160a01b03166001600160a01b03161415612d4457604051600160e51b62461bcd02815260040180806020018281038252602d8152602001806148e3602d913960400191505060405180910390fd5b600101612ccd565b506001600160a01b038116600090815260038801602052604081205490818610612d765781612d78565b855b905060008b8b86818110612d8857fe5b60200291909101359150508885101580612e60578a6002018681548110612dab57fe5b6000918252602090912001546001600160a01b03868116911614612e195760408051600160e51b62461bcd02815260206004820152601960248201527f556e657870656374656420636f6e7472616374206f7264657200000000000000604482015290519081900360640190fd5b81831115612e5b57604051600160e51b62461bcd028152600401808060200182810382526025815260200180614c326025913960400191505060405180910390fd5b612ed3565b60008211612ea257604051600160e51b62461bcd028152600401808060200182810382526023815260200180614a346023913960400191505060405180910390fd5b60028b018054600181018255600091825260209091200180546001600160a01b0319166001600160a01b0387161790555b81831415612f1c57818414612f00576001600160a01b038516600090815260038c01602052604090208290555b612f10898363ffffffff6138e216565b985050505050506130d5565b600354821015612f765760408051600160e51b62461bcd02815260206004820152601c60248201527f4d696e696d756d207374616b6520616d6f756e74206e6f74206d657400000000604482015290519081900360640190fd5b86821115612fce5760408051600160e51b62461bcd02815260206004820181905260248201527f43616e6e6f74207374616b65206d6f7265207468616e206465706f7369746564604482015290519081900360640190fd5b8080612ff557506001600160a01b038516600090815260058c01602052604090205460ff16155b15613049576001600160a01b038516600090815260058c0160209081526040808320805460ff19166001908117909155600b835290832080549182018155835291200180546001600160a01b031916331790555b6001600160a01b038516600090815260038c0160205260409020829055613076898363ffffffff6138e216565b9850600061308a838563ffffffff6138cd16565b60408051828152905191925033916001600160a01b038916917f5dac0c1b1112564a045ba943c9d50270893e8e826c49be8e7073adc713ab7bd7919081900360200190a35050505050505b600101612c9f565b5060045485546130f29163ffffffff613e5a16565b83111561313357604051600160e51b62461bcd028152600401808060200182810382526023815260200180614c576023913960400191505060405180910390fd5b891561317057604080518b8152905133917f2da466a7b24304f47e87fa2e1e5a81b9831ce54fec19055ce277ca2f39ba42c4919081900360200190a25b6000198801845b80156132455788886001830381811061318c57fe5b905060200201356000141561323c578660020182815481106131aa57fe5b6000918252602090912001546002880180546001600160a01b039092169160001984019081106131d657fe5b9060005260206000200160006101000a8154816001600160a01b0302191690836001600160a01b031602179055508660020180548061321157fe5b600082815260209020810160001990810180546001600160a01b031916905590810190915591909101905b60001901613177565b505050505050505050505050565b60035481565b6000546001600160a01b0316156132bc576000546001600160a01b031633146132bc5760408051600160e51b62461bcd02815260206004820152600a6024820152600160b11b692737ba1036b0b9ba32b902604482015290519081900360640190fd5b600080546001600160a01b0319166001600160a01b0392909216919091179055565b6001600160a01b0382166000908152600b6020526040812080548390811061330257fe5b6000918252602090912001546001600160a01b03169392505050565b60009081526012602052604090208054600182015460028301546003840154600490940154929491936001600160a01b0391821693911691565b60155460ff1681565b6001600160a01b038083166000818152600760208181526040808420958716845260038601825283205493835252915480821061339e57806133a0565b815b95945050505050565b6002546001600160a01b031681565b6000546001600160a01b031681565b6001600160a01b038216600090815260076020526040812060020180548390811061330257fe5b6001600160a01b0381166000908152600b602090815260409182902080548351818402810184019094528084526060939283018282801561119f576020028201919060005260206000209081546001600160a01b031681526001909101906020018083116111815750505050509050919050565b600f602052600090815260409020805460018201546002909201549091906001600160a01b031683565b60115481565b60126020526000908152604090208054600182015460028301546003840154600490940154929391926001600160a01b03918216929091169085565b6001546001600160a01b031681565b60008060009054906101000a90046001600160a01b03166001600160a01b031663ff0938a76040518163ffffffff1660e01b815260040160206040518083038186803b15801561352c57600080fd5b505afa158015613540573d6000803e3d6000fd5b505050506040513d602081101561355657600080fd5b50511561359b5760408051600160e51b62461bcd0281526020600482015260106024820152600080516020614a14833981519152604482015290519081900360640190fd5b600054600160a01b900460ff166135ea5760408051600160e51b62461bcd02815260206004820152601b6024820152600080516020614b66833981519152604482015290519081900360640190fd5b8160005b601260209081527f7e7fa33969761a458e04f477e039a608702b4f924981d6653935a8319a08ad7f54600081815260408082206010548352600f9094528120600d546001808301549086015494959492939192909186158015906136525750428211155b601054909150841580159115159082613669575082155b8015613673575080155b15613686575050505050505050506137a6565b81801561369a575082158061369a57508386105b80156136ad57508015806136ad57508486105b1561371a576136bb8b613e81565b9b5099508961370c57604080516000815290517ff3b343b97db20514b20b9c54105a005716230e231e9bf5d180b1a0dfe6e4fb8a9181900360200190a160009b50505050505050505050505061090a565b5050505050505050506135ee565b82801561372e575080158061372e57508484105b1561379d578a61378057604080516000815290517ff3b343b97db20514b20b9c54105a005716230e231e9bf5d180b1a0dfe6e4fb8a9181900360200190a160009b50505050505050505050505061090a565b61378861414c565b8a600190039a505050505050505050506135ee565b6136bb8b614331565b604080516001815290517ff3b343b97db20514b20b9c54105a005716230e231e9bf5d180b1a0dfe6e4fb8a9181900360200190a15060019392505050565b600054600160a01b900460ff16156138465760408051600160e51b62461bcd02815260206004820152601f60248201527f436f6e747261637420697320616c726561647920696e697469616c697a656400604482015290519081900360640190fd5b60025460408051600160e01b63e43252d702815230600482015290516001600160a01b039092169163e43252d79160248082019260009290919082900301818387803b15801561389557600080fd5b505af11580156138a9573d6000803e3d6000fd5b50506801158e460913d0000060038190556005555050600a6004556276a700600655565b6000828211156138dc57600080fd5b50900390565b6000828201838110156138f457600080fd5b9392505050565b60408051600160e01b63448a0bb30281526001600160a01b038681166004830152858116602483015260448201859052915160009288169163448a0bb3916064808301926020929190829003018186803b15801561395857600080fd5b505afa15801561396c573d6000803e3d6000fd5b505050506040513d602081101561398257600080fd5b505160408051600160e31b631fdaafe30281526001600160a01b0388811660048301526024820186905260006044830181905292519394508a169263fed57f189260648084019391929182900301818387803b1580156139e157600080fd5b505af11580156139f5573d6000803e3d6000fd5b505060408051600160e61b63025d10350281526001600160a01b03898116600483015260248201879052604482018690529151918b1693506397440d40925060648082019260009290919082900301818387803b158015613a5557600080fd5b505af1158015613a69573d6000803e3d6000fd5b505060408051600160f01b615557026020808301919091526001600160a01b03808b16606081811b6022860152828c16901b6036850152604a8085018b905285518086039091018152606a850180875281519190940120600254600160e11b634063ab0d02909452606e850191909152608e840181905260ae840188905293519395501692506380c7561a9160ce80830192600092919082900301818387803b158015613b1557600080fd5b505af1158015613245573d6000803e3d6000fd5b6001600160a01b03851660009081526007602052604090208054613b53908563ffffffff6138e216565b81556001600160a01b0385166000908152600382016020526040902054613b80908563ffffffff6138e216565b6001600160a01b0380871660008181526003850160209081526040918290209490945580518881529051928a169391927f5dac0c1b1112564a045ba943c9d50270893e8e826c49be8e7073adc713ab7bd7929181900390910190a36040805185815290516001600160a01b038816917f2da466a7b24304f47e87fa2e1e5a81b9831ce54fec19055ce277ca2f39ba42c4919081900360200190a260408051600160e41b6248dc990281526001600160a01b038881166004830152602482018590526044820187905291519189169163048dc9909160648082019260009290919082900301818387803b158015613c7557600080fd5b505af1158015613c89573d6000803e3d6000fd5b505060408051600160f01b615557026020808301919091526001600160a01b03808c16606081811b6022860152828d16901b6036850152604a8085018b905285518086039091018152606a850180875281519190940120600254600160e01b637aef5b7302909452606e850191909152608e840181905260ae84018b90529351939550169250637aef5b739160ce80830192600092919082900301818387803b158015613d3557600080fd5b505af1158015613d49573d6000803e3d6000fd5b505050506001600160a01b038616600090815260058301602052604090205460ff16613de257600282018054600180820183556000928352602080842090920180546001600160a01b03199081166001600160a01b038c811691821790935585526005870184526040808620805460ff191685179055600b85528520805493840181558552929093200180549091169189169190911790555b60025460408051600160e01b6340c10f190281523060048201526024810188905290516001600160a01b03909216916340c10f199160448082019260009290919082900301818387803b158015613b1557600080fd5b6000808211613e4657600080fd5b6000828481613e5157fe5b04949350505050565b600082613e69575060006110fc565b82820282848281613e7657fe5b04146138f457600080fd5b600e5460009082906001600160a01b031682613e9d8284614625565b9095509350905083613eb55750600092506141479050565b6001600160a01b0382166000908152600b602052604090208054600c5460095484821115613ee1578491505b6014545b8381101561404b5787613f0a5760099190915560145550600095506141479350505050565b87600190039750600060076000878481548110613f2357fe5b60009182526020808320909101546001600160a01b031683528201929092526040018120915080613f56838b8b89614742565b9092509050613f6b858363ffffffff6138e216565b94508015613f7b57505050614043565b6001600160a01b038a1660009081526005840160205260409020805460ff19169055875488906000198901908110613faf57fe5b9060005260206000200160009054906101000a90046001600160a01b0316888581548110613fd957fe5b9060005260206000200160006101000a8154816001600160a01b0302191690836001600160a01b031602179055508780548061401157fe5b600082815260209020810160001990810180546001600160a01b03191690559081019091559687019693909301925050505b600101613ee5565b506000600c819055600d819055600e80546001600160a01b0319169055600981905560148190556015805460ff1916905560015460408051600160e31b630852cd8d0281526004810185905290516001600160a01b03909216926342966c68926024808401936020939083900390910190829087803b1580156140cd57600080fd5b505af11580156140e1573d6000803e3d6000fd5b505050506040513d60208110156140f757600080fd5b5050604080518281526020810187905281516001600160a01b038916927f23ff0e75edf108e3d0392d92e13e8c8a868ef19001bd49f9e94876dc46dff87f928290030190a2506001965050505050505b915091565b601260209081527f7e7fa33969761a458e04f477e039a608702b4f924981d6653935a8319a08ad7f54600081815260408082206003808201546001600160a01b039081168086526007885284862060028501548154931680885293810190985293852054959692959394929391929091908183106141ca57816141cc565b825b875490915060008183106141e057816141e2565b825b90506141f4838263ffffffff6138cd16565b6001600160a01b038716600090815260038901602090815260408083209390935560048a019052205461422d818463ffffffff6138cd16565b886004016000896001600160a01b03166001600160a01b031681526020019081526020016000208190555089600401546012600080815260200190815260200160002060040181905550601260008c815260200190815260200160002060008082016000905560018201600090556002820160006101000a8154906001600160a01b0302191690556003820160006101000a8154906001600160a01b03021916905560048201600090555050886001600160a01b0316876001600160a01b03167fd8654fcc8cf5b36d30b3f5e4688fc78118e6d68de60b9994e09902268b57c3e3856040518082815260200191505060405180910390a35050505050505050505050565b6010546000908152600f60205260408120600281015481548492916001600160a01b031690846143618386614625565b909750955090508561437b57506000945061414792505050565b6001600160a01b0383166000908152600b602052604090208054600a546014545b8281101561450357886143c257600a919091556014555060009650614147945050505050565b8860019003985060008482815481106143d757fe5b60009182526020822001546001600160a01b03169150806143fa838b8b8b6147fe565b9150915080600014156144e5576001600160a01b038084166000908152600760209081526040808320938e168352600584019091529020805460ff1916905587548890600019890190811061444b57fe5b9060005260206000200160009054906101000a90046001600160a01b031688868154811061447557fe5b9060005260206000200160006101000a8154816001600160a01b0302191690836001600160a01b03160217905550878054806144ad57fe5b600082815260209020810160001990810180546001600160a01b0319169055908101909155968701969490940193506144fb92505050565b6144f5858363ffffffff6138e216565b94505050505b60010161439c565b50601080546000908152600f602052604081208181556001808201839055600290910180546001600160a01b0319169055600a8290556014919091556015805460ff1916905560115482549091019182905510156145615760006010555b60025460408051600160e01b6340c10f190281523060048201526024810184905290516001600160a01b03909216916340c10f199160448082019260009290919082900301818387803b1580156145b757600080fd5b505af11580156145cb573d6000803e3d6000fd5b5050604080518481526020810188905281516001600160a01b038b1694507f291e8ba3c0f4b0bd86e6e2346fcee1e7ca0975b1cc1886bfbc722d34f3f24d9193509081900390910190a25060019750505050505050915091565b6015546000908190839060ff16156146455760085492506001915061473b565b6001600160a01b0385166000908152600b602052604090208054601454801561466e5760085495505b805b8281101561471a57846146915760145550505060088390556000915061473b565b846001900394506000600760008684815481106146aa57fe5b60009182526020808320909101546001600160a01b03908116845283820194909452604092830182208054948f16835260038101909152919020549092508082106146f557806146f7565b815b90506147098a8263ffffffff6138e216565b995050600190920191506146709050565b5050506008849055506015805460ff19166001908117909155600060145591505b9250925092565b6000808080851561477757505085546001600160a01b0386166000908152600388016020526040902054818111156147775750805b8486146147b75761479e86614792838863ffffffff613e5a16565b9063ffffffff613e3816565b93506147b0818563ffffffff6138cd16565b92506147bb565b8093505b83156147d4576147d1828563ffffffff6138cd16565b88555b50506001600160a01b03909416600090815260039095016020526040909420839055509192909150565b6001600160a01b0380851660009081526007602090815260408083208054948816845260038101909252822054919280831115614839578092505b841580614844575082155b1561487257506001600160a01b038616600090815260039091016020526040812081905591508190506148a9565b61488685614792888663ffffffff613e5a16565b600183015490945061489e908563ffffffff6138e216565b826001018190555050505b9450949250505056fe556e61626c6520746f20657865637574652072657175657374207769746820756e70726f636573736564206275726e73436f6e7472616374732061727261792073686f756c64206e6f7420636f6e7461696e206475706c6963617465734e65787420756e7374616b6520726571756573742074696d65206d7573742062652067726561746572207468616e206e657720756e7374616b6520726571756573742074696d65556e61626c6520746f20657865637574652072657175657374207769746820756e70726f63657373656420616374696f6e73436f6e74726163747320616e6420616d6f756e7473206172726179732073686f756c642068617665207468652073616d65206c656e67746852657175657374656420616d6f756e742065786365656473206d617820776974686472617761626c6520616d6f756e74496e76616c696420756e7374616b6520726571756573742069642070726f766964656453797374656d20697320706175736564000000000000000000000000000000004e6577207374616b65732073686f756c642062652067726561746572207468616e20304e6f7468696e6720746f20756e7374616b65206f6e207468697320636f6e7472616374436f6e74726163747320616e64207374616b6573206172726179732073686f756c642068617665207468652073616d65206c656e677468556e7374616b656420616d6f756e742063616e6e6f74206265206c657373207468616e206d696e696d756d20756e7374616b6520616d6f756e7450726f766964656420756e7374616b6520726571756573742069642073686f756c64206e6f7420626520616e20656d70747920736c6f7443616c6c6572206973206e6f7420617574686f72697a656420746f20676f7665726e43616c6c6572206973206e6f7420616e20696e7465726e616c20636f6e7472616374436f6e7472616374206973206e6f7420696e697469616c697a656400000000005374616b696e67206f6e20666577657220636f6e747261637473206973206e6f7420616c6c6f776564556e7374616b6520726571756573742074696d65206d7573742062652067726561746572206f7220657175616c20746f2070726576696f757320756e7374616b65207265717565737452656d61696e696e67207374616b652063616e6e6f74206265206c657373207468616e206d696e696d756d20756e7374616b6520616d6f756e744e6577207374616b65206973206c657373207468616e2070726576696f7573207374616b65546f74616c207374616b652065786365656473206d6178696d756d20616c6c6f776564a165627a7a723058200f3bfacc336dbe382d564e9e29d6c375ae0859e6c0588a78ccebe2e9020975c40029",
  "source": "/*\n    Copyright (C) 2020 NexusMutual.io\n\n    This program is free software: you can redistribute it and/or modify\n    it under the terms of the GNU General Public License as published by\n    the Free Software Foundation, either version 3 of the License, or\n    (at your option) any later version.\n\n    This program is distributed in the hope that it will be useful,\n    but WITHOUT ANY WARRANTY; without even the implied warranty of\n    MERCHANTABILITY or FITNESS FOR A PARTICULAR PURPOSE.  See the\n    GNU General Public License for more details.\n\n    You should have received a copy of the GNU General Public License\n    along with this program.  If not, see http://www.gnu.org/licenses/\n*/\n\npragma solidity ^0.5.7;\n\nimport \"./abstract/MasterAware.sol\";\nimport \"./interfaces/IPooledStaking.sol\";\nimport \"./NXMToken.sol\";\nimport \"./TokenController.sol\";\nimport \"./MemberRoles.sol\";\nimport \"./TokenFunctions.sol\";\nimport \"./TokenData.sol\";\nimport \"./ClaimsReward.sol\";\nimport \"./external/openzeppelin-solidity/math/SafeMath.sol\";\n\ncontract PooledStaking is MasterAware, IPooledStaking {\n  using SafeMath for uint;\n\n  /* Data types */\n\n  struct Staker {\n    uint deposit; // total amount of deposit nxm\n    uint reward; // total amount that is ready to be claimed\n    address[] contracts; // list of contracts the staker has staked on\n\n    // staked amounts for each contract\n    mapping(address => uint) stakes;\n\n    // amount pending to be subtracted after all unstake requests will be processed\n    mapping(address => uint) pendingUnstakeRequestsTotal;\n\n    // flag to indicate the presence of this staker in the array of stakers of each contract\n    mapping(address => bool) isInContractStakers;\n  }\n\n  struct Burn {\n    uint amount;\n    uint burnedAt;\n    address contractAddress;\n  }\n\n  struct Reward {\n    uint amount;\n    uint rewardedAt;\n    address contractAddress;\n  }\n\n  struct UnstakeRequest {\n    uint amount;\n    uint unstakeAt;\n    address contractAddress;\n    address stakerAddress;\n    uint next; // id of the next unstake request in the linked list\n  }\n\n  /* Events */\n\n  // deposits\n  event Deposited(address indexed staker, uint amount);\n  event Withdrawn(address indexed staker, uint amount);\n\n  // stakes\n  event Staked(address indexed contractAddress, address indexed staker, uint amount);\n  event UnstakeRequested(address indexed contractAddress, address indexed staker, uint amount, uint unstakeAt);\n  event Unstaked(address indexed contractAddress, address indexed staker, uint amount);\n\n  // burns\n  event BurnRequested(address indexed contractAddress, uint amount);\n  event Burned(address indexed contractAddress, uint amount, uint contractStakeBeforeBurn);\n\n  // rewards\n  event RewardRequested(address indexed contractAddress, uint amount);\n  event Rewarded(address indexed contractAddress, uint amount, uint contractStake);\n  event RewardWithdrawn(address indexed staker, uint amount);\n\n  // pending actions processing\n  event PendingActionsProcessed(bool finished);\n\n  /* Storage variables */\n\n  bool public initialized;\n\n  NXMToken public token;\n  TokenController public tokenController;\n\n  uint public MIN_STAKE;         // Minimum allowed stake per contract\n  uint public MAX_EXPOSURE;      // Stakes sum must be less than the deposit amount times this\n  uint public MIN_UNSTAKE;       // Forbid unstake of small amounts to prevent spam\n  uint public UNSTAKE_LOCK_TIME; // Lock period in seconds before unstaking takes place\n\n  mapping(address => Staker) stakers;     // stakerAddress => Staker\n\n  // temporary variables\n  uint contractStaked;   // used when processing burns and rewards\n  uint contractBurned;   // used when processing burns\n  uint contractRewarded; // used when processing rewards\n\n  // list of stakers for all contracts\n  mapping(address => address[]) contractStakers;\n\n  // there can be only one pending burn\n  Burn public burn;\n\n  mapping(uint => Reward) public rewards; // reward id => Reward\n  uint public firstReward;\n  uint public lastRewardId;\n\n  mapping(uint => UnstakeRequest) public unstakeRequests; // unstake id => UnstakeRequest\n  // firstUnstakeRequest is stored at unstakeRequests[0].next\n  uint public lastUnstakeRequestId;\n\n  uint public processedToStakerIndex; // we processed the action up this staker\n  bool public isContractStakeCalculated; // flag to indicate whether staked amount is up to date or not\n\n  /* Modifiers */\n\n  modifier noPendingActions {\n    require(!hasPendingActions(), 'Unable to execute request with unprocessed actions');\n    _;\n  }\n\n  modifier noPendingBurns {\n    require(!hasPendingBurns(), 'Unable to execute request with unprocessed burns');\n    _;\n  }\n\n  modifier noPendingUnstakeRequests {\n    require(!hasPendingUnstakeRequests(), 'Unable to execute request with unprocessed unstake requests');\n    _;\n  }\n\n  modifier noPendingRewards {\n    require(!hasPendingRewards(), 'Unable to execute request with unprocessed rewards');\n    _;\n  }\n\n  modifier whenNotPausedAndInitialized {\n    require(!master.isPause(), \"System is paused\");\n    require(initialized, \"Contract is not initialized\");\n    _;\n  }\n\n  /* Getters and view functions */\n\n  function contractStakerCount(address contractAddress) external view returns (uint) {\n    return contractStakers[contractAddress].length;\n  }\n\n  function contractStakerAtIndex(address contractAddress, uint stakerIndex) external view returns (address) {\n    return contractStakers[contractAddress][stakerIndex];\n  }\n\n  function contractStakersArray(address contractAddress) external view returns (address[] memory _stakers) {\n    return contractStakers[contractAddress];\n  }\n\n  function contractStake(address contractAddress) public view returns (uint) {\n\n    address[] storage _stakers = contractStakers[contractAddress];\n    uint stakerCount = _stakers.length;\n    uint stakedOnContract;\n\n    for (uint i = 0; i < stakerCount; i++) {\n      Staker storage staker = stakers[_stakers[i]];\n      uint deposit = staker.deposit;\n      uint stake = staker.stakes[contractAddress];\n\n      // add the minimum of the two\n      stake = deposit < stake ? deposit : stake;\n      stakedOnContract = stakedOnContract.add(stake);\n    }\n\n    return stakedOnContract;\n  }\n\n  function stakerContractCount(address staker) external view returns (uint) {\n    return stakers[staker].contracts.length;\n  }\n\n  function stakerContractAtIndex(address staker, uint contractIndex) external view returns (address) {\n    return stakers[staker].contracts[contractIndex];\n  }\n\n  function stakerContractsArray(address staker) external view returns (address[] memory) {\n    return stakers[staker].contracts;\n  }\n\n  function stakerContractStake(address staker, address contractAddress) external view returns (uint) {\n    uint stake = stakers[staker].stakes[contractAddress];\n    uint deposit = stakers[staker].deposit;\n    return stake < deposit ? stake : deposit;\n  }\n\n  function stakerContractPendingUnstakeTotal(address staker, address contractAddress) external view returns (uint) {\n    return stakers[staker].pendingUnstakeRequestsTotal[contractAddress];\n  }\n\n  function stakerReward(address staker) external view returns (uint) {\n    return stakers[staker].reward;\n  }\n\n  function stakerDeposit(address staker) external view returns (uint) {\n    return stakers[staker].deposit;\n  }\n\n  function stakerMaxWithdrawable(address stakerAddress) public view returns (uint) {\n\n    Staker storage staker = stakers[stakerAddress];\n    uint deposit = staker.deposit;\n    uint totalStaked;\n    uint maxStake;\n\n    for (uint i = 0; i < staker.contracts.length; i++) {\n\n      address contractAddress = staker.contracts[i];\n      uint initialStake = staker.stakes[contractAddress];\n      uint stake = deposit < initialStake ? deposit : initialStake;\n      totalStaked = totalStaked.add(stake);\n\n      if (stake > maxStake) {\n        maxStake = stake;\n      }\n    }\n\n    uint minRequired = totalStaked.div(MAX_EXPOSURE);\n    uint locked = maxStake > minRequired ? maxStake : minRequired;\n\n    return deposit.sub(locked);\n  }\n\n  function unstakeRequestAtIndex(uint unstakeRequestId) external view returns (\n    uint amount, uint unstakeAt, address contractAddress, address stakerAddress, uint next\n  ) {\n    UnstakeRequest storage unstakeRequest = unstakeRequests[unstakeRequestId];\n    amount = unstakeRequest.amount;\n    unstakeAt = unstakeRequest.unstakeAt;\n    contractAddress = unstakeRequest.contractAddress;\n    stakerAddress = unstakeRequest.stakerAddress;\n    next = unstakeRequest.next;\n  }\n\n  function hasPendingActions() public view returns (bool) {\n    return hasPendingBurns() || hasPendingUnstakeRequests() || hasPendingRewards();\n  }\n\n  function hasPendingBurns() public view returns (bool) {\n    return burn.burnedAt != 0;\n  }\n\n  function hasPendingUnstakeRequests() public view returns (bool){\n\n    uint nextRequestIndex = unstakeRequests[0].next;\n\n    if (nextRequestIndex == 0) {\n      return false;\n    }\n\n    return unstakeRequests[nextRequestIndex].unstakeAt <= now;\n  }\n\n  function hasPendingRewards() public view returns (bool){\n    return rewards[firstReward].rewardedAt != 0;\n  }\n\n  /* State-changing functions */\n\n  function depositAndStake(\n    uint amount,\n    address[] calldata _contracts,\n    uint[] calldata _stakes\n  ) external whenNotPausedAndInitialized onlyMember noPendingActions {\n\n    Staker storage staker = stakers[msg.sender];\n    uint oldLength = staker.contracts.length;\n\n    require(\n      _contracts.length >= oldLength,\n      \"Staking on fewer contracts is not allowed\"\n    );\n\n    require(\n      _contracts.length == _stakes.length,\n      \"Contracts and stakes arrays should have the same length\"\n    );\n\n    uint totalStaked;\n\n    // cap old stakes to this amount\n    uint oldDeposit = staker.deposit;\n    uint newDeposit = oldDeposit.add(amount);\n\n    staker.deposit = newDeposit;\n    tokenController.operatorTransfer(msg.sender, address(this), amount);\n\n    for (uint i = 0; i < _contracts.length; i++) {\n\n      address contractAddress = _contracts[i];\n\n      for (uint j = 0; j < i; j++) {\n        require(_contracts[j] != contractAddress, \"Contracts array should not contain duplicates\");\n      }\n\n      uint initialStake = staker.stakes[contractAddress];\n      uint oldStake = oldDeposit < initialStake ? oldDeposit : initialStake;\n      uint newStake = _stakes[i];\n      bool isNewStake = i >= oldLength;\n\n      if (!isNewStake) {\n        require(contractAddress == staker.contracts[i], \"Unexpected contract order\");\n        require(oldStake <= newStake, \"New stake is less than previous stake\");\n      } else {\n        require(newStake > 0, \"New stakes should be greater than 0\");\n        staker.contracts.push(contractAddress);\n      }\n\n      if (oldStake == newStake) {\n\n        // if there were burns but the stake was not updated, update it now\n        if (initialStake != newStake) {\n          staker.stakes[contractAddress] = newStake;\n        }\n\n        totalStaked = totalStaked.add(newStake);\n\n        // no other changes to this contract\n        continue;\n      }\n\n      require(newStake >= MIN_STAKE, \"Minimum stake amount not met\");\n      require(newStake <= newDeposit, \"Cannot stake more than deposited\");\n\n      if (isNewStake || !staker.isInContractStakers[contractAddress]) {\n        staker.isInContractStakers[contractAddress] = true;\n        contractStakers[contractAddress].push(msg.sender);\n      }\n\n      staker.stakes[contractAddress] = newStake;\n      totalStaked = totalStaked.add(newStake);\n      uint increase = newStake.sub(oldStake);\n\n      emit Staked(contractAddress, msg.sender, increase);\n    }\n\n    require(\n      totalStaked <= staker.deposit.mul(MAX_EXPOSURE),\n      \"Total stake exceeds maximum allowed\"\n    );\n\n    if (amount > 0) {\n      emit Deposited(msg.sender, amount);\n    }\n\n    // cleanup zero-amount contracts\n    uint lastContractIndex = _contracts.length - 1;\n\n    for (uint i = oldLength; i > 0; i--) {\n      if (_stakes[i - 1] == 0) {\n        staker.contracts[i - 1] = staker.contracts[lastContractIndex];\n        staker.contracts.pop();\n        --lastContractIndex;\n      }\n    }\n  }\n\n  function withdraw(uint amount) external whenNotPausedAndInitialized onlyMember noPendingBurns {\n    uint limit = stakerMaxWithdrawable(msg.sender);\n    require(limit >= amount, \"Requested amount exceeds max withdrawable amount\");\n    stakers[msg.sender].deposit = stakers[msg.sender].deposit.sub(amount);\n    token.transfer(msg.sender, amount);\n    emit Withdrawn(msg.sender, amount);\n  }\n\n  function requestUnstake(\n    address[] calldata _contracts,\n    uint[] calldata _amounts,\n    uint _insertAfter // unstake request id after which the new unstake request will be inserted\n  ) external whenNotPausedAndInitialized onlyMember {\n\n    require(\n      _contracts.length == _amounts.length,\n      \"Contracts and amounts arrays should have the same length\"\n    );\n\n    require(_insertAfter <= lastUnstakeRequestId, 'Invalid unstake request id provided');\n\n    Staker storage staker = stakers[msg.sender];\n    uint deposit = staker.deposit;\n    uint previousId = _insertAfter;\n    uint unstakeAt = now.add(UNSTAKE_LOCK_TIME);\n\n    UnstakeRequest storage previousRequest = unstakeRequests[previousId];\n\n    // Forbid insertion after an empty slot when there are non-empty slots\n    // previousId != 0 allows inserting on the first position (in case lock time has been reduced)\n    if (previousId != 0) {\n      require(previousRequest.unstakeAt != 0, \"Provided unstake request id should not be an empty slot\");\n    }\n\n    for (uint i = 0; i < _contracts.length; i++) {\n\n      address contractAddress = _contracts[i];\n      uint stake = staker.stakes[contractAddress];\n\n      if (stake > deposit) {\n        stake = deposit;\n      }\n\n      uint pendingUnstakeAmount = staker.pendingUnstakeRequestsTotal[contractAddress];\n      uint requestedAmount = _amounts[i];\n      uint max = pendingUnstakeAmount > stake ? 0 : stake.sub(pendingUnstakeAmount);\n\n      require(max > 0, \"Nothing to unstake on this contract\");\n      require(requestedAmount <= max, \"Cannot unstake more than staked\");\n\n      // To prevent spam, small stakes and unstake requests are not allowed\n      // However, we allow the user to unstake the entire amount\n      if (requestedAmount != max) {\n        require(requestedAmount >= MIN_UNSTAKE, \"Unstaked amount cannot be less than minimum unstake amount\");\n        require(max.sub(requestedAmount) >= MIN_STAKE, \"Remaining stake cannot be less than minimum unstake amount\");\n      }\n\n      require(\n        unstakeAt >= previousRequest.unstakeAt,\n        \"Unstake request time must be greater or equal to previous unstake request\"\n      );\n\n      if (previousRequest.next != 0) {\n        UnstakeRequest storage nextRequest = unstakeRequests[previousRequest.next];\n        require(\n          nextRequest.unstakeAt > unstakeAt,\n          \"Next unstake request time must be greater than new unstake request time\"\n        );\n      }\n\n      // Note: We previously had an `id` variable that was assigned immediately to `previousId`.\n      //   It was removed in order to save some memory and previousId used instead.\n      //   This makes the next section slightly harder to read but you can read \"previousId\" as \"newId\" instead.\n\n      // get next available unstake request id. our new unstake request becomes previous for the next loop\n      previousId = ++lastUnstakeRequestId;\n\n      unstakeRequests[previousId] = UnstakeRequest(\n        requestedAmount,\n        unstakeAt,\n        contractAddress,\n        msg.sender,\n        previousRequest.next\n      );\n\n      // point to our new unstake request\n      previousRequest.next = previousId;\n\n      emit UnstakeRequested(contractAddress, msg.sender, requestedAmount, unstakeAt);\n\n      // increase pending unstake requests total so we keep track of final stake\n      uint newPending = staker.pendingUnstakeRequestsTotal[contractAddress].add(requestedAmount);\n      staker.pendingUnstakeRequestsTotal[contractAddress] = newPending;\n\n      // update the reference to the unstake request at target index for the next loop\n      previousRequest = unstakeRequests[previousId];\n    }\n  }\n\n  function withdrawReward(address stakerAddress) external whenNotPausedAndInitialized {\n\n    uint amount = stakers[stakerAddress].reward;\n    stakers[stakerAddress].reward = 0;\n\n    token.transfer(stakerAddress, amount);\n\n    emit RewardWithdrawn(stakerAddress, amount);\n  }\n\n  function pushBurn(\n    address contractAddress, uint amount\n  ) public onlyInternal whenNotPausedAndInitialized noPendingBurns {\n\n    burn.amount = amount;\n    burn.burnedAt = now;\n    burn.contractAddress = contractAddress;\n\n    emit BurnRequested(contractAddress, amount);\n  }\n\n  function pushReward(address contractAddress, uint amount) external onlyInternal whenNotPausedAndInitialized {\n\n    rewards[++lastRewardId] = Reward(amount, now, contractAddress);\n\n    if (firstReward == 0) {\n      firstReward = lastRewardId;\n    }\n\n    emit RewardRequested(contractAddress, amount);\n  }\n\n  function processPendingActions(uint maxIterations) public whenNotPausedAndInitialized returns (bool) {\n\n    uint iterationsLeft = maxIterations;\n    bool finished;\n\n    while (true) {\n\n      uint firstUnstakeRequestIndex = unstakeRequests[0].next;\n      UnstakeRequest storage unstakeRequest = unstakeRequests[firstUnstakeRequestIndex];\n      Reward storage reward = rewards[firstReward];\n\n      // read storage and cache in memory\n      uint burnedAt = burn.burnedAt;\n      uint rewardedAt = reward.rewardedAt;\n      uint unstakeAt = unstakeRequest.unstakeAt;\n\n      bool canUnstake = firstUnstakeRequestIndex > 0 && unstakeAt <= now;\n      bool canBurn = burnedAt != 0;\n      bool canReward = firstReward != 0;\n\n      if (!canBurn && !canUnstake && !canReward) {\n        // everything is processed\n        break;\n      }\n\n      if (\n        canBurn &&\n        (!canUnstake || burnedAt < unstakeAt) &&\n        (!canReward || burnedAt < rewardedAt)\n      ) {\n\n        (finished, iterationsLeft) = _processBurn(iterationsLeft);\n\n        if (!finished) {\n          emit PendingActionsProcessed(false);\n          return false;\n        }\n\n        continue;\n      }\n\n      if (\n        canUnstake &&\n        (!canReward || unstakeAt < rewardedAt)\n      ) {\n\n        // _processFirstUnstakeRequest is O(1) so we'll handle the iteration checks here\n        if (iterationsLeft == 0) {\n          emit PendingActionsProcessed(false);\n          return false;\n        }\n\n        _processFirstUnstakeRequest();\n        --iterationsLeft;\n        continue;\n      }\n\n      (finished, iterationsLeft) = _processFirstReward(iterationsLeft);\n\n      if (!finished) {\n        emit PendingActionsProcessed(false);\n        return false;\n      }\n    }\n\n    // everything is processed!\n    emit PendingActionsProcessed(true);\n    return true;\n  }\n\n  function _processBurn(uint maxIterations) internal returns (bool finished, uint iterationsLeft) {\n\n    iterationsLeft = maxIterations;\n\n    address _contractAddress = burn.contractAddress;\n    uint _stakedOnContract;\n\n    (_stakedOnContract, finished, iterationsLeft) = _calculateContractStake(_contractAddress, iterationsLeft);\n\n    if (!finished) {\n      return (false, iterationsLeft);\n    }\n\n    address[] storage _contractStakers = contractStakers[_contractAddress];\n    uint _stakerCount = _contractStakers.length;\n\n    uint _totalBurnAmount = burn.amount;\n    uint _actualBurnAmount = contractBurned;\n\n    if (_totalBurnAmount > _stakedOnContract) {\n      _totalBurnAmount = _stakedOnContract;\n    }\n\n    for (uint i = processedToStakerIndex; i < _stakerCount; i++) {\n\n      if (iterationsLeft == 0) {\n        contractBurned = _actualBurnAmount;\n        processedToStakerIndex = i;\n        return (false, iterationsLeft);\n      }\n\n      --iterationsLeft;\n\n      Staker storage staker = stakers[_contractStakers[i]];\n      uint _stakerBurnAmount;\n      uint _newStake;\n\n      (_stakerBurnAmount, _newStake) = _burnStaker(staker, _contractAddress, _stakedOnContract, _totalBurnAmount);\n      _actualBurnAmount = _actualBurnAmount.add(_stakerBurnAmount);\n\n      if (_newStake != 0) {\n        continue;\n      }\n\n      // if we got here, the stake is explicitly set to 0\n      // the staker is removed from the contract stakers array\n      // and we will add the staker back if he stakes again\n      staker.isInContractStakers[_contractAddress] = false;\n      _contractStakers[i] = _contractStakers[_stakerCount - 1];\n      _contractStakers.pop();\n\n      // i-- might underflow to MAX_UINT\n      // but that's fine since it will be incremented back to 0 on the next loop\n      i--;\n      _stakerCount--;\n    }\n\n    delete burn;\n    contractBurned = 0;\n    processedToStakerIndex = 0;\n    isContractStakeCalculated = false;\n\n    token.burn(_actualBurnAmount);\n    emit Burned(_contractAddress, _actualBurnAmount, _stakedOnContract);\n\n    return (true, iterationsLeft);\n  }\n\n  function _burnStaker(\n    Staker storage staker, address _contractAddress, uint _stakedOnContract, uint _totalBurnAmount\n  ) internal returns (\n    uint _stakerBurnAmount, uint _newStake\n  ) {\n\n    uint _currentDeposit;\n    uint _currentStake;\n\n    // silence compiler warning\n    _newStake = 0;\n\n    // do we need a storage read?\n    if (_stakedOnContract != 0) {\n      _currentDeposit = staker.deposit;\n      _currentStake = staker.stakes[_contractAddress];\n\n      if (_currentStake > _currentDeposit) {\n        _currentStake = _currentDeposit;\n      }\n    }\n\n    if (_stakedOnContract != _totalBurnAmount) {\n      // formula: staker_burn = staker_stake / total_contract_stake * contract_burn\n      // reordered for precision loss prevention\n      _stakerBurnAmount = _currentStake.mul(_totalBurnAmount).div(_stakedOnContract);\n      _newStake = _currentStake.sub(_stakerBurnAmount);\n    } else {\n      // it's the whole stake\n      _stakerBurnAmount = _currentStake;\n    }\n\n    if (_stakerBurnAmount != 0) {\n      staker.deposit = _currentDeposit.sub(_stakerBurnAmount);\n    }\n\n    staker.stakes[_contractAddress] = _newStake;\n  }\n\n  function _calculateContractStake(\n    address _contractAddress, uint maxIterations\n  ) internal returns (\n    uint _stakedOnContract, bool finished, uint iterationsLeft\n  ) {\n\n    iterationsLeft = maxIterations;\n\n    if (isContractStakeCalculated) {\n      // use previously calculated staked amount\n      return (contractStaked, true, iterationsLeft);\n    }\n\n    address[] storage _contractStakers = contractStakers[_contractAddress];\n    uint _stakerCount = _contractStakers.length;\n    uint startIndex = processedToStakerIndex;\n\n    if (startIndex != 0) {\n      _stakedOnContract = contractStaked;\n    }\n\n    // calculate amount staked on contract\n    for (uint i = startIndex; i < _stakerCount; i++) {\n\n      if (iterationsLeft == 0) {\n        processedToStakerIndex = i;\n        contractStaked = _stakedOnContract;\n        return (_stakedOnContract, false, iterationsLeft);\n      }\n\n      --iterationsLeft;\n\n      Staker storage staker = stakers[_contractStakers[i]];\n      uint deposit = staker.deposit;\n      uint stake = staker.stakes[_contractAddress];\n      stake = deposit < stake ? deposit : stake;\n      _stakedOnContract = _stakedOnContract.add(stake);\n    }\n\n    contractStaked = _stakedOnContract;\n    isContractStakeCalculated = true;\n    processedToStakerIndex = 0;\n\n    return (_stakedOnContract, true, iterationsLeft);\n  }\n\n  function _processFirstUnstakeRequest() internal {\n\n    uint firstRequest = unstakeRequests[0].next;\n    UnstakeRequest storage unstakeRequest = unstakeRequests[firstRequest];\n    address stakerAddress = unstakeRequest.stakerAddress;\n    Staker storage staker = stakers[stakerAddress];\n\n    address contractAddress = unstakeRequest.contractAddress;\n    uint deposit = staker.deposit;\n    uint initialStake = staker.stakes[contractAddress];\n    uint stake = deposit < initialStake ? deposit : initialStake;\n\n    uint requestedAmount = unstakeRequest.amount;\n    uint actualUnstakedAmount = stake < requestedAmount ? stake : requestedAmount;\n    staker.stakes[contractAddress] = stake.sub(actualUnstakedAmount);\n\n    uint pendingUnstakeRequestsTotal = staker.pendingUnstakeRequestsTotal[contractAddress];\n    staker.pendingUnstakeRequestsTotal[contractAddress] = pendingUnstakeRequestsTotal.sub(requestedAmount);\n\n    // update pointer to first unstake request\n    unstakeRequests[0].next = unstakeRequest.next;\n    delete unstakeRequests[firstRequest];\n\n    emit Unstaked(contractAddress, stakerAddress, requestedAmount);\n  }\n\n  function _processFirstReward(uint maxIterations) internal returns (bool finished, uint iterationsLeft) {\n\n    iterationsLeft = maxIterations;\n\n    Reward storage reward = rewards[firstReward];\n    address _contractAddress = reward.contractAddress;\n    uint _totalRewardAmount = reward.amount;\n\n    uint _stakedOnContract;\n\n    (_stakedOnContract, finished, iterationsLeft) = _calculateContractStake(_contractAddress, iterationsLeft);\n\n    if (!finished) {\n      return (false, iterationsLeft);\n    }\n\n    address[] storage _contractStakers = contractStakers[_contractAddress];\n    uint _stakerCount = _contractStakers.length;\n    uint _actualRewardAmount = contractRewarded;\n\n    for (uint i = processedToStakerIndex; i < _stakerCount; i++) {\n\n      if (iterationsLeft == 0) {\n        contractRewarded = _actualRewardAmount;\n        processedToStakerIndex = i;\n        return (false, iterationsLeft);\n      }\n\n      --iterationsLeft;\n\n      address _stakerAddress = _contractStakers[i];\n\n      (uint _stakerRewardAmount, uint _stake) = _rewardStaker(\n        _stakerAddress, _contractAddress, _totalRewardAmount, _stakedOnContract\n      );\n\n      // remove 0-amount stakers, similar to what we're doing when processing burns\n      if (_stake == 0) {\n\n        // mark the user as not present in contract stakers array\n        Staker storage staker = stakers[_stakerAddress];\n        staker.isInContractStakers[_contractAddress] = false;\n\n        // remove the staker from the contract stakers array\n        _contractStakers[i] = _contractStakers[_stakerCount - 1];\n        _contractStakers.pop();\n        i--;\n        _stakerCount--;\n\n        // since the stake is 0, there's no reward to give\n        continue;\n      }\n\n      _actualRewardAmount = _actualRewardAmount.add(_stakerRewardAmount);\n    }\n\n    delete rewards[firstReward];\n    contractRewarded = 0;\n    processedToStakerIndex = 0;\n    isContractStakeCalculated = false;\n\n    if (++firstReward > lastRewardId) {\n      firstReward = 0;\n    }\n\n    tokenController.mint(address(this), _actualRewardAmount);\n    emit Rewarded(_contractAddress, _actualRewardAmount, _stakedOnContract);\n\n    return (true, iterationsLeft);\n  }\n\n  function _rewardStaker(\n    address stakerAddress, address contractAddress, uint totalRewardAmount, uint totalStakedOnContract\n  ) internal returns (uint rewardedAmount, uint stake) {\n\n    Staker storage staker = stakers[stakerAddress];\n    uint deposit = staker.deposit;\n    stake = staker.stakes[contractAddress];\n\n    if (stake > deposit) {\n      stake = deposit;\n    }\n\n    // prevent division by zero and set stake to zero\n    if (totalStakedOnContract == 0 || stake == 0) {\n      staker.stakes[contractAddress] = 0;\n      return (0, 0);\n    }\n\n    // reward = staker_stake / total_contract_stake * total_reward\n    rewardedAmount = totalRewardAmount.mul(stake).div(totalStakedOnContract);\n    staker.reward = staker.reward.add(rewardedAmount);\n  }\n\n  function updateUintParameters(bytes8 code, uint value) external onlyGovernance {\n\n    if (code == \"MIN_STAK\") {\n      MIN_STAKE = value;\n      return;\n    }\n\n    if (code == \"MAX_EXPO\") {\n      MAX_EXPOSURE = value;\n      return;\n    }\n\n    if (code == \"MIN_UNST\") {\n      MIN_UNSTAKE = value;\n      return;\n    }\n\n    if (code == \"UNST_LKT\") {\n      UNSTAKE_LOCK_TIME = value;\n      return;\n    }\n  }\n\n  function initialize() internal {\n\n    require(!initialized, \"Contract is already initialized\");\n\n    tokenController.addToWhitelist(address(this));\n\n    MIN_STAKE = 20 ether;\n    MIN_UNSTAKE = 20 ether;\n    MAX_EXPOSURE = 10;\n    UNSTAKE_LOCK_TIME = 90 days;\n  }\n\n  event StakersMigrationCompleted(\n    bool completed,\n    uint memberIndex,\n    uint stakeIndex\n  );\n\n  event MigratedMember(\n    address member,\n    uint memberIndex\n  );\n\n  function migrateStakers(uint maxIterations) external returns (bool){\n\n    require(!initialized, \"Migration already completed\");\n\n    TokenFunctions tokenFunctions = TokenFunctions(master.getLatestAddress(\"TF\"));\n    TokenData tokenData = TokenData(master.getLatestAddress(\"TD\"));\n    ClaimsReward claimsReward = ClaimsReward(master.getLatestAddress(\"CR\"));\n    MemberRoles memberRoles = MemberRoles(master.getLatestAddress(\"MR\"));\n\n    uint iterationsLeft = maxIterations;\n    uint membersLength = memberRoles.membersLength(uint(MemberRoles.Role.Member));\n\n    for (uint memberIndex = processedToStakerIndex; memberIndex < membersLength; memberIndex++) {\n\n      (address member, bool isActive) = memberRoles.memberAtIndex(uint(MemberRoles.Role.Member), memberIndex);\n\n      if (!isActive) {\n        continue;\n      }\n\n      uint stakedContractsCount = tokenData.getStakerStakedContractLength(member);\n      uint commissionsLeftToProcess = tokenData.getStakerTotalEarnedStakeCommission(member)\n        .sub(tokenData.getStakerTotalReedmedStakeCommission(member));\n\n      if (commissionsLeftToProcess > 0) {\n        claimsReward._claimStakeCommission(stakedContractsCount, member);\n      }\n\n      // we're reusing firstReward storage variable in order to avoid\n      // declaration of variables that will only be used for the migration\n      for (uint i = firstReward; i < stakedContractsCount; i++) {\n\n        if (iterationsLeft == 0) {\n          processedToStakerIndex = memberIndex;\n          firstReward = i;\n          emit StakersMigrationCompleted(false, memberIndex, i);\n          return false;\n        }\n\n        --iterationsLeft;\n\n        address contractAddress = tokenData.getStakerStakedContractByIndex(member, i);\n        uint stakerContractIndex = tokenData.getStakerStakedContractIndex(member, i);\n\n        unlockStakerUnlockableTokensForContract(\n          tokenData, tokenFunctions, member, contractAddress, stakerContractIndex, i\n        );\n\n        (, uint stakedAmount) = tokenFunctions._deprecated_unlockableBeforeBurningAndCanBurn(member, contractAddress, i);\n\n        if (stakedAmount > 0) {\n          stakeForMemberOnContract(tokenData, member, contractAddress, stakedAmount, stakerContractIndex, i);\n        }\n      }\n\n      emit MigratedMember(member, memberIndex);\n\n      // reset start index for the next iteration\n      firstReward = 0;\n    }\n\n    initialized = true;\n\n    // reset migration indexes\n    processedToStakerIndex = 0;\n    firstReward = 0;\n    emit StakersMigrationCompleted(true, processedToStakerIndex, firstReward);\n\n    return true;\n  }\n\n  function stakeForMemberOnContract(\n    TokenData tokenData,\n    address stakerAddress,\n    address contractAddress,\n    uint stakedAmount,\n    uint stakerContractIndex,\n    uint i\n  ) internal {\n\n    Staker storage staker = stakers[stakerAddress];\n    staker.deposit = staker.deposit.add(stakedAmount);\n    staker.stakes[contractAddress] = staker.stakes[contractAddress].add(stakedAmount);\n\n    emit Staked(contractAddress, stakerAddress, stakedAmount);\n    emit Deposited(stakerAddress, stakedAmount);\n\n    tokenData.pushBurnedTokens(stakerAddress, i, stakedAmount);\n    bytes32 lockReason = keccak256(abi.encodePacked(\"UW\", stakerAddress, contractAddress, stakerContractIndex));\n    tokenController.burnLockedTokens(stakerAddress, lockReason, stakedAmount);\n\n    if (!staker.isInContractStakers[contractAddress]) {\n      staker.contracts.push(contractAddress);\n      staker.isInContractStakers[contractAddress] = true;\n      contractStakers[contractAddress].push(stakerAddress);\n    }\n\n    tokenController.mint(address(this), stakedAmount);\n  }\n\n  function unlockStakerUnlockableTokensForContract(\n    TokenData tokenData,\n    TokenFunctions tokenFunctions,\n    address stakerAddress,\n    address contractAddress,\n    uint stakerContractIndex,\n    uint i\n  ) internal {\n\n    uint unlockableAmount = tokenFunctions._deprecated_getStakerUnlockableTokensOnSmartContract(\n      stakerAddress, contractAddress, stakerContractIndex\n    );\n\n    tokenData.setUnlockableBeforeLastBurnTokens(stakerAddress, i, 0);\n    tokenData.pushUnlockedStakedTokens(stakerAddress, i, unlockableAmount);\n\n    bytes32 lockReason = keccak256(abi.encodePacked(\"UW\", stakerAddress, contractAddress, stakerContractIndex));\n    tokenController.releaseLockedTokens(stakerAddress, lockReason, unlockableAmount);\n  }\n\n  function changeDependentContractAddress() public {\n\n    token = NXMToken(master.tokenAddress());\n    tokenController = TokenController(master.getLatestAddress(\"TC\"));\n\n    if (!initialized) {\n      initialize();\n    }\n  }\n\n}\n",
  "sourcePath": "/Users/oker/Downloads/smart-contracts-master/contracts/PooledStaking.sol",
  "compiler": {
    "name": "solc",
    "version": "0.5.7+commit.6da8b019.Emscripten.clang"
  },
  "schemaVersion": "3.2.3",
  "updatedAt": "2020-11-02T03:12:12.061Z",
  "devdoc": {
    "methods": {}
  },
  "userdoc": {
    "methods": {}
  }
}