{
  "contractName": "QuotationData",
  "abi": [
    {
      "constant": true,
      "inputs": [],
      "name": "stl",
      "outputs": [
        {
          "name": "",
          "type": "uint256"
        }
      ],
      "payable": false,
      "stateMutability": "view",
      "type": "function"
    },
    {
      "constant": true,
      "inputs": [],
      "name": "stlp",
      "outputs": [
        {
          "name": "",
          "type": "uint256"
        }
      ],
      "payable": false,
      "stateMutability": "view",
      "type": "function"
    },
    {
      "constant": true,
      "inputs": [],
      "name": "kycAuthAddress",
      "outputs": [
        {
          "name": "",
          "type": "address"
        }
      ],
      "payable": false,
      "stateMutability": "view",
      "type": "function"
    },
    {
      "constant": true,
      "inputs": [],
      "name": "pm",
      "outputs": [
        {
          "name": "",
          "type": "uint256"
        }
      ],
      "payable": false,
      "stateMutability": "view",
      "type": "function"
    },
    {
      "constant": true,
      "inputs": [
        {
          "name": "",
          "type": "uint256"
        }
      ],
      "name": "timestampRepeated",
      "outputs": [
        {
          "name": "",
          "type": "bool"
        }
      ],
      "payable": false,
      "stateMutability": "view",
      "type": "function"
    },
    {
      "constant": true,
      "inputs": [],
      "name": "ms",
      "outputs": [
        {
          "name": "",
          "type": "address"
        }
      ],
      "payable": false,
      "stateMutability": "view",
      "type": "function"
    },
    {
      "constant": true,
      "inputs": [
        {
          "name": "",
          "type": "address"
        },
        {
          "name": "",
          "type": "uint256"
        }
      ],
      "name": "userHoldedCover",
      "outputs": [
        {
          "name": "",
          "type": "uint256"
        }
      ],
      "payable": false,
      "stateMutability": "view",
      "type": "function"
    },
    {
      "constant": true,
      "inputs": [
        {
          "name": "",
          "type": "uint256"
        }
      ],
      "name": "coverStatus",
      "outputs": [
        {
          "name": "",
          "type": "uint8"
        }
      ],
      "payable": false,
      "stateMutability": "view",
      "type": "function"
    },
    {
      "constant": true,
      "inputs": [
        {
          "name": "",
          "type": "uint256"
        }
      ],
      "name": "holdedCoverIDStatus",
      "outputs": [
        {
          "name": "",
          "type": "uint256"
        }
      ],
      "payable": false,
      "stateMutability": "view",
      "type": "function"
    },
    {
      "constant": false,
      "inputs": [
        {
          "name": "_masterAddress",
          "type": "address"
        }
      ],
      "name": "changeMasterAddress",
      "outputs": [],
      "payable": false,
      "stateMutability": "nonpayable",
      "type": "function"
    },
    {
      "constant": true,
      "inputs": [
        {
          "name": "",
          "type": "address"
        }
      ],
      "name": "refundEligible",
      "outputs": [
        {
          "name": "",
          "type": "bool"
        }
      ],
      "payable": false,
      "stateMutability": "view",
      "type": "function"
    },
    {
      "constant": true,
      "inputs": [],
      "name": "authQuoteEngine",
      "outputs": [
        {
          "name": "",
          "type": "address"
        }
      ],
      "payable": false,
      "stateMutability": "view",
      "type": "function"
    },
    {
      "constant": true,
      "inputs": [],
      "name": "minDays",
      "outputs": [
        {
          "name": "",
          "type": "uint256"
        }
      ],
      "payable": false,
      "stateMutability": "view",
      "type": "function"
    },
    {
      "constant": true,
      "inputs": [],
      "name": "nxMasterAddress",
      "outputs": [
        {
          "name": "",
          "type": "address"
        }
      ],
      "payable": false,
      "stateMutability": "view",
      "type": "function"
    },
    {
      "constant": true,
      "inputs": [],
      "name": "tokensRetained",
      "outputs": [
        {
          "name": "",
          "type": "uint256"
        }
      ],
      "payable": false,
      "stateMutability": "view",
      "type": "function"
    },
    {
      "inputs": [
        {
          "name": "_authQuoteAdd",
          "type": "address"
        },
        {
          "name": "_kycAuthAdd",
          "type": "address"
        }
      ],
      "payable": false,
      "stateMutability": "nonpayable",
      "type": "constructor"
    },
    {
      "anonymous": false,
      "inputs": [
        {
          "indexed": true,
          "name": "cid",
          "type": "uint256"
        },
        {
          "indexed": false,
          "name": "scAdd",
          "type": "address"
        },
        {
          "indexed": false,
          "name": "sumAssured",
          "type": "uint256"
        },
        {
          "indexed": false,
          "name": "expiry",
          "type": "uint256"
        },
        {
          "indexed": false,
          "name": "premium",
          "type": "uint256"
        },
        {
          "indexed": false,
          "name": "premiumNXM",
          "type": "uint256"
        },
        {
          "indexed": false,
          "name": "curr",
          "type": "bytes4"
        }
      ],
      "name": "CoverDetailsEvent",
      "type": "event"
    },
    {
      "anonymous": false,
      "inputs": [
        {
          "indexed": true,
          "name": "cid",
          "type": "uint256"
        },
        {
          "indexed": false,
          "name": "statusNum",
          "type": "uint8"
        }
      ],
      "name": "CoverStatusEvent",
      "type": "event"
    },
    {
      "constant": false,
      "inputs": [
        {
          "name": "_add",
          "type": "address"
        },
        {
          "name": "_curr",
          "type": "bytes4"
        },
        {
          "name": "_amount",
          "type": "uint256"
        }
      ],
      "name": "addInTotalSumAssuredSC",
      "outputs": [],
      "payable": false,
      "stateMutability": "nonpayable",
      "type": "function"
    },
    {
      "constant": false,
      "inputs": [
        {
          "name": "_add",
          "type": "address"
        },
        {
          "name": "_curr",
          "type": "bytes4"
        },
        {
          "name": "_amount",
          "type": "uint256"
        }
      ],
      "name": "subFromTotalSumAssuredSC",
      "outputs": [],
      "payable": false,
      "stateMutability": "nonpayable",
      "type": "function"
    },
    {
      "constant": false,
      "inputs": [
        {
          "name": "_curr",
          "type": "bytes4"
        },
        {
          "name": "_amount",
          "type": "uint256"
        }
      ],
      "name": "subFromTotalSumAssured",
      "outputs": [],
      "payable": false,
      "stateMutability": "nonpayable",
      "type": "function"
    },
    {
      "constant": false,
      "inputs": [
        {
          "name": "_curr",
          "type": "bytes4"
        },
        {
          "name": "_amount",
          "type": "uint256"
        }
      ],
      "name": "addInTotalSumAssured",
      "outputs": [],
      "payable": false,
      "stateMutability": "nonpayable",
      "type": "function"
    },
    {
      "constant": false,
      "inputs": [
        {
          "name": "_timestamp",
          "type": "uint256"
        }
      ],
      "name": "setTimestampRepeated",
      "outputs": [],
      "payable": false,
      "stateMutability": "nonpayable",
      "type": "function"
    },
    {
      "constant": false,
      "inputs": [
        {
          "name": "_coverPeriod",
          "type": "uint16"
        },
        {
          "name": "_sumAssured",
          "type": "uint256"
        },
        {
          "name": "_userAddress",
          "type": "address"
        },
        {
          "name": "_currencyCode",
          "type": "bytes4"
        },
        {
          "name": "_scAddress",
          "type": "address"
        },
        {
          "name": "premium",
          "type": "uint256"
        },
        {
          "name": "premiumNXM",
          "type": "uint256"
        }
      ],
      "name": "addCover",
      "outputs": [],
      "payable": false,
      "stateMutability": "nonpayable",
      "type": "function"
    },
    {
      "constant": false,
      "inputs": [
        {
          "name": "from",
          "type": "address"
        },
        {
          "name": "scAddress",
          "type": "address"
        },
        {
          "name": "coverCurr",
          "type": "bytes4"
        },
        {
          "name": "coverDetails",
          "type": "uint256[]"
        },
        {
          "name": "coverPeriod",
          "type": "uint16"
        }
      ],
      "name": "addHoldCover",
      "outputs": [],
      "payable": false,
      "stateMutability": "nonpayable",
      "type": "function"
    },
    {
      "constant": false,
      "inputs": [
        {
          "name": "_add",
          "type": "address"
        },
        {
          "name": "status",
          "type": "bool"
        }
      ],
      "name": "setRefundEligible",
      "outputs": [],
      "payable": false,
      "stateMutability": "nonpayable",
      "type": "function"
    },
    {
      "constant": false,
      "inputs": [
        {
          "name": "holdedCoverID",
          "type": "uint256"
        },
        {
          "name": "status",
          "type": "uint256"
        }
      ],
      "name": "setHoldedCoverIDStatus",
      "outputs": [],
      "payable": false,
      "stateMutability": "nonpayable",
      "type": "function"
    },
    {
      "constant": false,
      "inputs": [
        {
          "name": "_add",
          "type": "address"
        }
      ],
      "name": "setKycAuthAddress",
      "outputs": [],
      "payable": false,
      "stateMutability": "nonpayable",
      "type": "function"
    },
    {
      "constant": false,
      "inputs": [
        {
          "name": "_add",
          "type": "address"
        }
      ],
      "name": "changeAuthQuoteEngine",
      "outputs": [],
      "payable": false,
      "stateMutability": "nonpayable",
      "type": "function"
    },
    {
      "constant": true,
      "inputs": [
        {
          "name": "code",
          "type": "bytes8"
        }
      ],
      "name": "getUintParameters",
      "outputs": [
        {
          "name": "codeVal",
          "type": "bytes8"
        },
        {
          "name": "val",
          "type": "uint256"
        }
      ],
      "payable": false,
      "stateMutability": "view",
      "type": "function"
    },
    {
      "constant": true,
      "inputs": [],
      "name": "getProductDetails",
      "outputs": [
        {
          "name": "_minDays",
          "type": "uint256"
        },
        {
          "name": "_pm",
          "type": "uint256"
        },
        {
          "name": "_stl",
          "type": "uint256"
        },
        {
          "name": "_stlp",
          "type": "uint256"
        }
      ],
      "payable": false,
      "stateMutability": "view",
      "type": "function"
    },
    {
      "constant": true,
      "inputs": [],
      "name": "getCoverLength",
      "outputs": [
        {
          "name": "len",
          "type": "uint256"
        }
      ],
      "payable": false,
      "stateMutability": "view",
      "type": "function"
    },
    {
      "constant": true,
      "inputs": [],
      "name": "getAuthQuoteEngine",
      "outputs": [
        {
          "name": "_add",
          "type": "address"
        }
      ],
      "payable": false,
      "stateMutability": "view",
      "type": "function"
    },
    {
      "constant": true,
      "inputs": [
        {
          "name": "_curr",
          "type": "bytes4"
        }
      ],
      "name": "getTotalSumAssured",
      "outputs": [
        {
          "name": "amount",
          "type": "uint256"
        }
      ],
      "payable": false,
      "stateMutability": "view",
      "type": "function"
    },
    {
      "constant": true,
      "inputs": [
        {
          "name": "_add",
          "type": "address"
        }
      ],
      "name": "getAllCoversOfUser",
      "outputs": [
        {
          "name": "allCover",
          "type": "uint256[]"
        }
      ],
      "payable": false,
      "stateMutability": "view",
      "type": "function"
    },
    {
      "constant": true,
      "inputs": [
        {
          "name": "_add",
          "type": "address"
        }
      ],
      "name": "getUserCoverLength",
      "outputs": [
        {
          "name": "len",
          "type": "uint256"
        }
      ],
      "payable": false,
      "stateMutability": "view",
      "type": "function"
    },
    {
      "constant": true,
      "inputs": [
        {
          "name": "_cid",
          "type": "uint256"
        }
      ],
      "name": "getCoverStatusNo",
      "outputs": [
        {
          "name": "",
          "type": "uint8"
        }
      ],
      "payable": false,
      "stateMutability": "view",
      "type": "function"
    },
    {
      "constant": true,
      "inputs": [
        {
          "name": "_cid",
          "type": "uint256"
        }
      ],
      "name": "getCoverPeriod",
      "outputs": [
        {
          "name": "cp",
          "type": "uint32"
        }
      ],
      "payable": false,
      "stateMutability": "view",
      "type": "function"
    },
    {
      "constant": true,
      "inputs": [
        {
          "name": "_cid",
          "type": "uint256"
        }
      ],
      "name": "getCoverSumAssured",
      "outputs": [
        {
          "name": "sa",
          "type": "uint256"
        }
      ],
      "payable": false,
      "stateMutability": "view",
      "type": "function"
    },
    {
      "constant": true,
      "inputs": [
        {
          "name": "_cid",
          "type": "uint256"
        }
      ],
      "name": "getCurrencyOfCover",
      "outputs": [
        {
          "name": "curr",
          "type": "bytes4"
        }
      ],
      "payable": false,
      "stateMutability": "view",
      "type": "function"
    },
    {
      "constant": true,
      "inputs": [
        {
          "name": "_cid",
          "type": "uint256"
        }
      ],
      "name": "getValidityOfCover",
      "outputs": [
        {
          "name": "date",
          "type": "uint256"
        }
      ],
      "payable": false,
      "stateMutability": "view",
      "type": "function"
    },
    {
      "constant": true,
      "inputs": [
        {
          "name": "_cid",
          "type": "uint256"
        }
      ],
      "name": "getscAddressOfCover",
      "outputs": [
        {
          "name": "",
          "type": "uint256"
        },
        {
          "name": "",
          "type": "address"
        }
      ],
      "payable": false,
      "stateMutability": "view",
      "type": "function"
    },
    {
      "constant": true,
      "inputs": [
        {
          "name": "_cid",
          "type": "uint256"
        }
      ],
      "name": "getCoverMemberAddress",
      "outputs": [
        {
          "name": "_add",
          "type": "address"
        }
      ],
      "payable": false,
      "stateMutability": "view",
      "type": "function"
    },
    {
      "constant": true,
      "inputs": [
        {
          "name": "_cid",
          "type": "uint256"
        }
      ],
      "name": "getCoverPremiumSOTE",
      "outputs": [
        {
          "name": "_premiumNXM",
          "type": "uint256"
        }
      ],
      "payable": false,
      "stateMutability": "view",
      "type": "function"
    },
    {
      "constant": true,
      "inputs": [
        {
          "name": "_cid",
          "type": "uint256"
        }
      ],
      "name": "getCoverDetailsByCoverID1",
      "outputs": [
        {
          "name": "cid",
          "type": "uint256"
        },
        {
          "name": "_memberAddress",
          "type": "address"
        },
        {
          "name": "_scAddress",
          "type": "address"
        },
        {
          "name": "_currencyCode",
          "type": "bytes4"
        },
        {
          "name": "_sumAssured",
          "type": "uint256"
        },
        {
          "name": "premiumNXM",
          "type": "uint256"
        }
      ],
      "payable": false,
      "stateMutability": "view",
      "type": "function"
    },
    {
      "constant": true,
      "inputs": [
        {
          "name": "_cid",
          "type": "uint256"
        }
      ],
      "name": "getCoverDetailsByCoverID2",
      "outputs": [
        {
          "name": "cid",
          "type": "uint256"
        },
        {
          "name": "status",
          "type": "uint8"
        },
        {
          "name": "sumAssured",
          "type": "uint256"
        },
        {
          "name": "coverPeriod",
          "type": "uint16"
        },
        {
          "name": "validUntil",
          "type": "uint256"
        }
      ],
      "payable": false,
      "stateMutability": "view",
      "type": "function"
    },
    {
      "constant": true,
      "inputs": [
        {
          "name": "_hcid",
          "type": "uint256"
        }
      ],
      "name": "getHoldedCoverDetailsByID1",
      "outputs": [
        {
          "name": "hcid",
          "type": "uint256"
        },
        {
          "name": "scAddress",
          "type": "address"
        },
        {
          "name": "coverCurr",
          "type": "bytes4"
        },
        {
          "name": "coverPeriod",
          "type": "uint16"
        }
      ],
      "payable": false,
      "stateMutability": "view",
      "type": "function"
    },
    {
      "constant": true,
      "inputs": [
        {
          "name": "_add",
          "type": "address"
        }
      ],
      "name": "getUserHoldedCoverLength",
      "outputs": [
        {
          "name": "",
          "type": "uint256"
        }
      ],
      "payable": false,
      "stateMutability": "view",
      "type": "function"
    },
    {
      "constant": true,
      "inputs": [
        {
          "name": "_add",
          "type": "address"
        },
        {
          "name": "index",
          "type": "uint256"
        }
      ],
      "name": "getUserHoldedCoverByIndex",
      "outputs": [
        {
          "name": "",
          "type": "uint256"
        }
      ],
      "payable": false,
      "stateMutability": "view",
      "type": "function"
    },
    {
      "constant": true,
      "inputs": [
        {
          "name": "_hcid",
          "type": "uint256"
        }
      ],
      "name": "getHoldedCoverDetailsByID2",
      "outputs": [
        {
          "name": "hcid",
          "type": "uint256"
        },
        {
          "name": "memberAddress",
          "type": "address"
        },
        {
          "name": "coverDetails",
          "type": "uint256[]"
        }
      ],
      "payable": false,
      "stateMutability": "view",
      "type": "function"
    },
    {
      "constant": true,
      "inputs": [
        {
          "name": "_add",
          "type": "address"
        },
        {
          "name": "_curr",
          "type": "bytes4"
        }
      ],
      "name": "getTotalSumAssuredSC",
      "outputs": [
        {
          "name": "amount",
          "type": "uint256"
        }
      ],
      "payable": false,
      "stateMutability": "view",
      "type": "function"
    },
    {
      "constant": false,
      "inputs": [],
      "name": "changeDependentContractAddress",
      "outputs": [],
      "payable": false,
      "stateMutability": "nonpayable",
      "type": "function"
    },
    {
      "constant": false,
      "inputs": [
        {
          "name": "_cid",
          "type": "uint256"
        },
        {
          "name": "_stat",
          "type": "uint8"
        }
      ],
      "name": "changeCoverStatusNo",
      "outputs": [],
      "payable": false,
      "stateMutability": "nonpayable",
      "type": "function"
    },
    {
      "constant": false,
      "inputs": [
        {
          "name": "code",
          "type": "bytes8"
        },
        {
          "name": "val",
          "type": "uint256"
        }
      ],
      "name": "updateUintParameters",
      "outputs": [],
      "payable": false,
      "stateMutability": "nonpayable",
      "type": "function"
    }
  ],
  "bytecode": "0x60806040523480156200001157600080fd5b506040516040806200268d833981018060405260408110156200003357600080fd5b81019080805190602001909291908051906020019092919050505081600260006101000a8154816001600160a01b0302191690836001600160a01b0316021790555080601260006101000a8154816001600160a01b0302191690836001600160a01b03160217905550605a600d819055506064600e81905550601e600f81905550601e601081905550600a601181905550600b6040518060e0016040528060006001600160a01b031681526020017f30783030000000000000000000000000000000000000000000000000000000006001600160e01b031916815260200160008152602001600061ffff1681526020016000815260200160006001600160a01b0316815260200160008152509080600181540180825580915050906001820390600052602060002090600602016000909192909190915060008201518160000160006101000a8154816001600160a01b0302191690836001600160a01b0316021790555060208201518160000160146101000a81548163ffffffff021916908360e01c02179055506040820151816001015560608201518160020160006101000a81548161ffff021916908361ffff1602179055506080820151816003015560a08201518160040160006101000a8154816001600160a01b0302191690836001600160a01b0316021790555060c08201518160050155505050606060016040519080825280602002602001820160405280156200025a578160200160208202803883390190505b506040805160c08101825260008082526020808301828152938301828152606084018381526080850187815260a08601859052600c8054600181018083559190965286517fdf6966c971051c3d54ec59162606531493a51404a002842f56009d7e5cf4a8c7600590970296870190815597517fdf6966c971051c3d54ec59162606531493a51404a002842f56009d7e5cf4a8c8870180546001600160a01b03199081166001600160a01b039384161790915594517fdf6966c971051c3d54ec59162606531493a51404a002842f56009d7e5cf4a8c988018054955195909616911617600160a01b63ffffffff0219167401000000000000000000000000000000000000000060e09490941c9390930292909217909255905180519697509095939493620003af937fdf6966c971051c3d54ec59162606531493a51404a002842f56009d7e5cf4a8ca01929190910190620003da565b5060a091909101516004909101805461ffff191661ffff909216919091179055506200044a92505050565b82805482825590600052602060002090810192821562000418579160200282015b8281111562000418578251825591602001919060010190620003fb565b50620004269291506200042a565b5090565b6200044791905b8082111562000426576000815560010162000431565b90565b612233806200045a6000396000f3fe608060405234801561001057600080fd5b50600436106102f15760003560e01c806384434b9f1161019d578063c60781bd116100e9578063e8d3ae9c116100a2578063f17a3bec1161007c578063f17a3bec14610b41578063f3ab26cc14610b49578063f63a87d414610b51578063fe7cfbfc14610b7f576102f1565b8063e8d3ae9c14610b05578063e8f5fb1c14610b0d578063f0bd022214610b15576102f1565b8063c60781bd14610995578063cc41241c146109bb578063d46655f414610a4c578063de75b5ea14610a72578063df09fea714610a98578063e2c2a5bb14610afd576102f1565b80639dd86e0f11610156578063a2fd826211610130578063a2fd826214610909578063ae1c5eca14610935578063b1351bfd1461095b578063baaa46f914610978576102f1565b80639dd86e0f146108a7578063a0b2d57f146108d4578063a2c6bc25146108dc576102f1565b806384434b9f146107945780638970cdff1461079c5780638b5722f4146107a45780638ce80a65146107de5780638d16a10514610838578063922fd67f14610876576102f1565b80634b2cc0a11161025c5780636122f84011610215578063711acf86116101ef578063711acf86146106e8578063811833a81461070557806381d760ae1461073b57806383fa958514610777576102f1565b80636122f8401461067257806367157ff0146106bd5780636e13d8c5146106c5576102f1565b80634b2cc0a114610573578063504dbcf1146105a65780635444ca75146105c3578063544ef03d146105f9578063549a65f41461061f57806360a230e714610645576102f1565b80632ce65f5a116102ae5780632ce65f5a146104295780633327a2fa146104315780633994b3d51461047f5780633c2d4daf146104bb5780633d5732a3146104f45780633f77ea651461051b576102f1565b80630ea9c984146102f65780631407264b146103005780631ce48f3d1461032657806323bc839b1461035557806328111dd814610383578063292ad50a1461038b575b600080fd5b6102fe610bf5565b005b6102fe6004803603602081101561031657600080fd5b50356001600160a01b0316610bf7565b6103436004803603602081101561033c57600080fd5b5035610c9c565b60408051918252519081900360200190f35b61035d610cc4565b604080519485526020850193909352838301919091526060830152519081900360800190f35b610343610cd8565b6102fe600480360360a08110156103a157600080fd5b6001600160a01b0382358116926020810135909116916001600160e01b031960408301351691908101906080810160608201356401000000008111156103e657600080fd5b8201836020820111156103f857600080fd5b8035906020019184602083028401116401000000008311171561041a57600080fd5b91935091503561ffff16610cde565b610343610f04565b61044e6004803603602081101561044757600080fd5b5035610f0a565b6040805195865260ff90941660208601528484019290925261ffff1660608401526080830152519081900360a00190f35b6102fe6004803603606081101561049557600080fd5b506001600160a01b03813516906001600160e01b03196020820135169060400135610fa8565b6104d8600480360360208110156104d157600080fd5b50356110a1565b604080516001600160a01b039092168252519081900360200190f35b6103436004803603602081101561050a57600080fd5b50356001600160e01b0319166110d0565b6105386004803603602081101561053157600080fd5b50356110ec565b604080519485526001600160a01b0390931660208501526001600160e01b03199091168383015261ffff166060830152519081900360800190f35b6105906004803603602081101561058957600080fd5b5035611186565b6040805160ff9092168252519081900360200190f35b610343600480360360208110156105bc57600080fd5b503561119b565b610343600480360360408110156105d957600080fd5b5080356001600160a01b031690602001356001600160e01b0319166111c3565b6103436004803603602081101561060f57600080fd5b50356001600160a01b03166111f5565b6102fe6004803603602081101561063557600080fd5b50356001600160a01b0316611210565b6102fe6004803603604081101561065b57600080fd5b506001600160e01b031981351690602001356112b5565b6106996004803603602081101561068857600080fd5b50356001600160c01b031916611383565b604080516001600160c01b0319909316835260208301919091528051918290030190f35b610343611442565b6102fe600480360360408110156106db57600080fd5b5080359060200135611449565b610343600480360360208110156106fe57600080fd5b50356114de565b6107226004803603602081101561071b57600080fd5b5035611506565b6040805163ffffffff9092168252519081900360200190f35b6102fe6004803603606081101561075157600080fd5b506001600160a01b03813516906001600160e01b03196020820135169060400135611533565b6102fe6004803603602081101561078d57600080fd5b50356115f4565b6104d8611692565b6103436116a1565b6107c1600480360360208110156107ba57600080fd5b50356116a7565b604080516001600160e01b03199092168252519081900360200190f35b6102fe600480360360e08110156107f457600080fd5b5061ffff813516906020810135906001600160a01b0360408201358116916001600160e01b0319606082013516916080820135169060a08101359060c001356116d7565b6108556004803603602081101561084e57600080fd5b503561197e565b604080519283526001600160a01b0390911660208301528051918290030190f35b6108936004803603602081101561088c57600080fd5b50356119b6565b604080519115158252519081900360200190f35b6102fe600480360360408110156108bd57600080fd5b506001600160c01b031981351690602001356119cb565b6104d8611b62565b6102fe600480360360408110156108f257600080fd5b506001600160e01b03198135169060200135611b71565b6103436004803603604081101561091f57600080fd5b506001600160a01b038135169060200135611c1e565b6102fe6004803603604081101561094b57600080fd5b508035906020013560ff16611c4c565b6105906004803603602081101561097157600080fd5b5035611d27565b6103436004803603602081101561098e57600080fd5b5035611d3c565b610343600480360360208110156109ab57600080fd5b50356001600160a01b0316611d4e565b6109d8600480360360208110156109d157600080fd5b5035611d69565b60405180848152602001836001600160a01b03166001600160a01b0316815260200180602001828103825283818151815260200191508051906020019060200280838360005b83811015610a36578181015183820152602001610a1e565b5050505090500194505050505060405180910390f35b6102fe60048036036020811015610a6257600080fd5b50356001600160a01b0316611e1e565b61089360048036036020811015610a8857600080fd5b50356001600160a01b0316611ead565b610ab560048036036020811015610aae57600080fd5b5035611ec2565b604080519687526001600160a01b03958616602088015293909416858401526001600160e01b03199091166060850152608084015260a0830191909152519081900360c00190f35b6104d8611fa9565b6104d8611fb8565b610343611fc7565b61034360048036036040811015610b2b57600080fd5b506001600160a01b038135169060200135611fcd565b6104d8612005565b610343612014565b6102fe60048036036040811015610b6757600080fd5b506001600160a01b038135169060200135151561201a565b610ba560048036036020811015610b9557600080fd5b50356001600160a01b03166120c8565b60408051602080825283518183015283519192839290830191858101910280838360005b83811015610be1578181015183820152602001610bc9565b505050509050019250505060405180910390f35b565b60005460408051600160e21b6323c5b10702815233600482015290516001600160a01b0390921691638f16c41c91602480820192602092909190829003018186803b158015610c4557600080fd5b505afa158015610c59573d6000803e3d6000fd5b505050506040513d6020811015610c6f57600080fd5b5051610c7a57600080fd5b600280546001600160a01b0319166001600160a01b0392909216919091179055565b6000600b8281548110610cab57fe5b9060005260206000209060060201600101549050919050565b601054600f54600e54600d54929391929091565b600e5481565b60005460408051600160e21b6323c5b10702815233600482015290516001600160a01b0390921691638f16c41c91602480820192602092909190829003018186803b158015610d2c57600080fd5b505afa158015610d40573d6000803e3d6000fd5b505050506040513d6020811015610d5657600080fd5b5051610d6157600080fd5b600c5460016009600083815260200190815260200160002081905550600c6040518060c00160405280838152602001896001600160a01b03168152602001886001600160a01b03168152602001876001600160e01b0319168152602001868680806020026020016040519081016040528093929190818152602001838360200280828437600092018290525093855250505061ffff8616602092830152835460018181018087559583529183902084516005909202019081558383015191810180546001600160a01b039384166001600160a01b0319918216179091556040850151600283018054606088015160e01c600160a01b0277ffffffff000000000000000000000000000000000000000019939096169316929092171692909217909155608083015180519192610e9e926003850192909101906121a2565b5060a091909101516004909101805461ffff191661ffff909216919091179055506001600160a01b0387166000908152600560205260409020600c54610ee5906001612134565b8154600181018355600092835260209092209091015550505050505050565b600d5481565b600081815260086020526040812054600b80548392839283928392889260ff9091169183908110610f3757fe5b906000526020600020906006020160010154600b8981548110610f5657fe5b906000526020600020906006020160020160009054906101000a900461ffff16600b8a81548110610f8357fe5b9060005260206000209060060201600301549450945094509450945091939590929450565b60005460408051600160e21b6323c5b10702815233600482015290516001600160a01b0390921691638f16c41c91602480820192602092909190829003018186803b158015610ff657600080fd5b505afa15801561100a573d6000803e3d6000fd5b505050506040513d602081101561102057600080fd5b505161102b57600080fd5b6001600160a01b03831660009081526007602090815260408083206001600160e01b031986168452909152902054611069908263ffffffff61214916565b6001600160a01b0390931660009081526007602090815260408083206001600160e01b03199095168352939052919091209190915550565b6000600b82815481106110b057fe5b60009182526020909120600690910201546001600160a01b031692915050565b6001600160e01b03191660009081526003602052604090205490565b60008060008084600c868154811061110057fe5b906000526020600020906005020160020160009054906101000a90046001600160a01b0316600c878154811061113257fe5b906000526020600020906005020160020160149054906101000a900460e01b600c888154811061115e57fe5b60009182526020909120600590910201600401549298919750955061ffff9091169350915050565b60009081526008602052604090205460ff1690565b6000600b82815481106111aa57fe5b9060005260206000209060060201600501549050919050565b6001600160a01b0390911660009081526007602090815260408083206001600160e01b03199094168352929052205490565b6001600160a01b031660009081526004602052604090205490565b60005460408051600160e21b6323c5b10702815233600482015290516001600160a01b0390921691638f16c41c91602480820192602092909190829003018186803b15801561125e57600080fd5b505afa158015611272573d6000803e3d6000fd5b505050506040513d602081101561128857600080fd5b505161129357600080fd5b601280546001600160a01b0319166001600160a01b0392909216919091179055565b60005460408051600160e21b6323c5b10702815233600482015290516001600160a01b0390921691638f16c41c91602480820192602092909190829003018186803b15801561130357600080fd5b505afa158015611317573d6000803e3d6000fd5b505050506040513d602081101561132d57600080fd5b505161133857600080fd5b6001600160e01b03198216600090815260036020526040902054611362908263ffffffff61213416565b6001600160e01b031990921660009081526003602052604090209190915550565b806000600160e41b63053544c5026001600160c01b0319831614156113ab5750600d5461143d565b600160ea1b6214d513026001600160c01b0319841614156113cf5750600e5461143d565b600160f01b61504d026001600160c01b0319841614156113f25750600f5461143d565b600160ca1b66145553d3525391026001600160c01b03198416141561141a575060105461143d565b600160d01b6551554f544f4b026001600160c01b03198416141561143d57506011545b915091565b600b545b90565b60005460408051600160e21b6323c5b10702815233600482015290516001600160a01b0390921691638f16c41c91602480820192602092909190829003018186803b15801561149757600080fd5b505afa1580156114ab573d6000803e3d6000fd5b505050506040513d60208110156114c157600080fd5b50516114cc57600080fd5b60009182526009602052604090912055565b6000600b82815481106114ed57fe5b9060005260206000209060060201600301549050919050565b6000600b828154811061151557fe5b600091825260209091206002600690920201015461ffff1692915050565b60005460408051600160e21b6323c5b10702815233600482015290516001600160a01b0390921691638f16c41c91602480820192602092909190829003018186803b15801561158157600080fd5b505afa158015611595573d6000803e3d6000fd5b505050506040513d60208110156115ab57600080fd5b50516115b657600080fd5b6001600160a01b03831660009081526007602090815260408083206001600160e01b031986168452909152902054611069908263ffffffff61213416565b60005460408051600160e21b6323c5b10702815233600482015290516001600160a01b0390921691638f16c41c91602480820192602092909190829003018186803b15801561164257600080fd5b505afa158015611656573d6000803e3d6000fd5b505050506040513d602081101561166c57600080fd5b505161167757600080fd5b6000908152600a60205260409020805460ff19166001179055565b6012546001600160a01b031681565b600f5481565b6000600b82815481106116b657fe5b6000918252602090912060069091020154600160a01b900460e01b92915050565b60005460408051600160e21b6323c5b10702815233600482015290516001600160a01b0390921691638f16c41c91602480820192602092909190829003018186803b15801561172557600080fd5b505afa158015611739573d6000803e3d6000fd5b505050506040513d602081101561174f57600080fd5b505161175a57600080fd5b600061178361177661ffff8a166201518063ffffffff61216216565b429063ffffffff61214916565b9050600b6040518060e00160405280886001600160a01b03168152602001876001600160e01b03191681526020018981526020018a61ffff168152602001838152602001866001600160a01b03168152602001848152509080600181540180825580915050906001820390600052602060002090600602016000909192909190915060008201518160000160006101000a8154816001600160a01b0302191690836001600160a01b0316021790555060208201518160000160146101000a81548163ffffffff021916908360e01c02179055506040820151816001015560608201518160020160006101000a81548161ffff021916908361ffff1602179055506080820151816003015560a08201518160040160006101000a8154816001600160a01b0302191690836001600160a01b0316021790555060c0820151816005015550505060006118e26001600b8054905061213490919063ffffffff16565b6001600160a01b0380891660009081526004602090815260408083208054600181018255908452928290209092018490558151928916835282018b905281810185905260608201879052608082018690526001600160e01b0319891660a08301525191925082917f535c0318711210e1ce39e443c5948dd7fa396c2774d0949812fcb74800e227309181900360c00190a2505050505050505050565b60008082600b848154811061198f57fe5b60009182526020909120600460069092020101549092506001600160a01b03169050915091565b600a6020526000908152604090205460ff1681565b60005460408051600160e11b632c1a733d02815233600482015290516001600160a01b0390921691635834e67a91602480820192602092909190829003018186803b158015611a1957600080fd5b505afa158015611a2d573d6000803e3d6000fd5b505050506040513d6020811015611a4357600080fd5b5051611a4e57600080fd5b600160e41b63053544c5026001600160c01b031983161415611a7857611a7381612189565b611b5e565b600160ea1b6214d513026001600160c01b031983161415611a9c57611a738161218e565b600160f01b61504d026001600160c01b031983161415611abf57611a7381612193565b600160ca1b66145553d3525391026001600160c01b031983161415611ae757611a7381612198565b600160d01b6551554f544f4b026001600160c01b031983161415611b0e57611a738161219d565b60408051600160e51b62461bcd02815260206004820152601260248201527f496e76616c696420706172616d20636f64650000000000000000000000000000604482015290519081900360640190fd5b5050565b6000546001600160a01b031681565b60005460408051600160e21b6323c5b10702815233600482015290516001600160a01b0390921691638f16c41c91602480820192602092909190829003018186803b158015611bbf57600080fd5b505afa158015611bd3573d6000803e3d6000fd5b505050506040513d6020811015611be957600080fd5b5051611bf457600080fd5b6001600160e01b03198216600090815260036020526040902054611362908263ffffffff61214916565b60056020528160005260406000208181548110611c3757fe5b90600052602060002001600091509150505481565b60005460408051600160e21b6323c5b10702815233600482015290516001600160a01b0390921691638f16c41c91602480820192602092909190829003018186803b158015611c9a57600080fd5b505afa158015611cae573d6000803e3d6000fd5b505050506040513d6020811015611cc457600080fd5b5051611ccf57600080fd5b600082815260086020908152604091829020805460ff191660ff85169081179091558251908152915184927f7f1cec39abbda212a819b9165ccfc4064f73eb454b052a312807b2270067a53d92908290030190a25050565b60086020526000908152604090205460ff1681565b60096020526000908152604090205481565b6001600160a01b031660009081526005602052604090205490565b600080606083600c8581548110611d7c57fe5b906000526020600020906005020160010160009054906101000a90046001600160a01b0316600c8681548110611dae57fe5b906000526020600020906005020160030180805480602002602001604051908101604052809291908181526020018280548015611e0a57602002820191906000526020600020905b815481526020019060010190808311611df6575b505050505090509250925092509193909250565b6000546001600160a01b031615611e81576000546001600160a01b03163314611e815760408051600160e51b62461bcd02815260206004820152600a6024820152600160b11b692737ba1036b0b9ba32b902604482015290519081900360640190fd5b600080546001600160a01b039092166001600160a01b0319928316811790915560018054909216179055565b60066020526000908152604090205460ff1681565b60008060008060008086600b8881548110611ed957fe5b6000918252602090912060069091020154600b80546001600160a01b03909216918a908110611f0457fe5b906000526020600020906006020160040160009054906101000a90046001600160a01b0316600b8a81548110611f3657fe5b906000526020600020906006020160000160149054906101000a900460e01b600b8b81548110611f6257fe5b906000526020600020906006020160010154600b8c81548110611f8157fe5b6000918252602090912060056006909202010154949c939b5091995097509550909350915050565b6002546001600160a01b031681565b6002546001600160a01b031690565b60105481565b6001600160a01b0382166000908152600560205260408120805483908110611ff157fe5b906000526020600020015490505b92915050565b6001546001600160a01b031681565b60115481565b60005460408051600160e21b6323c5b10702815233600482015290516001600160a01b0390921691638f16c41c91602480820192602092909190829003018186803b15801561206857600080fd5b505afa15801561207c573d6000803e3d6000fd5b505050506040513d602081101561209257600080fd5b505161209d57600080fd5b6001600160a01b03919091166000908152600660205260409020805460ff1916911515919091179055565b6001600160a01b03811660009081526004602090815260409182902080548351818402810184019094528084526060939283018282801561212857602002820191906000526020600020905b815481526020019060010190808311612114575b50505050509050919050565b60008282111561214357600080fd5b50900390565b60008282018381101561215b57600080fd5b9392505050565b60008261217157506000611fff565b8282028284828161217e57fe5b041461215b57600080fd5b600d55565b600e55565b600f55565b601055565b601155565b8280548282559060005260206000209081019282156121dd579160200282015b828111156121dd5782518255916020019190600101906121c2565b506121e99291506121ed565b5090565b61144691905b808211156121e957600081556001016121f356fea165627a7a72305820002ec6dbce3e25b76d2eaebb584c414eea82923799db797e8d2b53a03cbec39e0029",
  "source": "/* Copyright (C) 2017 NexusMutual.io\n\n  This program is free software: you can redistribute it and/or modify\n    it under the terms of the GNU General Public License as published by\n    the Free Software Foundation, either version 3 of the License, or\n    (at your option) any later version.\n\n  This program is distributed in the hope that it will be useful,\n    but WITHOUT ANY WARRANTY; without even the implied warranty of\n    MERCHANTABILITY or FITNESS FOR A PARTICULAR PURPOSE.  See the\n    GNU General Public License for more details.\n\n  You should have received a copy of the GNU General Public License\n    along with this program.  If not, see http://www.gnu.org/licenses/ */\n\npragma solidity 0.5.7;\n\nimport \"./Iupgradable.sol\";\nimport \"./external/openzeppelin-solidity/math/SafeMath.sol\";\n\n\ncontract QuotationData is Iupgradable {\n    using SafeMath for uint;\n\n    enum HCIDStatus { NA, kycPending, kycPass, kycFailedOrRefunded, kycPassNoCover }\n\n    enum CoverStatus { Active, ClaimAccepted, ClaimDenied, CoverExpired, ClaimSubmitted, Requested }\n\n    struct Cover {\n        address payable memberAddress;\n        bytes4 currencyCode;\n        uint sumAssured;\n        uint16 coverPeriod;\n        uint validUntil;\n        address scAddress;\n        uint premiumNXM;\n    }\n\n    struct HoldCover {\n        uint holdCoverId;\n        address payable userAddress;\n        address scAddress;\n        bytes4 coverCurr;\n        uint[] coverDetails;\n        uint16 coverPeriod;\n    }\n\n    address public authQuoteEngine;\n  \n    mapping(bytes4 => uint) internal currencyCSA;\n    mapping(address => uint[]) internal userCover;\n    mapping(address => uint[]) public userHoldedCover;\n    mapping(address => bool) public refundEligible;\n    mapping(address => mapping(bytes4 => uint)) internal currencyCSAOfSCAdd;\n    mapping(uint => uint8) public coverStatus;\n    mapping(uint => uint) public holdedCoverIDStatus;\n    mapping(uint => bool) public timestampRepeated; \n    \n\n    Cover[] internal allCovers;\n    HoldCover[] internal allCoverHolded;\n\n    uint public stlp;\n    uint public stl;\n    uint public pm;\n    uint public minDays;\n    uint public tokensRetained;\n    address public kycAuthAddress;\n\n    event CoverDetailsEvent(\n        uint indexed cid,\n        address scAdd,\n        uint sumAssured,\n        uint expiry,\n        uint premium,\n        uint premiumNXM,\n        bytes4 curr\n    );\n\n    event CoverStatusEvent(uint indexed cid, uint8 statusNum);\n\n    constructor(address _authQuoteAdd, address _kycAuthAdd) public {\n        authQuoteEngine = _authQuoteAdd;\n        kycAuthAddress = _kycAuthAdd;\n        stlp = 90;\n        stl = 100;\n        pm = 30;\n        minDays = 30;\n        tokensRetained = 10;\n        allCovers.push(Cover(address(0), \"0x00\", 0, 0, 0, address(0), 0));\n        uint[] memory arr = new uint[](1);\n        allCoverHolded.push(HoldCover(0, address(0), address(0), 0x00, arr, 0));\n\n    }\n    \n    /// @dev Adds the amount in Total Sum Assured of a given currency of a given smart contract address.\n    /// @param _add Smart Contract Address.\n    /// @param _amount Amount to be added.\n    function addInTotalSumAssuredSC(address _add, bytes4 _curr, uint _amount) external onlyInternal {\n        currencyCSAOfSCAdd[_add][_curr] = currencyCSAOfSCAdd[_add][_curr].add(_amount);\n    }\n\n    /// @dev Subtracts the amount from Total Sum Assured of a given currency and smart contract address.\n    /// @param _add Smart Contract Address.\n    /// @param _amount Amount to be subtracted.\n    function subFromTotalSumAssuredSC(address _add, bytes4 _curr, uint _amount) external onlyInternal {\n        currencyCSAOfSCAdd[_add][_curr] = currencyCSAOfSCAdd[_add][_curr].sub(_amount);\n    }\n    \n    /// @dev Subtracts the amount from Total Sum Assured of a given currency.\n    /// @param _curr Currency Name.\n    /// @param _amount Amount to be subtracted.\n    function subFromTotalSumAssured(bytes4 _curr, uint _amount) external onlyInternal {\n        currencyCSA[_curr] = currencyCSA[_curr].sub(_amount);\n    }\n\n    /// @dev Adds the amount in Total Sum Assured of a given currency.\n    /// @param _curr Currency Name.\n    /// @param _amount Amount to be added.\n    function addInTotalSumAssured(bytes4 _curr, uint _amount) external onlyInternal {\n        currencyCSA[_curr] = currencyCSA[_curr].add(_amount);\n    }\n\n    /// @dev sets bit for timestamp to avoid replay attacks.\n    function setTimestampRepeated(uint _timestamp) external onlyInternal {\n        timestampRepeated[_timestamp] = true;\n    }\n    \n    /// @dev Creates a blank new cover.\n    function addCover(\n        uint16 _coverPeriod,\n        uint _sumAssured,\n        address payable _userAddress,\n        bytes4 _currencyCode,\n        address _scAddress,\n        uint premium,\n        uint premiumNXM\n    )   \n        external\n        onlyInternal\n    {\n        uint expiryDate = now.add(uint(_coverPeriod).mul(1 days));\n        allCovers.push(Cover(_userAddress, _currencyCode,\n                _sumAssured, _coverPeriod, expiryDate, _scAddress, premiumNXM));\n        uint cid = allCovers.length.sub(1);\n        userCover[_userAddress].push(cid);\n        emit CoverDetailsEvent(cid, _scAddress, _sumAssured, expiryDate, premium, premiumNXM, _currencyCode);\n    }\n\n    /// @dev create holded cover which will process after verdict of KYC.\n    function addHoldCover(\n        address payable from,\n        address scAddress,\n        bytes4 coverCurr, \n        uint[] calldata coverDetails,\n        uint16 coverPeriod\n    )   \n        external\n        onlyInternal\n    {\n        uint holdedCoverLen = allCoverHolded.length;\n        holdedCoverIDStatus[holdedCoverLen] = uint(HCIDStatus.kycPending);             \n        allCoverHolded.push(HoldCover(holdedCoverLen, from, scAddress, \n            coverCurr, coverDetails, coverPeriod));\n        userHoldedCover[from].push(allCoverHolded.length.sub(1));\n    \n    }\n\n    ///@dev sets refund eligible bit.\n    ///@param _add user address.\n    ///@param status indicates if user have pending kyc.\n    function setRefundEligible(address _add, bool status) external onlyInternal {\n        refundEligible[_add] = status;\n    }\n\n    /// @dev to set current status of particular holded coverID (1 for not completed KYC,\n    /// 2 for KYC passed, 3 for failed KYC or full refunded,\n    /// 4 for KYC completed but cover not processed)\n    function setHoldedCoverIDStatus(uint holdedCoverID, uint status) external onlyInternal {\n        holdedCoverIDStatus[holdedCoverID] = status;\n    }\n\n    /**\n     * @dev to set address of kyc authentication \n     * @param _add is the new address\n     */\n    function setKycAuthAddress(address _add) external onlyInternal {\n        kycAuthAddress = _add;\n    }\n\n    /// @dev Changes authorised address for generating quote off chain.\n    function changeAuthQuoteEngine(address _add) external onlyInternal {\n        authQuoteEngine = _add;\n    }\n\n    /**\n     * @dev Gets Uint Parameters of a code\n     * @param code whose details we want\n     * @return string value of the code\n     * @return associated amount (time or perc or value) to the code\n     */\n    function getUintParameters(bytes8 code) external view returns(bytes8 codeVal, uint val) {\n        codeVal = code;\n\n        if (code == \"STLP\") {\n            val = stlp;\n\n        } else if (code == \"STL\") {\n            \n            val = stl;\n\n        } else if (code == \"PM\") {\n\n            val = pm;\n\n        } else if (code == \"QUOMIND\") {\n\n            val = minDays;\n\n        } else if (code == \"QUOTOK\") {\n\n            val = tokensRetained;\n\n        }\n        \n    }\n\n    /// @dev Gets Product details.\n    /// @return  _minDays minimum cover period.\n    /// @return  _PM Profit margin.\n    /// @return  _STL short term Load.\n    /// @return  _STLP short term load period.\n    function getProductDetails()\n        external\n        view\n        returns (\n            uint _minDays,\n            uint _pm,\n            uint _stl,\n            uint _stlp\n        )\n    {\n\n        _minDays = minDays;\n        _pm = pm;\n        _stl = stl;\n        _stlp = stlp;\n    }\n\n    /// @dev Gets total number covers created till date.\n    function getCoverLength() external view returns(uint len) {\n        return (allCovers.length);\n    }\n\n    /// @dev Gets Authorised Engine address.\n    function getAuthQuoteEngine() external view returns(address _add) {\n        _add = authQuoteEngine;\n    }\n\n    /// @dev Gets the Total Sum Assured amount of a given currency.\n    function getTotalSumAssured(bytes4 _curr) external view returns(uint amount) {\n        amount = currencyCSA[_curr];\n    }\n\n    /// @dev Gets all the Cover ids generated by a given address.\n    /// @param _add User's address.\n    /// @return allCover array of covers.\n    function getAllCoversOfUser(address _add) external view returns(uint[] memory allCover) {\n        return (userCover[_add]);\n    }\n\n    /// @dev Gets total number of covers generated by a given address\n    function getUserCoverLength(address _add) external view returns(uint len) {\n        len = userCover[_add].length;\n    }\n\n    /// @dev Gets the status of a given cover.\n    function getCoverStatusNo(uint _cid) external view returns(uint8) {\n        return coverStatus[_cid];\n    }\n\n    /// @dev Gets the Cover Period (in days) of a given cover.\n    function getCoverPeriod(uint _cid) external view returns(uint32 cp) {\n        cp = allCovers[_cid].coverPeriod;\n    }\n\n    /// @dev Gets the Sum Assured Amount of a given cover.\n    function getCoverSumAssured(uint _cid) external view returns(uint sa) {\n        sa = allCovers[_cid].sumAssured;\n    }\n\n    /// @dev Gets the Currency Name in which a given cover is assured.\n    function getCurrencyOfCover(uint _cid) external view returns(bytes4 curr) {\n        curr = allCovers[_cid].currencyCode;\n    }\n\n    /// @dev Gets the validity date (timestamp) of a given cover.\n    function getValidityOfCover(uint _cid) external view returns(uint date) {\n        date = allCovers[_cid].validUntil;\n    }\n\n    /// @dev Gets Smart contract address of cover.\n    function getscAddressOfCover(uint _cid) external view returns(uint, address) {\n        return (_cid, allCovers[_cid].scAddress);\n    }\n\n    /// @dev Gets the owner address of a given cover.\n    function getCoverMemberAddress(uint _cid) external view returns(address payable _add) {\n        _add = allCovers[_cid].memberAddress;\n    }\n\n    /// @dev Gets the premium amount of a given cover in NXM.\n    function getCoverPremiumSOTE(uint _cid) external view returns(uint _premiumNXM) {\n        _premiumNXM = allCovers[_cid].premiumNXM;\n    }\n\n    /// @dev Provides the details of a cover Id\n    /// @param _cid cover Id\n    /// @return memberAddress cover user address.\n    /// @return scAddress smart contract Address \n    /// @return currencyCode currency of cover\n    /// @return sumAssured sum assured of cover\n    /// @return premiumNXM premium in NXM\n    function getCoverDetailsByCoverID1(\n        uint _cid\n    ) \n        external\n        view\n        returns (\n            uint cid,\n            address _memberAddress,\n            address _scAddress,\n            bytes4 _currencyCode,\n            uint _sumAssured,  \n            uint premiumNXM \n        ) \n    {\n        return (\n            _cid,\n            allCovers[_cid].memberAddress,\n            allCovers[_cid].scAddress,\n            allCovers[_cid].currencyCode,\n            allCovers[_cid].sumAssured,\n            allCovers[_cid].premiumNXM\n        );\n    }\n\n    /// @dev Provides details of a cover Id\n    /// @param _cid cover Id\n    /// @return status status of cover.\n    /// @return sumAssured Sum assurance of cover.\n    /// @return coverPeriod Cover Period of cover (in days).\n    /// @return validUntil is validity of cover.\n    function getCoverDetailsByCoverID2(\n        uint _cid\n    )\n        external\n        view\n        returns (\n            uint cid,\n            uint8 status,\n            uint sumAssured,\n            uint16 coverPeriod,\n            uint validUntil\n        ) \n    {\n\n        return (\n            _cid,\n            coverStatus[_cid],\n            allCovers[_cid].sumAssured,\n            allCovers[_cid].coverPeriod,\n            allCovers[_cid].validUntil\n        );\n    }\n\n    /// @dev Provides details of a holded cover Id\n    /// @param _hcid holded cover Id\n    /// @return scAddress SmartCover address of cover.\n    /// @return coverCurr currency of cover.\n    /// @return coverPeriod Cover Period of cover (in days).\n    function getHoldedCoverDetailsByID1(\n        uint _hcid\n    )\n        external \n        view\n        returns (\n            uint hcid,\n            address scAddress,\n            bytes4 coverCurr,\n            uint16 coverPeriod\n        )\n    {\n        return (\n            _hcid,\n            allCoverHolded[_hcid].scAddress,\n            allCoverHolded[_hcid].coverCurr, \n            allCoverHolded[_hcid].coverPeriod\n        );\n    }\n\n    /// @dev Gets total number holded covers created till date.\n    function getUserHoldedCoverLength(address _add) external view returns (uint) {\n        return userHoldedCover[_add].length;\n    }\n\n    /// @dev Gets holded cover index by index of user holded covers.\n    function getUserHoldedCoverByIndex(address _add, uint index) external view returns (uint) {\n        return userHoldedCover[_add][index];\n    }\n\n    /// @dev Provides the details of a holded cover Id\n    /// @param _hcid holded cover Id\n    /// @return memberAddress holded cover user address.\n    /// @return coverDetails array contains SA, Cover Currency Price,Price in NXM, Expiration time of Qoute.    \n    function getHoldedCoverDetailsByID2(\n        uint _hcid\n    ) \n        external\n        view\n        returns (\n            uint hcid,\n            address payable memberAddress, \n            uint[] memory coverDetails\n        )\n    {\n        return (\n            _hcid,\n            allCoverHolded[_hcid].userAddress,\n            allCoverHolded[_hcid].coverDetails\n        );\n    }\n\n    /// @dev Gets the Total Sum Assured amount of a given currency and smart contract address.\n    function getTotalSumAssuredSC(address _add, bytes4 _curr) external view returns(uint amount) {\n        amount = currencyCSAOfSCAdd[_add][_curr];\n    }\n\n    //solhint-disable-next-line\n    function changeDependentContractAddress() public {}\n\n    /// @dev Changes the status of a given cover.\n    /// @param _cid cover Id.\n    /// @param _stat New status.\n    function changeCoverStatusNo(uint _cid, uint8 _stat) public onlyInternal {\n        coverStatus[_cid] = _stat;\n        emit CoverStatusEvent(_cid, _stat);\n    }\n\n    /**\n     * @dev Updates Uint Parameters of a code\n     * @param code whose details we want to update\n     * @param val value to set\n     */\n    function updateUintParameters(bytes8 code, uint val) public {\n\n        require(ms.checkIsAuthToGoverned(msg.sender));\n        if (code == \"STLP\") {\n            _changeSTLP(val);\n\n        } else if (code == \"STL\") {\n            \n            _changeSTL(val);\n\n        } else if (code == \"PM\") {\n\n            _changePM(val);\n\n        } else if (code == \"QUOMIND\") {\n\n            _changeMinDays(val);\n\n        } else if (code == \"QUOTOK\") {\n\n            _setTokensRetained(val);\n\n        } else {\n\n            revert(\"Invalid param code\");\n        }\n        \n    }\n    \n    /// @dev Changes the existing Profit Margin value\n    function _changePM(uint _pm) internal {\n        pm = _pm;\n    }\n\n    /// @dev Changes the existing Short Term Load Period (STLP) value.\n    function _changeSTLP(uint _stlp) internal {\n        stlp = _stlp;\n    }\n\n    /// @dev Changes the existing Short Term Load (STL) value.\n    function _changeSTL(uint _stl) internal {\n        stl = _stl;\n    }\n\n    /// @dev Changes the existing Minimum cover period (in days)\n    function _changeMinDays(uint _days) internal {\n        minDays = _days;\n    }\n    \n    /**\n     * @dev to set the the amount of tokens retained \n     * @param val is the amount retained\n     */\n    function _setTokensRetained(uint val) internal {\n        tokensRetained = val;\n    }\n}\n",
  "sourcePath": "/Users/oker/Downloads/smart-contracts-master3/contracts/QuotationData.sol",
  "compiler": {
    "name": "solc",
    "version": "0.5.7+commit.6da8b019.Emscripten.clang"
  },
  "schemaVersion": "3.2.3",
  "updatedAt": "2020-12-09T09:04:42.328Z",
  "devdoc": {
    "methods": {
      "addCover(uint16,uint256,address,bytes4,address,uint256,uint256)": {
        "details": "Creates a blank new cover."
      },
      "addHoldCover(address,address,bytes4,uint256[],uint16)": {
        "details": "create holded cover which will process after verdict of KYC."
      },
      "addInTotalSumAssured(bytes4,uint256)": {
        "details": "Adds the amount in Total Sum Assured of a given currency.",
        "params": {
          "_amount": "Amount to be added.",
          "_curr": "Currency Name."
        }
      },
      "addInTotalSumAssuredSC(address,bytes4,uint256)": {
        "details": "Adds the amount in Total Sum Assured of a given currency of a given smart contract address.",
        "params": {
          "_add": "Smart Contract Address.",
          "_amount": "Amount to be added."
        }
      },
      "changeAuthQuoteEngine(address)": {
        "details": "Changes authorised address for generating quote off chain."
      },
      "changeCoverStatusNo(uint256,uint8)": {
        "details": "Changes the status of a given cover.",
        "params": {
          "_cid": "cover Id.",
          "_stat": "New status."
        }
      },
      "changeMasterAddress(address)": {
        "details": "change master address",
        "params": {
          "_masterAddress": "is the new address"
        }
      },
      "getAllCoversOfUser(address)": {
        "details": "Gets all the Cover ids generated by a given address.",
        "params": {
          "_add": "User's address."
        },
        "return": "allCover array of covers."
      },
      "getAuthQuoteEngine()": {
        "details": "Gets Authorised Engine address."
      },
      "getCoverDetailsByCoverID1(uint256)": {
        "details": "Provides the details of a cover Id",
        "params": {
          "_cid": "cover Id"
        },
        "return": "memberAddress cover user address.scAddress smart contract Address currencyCode currency of coversumAssured sum assured of coverpremiumNXM premium in NXM"
      },
      "getCoverDetailsByCoverID2(uint256)": {
        "details": "Provides details of a cover Id",
        "params": {
          "_cid": "cover Id"
        },
        "return": "status status of cover.sumAssured Sum assurance of cover.coverPeriod Cover Period of cover (in days).validUntil is validity of cover."
      },
      "getCoverLength()": {
        "details": "Gets total number covers created till date."
      },
      "getCoverMemberAddress(uint256)": {
        "details": "Gets the owner address of a given cover."
      },
      "getCoverPeriod(uint256)": {
        "details": "Gets the Cover Period (in days) of a given cover."
      },
      "getCoverPremiumSOTE(uint256)": {
        "details": "Gets the premium amount of a given cover in NXM."
      },
      "getCoverStatusNo(uint256)": {
        "details": "Gets the status of a given cover."
      },
      "getCoverSumAssured(uint256)": {
        "details": "Gets the Sum Assured Amount of a given cover."
      },
      "getCurrencyOfCover(uint256)": {
        "details": "Gets the Currency Name in which a given cover is assured."
      },
      "getHoldedCoverDetailsByID1(uint256)": {
        "details": "Provides details of a holded cover Id",
        "params": {
          "_hcid": "holded cover Id"
        },
        "return": "scAddress SmartCover address of cover.coverCurr currency of cover.coverPeriod Cover Period of cover (in days)."
      },
      "getHoldedCoverDetailsByID2(uint256)": {
        "details": "Provides the details of a holded cover Id",
        "params": {
          "_hcid": "holded cover Id"
        },
        "return": "memberAddress holded cover user address.coverDetails array contains SA, Cover Currency Price,Price in NXM, Expiration time of Qoute.    "
      },
      "getProductDetails()": {
        "details": "Gets Product details.",
        "return": "_minDays minimum cover period._PM Profit margin._STL short term Load._STLP short term load period."
      },
      "getTotalSumAssured(bytes4)": {
        "details": "Gets the Total Sum Assured amount of a given currency."
      },
      "getTotalSumAssuredSC(address,bytes4)": {
        "details": "Gets the Total Sum Assured amount of a given currency and smart contract address."
      },
      "getUintParameters(bytes8)": {
        "details": "Gets Uint Parameters of a code",
        "params": {
          "code": "whose details we want"
        },
        "return": "string value of the codeassociated amount (time or perc or value) to the code"
      },
      "getUserCoverLength(address)": {
        "details": "Gets total number of covers generated by a given address"
      },
      "getUserHoldedCoverByIndex(address,uint256)": {
        "details": "Gets holded cover index by index of user holded covers."
      },
      "getUserHoldedCoverLength(address)": {
        "details": "Gets total number holded covers created till date."
      },
      "getValidityOfCover(uint256)": {
        "details": "Gets the validity date (timestamp) of a given cover."
      },
      "getscAddressOfCover(uint256)": {
        "details": "Gets Smart contract address of cover."
      },
      "setHoldedCoverIDStatus(uint256,uint256)": {
        "details": "to set current status of particular holded coverID (1 for not completed KYC, 2 for KYC passed, 3 for failed KYC or full refunded, 4 for KYC completed but cover not processed)"
      },
      "setKycAuthAddress(address)": {
        "details": "to set address of kyc authentication ",
        "params": {
          "_add": "is the new address"
        }
      },
      "setRefundEligible(address,bool)": {
        "details": "sets refund eligible bit.",
        "params": {
          "_add": "user address.",
          "status": "indicates if user have pending kyc."
        }
      },
      "setTimestampRepeated(uint256)": {
        "details": "sets bit for timestamp to avoid replay attacks."
      },
      "subFromTotalSumAssured(bytes4,uint256)": {
        "details": "Subtracts the amount from Total Sum Assured of a given currency.",
        "params": {
          "_amount": "Amount to be subtracted.",
          "_curr": "Currency Name."
        }
      },
      "subFromTotalSumAssuredSC(address,bytes4,uint256)": {
        "details": "Subtracts the amount from Total Sum Assured of a given currency and smart contract address.",
        "params": {
          "_add": "Smart Contract Address.",
          "_amount": "Amount to be subtracted."
        }
      },
      "updateUintParameters(bytes8,uint256)": {
        "details": "Updates Uint Parameters of a code",
        "params": {
          "code": "whose details we want to update",
          "val": "value to set"
        }
      }
    }
  },
  "userdoc": {
    "methods": {}
  }
}