{
  "contractName": "SOTEMaster",
  "abi": [
    {
      "constant": true,
      "inputs": [],
      "name": "pauseTime",
      "outputs": [
        {
          "name": "",
          "type": "uint256"
        }
      ],
      "payable": false,
      "stateMutability": "view",
      "type": "function"
    },
    {
      "constant": true,
      "inputs": [
        {
          "name": "",
          "type": "address"
        }
      ],
      "name": "contractsActive",
      "outputs": [
        {
          "name": "",
          "type": "bool"
        }
      ],
      "payable": false,
      "stateMutability": "view",
      "type": "function"
    },
    {
      "constant": true,
      "inputs": [
        {
          "name": "_toCheck",
          "type": "address"
        }
      ],
      "name": "isAuthorizedToGovern",
      "outputs": [
        {
          "name": "",
          "type": "bool"
        }
      ],
      "payable": false,
      "stateMutability": "view",
      "type": "function"
    },
    {
      "constant": true,
      "inputs": [
        {
          "name": "",
          "type": "bytes2"
        }
      ],
      "name": "isProxy",
      "outputs": [
        {
          "name": "",
          "type": "bool"
        }
      ],
      "payable": false,
      "stateMutability": "view",
      "type": "function"
    },
    {
      "constant": true,
      "inputs": [
        {
          "name": "",
          "type": "uint256"
        }
      ],
      "name": "emergencyPaused",
      "outputs": [
        {
          "name": "pause",
          "type": "bool"
        },
        {
          "name": "time",
          "type": "uint256"
        },
        {
          "name": "by",
          "type": "bytes4"
        }
      ],
      "payable": false,
      "stateMutability": "view",
      "type": "function"
    },
    {
      "constant": true,
      "inputs": [],
      "name": "owner",
      "outputs": [
        {
          "name": "",
          "type": "address"
        }
      ],
      "payable": false,
      "stateMutability": "view",
      "type": "function"
    },
    {
      "constant": true,
      "inputs": [],
      "name": "tokenAddress",
      "outputs": [
        {
          "name": "",
          "type": "address"
        }
      ],
      "payable": false,
      "stateMutability": "view",
      "type": "function"
    },
    {
      "constant": true,
      "inputs": [],
      "name": "masterInitialized",
      "outputs": [
        {
          "name": "",
          "type": "bool"
        }
      ],
      "payable": false,
      "stateMutability": "view",
      "type": "function"
    },
    {
      "constant": true,
      "inputs": [],
      "name": "masterAddress",
      "outputs": [
        {
          "name": "",
          "type": "address"
        }
      ],
      "payable": false,
      "stateMutability": "view",
      "type": "function"
    },
    {
      "constant": true,
      "inputs": [
        {
          "name": "",
          "type": "bytes2"
        }
      ],
      "name": "isUpgradable",
      "outputs": [
        {
          "name": "",
          "type": "bool"
        }
      ],
      "payable": false,
      "stateMutability": "view",
      "type": "function"
    },
    {
      "constant": false,
      "inputs": [
        {
          "name": "_tokenAdd",
          "type": "address"
        }
      ],
      "name": "initiateMaster",
      "outputs": [],
      "payable": false,
      "stateMutability": "nonpayable",
      "type": "function"
    },
    {
      "constant": false,
      "inputs": [
        {
          "name": "_contractNames",
          "type": "bytes2[]"
        },
        {
          "name": "_contractAddresses",
          "type": "address[]"
        }
      ],
      "name": "upgradeMultipleImplementations",
      "outputs": [],
      "payable": false,
      "stateMutability": "nonpayable",
      "type": "function"
    },
    {
      "constant": false,
      "inputs": [
        {
          "name": "_contractName",
          "type": "bytes2"
        },
        {
          "name": "_contractAddress",
          "type": "address"
        },
        {
          "name": "_type",
          "type": "uint256"
        }
      ],
      "name": "addNewInternalContract",
      "outputs": [],
      "payable": false,
      "stateMutability": "nonpayable",
      "type": "function"
    },
    {
      "constant": false,
      "inputs": [
        {
          "name": "_claimId",
          "type": "uint256"
        }
      ],
      "name": "closeClaim",
      "outputs": [],
      "payable": false,
      "stateMutability": "nonpayable",
      "type": "function"
    },
    {
      "constant": false,
      "inputs": [
        {
          "name": "myid",
          "type": "bytes32"
        }
      ],
      "name": "delegateCallBack",
      "outputs": [],
      "payable": false,
      "stateMutability": "nonpayable",
      "type": "function"
    },
    {
      "constant": true,
      "inputs": [
        {
          "name": "code",
          "type": "bytes8"
        }
      ],
      "name": "getOwnerParameters",
      "outputs": [
        {
          "name": "codeVal",
          "type": "bytes8"
        },
        {
          "name": "val",
          "type": "address"
        }
      ],
      "payable": false,
      "stateMutability": "view",
      "type": "function"
    },
    {
      "constant": false,
      "inputs": [
        {
          "name": "_pause",
          "type": "bool"
        },
        {
          "name": "_by",
          "type": "bytes4"
        }
      ],
      "name": "addEmergencyPause",
      "outputs": [],
      "payable": false,
      "stateMutability": "nonpayable",
      "type": "function"
    },
    {
      "constant": false,
      "inputs": [
        {
          "name": "_time",
          "type": "uint256"
        }
      ],
      "name": "updatePauseTime",
      "outputs": [],
      "payable": false,
      "stateMutability": "nonpayable",
      "type": "function"
    },
    {
      "constant": false,
      "inputs": [
        {
          "name": "_contractsName",
          "type": "bytes2[]"
        },
        {
          "name": "_contractsAddress",
          "type": "address[]"
        }
      ],
      "name": "upgradeMultipleContracts",
      "outputs": [],
      "payable": false,
      "stateMutability": "nonpayable",
      "type": "function"
    },
    {
      "constant": true,
      "inputs": [
        {
          "name": "_contractAddress",
          "type": "address"
        }
      ],
      "name": "isInternal",
      "outputs": [
        {
          "name": "",
          "type": "bool"
        }
      ],
      "payable": false,
      "stateMutability": "view",
      "type": "function"
    },
    {
      "constant": true,
      "inputs": [
        {
          "name": "_address",
          "type": "address"
        }
      ],
      "name": "isOwner",
      "outputs": [
        {
          "name": "",
          "type": "bool"
        }
      ],
      "payable": false,
      "stateMutability": "view",
      "type": "function"
    },
    {
      "constant": true,
      "inputs": [],
      "name": "isPause",
      "outputs": [
        {
          "name": "",
          "type": "bool"
        }
      ],
      "payable": false,
      "stateMutability": "view",
      "type": "function"
    },
    {
      "constant": true,
      "inputs": [
        {
          "name": "_add",
          "type": "address"
        }
      ],
      "name": "isMember",
      "outputs": [
        {
          "name": "",
          "type": "bool"
        }
      ],
      "payable": false,
      "stateMutability": "view",
      "type": "function"
    },
    {
      "constant": true,
      "inputs": [],
      "name": "getEmergencyPausedLength",
      "outputs": [
        {
          "name": "len",
          "type": "uint256"
        }
      ],
      "payable": false,
      "stateMutability": "view",
      "type": "function"
    },
    {
      "constant": true,
      "inputs": [],
      "name": "getLastEmergencyPause",
      "outputs": [
        {
          "name": "_pause",
          "type": "bool"
        },
        {
          "name": "_time",
          "type": "uint256"
        },
        {
          "name": "_by",
          "type": "bytes4"
        }
      ],
      "payable": false,
      "stateMutability": "view",
      "type": "function"
    },
    {
      "constant": true,
      "inputs": [],
      "name": "getVersionData",
      "outputs": [
        {
          "name": "contractsName",
          "type": "bytes2[]"
        },
        {
          "name": "contractsAddress",
          "type": "address[]"
        }
      ],
      "payable": false,
      "stateMutability": "view",
      "type": "function"
    },
    {
      "constant": true,
      "inputs": [],
      "name": "dAppLocker",
      "outputs": [
        {
          "name": "_add",
          "type": "address"
        }
      ],
      "payable": false,
      "stateMutability": "view",
      "type": "function"
    },
    {
      "constant": true,
      "inputs": [],
      "name": "dAppToken",
      "outputs": [
        {
          "name": "_add",
          "type": "address"
        }
      ],
      "payable": false,
      "stateMutability": "view",
      "type": "function"
    },
    {
      "constant": true,
      "inputs": [
        {
          "name": "_contractName",
          "type": "bytes2"
        }
      ],
      "name": "getLatestAddress",
      "outputs": [
        {
          "name": "contractAddress",
          "type": "address"
        }
      ],
      "payable": false,
      "stateMutability": "view",
      "type": "function"
    },
    {
      "constant": false,
      "inputs": [
        {
          "name": "_contractAddresses",
          "type": "address[]"
        }
      ],
      "name": "addNewVersion",
      "outputs": [],
      "payable": false,
      "stateMutability": "nonpayable",
      "type": "function"
    },
    {
      "constant": true,
      "inputs": [
        {
          "name": "_add",
          "type": "address"
        }
      ],
      "name": "checkIsAuthToGoverned",
      "outputs": [
        {
          "name": "",
          "type": "bool"
        }
      ],
      "payable": false,
      "stateMutability": "view",
      "type": "function"
    },
    {
      "constant": false,
      "inputs": [],
      "name": "startEmergencyPause",
      "outputs": [],
      "payable": false,
      "stateMutability": "nonpayable",
      "type": "function"
    },
    {
      "constant": false,
      "inputs": [
        {
          "name": "code",
          "type": "bytes8"
        },
        {
          "name": "val",
          "type": "address"
        }
      ],
      "name": "updateOwnerParameters",
      "outputs": [],
      "payable": false,
      "stateMutability": "nonpayable",
      "type": "function"
    }
  ],
  "bytecode": "0x608060405234801561001057600080fd5b5061480a806100206000396000f3fe60806040523480156200001157600080fd5b50600436106200022c5760003560e01c80638dd7ff9a1162000135578063c3e4d67211620000bd578063eaf2c4771162000087578063eaf2c47714620008f1578063fa00d88414620008fb578063fa3c8a901462000925578063ff0938a7146200092f578063ffa399291462000939576200022c565b8063c3e4d67214620007e7578063c74de0651462000807578063d365a08e14620008ae578063e2cab14d14620008b8576200022c565b8063a97ea79411620000ff578063a97ea79414620005b4578063b96a8995146200065b578063bf1f28191462000787578063c15041d514620007dd576200022c565b80638dd7ff9a14620005385780638f16c41c14620005585780639d76ea581462000581578063a230c524146200058b576200022c565b80633a12507f11620001b957806371a2b7f7116200018357806371a2b7f714620004e457806378ddbed41462000504578063872f1eb314620005245780638da5cb5b146200052e576200022c565b80633a12507f14620003c057806344d479e714620003ca57806347f4f88514620003f45780635834e67a14620004bb576200022c565b806322ce725411620001fb57806322ce725414620002fb5780632c72135314620003245780632d4c115214620003635780632f54bf6e1462000397576200022c565b8063013828581462000231578063015cb3ff146200027757806301c09f1414620002935780631593e7fc14620002d0575b600080fd5b6200025b600480360360208110156200024957600080fd5b50356001600160f01b0319166200096b565b604080516001600160a01b039092168252519081900360200190f35b6200028162000990565b60408051918252519081900360200190f35b620002bc60048036036020811015620002ab57600080fd5b50356001600160a01b031662000996565b604080519115158252519081900360200190f35b620002f960048036036020811015620002e857600080fd5b50356001600160a01b0316620009ab565b005b620002bc600480360360208110156200031357600080fd5b50356001600160a01b031662000fca565b620002f9600480360360608110156200033c57600080fd5b506001600160f01b0319813516906001600160a01b03602082013516906040013562001067565b6200036d620013df565b60408051931515845260208401929092526001600160e01b03191682820152519081900360600190f35b620002bc60048036036020811015620003af57600080fd5b50356001600160a01b031662001484565b6200025b62001498565b620002bc60048036036020811015620003e257600080fd5b50356001600160f01b031916620014b2565b620002f9600480360360408110156200040c57600080fd5b810190602081018135600160201b8111156200042757600080fd5b8201836020820111156200043a57600080fd5b803590602001918460208302840111600160201b831117156200045c57600080fd5b919390929091602081019035600160201b8111156200047a57600080fd5b8201836020820111156200048d57600080fd5b803590602001918460208302840111600160201b83111715620004af57600080fd5b509092509050620014c7565b620002bc60048036036020811015620004d357600080fd5b50356001600160a01b0316620017ef565b6200036d60048036036020811015620004fc57600080fd5b503562001802565b620002f9600480360360208110156200051c57600080fd5b50356200183a565b620002f96200189f565b6200025b62001ac5565b620002f9600480360360208110156200055057600080fd5b503562001ad4565b620002bc600480360360208110156200057057600080fd5b50356001600160a01b0316620023fb565b6200025b62002419565b620002bc60048036036020811015620005a357600080fd5b50356001600160a01b031662002428565b620002f960048036036020811015620005cc57600080fd5b810190602081018135600160201b811115620005e757600080fd5b820183602082011115620005fa57600080fd5b803590602001918460208302840111600160201b831117156200061c57600080fd5b919080806020026020016040519081016040528093929190818152602001838360200280828437600092019190915250929550620024d5945050505050565b620002f9600480360360408110156200067357600080fd5b810190602081018135600160201b8111156200068e57600080fd5b820183602082011115620006a157600080fd5b803590602001918460208302840111600160201b83111715620006c357600080fd5b9190808060200260200160405190810160405280939291908181526020018383602002808284376000920191909152509295949360208101935035915050600160201b8111156200071357600080fd5b8201836020820111156200072657600080fd5b803590602001918460208302840111600160201b831117156200074857600080fd5b9190808060200260200160405190810160405280939291908181526020018383602002808284376000920191909152509295506200285d945050505050565b620007b1600480360360208110156200079f57600080fd5b50356001600160c01b03191662003094565b604080516001600160c01b031990931683526001600160a01b0390911660208301528051918290030190f35b620002bc62003411565b620002f960048036036020811015620007ff57600080fd5b503562003421565b62000811620034f4565b604051808060200180602001838103835285818151815260200191508051906020019060200280838360005b83811015620008575781810151838201526020016200083d565b50505050905001838103825284818151815260200191508051906020019060200280838360005b83811015620008985781810151838201526020016200087e565b5050505090500194505050505060405180910390f35b6200025b62003647565b620002f960048036036040811015620008d057600080fd5b5080356001600160c01b03191690602001356001600160a01b031662003656565b6200025b62003bee565b620002bc600480360360208110156200091357600080fd5b50356001600160f01b03191662003bfd565b6200028162003c12565b620002bc62003c18565b620002f9600480360360408110156200095157600080fd5b508035151590602001356001600160e01b03191662003c54565b6001600160f01b0319166000908152600460205260409020546001600160a01b031690565b60095481565b60036020526000908152604090205460ff1681565b6000309050806001600160a01b031663025313a26040518163ffffffff1660e01b815260040160206040518083038186803b158015620009ea57600080fd5b505afa158015620009ff573d6000803e3d6000fd5b505050506040513d602081101562000a1657600080fd5b50516001600160a01b0316331462000a785760408051600160e51b62461bcd02815260206004820152601a60248201527f53656e646572206973206e6f742070726f7879206f776e65722e000000000000604482015290519081900360640190fd5b600a5460ff161562000ad45760408051600160e51b62461bcd02815260206004820152601860248201527f436f6e7374727563746f7220616c72656164792072616e2e0000000000000000604482015290519081900360640190fd5b50600a805460ff199081166001908117909255600780546001600160a01b039094166001600160a01b031994851617905560088054841633179055600080549093163090811784558352600360209081526040842080548316841790556224ea0060095560028054808501825560108082047f405787fa12a823e0f2b7631cc41b3ba8828b3321ca811111fa75cd3aa3bb5ace9081018054615144600f958616870261010090810a91820261ffff92830219909316929092179092558554808a018755848104840180546154449288168902840a92830292850219169190911790558554808a018755848104840180546143449288168902840a92830292850219169190911790558554808a018755848104840180546150449288168902840a92830292850219169190911790558554808a018755848104840180546151549288168902840a92830292850219169190911790558554808a018755848104840180546154469288168902840a92830292850219169190911790558554808a018755848104840180546154439288168902840a92830292850219169190911790558554808a0187558481048401805461434c9288168902840a92830292850219169190911790558554808a018755848104840180546143529288168902840a92830292850219169190911790558554808a018755848104840180546150319288168902840a92830292850219169190911790558554808a018755848104840180546150329288168902840a92830292850219169190911790558554808a01875584810484018054614d439288168902840a92830292850219169190911790558554808a018755848104840180546147569288168902840a92830292850219169190911790558554808a018755848104840180546150439288168902840a92830292850219169190911790558554808a01875584810484018054614d529288168902840a92830292850219169190911790558554808a01875593840490920180546150539490951690950290910a9182029102199091161790557fa4e06c9270ca5d91a9c42425a0d9d6b8bab7d176f826788ef45adbd62b8668b080548316841790557f572f2f4f7145bdb0a843d6115e9ce469dd3e98085dea06b838389b6ea83f4a5280548316841790557f05f4eda2cc2212af7e847583f7a9d9453228a4affba4d7295fdc22180904375080548316841790557fe6628e527cc9b86d0d7bdb48ff37c9e2a22780087ea871f8d3422104c17bbd1180548316841790557fce0ee55b9b973205227b71b89c5a51200f6f740af2e35cd5bc2986df74ecaadc80548316841790557f1091cd77902cd13d833530bb2aacb3ce010113ef80e3650a198cda4ac61141fb80548316841790557f72b983e1791f172486298016d1db34f85432a011d8a96396243f2c744d825f048054831684179055600590527f70ad5881489813e00231a9fbec33d433db794bc50171aa2fe63e01d6c70cd1e880548216831790557fff0bd943096624e2e1571cbbca4031431b1cf0180e6c5858b8df8b140e5ba4ca80548216831790557f50fc44ab35440e3c8207167a7417f7d29be830bc0ad340eceaa6c93ca2cdb7bb80548216831790557f0fd8fc8935b1eee8a0a8c559390e5c55f8aa70a933933f296f0d51813220e6b58054821683179055600160f01b615053029092527f1f1e147888adaa1b5f2dd728fc52d4a41b0e193bc90154cb6fd0df27d7f937518054909216179055565b6000805460408051600160e31b6227050b028152600160f11b6123ab02600482015290516001600160a01b03928316928516918391630138285891602480820192602092909190829003018186803b1580156200102657600080fd5b505afa1580156200103b573d6000803e3d6000fd5b505050506040513d60208110156200105257600080fd5b50516001600160a01b0316149150505b919050565b60005460408051600160e31b6227050b028152600160f11b6123ab02600482015290516001600160a01b039092169133918391630138285891602480820192602092909190829003018186803b158015620010c157600080fd5b505afa158015620010d6573d6000803e3d6000fd5b505050506040513d6020811015620010ed57600080fd5b50516001600160a01b031614620011425760408051600160e51b62461bcd02815260206004820152600e6024820152600160921b6d139bdd08185d5d1a1bdc9a5e995902604482015290519081900360640190fd5b6001600160f01b031984166000908152600460205260409020546001600160a01b031615620011a657604051600160e51b62461bcd028152600401808060200182810382526023815260200180620047826023913960400191505060405180910390fd5b6001600160a01b038316620012055760408051600160e51b62461bcd02815260206004820152601c60248201527f4e554c4c2061646472657373206973206e6f7420616c6c6f7765642e00000000604482015290519081900360640190fd5b60028054600181810183556000839052601082047f405787fa12a823e0f2b7631cc41b3ba8828b3321ca811111fa75cd3aa3bb5ace01805460f089901c600f9094169094026101000a92830261ffff9093021990931691909117909155839083141562001296576001600160f01b031985166000908152600660205260409020805460ff19166001179055620012d2565b8260021415620012d257620012ab8462003f32565b6001600160f01b031986166000908152600560205260409020805460ff1916600117905590505b6001600160f01b03198516600081815260046020818152604080842080546001600160a01b0319166001600160a01b03888116918217835590865260038452828620805460ff191660011790559585529183905290548151600160e21b633519957d02815230938101939093529051931692839263d46655f4926024808201939182900301818387803b1580156200136957600080fd5b505af11580156200137e573d6000803e3d6000fd5b50505050806001600160a01b0316630ea9c9846040518163ffffffff1660e01b8152600401600060405180830381600087803b158015620013be57600080fd5b505af1158015620013d3573d6000803e3d6000fd5b50505050505050505050565b6000808080620013ee62003c12565b905080156200147e576200140a81600163ffffffff62003f7a16565b9050600181815481106200141a57fe5b60009182526020909120600390910201546001805460ff909216955090829081106200144257fe5b9060005260206000209060030201600101549250600181815481106200146457fe5b600091825260209091206002600390920201015460e01b91505b50909192565b6008546001600160a01b0391821691161490565b6000620014ad600160f01b615443026200096b565b905090565b60056020526000908152604090205460ff1681565b60005460408051600160e31b6227050b028152600160f11b6123ab02600482015290516001600160a01b039092169133918391630138285891602480820192602092909190829003018186803b1580156200152157600080fd5b505afa15801562001536573d6000803e3d6000fd5b505050506040513d60208110156200154d57600080fd5b50516001600160a01b031614620015a25760408051600160e51b62461bcd02815260206004820152600e6024820152600160921b6d139bdd08185d5d1a1bdc9a5e995902604482015290519081900360640190fd5b838214620015fa5760408051600160e51b62461bcd02815260206004820152601d60248201527f4172726179206c656e6774682073686f756c6420626520657175616c2e000000604482015290519081900360640190fd5b60005b84811015620017e75760008484838181106200161557fe5b905060200201356001600160a01b03166001600160a01b03161415620016855760408051600160e51b62461bcd02815260206004820152601c60248201527f6e756c6c2061646472657373206973206e6f7420616c6c6f7765642e00000000604482015290519081900360640190fd5b600560008787848181106200169657fe5b602090810292909201356001600160f01b0319168352508101919091526040016000205460ff16620017125760408051600160e51b62461bcd02815260206004820152601960248201527f436f6e74726163742073686f756c642062652070726f78792e00000000000000604482015290519081900360640190fd5b6000600460008888858181106200172557fe5b602090810292909201356001600160f01b031916835250810191909152604001600020546001600160a01b0316905080633659cfe68686858181106200176757fe5b905060200201356001600160a01b03166040518263ffffffff1660e01b815260040180826001600160a01b03166001600160a01b03168152602001915050600060405180830381600087803b158015620017c057600080fd5b505af1158015620017d5573d6000803e3d6000fd5b505060019093019250620015fd915050565b505050505050565b6000620017fc8262000fca565b92915050565b600181815481106200181057fe5b600091825260209091206003909102018054600182015460029092015460ff909116925060e01b83565b6200184533620023fb565b6200189a5760408051600160e51b62461bcd02815260206004820152601260248201527f4e6f7420696e7465726e616c2063616c6c2e0000000000000000000000000000604482015290519081900360640190fd5b600955565b60005460408051600160e31b6227050b028152600160f11b6123ab02600482015290516001600160a01b039092169133918391630138285891602480820192602092909190829003018186803b158015620018f957600080fd5b505afa1580156200190e573d6000803e3d6000fd5b505050506040513d60208110156200192557600080fd5b50516001600160a01b0316146200197a5760408051600160e51b62461bcd02815260206004820152600e6024820152600160921b6d139bdd08185d5d1a1bdc9a5e995902604482015290519081900360640190fd5b6200198f6001600160f11b6120a10262003c54565b600160f01b615031026000908152600460208190527f65e528c366d24fe1267504a3fd0d0e6ee46d1498cc6709837295d0fa5e6286545460095460408051600160e31b631b1d4d6102815293840191909152516001600160a01b0390911692839263d8ea6b08926024808301939282900301818387803b15801562001a1357600080fd5b505af115801562001a28573d6000803e3d6000fd5b5050600160f21b6110d3026000908152600460208190527f50dbf33991a9c6292dc70c7475ec00e23dd381ac44ce9260861463e58f0f3b705460408051600160e01b633802167102815290516001600160a01b0390921695508594506338021671938184019390929182900301818387803b15801562001aa757600080fd5b505af115801562001abc573d6000803e3d6000fd5b50505050505050565b6008546001600160a01b031681565b600754600160a01b900460ff161562001b375760408051600160e51b62461bcd02815260206004820152600f60248201527f5265656e7472616e742063616c6c2e0000000000000000000000000000000000604482015290519081900360640190fd5b60078054600160a01b60ff021916600160a01b179055600062001b62600160f21b611411026200096b565b90506000816001600160a01b03166346583d09846040518263ffffffff1660e01b81526004018082815260200191505060206040518083038186803b15801562001bab57600080fd5b505afa15801562001bc0573d6000803e3d6000fd5b505050506040513d602081101562001bd757600080fd5b505160408051600160e11b63193bdf4b02815260048101869052905167ffffffffffffffff90921692506000916001600160a01b03851691633277be96916024808301926020929190829003018186803b15801562001c3557600080fd5b505afa15801562001c4a573d6000803e3d6000fd5b505050506040513d602081101562001c6157600080fd5b505167ffffffffffffffff16905081811462001cc75760408051600160e51b62461bcd02815260206004820152601960248201527f43616c6c6261636b20616c726561647920726563656976656400000000000000604482015290519081900360640190fd5b6000836001600160a01b031663fd3e44d5866040518263ffffffff1660e01b81526004018082815260200191505060206040518083038186803b15801562001d0e57600080fd5b505afa15801562001d23573d6000803e3d6000fd5b505050506040513d602081101562001d3a57600080fd5b505160408051600160e01b6361b6c00f0281526004810188905290519192506001600160a01b038616916361b6c00f9160248082019260009290919082900301818387803b15801562001d8c57600080fd5b505af115801562001da1573d6000803e3d6000fd5b5050505062001daf62003c18565b1562001efe57600062001dc1620013df565b925050506001600160e01b03198216600160f41b610455021462001e1a57604051600160e51b62461bcd02815260040180806020018281038252603a815260200180620047a5603a913960400191505060405180910390fd5b4262001e326009548662003f9090919063ffffffff16565b1062001e885760408051600160e51b62461bcd02815260206004820152601c60248201527f43616c6c6261636b207761732063616c6c656420746f6f20736f6f6e00000000604482015290519081900360640190fd5b600160f11b6120a1026001600160e01b031982161462001edd57604051600160e51b62461bcd028152600401808060200182810382526032815260200180620047506032913960400191505060405180910390fd5b62001ef36000600160ea1b621055550262003c54565b5050505050620023e8565b6000846001600160a01b031663371e6e12876040518263ffffffff1660e01b81526004018082815260200191505060206040518083038186803b15801562001f4557600080fd5b505afa15801562001f5a573d6000803e3d6000fd5b505050506040513d602081101562001f7157600080fd5b50519050600160e91b6221a7ab026001600160e01b0319831614156200201457600062001fa6600160f21b611455026200096b565b9050806001600160a01b031663f4136f7f836040518263ffffffff1660e01b815260040180828152602001915050600060405180830381600087803b15801562001fef57600080fd5b505af115801562002004573d6000803e3d6000fd5b50505050505050505050620023e8565b600160e81b62434c41026001600160e01b031983161415620020ee576200203b8162003faa565b620020905760408051600160e51b62461bcd02815260206004820152601d60248201527f5061796f75742072657472792074696d65206e6f742072656163686564000000604482015290519081900360640190fd5b6000620020a5600160f11b6121a9026200096b565b9050806001600160a01b0316637f6715c9836040518263ffffffff1660e01b815260040180828152602001915050600060405180830381600087803b15801562001fef57600080fd5b600160e11b6326a1a923026001600160e01b0319831614156200224e574262002186866001600160a01b031663702ddaab6040518163ffffffff1660e01b815260040160206040518083038186803b1580156200214a57600080fd5b505afa1580156200215f573d6000803e3d6000fd5b505050506040513d60208110156200217657600080fd5b5051869063ffffffff62003f9016565b10620021dc5760408051600160e51b62461bcd02815260206004820152601c60248201527f4d435220706f7374696e672074696d65206e6f74207265616368656400000000604482015290519081900360640190fd5b6000620021f1600160f01b614d43026200096b565b9050806001600160a01b03166380f34275836040518263ffffffff1660e01b8152600401808267ffffffffffffffff1667ffffffffffffffff168152602001915050600060405180830381600087803b15801562001fef57600080fd5b600160ea1b62155315026001600160e01b031983161415620023525742620022a9866001600160a01b0316636549ff586040518163ffffffff1660e01b815260040160206040518083038186803b1580156200214a57600080fd5b10620022ff5760408051600160e51b62461bcd02815260206004820181905260248201527f4c69717569646974792074726164652074696d65206e6f742072656163686564604482015290519081900360640190fd5b600062002314600160f11b612819026200096b565b9050806001600160a01b031663f720036c6040518163ffffffff1660e01b8152600401600060405180830381600087803b15801562001fef57600080fd5b600160e91b6226a1a9026001600160e01b031983161480620023875750600160e11b6324a0a921026001600160e01b03198316145b1562002398575050505050620023e8565b60408051600160e51b62461bcd02815260206004820152601060248201527f496e76616c69642063616c6c6261636b00000000000000000000000000000000604482015290519081900360640190fd5b5060078054600160a01b60ff0219169055565b6001600160a01b031660009081526003602052604090205460ff1690565b6007546001600160a01b031681565b6000806200243e600160f11b6126a9026200096b565b90506001600160a01b03811663505ef22f8460026040518363ffffffff1660e01b815260040180836001600160a01b03166001600160a01b031681526020018281526020019250505060206040518083038186803b158015620024a057600080fd5b505afa158015620024b5573d6000803e3d6000fd5b505050506040513d6020811015620024cc57600080fd5b50519392505050565b6008546001600160a01b031633148015620024fa5750600754600160a81b900460ff16155b6200253a57604051600160e51b62461bcd0281526004018080602001828103825260368152602001806200471a6036913960400191505060405180910390fd5b600254815114620025955760408051600160e51b62461bcd02815260206004820152601560248201527f6172726179206c656e677468206e6f742073616d650000000000000000000000604482015290519081900360640190fd5b60078054600160a81b60ff021916600160a81b17905580516000908290600e908110620025be57fe5b6020026020010151905060008090505b600254811015620027375760006001600160a01b0316838281518110620025f157fe5b60200260200101516001600160a01b03161415620026595760408051600160e51b62461bcd02815260206004820152601c60248201527f4e554c4c2061646472657373206973206e6f7420616c6c6f7765642e00000000604482015290519081900360640190fd5b8281815181106200266657fe5b602002602001015160046000600284815481106200268057fe5b90600052602060002090601091828204019190066002029054906101000a900460f01b6001600160f01b0319166001600160f01b031916815260200190815260200160002060006101000a8154816001600160a01b0302191690836001600160a01b03160217905550600160036000858481518110620026fc57fe5b6020908102919091018101516001600160a01b03168252810191909152604001600020805460ff1916911515919091179055600101620025ce565b5060606001600160a01b038216635daf08ca60036040518263ffffffff1660e01b81526004018082815260200191505060006040518083038186803b1580156200278057600080fd5b505afa15801562002795573d6000803e3d6000fd5b505050506040513d6000823e601f3d908101601f191682016040908152811015620027bf57600080fd5b815160208301805191939283019291600160201b811115620027e057600080fd5b82016020810184811115620027f457600080fd5b81518560208202830111600160201b821117156200281157600080fd5b5050929190505050915050806000815181106200282a57fe5b6020026020010151600860006101000a8154816001600160a01b0302191690836001600160a01b03160217905550505050565b60005460408051600160e31b6227050b028152600160f11b6123ab02600482015290516001600160a01b039092169133918391630138285891602480820192602092909190829003018186803b158015620028b757600080fd5b505afa158015620028cc573d6000803e3d6000fd5b505050506040513d6020811015620028e357600080fd5b50516001600160a01b031614620029385760408051600160e51b62461bcd02815260206004820152600e6024820152600160921b6d139bdd08185d5d1a1bdc9a5e995902604482015290519081900360640190fd5b8151835114620029925760408051600160e51b62461bcd02815260206004820152601d60248201527f4172726179206c656e6774682073686f756c6420626520657175616c2e000000604482015290519081900360640190fd5b60005b835181101562003084576000838281518110620029ae57fe5b6020026020010151905060006001600160a01b0316816001600160a01b0316141562002a245760408051600160e51b62461bcd02815260206004820152601c60248201527f4e554c4c2061646472657373206973206e6f7420616c6c6f7765642e00000000604482015290519081900360640190fd5b6006600086848151811062002a3557fe5b6020908102919091018101516001600160f01b03191682528101919091526040016000205460ff1662002ab25760408051600160e51b62461bcd02815260206004820152601e60248201527f436f6e74726163742073686f756c642062652075706772616461626c652e0000604482015290519081900360640190fd5b84828151811062002abf57fe5b60200260200101516001600160f01b031916600160f21b61145502141562002b8857600160f21b611455026000908152600460208190527f1d549787ccb98156df3526786c57fb04170d054a2d956c25ea0d700f2f1ba36e5460408051600160e21b633898a65d0281526001600160a01b038681169482019490945290519290911692839263e262997492602480820193929182900301818387803b15801562002b6857600080fd5b505af115801562002b7d573d6000803e3d6000fd5b505050505062002f09565b84828151811062002b9557fe5b60200260200101516001600160f01b031916600160f11b6121a902141562002d8257600062002bcc600160f01b615443026200096b565b9050806001600160a01b031663e43252d7836040518263ffffffff1660e01b815260040180826001600160a01b03166001600160a01b03168152602001915050600060405180830381600087803b15801562002c2757600080fd5b505af115801562002c3c573d6000803e3d6000fd5b5050600160f11b6121a9026000908152600460208190527f81a16a8e02e895bc8f23c4b57164801632b22336e581fdbd05bc322b5dbf84745460408051600160e01b638ab1d6810281526001600160a01b0392831693810193909352519086169450638ab1d68193506024808301939282900301818387803b15801562002cc257600080fd5b505af115801562002cd7573d6000803e3d6000fd5b5050600160f11b6121a9026000908152600460208190527f81a16a8e02e895bc8f23c4b57164801632b22336e581fdbd05bc322b5dbf84745460408051600160e41b62900f010281526001600160a01b03898116948201949094529051929091169450849350630900f01092602480830193919282900301818387803b15801562002d6157600080fd5b505af115801562002d76573d6000803e3d6000fd5b50505050505062002f09565b84828151811062002d8f57fe5b60200260200101516001600160f01b031916600160f01b61503102141562002e3857600160f01b615031026000908152600460208190527f65e528c366d24fe1267504a3fd0d0e6ee46d1498cc6709837295d0fa5e6286545460408051600160e01b6366fd551d0281526001600160a01b03868116948201949094529051929091169283926366fd551d92602480820193929182900301818387803b15801562002b6857600080fd5b84828151811062002e4557fe5b60200260200101516001600160f01b031916600160f11b61281902141562002f0957600160f11b612819026000908152600460208190527fe7f2660f02bdcc323d33e7031a5358e57ee06db4b5c7736fbd9ebbc29573a91f5460408051600160e01b636dce9b3d0281526001600160a01b0386811694820194909452905192909116928392636dce9b3d92602480820193929182900301818387803b15801562002eee57600080fd5b505af115801562002f03573d6000803e3d6000fd5b50505050505b60006004600087858151811062002f1c57fe5b6020908102919091018101516001600160f01b03191682528181019290925260409081016000908120546001600160a01b03168082526003909352908120805460ff19169055875191925083916004919089908790811062002f7a57fe5b6020908102919091018101516001600160f01b0319168252818101929092526040908101600090812080546001600160a01b0319166001600160a01b03958616179055928516835260039091528120805460ff191660011790558651600490829089908790811062002fe857fe5b6020908102919091018101516001600160f01b031916825281019190915260409081016000908120548251600160e21b633519957d02815230600482015292516001600160a01b039091169350839263d46655f492602480830193919282900301818387803b1580156200305b57600080fd5b505af115801562003070573d6000803e3d6000fd5b505060019095019450620029959350505050565b506200308f620040eb565b505050565b8060008080600160c21b671354d5d053131155026001600160c01b03198516141562003143576000620030cf600160f21b611511026200096b565b9050806001600160a01b0316636ad5b3ea6040518163ffffffff1660e01b815260040160206040518083038186803b1580156200310b57600080fd5b505afa15801562003120573d6000803e3d6000fd5b505050506040513d60208110156200313757600080fd5b505193506200340a9050565b600160c81b664d43524e4f5441026001600160c01b031986161415620031e85762003176600160f21b611411026200096b565b9050806001600160a01b031663428dfd386040518163ffffffff1660e01b815260040160206040518083038186803b158015620031b257600080fd5b505afa158015620031c7573d6000803e3d6000fd5b505050506040513d6020811015620031de57600080fd5b505192506200340a565b600160ca1b6611105251915151026001600160c01b03198616141562003257576200321b600160f21b611411026200096b565b9050806001600160a01b031663f0f9f2546040518163ffffffff1660e01b815260040160206040518083038186803b158015620031b257600080fd5b600160c21b6715539254d5d05111026001600160c01b031986161415620032c95760006200328d600160f11b612819026200096b565b9050806001600160a01b0316633655ac3c6040518163ffffffff1660e01b815260040160206040518083038186803b1580156200310b57600080fd5b600160d91b6427aba722a9026001600160c01b031986161415620032fb576008546001600160a01b031692506200340a565b600160cb1b660a2aa9e82aaa89026001600160c01b0319861614156200336a576200332e600160f21b611451026200096b565b9150816001600160a01b031663e2c2a5bb6040518163ffffffff1660e01b815260040160206040518083038186803b158015620031b257600080fd5b600160cb1b66096b28682aaa89026001600160c01b0319861614156200340a576200339d600160f21b611451026200096b565b9150816001600160a01b03166384434b9f6040518163ffffffff1660e01b815260040160206040518083038186803b158015620033d957600080fd5b505afa158015620033ee573d6000803e3d6000fd5b505050506040513d60208110156200340557600080fd5b505192505b5050915091565b600754600160a81b900460ff1681565b6200342c8162003faa565b620034815760408051600160e51b62461bcd02815260206004820152601e60248201527f5061796f75742072657472792074696d65206e6f7420726561636865642e0000604482015290519081900360640190fd5b600062003496600160f11b6121a9026200096b565b9050806001600160a01b0316637f6715c9836040518263ffffffff1660e01b815260040180828152602001915050600060405180830381600087803b158015620034df57600080fd5b505af1158015620017e7573d6000803e3d6000fd5b60608060028054806020026020016040519081016040528092919081815260200182805480156200357257602002820191906000526020600020906000905b82829054906101000a900460f01b6001600160f01b03191681526020019060020190602082600101049283019260010382029150808411620035335790505b50505050509150600280549050604051908082528060200260200182016040528015620035a9578160200160208202803883390190505b50905060005b60025481101562003642576004600060028381548110620035cc57fe5b60009182526020808320601083040154600f9092166002026101000a90910460f01b6001600160f01b031916835282019290925260400190205482516001600160a01b03909116908390839081106200362157fe5b6001600160a01b0390921660209283029190910190910152600101620035af565b509091565b6000546001600160a01b031681565b60005460408051600160e31b6227050b028152600160f11b6123ab02600482015290516001600160a01b039092169133918391630138285891602480820192602092909190829003018186803b158015620036b057600080fd5b505afa158015620036c5573d6000803e3d6000fd5b505050506040513d6020811015620036dc57600080fd5b50516001600160a01b031614620037315760408051600160e51b62461bcd02815260206004820152600e6024820152600160921b6d139bdd08185d5d1a1bdc9a5e995902604482015290519081900360640190fd5b600080600160c21b671354d5d053131155026001600160c01b031986161415620037e55760006200376a600160f21b611511026200096b565b9050806001600160a01b031663ec8edf7a866040518263ffffffff1660e01b815260040180826001600160a01b03166001600160a01b03168152602001915050600060405180830381600087803b158015620037c557600080fd5b505af1158015620037da573d6000803e3d6000fd5b505050505062003be7565b600160c81b664d43524e4f5441026001600160c01b031986161415620038925762003818600160f21b611411026200096b565b9050806001600160a01b0316636576ffed856040518263ffffffff1660e01b815260040180826001600160a01b03166001600160a01b03168152602001915050600060405180830381600087803b1580156200387357600080fd5b505af115801562003888573d6000803e3d6000fd5b5050505062003be7565b600160ca1b6611105251915151026001600160c01b0319861614156200392057620038c5600160f21b611411026200096b565b9050806001600160a01b031663ca0d4c86856040518263ffffffff1660e01b815260040180826001600160a01b03166001600160a01b03168152602001915050600060405180830381600087803b1580156200387357600080fd5b600160c21b6715539254d5d05111026001600160c01b031986161415620039b157600062003956600160f11b612819026200096b565b9050806001600160a01b031663b19ab66d866040518263ffffffff1660e01b815260040180826001600160a01b03166001600160a01b03168152602001915050600060405180830381600087803b158015620037c557600080fd5b600160d91b6427aba722a9026001600160c01b03198616141562003a7b576000620039e4600160f11b6126a9026200096b565b9050806001600160a01b03166390a79368866040518263ffffffff1660e01b815260040180826001600160a01b03166001600160a01b03168152602001915050600060405180830381600087803b15801562003a3f57600080fd5b505af115801562003a54573d6000803e3d6000fd5b5050600880546001600160a01b0319166001600160a01b0389161790555062003be7915050565b600160cb1b660a2aa9e82aaa89026001600160c01b03198616141562003b095762003aae600160f21b611451026200096b565b9150816001600160a01b0316631407264b856040518263ffffffff1660e01b815260040180826001600160a01b03166001600160a01b03168152602001915050600060405180830381600087803b1580156200387357600080fd5b600160cb1b66096b28682aaa89026001600160c01b03198616141562003b975762003b3c600160f21b611451026200096b565b9150816001600160a01b031663549a65f4856040518263ffffffff1660e01b815260040180826001600160a01b03166001600160a01b03168152602001915050600060405180830381600087803b1580156200387357600080fd5b60408051600160e51b62461bcd02815260206004820152601260248201527f496e76616c696420706172616d20636f64650000000000000000000000000000604482015290519081900360640190fd5b5050505050565b6007546001600160a01b031690565b60066020526000908152604090205460ff1681565b60015490565b600154600090801580159062003c4e575060018082038154811062003c3957fe5b600091825260209091206003909102015460ff165b91505090565b600160f11b6120a1026001600160e01b03198216148062003c875750600160ea1b62105555026001600160e01b03198216145b62003cdc5760408051600160e51b62461bcd02815260206004820152600d60248201527f496e76616c69642063616c6c2e00000000000000000000000000000000000000604482015290519081900360640190fd5b62003cef600160f01b615031026200096b565b6001600160a01b0316336001600160a01b0316148062003d32575062003d1d600160f11b6123ab026200096b565b6001600160a01b0316336001600160a01b0316145b62003d875760408051600160e51b62461bcd02815260206004820152601b60248201527f43616c6c61626c6520627920503120616e64204756206f6e6c792e0000000000604482015290519081900360640190fd5b6040805160608101825283151580825242602083019081526001600160e01b0319851693830193845260018054808201825560009190915292517fb10e2d527612073b26eecdfd717e6a320cf44b4afac2b0732d9fcbe2b7fa0cf66003909402938401805460ff1916911515919091179055517fb10e2d527612073b26eecdfd717e6a320cf44b4afac2b0732d9fcbe2b7fa0cf783015591517fb10e2d527612073b26eecdfd717e6a320cf44b4afac2b0732d9fcbe2b7fa0cf8909101805463ffffffff191660e09290921c91909117905562003f2e57600160f21b6110d3026000908152600460208190527f50dbf33991a9c6292dc70c7475ec00e23dd381ac44ce9260861463e58f0f3b705460408051600160e01b6375a0f52102815290516001600160a01b039092169384936375a0f521938382019390919082900301818387803b15801562003ed957600080fd5b505af115801562003eee573d6000803e3d6000fd5b50505050806001600160a01b0316639755fafe6040518163ffffffff1660e01b8152600401600060405180830381600087803b15801562001aa757600080fd5b5050565b6000808260405162003f449062004236565b6001600160a01b03909116815260405190819003602001906000f08015801562003f72573d6000803e3d6000fd5b509392505050565b60008282111562003f8a57600080fd5b50900390565b60008282018381101562003fa357600080fd5b9392505050565b60008062003fc0600160f21b6110d1026200096b565b9050600080826001600160a01b0316635aef2447866040518263ffffffff1660e01b81526004018082815260200191505060c06040518083038186803b1580156200400a57600080fd5b505afa1580156200401f573d6000803e3d6000fd5b505050506040513d60c08110156200403657600080fd5b5060608101516080909101519092509050600c821415620040e05742620040cc846001600160a01b031663ee8dea636040518163ffffffff1660e01b815260040160206040518083038186803b1580156200409057600080fd5b505afa158015620040a5573d6000803e3d6000fd5b505050506040513d6020811015620040bc57600080fd5b5051839063ffffffff62003f9016565b1115620040e0576000935050505062001062565b506001949350505050565b60005b600254811015620042335760016003600060046000600286815481106200411157fe5b60009182526020808320601083040154600f90921660029081026101000a90920460f01b6001600160f01b03191684528381019490945260409283018220546001600160a01b0316855292840194909452919091018220805460ff19169315159390931790925581549091600491839190859081106200418d57fe5b60009182526020808320601083040154600f9092166002026101000a90910460f01b6001600160f01b031916835282019290925260409081018220548151600160e21b6303aa726102815291516001600160a01b0390911693508392630ea9c984926004808201939182900301818387803b1580156200420c57600080fd5b505af115801562004221573d6000803e3d6000fd5b505060019093019250620040ee915050565b50565b6104d580620042458339019056fe608060405234801561001057600080fd5b506040516020806104d58339810180604052602081101561003057600080fd5b505161004233610057602090811b901c565b6100518161008c60201b60201c565b50610149565b604080517f6f72672e676f76626c6f636b732e70726f78792e6f776e6572000000000000008152905190819003601901902055565b600061009c61010460201b60201c565b9050816001600160a01b0316816001600160a01b031614156100bd57600080fd5b6100cc8261012760201b60201c565b6040516001600160a01b038316907fbc7cd75a20ee27fd9adebab32041f755214dbc6bffa90cc0225b39da2e5c2d3b90600090a25050565b60008060405180806104b360229139604051908190036022019020549392505050565b600060405180806104b360229139604051908190036022019020929092555050565b61035b806101586000396000f3fe60806040526004361061003f5760003560e01c8063025313a2146100835780633659cfe6146100b45780635c60da1b146100e9578063f1739cae146100fe575b6000610049610131565b90506001600160a01b03811661005e57600080fd5b60405136600082376000803683855af43d806000843e81801561007f578184f35b8184fd5b34801561008f57600080fd5b50610098610154565b604080516001600160a01b039092168252519081900360200190f35b3480156100c057600080fd5b506100e7600480360360208110156100d757600080fd5b50356001600160a01b031661018a565b005b3480156100f557600080fd5b50610098610131565b34801561010a57600080fd5b506100e76004803603602081101561012157600080fd5b50356001600160a01b03166101bb565b600080604051808061030e60229139604051908190036022019020549392505050565b604080517f6f72672e676f76626c6f636b732e70726f78792e6f776e657200000000000000815290519081900360190190205490565b610192610154565b6001600160a01b0316336001600160a01b0316146101af57600080fd5b6101b88161024a565b50565b6101c3610154565b6001600160a01b0316336001600160a01b0316146101e057600080fd5b6001600160a01b0381166101f357600080fd5b6101fc816102b6565b7f5a3e66efaa1e445ebd894728a69d6959842ea1e97bd79b892797106e270efcd9610225610154565b604080516001600160a01b03928316815291841660208301528051918290030190a150565b6000610254610131565b9050816001600160a01b0316816001600160a01b0316141561027557600080fd5b61027e826102eb565b6040516001600160a01b038316907fbc7cd75a20ee27fd9adebab32041f755214dbc6bffa90cc0225b39da2e5c2d3b90600090a25050565b604080517f6f72672e676f76626c6f636b732e70726f78792e6f776e6572000000000000008152905190819003601901902055565b6000604051808061030e6022913960405190819003602201902092909255505056fe6f72672e676f76626c6f636b732e70726f78792e696d706c656d656e746174696f6ea165627a7a72305820976fa804b031801e6fc471697cec631a0e0d8b1bcae2f060423bdcc88564777c00296f72672e676f76626c6f636b732e70726f78792e696d706c656d656e746174696f6e43616c6c65722073686f756c64206265206f776e657220616e642073686f756c64206f6e6c792062652063616c6c6564206f6e63652e456d657267656e63792070617573656420776173206e6f7420737461727465642062792041647669736f727920426f617264436f6e747261637420636f646520697320616c726561647920617661696c61626c652e4f6e6c792063616c6c6261636b206f66207479706520455020697320616c6c6f77656420647572696e6720656d657267656e6379207061757365a165627a7a723058200fc1540f3e41489ccae73cd2b150d2fc9f70e5c87447664a3e09b7ef9ed78cbd0029",
  "source": "/* Copyright (C) 2020 Soteria.finance\n\n  This program is free software: you can redistribute it and/or modify\n    it under the terms of the GNU General Public License as published by\n    the Free Software Foundation, either version 3 of the License, or\n    (at your option) any later version.\n\n  This program is distributed in the hope that it will be useful,\n    but WITHOUT ANY WARRANTY; without even the implied warranty of\n    MERCHANTABILITY or FITNESS FOR A PARTICULAR PURPOSE.  See the\n    GNU General Public License for more details.\n\n  You should have received a copy of the GNU General Public License\n    along with this program.  If not, see http://www.gnu.org/licenses/ */\n\npragma solidity 0.5.7;\n\n\nimport \"./Pool2.sol\";\nimport \"./external/govblocks-protocol/Governed.sol\";\nimport \"./Claims.sol\";\nimport \"./external/proxy/OwnedUpgradeabilityProxy.sol\";\n\n\ncontract SOTEMaster is Governed {\n    using SafeMath for uint;\n\n    struct EmergencyPause {\n        bool pause;\n        uint time;\n        bytes4 by;\n    }\n\n    EmergencyPause[] public emergencyPaused;\n\n    bytes2[] internal allContractNames;\n    mapping(address => bool) public contractsActive;\n    mapping(bytes2 => address payable) internal allContractVersions;\n    mapping(bytes2 => bool) public isProxy;\n    mapping(bytes2 => bool) public isUpgradable;\n\n    address public tokenAddress;\n\n    bool internal reentrancyLock;\n\n\n    bool public masterInitialized;\n    address public owner;\n    uint public pauseTime;\n    bool constructorCheck;\n\n    modifier noReentrancy() {\n        require(!reentrancyLock, \"Reentrant call.\");\n        reentrancyLock = true;\n        _;\n        reentrancyLock = false;\n    }\n\n    /// @dev to initiate master data\n    /// @param _tokenAdd NXM token address.\n    function initiateMaster(address _tokenAdd) external {\n\n        OwnedUpgradeabilityProxy proxy =  OwnedUpgradeabilityProxy(address(uint160(address(this))));\n        require(msg.sender == proxy.proxyOwner(),\"Sender is not proxy owner.\");\n        require(!constructorCheck,\"Constructor already ran.\");\n        constructorCheck = true;\n        tokenAddress = _tokenAdd;\n        owner = msg.sender;\n        masterAddress = address(this);\n        contractsActive[address(this)] = true;\n        pauseTime = 28 days; //4 weeks\n        allContractNames.push(\"QD\");\n        allContractNames.push(\"TD\");\n        allContractNames.push(\"CD\");\n        allContractNames.push(\"PD\");\n        allContractNames.push(\"QT\");\n        allContractNames.push(\"TF\");\n        allContractNames.push(\"TC\");\n        allContractNames.push(\"CL\");\n        allContractNames.push(\"CR\");\n        allContractNames.push(\"P1\");\n        allContractNames.push(\"P2\");\n        allContractNames.push(\"MC\");\n        allContractNames.push(\"GV\");\n        allContractNames.push(\"PC\");\n        allContractNames.push(\"MR\");\n        allContractNames.push(\"PS\");\n        isUpgradable[\"QT\"] = true;\n        isUpgradable[\"TF\"] = true;\n        isUpgradable[\"CL\"] = true;\n        isUpgradable[\"CR\"] = true;\n        isUpgradable[\"P1\"] = true;\n        isUpgradable[\"P2\"] = true;\n        isUpgradable[\"MC\"] = true;\n        isProxy[\"TC\"] = true;\n        isProxy[\"GV\"] = true;\n        isProxy[\"PC\"] = true;\n        isProxy[\"MR\"] = true;\n        isProxy[\"PS\"] = true;\n    }\n\n    function upgradeMultipleImplementations(\n        bytes2[] calldata _contractNames,\n        address[] calldata _contractAddresses\n        ) \n        external \n        onlyAuthorizedToGovern \n    {\n        require(_contractNames.length == _contractAddresses.length,\"Array length should be equal.\");\n        for (uint i=0; i < _contractNames.length; i++) {\n            require(_contractAddresses[i] != address(0),\"null address is not allowed.\");\n            require(isProxy[_contractNames[i]],\"Contract should be proxy.\");\n            OwnedUpgradeabilityProxy proxy = OwnedUpgradeabilityProxy(allContractVersions[_contractNames[i]]);\n            proxy.upgradeTo(_contractAddresses[i]);\n        }\n    }\n\n    /// @dev Adds new internal contract\n    /// @param _contractName contract code for new contract\n    /// @param _contractAddress contract address for new contract\n    /// @param _type pass 1 if contract is upgradable, 2 if contract is proxy, any other uint if none.\n    function addNewInternalContract(\n        bytes2 _contractName,\n        address payable _contractAddress,\n        uint _type\n        ) \n    external \n    onlyAuthorizedToGovern {\n        require(allContractVersions[_contractName] == address(0),\"Contract code is already available.\");\n        require(_contractAddress != address(0),\"NULL address is not allowed.\");\n        allContractNames.push(_contractName);\n        address newInternalContract = _contractAddress; // Using extra varible to get rid of if condition.\n        if (_type == 1) {\n            isUpgradable[_contractName] = true;\n        } else if (_type == 2) {\n            newInternalContract = _generateProxy(_contractAddress);\n            isProxy[_contractName] = true;\n        }\n        allContractVersions[_contractName] = address(uint160(newInternalContract));\n        contractsActive[newInternalContract] = true;\n        Iupgradable up = Iupgradable(allContractVersions[_contractName]);\n        up.changeMasterAddress(address(this));\n        up.changeDependentContractAddress();\n    }\n\n    /**\n     * @dev Anyone can close a claim if oraclize fails to close it.\n     * @param _claimId id of claim to be closed.\n     */ \n    function closeClaim(uint _claimId) external {\n\n        require(canCall(_claimId), \"Payout retry time not reached.\");\n        ClaimsReward cr = ClaimsReward(getLatestAddress(\"CR\"));\n        cr.changeClaimStatus(_claimId);\n    }\n\n    /**\n     * @dev  Handles the oraclize query callback.\n     * @param myid ID of oraclize query to be processed\n     */ \n    function delegateCallBack(bytes32 myid) external noReentrancy {\n        PoolData pd = PoolData(getLatestAddress(\"PD\"));\n        uint callTime = pd.getDateUpdOfAPI(myid);\n        uint dateAdd = pd.getDateAddOfAPI(myid);\n        require(callTime == dateAdd, \"Callback already received\");\n\n        bytes4 res = pd.getApiIdTypeOf(myid);\n        pd.updateDateUpdOfAPI(myid);\n\n        if (isPause()) {\n\n            bytes4 by;\n            (, , by) = getLastEmergencyPause();\n\n            require(res == \"EP\", \"Only callback of type EP is allowed during emergency pause\");\n            require(callTime.add(pauseTime) < now, \"Callback was called too soon\");\n            require(by == \"AB\", \"Emergency paused was not started by Advisory Board\");\n\n            addEmergencyPause(false, \"AUT\");\n            return;\n        }\n\n        uint id = pd.getIdOfApiId(myid);\n\n        if (res == \"COV\") {\n            Quotation qt = Quotation(getLatestAddress(\"QT\"));\n            qt.expireCover(id);\n            return;\n        }\n\n        if (res == \"CLA\") {\n            require(canCall(id), \"Payout retry time not reached\");\n            ClaimsReward cr = ClaimsReward(getLatestAddress(\"CR\"));\n            cr.changeClaimStatus(id);\n            return;\n        }\n\n        if (res == \"MCRF\") {\n            require(callTime.add(pd.mcrFailTime()) < now, \"MCR posting time not reached\");\n            MCR m1 = MCR(getLatestAddress(\"MC\"));\n            m1.addLastMCRData(uint64(id));\n            return;\n        }\n\n        if (res == \"ULT\") {\n            require(callTime.add(pd.liquidityTradeCallbackTime()) < now, \"Liquidity trade time not reached\");\n            Pool2 p2 = Pool2(getLatestAddress(\"P2\"));\n            p2.externalLiquidityTrade();\n            return;\n        }\n\n        if (res == \"MCR\" || res == \"IARB\") {\n            return;\n        }\n\n        revert(\"Invalid callback\");\n    }\n\n    function getOwnerParameters(bytes8 code) external view returns(bytes8 codeVal, address val) {\n        codeVal = code;\n        QuotationData qd;\n        PoolData pd;\n        if (code == \"MSWALLET\") {\n            TokenData td;\n            td = TokenData(getLatestAddress(\"TD\"));\n            val = td.walletAddress();\n\n        } else if (code == \"MCRNOTA\") {\n            \n            pd = PoolData(getLatestAddress(\"PD\"));\n            val = pd.notariseMCR();\n\n        } else if (code == \"DAIFEED\") {\n            pd = PoolData(getLatestAddress(\"PD\"));\n            val = pd.daiFeedAddress();\n\n        } else if (code == \"UNISWADD\") {\n            Pool2 p2;\n            p2 = Pool2(getLatestAddress(\"P2\"));\n            val = p2.uniswapFactoryAddress();\n\n        } else if (code == \"OWNER\") {\n\n            val = owner;\n\n        } else if (code == \"QUOAUTH\") {\n            \n            qd = QuotationData(getLatestAddress(\"QD\"));\n            val = qd.authQuoteEngine();\n\n        } else if (code == \"KYCAUTH\") {\n            qd = QuotationData(getLatestAddress(\"QD\"));\n            val = qd.kycAuthAddress();\n\n        }\n        \n    }\n\n    /// @dev Add Emergency pause\n    /// @param _pause to set Emergency Pause ON/OFF\n    /// @param _by to set who Start/Stop EP\n    function addEmergencyPause(bool _pause, bytes4 _by) public {\n        require(_by == \"AB\" || _by == \"AUT\",\"Invalid call.\");\n        require(msg.sender == getLatestAddress(\"P1\") || msg.sender == getLatestAddress(\"GV\"),\"Callable by P1 and GV only.\");\n        emergencyPaused.push(EmergencyPause(_pause, now, _by));\n        if (_pause == false) {\n            Claims c1 = Claims(allContractVersions[\"CL\"]);\n            c1.submitClaimAfterEPOff(); // Process claims submitted while EP was on\n            c1.startAllPendingClaimsVoting(); // Resume voting on all pending claims\n        }\n    }\n\n    ///@dev update time in seconds for which emergency pause is applied.\n    function updatePauseTime(uint _time) public {\n\n        require(isInternal(msg.sender),\"Not internal call.\");\n        pauseTime = _time;\n    }\n\n    /// @dev upgrades multiple contracts at a time\n    function upgradeMultipleContracts(\n        bytes2[] memory _contractsName,\n        address payable[] memory _contractsAddress\n        ) \n    public \n    onlyAuthorizedToGovern\n    {\n        require(_contractsName.length == _contractsAddress.length, \"Array length should be equal.\");\n        \n        for (uint i=0; i<_contractsName.length; i++) {\n            address payable newAddress = _contractsAddress[i];\n            require(newAddress != address(0),\"NULL address is not allowed.\");\n            require(isUpgradable[_contractsName[i]],\"Contract should be upgradable.\");\n            if (_contractsName[i] == \"QT\") {\n                Quotation qt = Quotation(allContractVersions[\"QT\"]);\n                qt.transferAssetsToNewContract(newAddress);\n\n            } else if (_contractsName[i] == \"CR\") {\n                TokenController tc = TokenController(getLatestAddress(\"TC\"));\n                tc.addToWhitelist(newAddress);\n                tc.removeFromWhitelist(allContractVersions[\"CR\"]);\n                ClaimsReward cr = ClaimsReward(allContractVersions[\"CR\"]);\n                cr.upgrade(newAddress);\n\n            } else if (_contractsName[i] == \"P1\") {\n                Pool1 p1 = Pool1(allContractVersions[\"P1\"]);\n                p1.upgradeCapitalPool(newAddress);\n\n\n            } else if (_contractsName[i] == \"P2\") {\n                Pool2 p2 = Pool2(allContractVersions[\"P2\"]);\n                p2.upgradeInvestmentPool(newAddress);\n\n            }\n\n            address payable oldAddress = allContractVersions[_contractsName[i]];\n            contractsActive[oldAddress] = false;\n            allContractVersions[_contractsName[i]] = newAddress;\n            contractsActive[newAddress] = true;\n\n            Iupgradable up = Iupgradable(allContractVersions[_contractsName[i]]);\n            up.changeMasterAddress(address(this));\n        }\n\n        _changeAllAddress();\n    }\n\n    /// @dev checks whether the address is an internal contract address.\n    function isInternal(address _contractAddress) public view returns(bool) {\n        return contractsActive[_contractAddress];\n    }\n\n    /// @dev checks whether the address is the Owner or not.\n    function isOwner(address _address) public view returns(bool) {\n        return owner == _address;\n    }\n\n    /// @dev Checks whether emergency pause id on/not.\n    function isPause() public view returns(bool) {\n        uint length = emergencyPaused.length;\n        return length > 0 && emergencyPaused[length - 1].pause;\n    }\n\n    /// @dev checks whether the address is a member of the mutual or not.\n    function isMember(address _add) public view returns(bool) {\n        MemberRoles mr = MemberRoles(getLatestAddress(\"MR\"));\n        return mr.checkRole(_add, uint(MemberRoles.Role.Member));\n    }\n\n    ///@dev Gets the number of emergency pause has been toggled.\n    function getEmergencyPausedLength() public view returns(uint len) {\n        len = emergencyPaused.length;\n    }\n\n    ///@dev Gets last emergency pause details.\n    function getLastEmergencyPause() public view returns(bool _pause, uint _time, bytes4 _by) {\n        _pause = false;\n        _time = 0;\n        _by = \"\";\n        uint len = getEmergencyPausedLength();\n        if (len > 0) {\n            len = len.sub(1);\n            _pause = emergencyPaused[len].pause;\n            _time = emergencyPaused[len].time;\n            _by = emergencyPaused[len].by;\n        }\n    }\n\n    /// @dev Gets latest version name and address\n    /// @return contractsName Latest version's contract names\n    /// @return contractsAddress Latest version's contract addresses\n    function getVersionData() \n        public \n        view \n        returns (\n            bytes2[] memory contractsName,\n            address[] memory contractsAddress\n        ) \n    {\n        contractsName = allContractNames;\n        contractsAddress = new address[](allContractNames.length);\n\n        for (uint i = 0; i < allContractNames.length; i++) {\n            contractsAddress[i] = allContractVersions[allContractNames[i]];\n        }\n    }\n\n    /**\n     * @dev returns the address of token controller \n     * @return address is returned\n     */\n    function dAppLocker() public view returns(address _add) {\n\n        _add = getLatestAddress(\"TC\");\n\n    }\n\n    /**\n     * @dev returns the address of nxm token \n     * @return address is returned\n     */\n    function dAppToken() public view returns(address _add) {\n        _add = tokenAddress;\n    }\n\n    /// @dev Gets latest contract address\n    /// @param _contractName Contract name to fetch\n    function getLatestAddress(bytes2 _contractName) public view returns(address payable contractAddress) {\n        contractAddress = allContractVersions[_contractName];\n    }\n\n    /// @dev Creates a new version of contract addresses\n    /// @param _contractAddresses Array of contract addresses which will be generated\n    function addNewVersion(address payable[] memory _contractAddresses) public {\n\n        require(msg.sender == owner && !masterInitialized,\"Caller should be owner and should only be called once.\");\n        require(_contractAddresses.length == allContractNames.length, \"array length not same\");\n        masterInitialized = true;\n\n        MemberRoles mr = MemberRoles(_contractAddresses[14]);   \n        // shoud send proxy address for proxy contracts (if not 1st time deploying) \n        // bool isMasterUpgrade = mr.nxMasterAddress() != address(0);\n\n        for (uint i = 0; i < allContractNames.length; i++) {\n            require(_contractAddresses[i] != address(0),\"NULL address is not allowed.\");\n            allContractVersions[allContractNames[i]] = _contractAddresses[i];\n            contractsActive[_contractAddresses[i]] = true;\n\n        }\n\n        // Need to override owner as owner in MR to avoid inconsistency as owner in MR is some other address. \n        (, address[] memory mrOwner) = mr.members(uint(MemberRoles.Role.Owner));\n        owner = mrOwner[0];\n    }\n\n    /**\n     * @dev to check if the address is authorized to govern or not \n     * @param _add is the address in concern\n     * @return the boolean status status for the check\n     */\n    function checkIsAuthToGoverned(address _add) public view returns(bool) {\n        return isAuthorizedToGovern(_add);\n    }\n\n    /// @dev Allow AB Members to Start Emergency Pause\n    function startEmergencyPause() public  onlyAuthorizedToGovern {\n        addEmergencyPause(true, \"AB\"); //Start Emergency Pause\n        Pool1 p1 = Pool1(allContractVersions[\"P1\"]);\n        p1.closeEmergencyPause(pauseTime); //oraclize callback of 4 weeks\n        Claims c1 = Claims(allContractVersions[\"CL\"]);\n        c1.pauseAllPendingClaimsVoting(); //Pause Voting of all pending Claims\n    }\n    \n    /**\n     * @dev to update the owner parameters \n     * @param code is the associated code \n     * @param val is value to be set\n     */\n    function updateOwnerParameters(bytes8 code, address payable val) public onlyAuthorizedToGovern {\n        QuotationData qd;\n        PoolData pd;\n        if (code == \"MSWALLET\") {\n            TokenData td;\n            td = TokenData(getLatestAddress(\"TD\"));\n            td.changeWalletAddress(val);\n\n        } else if (code == \"MCRNOTA\") {\n            \n            pd = PoolData(getLatestAddress(\"PD\"));\n            pd.changeNotariseAddress(val);\n\n        } else if (code == \"DAIFEED\") {\n            pd = PoolData(getLatestAddress(\"PD\"));\n            pd.changeDAIfeedAddress(val);\n\n        } else if (code == \"UNISWADD\") {\n            Pool2 p2;\n            p2 = Pool2(getLatestAddress(\"P2\"));\n            p2.changeUniswapFactoryAddress(val);\n\n        } else if (code == \"OWNER\") {\n\n            MemberRoles mr = MemberRoles(getLatestAddress(\"MR\"));\n            mr.swapOwner(val);\n            owner = val;\n\n        } else if (code == \"QUOAUTH\") {\n            \n            qd = QuotationData(getLatestAddress(\"QD\"));\n            qd.changeAuthQuoteEngine(val);\n\n        } else if (code == \"KYCAUTH\") {\n            qd = QuotationData(getLatestAddress(\"QD\"));\n            qd.setKycAuthAddress(val);\n\n        } else {\n            revert(\"Invalid param code\");\n        }\n    }\n\n    /**\n     * @dev to generater proxy \n     * @param _implementationAddress of the proxy\n     */\n    function _generateProxy(address _implementationAddress) internal returns(address) {\n        OwnedUpgradeabilityProxy proxy = new OwnedUpgradeabilityProxy(_implementationAddress);\n        return address(proxy);\n    }\n\n    /// @dev Sets the older versions of contract addresses as inactive and the latest one as active.\n    function _changeAllAddress() internal {\n        uint i;\n        for (i = 0; i < allContractNames.length; i++) {\n            \n            contractsActive[allContractVersions[allContractNames[i]]] = true;\n            Iupgradable up = Iupgradable(allContractVersions[allContractNames[i]]);\n            up.changeDependentContractAddress(); \n        }\n    }\n\n    function canCall(uint _claimId) internal view returns(bool)\n    {\n        ClaimsData cd = ClaimsData(getLatestAddress(\"CD\"));\n        (, , , uint status, uint dateUpd, ) = cd.getClaim(_claimId);\n        if (status == 12) {\n            if (dateUpd.add(cd.payoutRetryTime()) > now) {\n                return false;\n            } \n        }\n        return true;\n    }\n}\n",
  "sourcePath": "/Users/oker/Downloads/smart-contracts-master3/contracts/SOTEMaster.sol",
  "compiler": {
    "name": "solc",
    "version": "0.5.7+commit.6da8b019.Emscripten.clang"
  },
  "schemaVersion": "3.2.3",
  "updatedAt": "2020-12-23T08:17:06.964Z",
  "devdoc": {
    "methods": {
      "addEmergencyPause(bool,bytes4)": {
        "details": "Add Emergency pause",
        "params": {
          "_by": "to set who Start/Stop EP",
          "_pause": "to set Emergency Pause ON/OFF"
        }
      },
      "addNewInternalContract(bytes2,address,uint256)": {
        "details": "Adds new internal contract",
        "params": {
          "_contractAddress": "contract address for new contract",
          "_contractName": "contract code for new contract",
          "_type": "pass 1 if contract is upgradable, 2 if contract is proxy, any other uint if none."
        }
      },
      "addNewVersion(address[])": {
        "details": "Creates a new version of contract addresses",
        "params": {
          "_contractAddresses": "Array of contract addresses which will be generated"
        }
      },
      "checkIsAuthToGoverned(address)": {
        "details": "to check if the address is authorized to govern or not ",
        "params": {
          "_add": "is the address in concern"
        },
        "return": "the boolean status status for the check"
      },
      "closeClaim(uint256)": {
        "details": "Anyone can close a claim if oraclize fails to close it.",
        "params": {
          "_claimId": "id of claim to be closed."
        }
      },
      "dAppLocker()": {
        "details": "returns the address of token controller ",
        "return": "address is returned"
      },
      "dAppToken()": {
        "details": "returns the address of nxm token ",
        "return": "address is returned"
      },
      "delegateCallBack(bytes32)": {
        "details": "Handles the oraclize query callback.",
        "params": {
          "myid": "ID of oraclize query to be processed"
        }
      },
      "getEmergencyPausedLength()": {
        "details": "Gets the number of emergency pause has been toggled."
      },
      "getLastEmergencyPause()": {
        "details": "Gets last emergency pause details."
      },
      "getLatestAddress(bytes2)": {
        "details": "Gets latest contract address",
        "params": {
          "_contractName": "Contract name to fetch"
        }
      },
      "getVersionData()": {
        "details": "Gets latest version name and address",
        "return": "contractsName Latest version's contract namescontractsAddress Latest version's contract addresses"
      },
      "initiateMaster(address)": {
        "details": "to initiate master data",
        "params": {
          "_tokenAdd": "NXM token address."
        }
      },
      "isAuthorizedToGovern(address)": {
        "details": "checks if an address is authorized to govern"
      },
      "isInternal(address)": {
        "details": "checks whether the address is an internal contract address."
      },
      "isMember(address)": {
        "details": "checks whether the address is a member of the mutual or not."
      },
      "isOwner(address)": {
        "details": "checks whether the address is the Owner or not."
      },
      "isPause()": {
        "details": "Checks whether emergency pause id on/not."
      },
      "startEmergencyPause()": {
        "details": "Allow AB Members to Start Emergency Pause"
      },
      "updateOwnerParameters(bytes8,address)": {
        "details": "to update the owner parameters ",
        "params": {
          "code": "is the associated code ",
          "val": "is value to be set"
        }
      },
      "updatePauseTime(uint256)": {
        "details": "update time in seconds for which emergency pause is applied."
      },
      "upgradeMultipleContracts(bytes2[],address[])": {
        "details": "upgrades multiple contracts at a time"
      }
    }
  },
  "userdoc": {
    "methods": {}
  }
}