{
  "contractName": "TokenData",
  "abi": [
    {
      "constant": true,
      "inputs": [],
      "name": "lockCADays",
      "outputs": [
        {
          "name": "",
          "type": "uint256"
        }
      ],
      "payable": false,
      "stateMutability": "view",
      "type": "function"
    },
    {
      "constant": true,
      "inputs": [
        {
          "name": "",
          "type": "uint256"
        }
      ],
      "name": "depositedCN",
      "outputs": [
        {
          "name": "amount",
          "type": "uint256"
        },
        {
          "name": "isDeposited",
          "type": "bool"
        }
      ],
      "payable": false,
      "stateMutability": "view",
      "type": "function"
    },
    {
      "constant": true,
      "inputs": [],
      "name": "lockMVDays",
      "outputs": [
        {
          "name": "",
          "type": "uint256"
        }
      ],
      "payable": false,
      "stateMutability": "view",
      "type": "function"
    },
    {
      "constant": true,
      "inputs": [],
      "name": "stakerMaxCommissionPer",
      "outputs": [
        {
          "name": "",
          "type": "uint256"
        }
      ],
      "payable": false,
      "stateMutability": "view",
      "type": "function"
    },
    {
      "constant": true,
      "inputs": [],
      "name": "walletAddress",
      "outputs": [
        {
          "name": "",
          "type": "address"
        }
      ],
      "payable": false,
      "stateMutability": "view",
      "type": "function"
    },
    {
      "constant": true,
      "inputs": [],
      "name": "joiningFee",
      "outputs": [
        {
          "name": "",
          "type": "uint256"
        }
      ],
      "payable": false,
      "stateMutability": "view",
      "type": "function"
    },
    {
      "constant": true,
      "inputs": [
        {
          "name": "",
          "type": "address"
        }
      ],
      "name": "stakedContractCurrentCommissionIndex",
      "outputs": [
        {
          "name": "",
          "type": "uint256"
        }
      ],
      "payable": false,
      "stateMutability": "view",
      "type": "function"
    },
    {
      "constant": true,
      "inputs": [],
      "name": "priceStep",
      "outputs": [
        {
          "name": "",
          "type": "uint256"
        }
      ],
      "payable": false,
      "stateMutability": "view",
      "type": "function"
    },
    {
      "constant": true,
      "inputs": [],
      "name": "bookTime",
      "outputs": [
        {
          "name": "",
          "type": "uint256"
        }
      ],
      "payable": false,
      "stateMutability": "view",
      "type": "function"
    },
    {
      "constant": true,
      "inputs": [],
      "name": "ms",
      "outputs": [
        {
          "name": "",
          "type": "address"
        }
      ],
      "payable": false,
      "stateMutability": "view",
      "type": "function"
    },
    {
      "constant": true,
      "inputs": [
        {
          "name": "",
          "type": "address"
        },
        {
          "name": "",
          "type": "uint256"
        }
      ],
      "name": "stakedContractStakeCommission",
      "outputs": [
        {
          "name": "commissionEarned",
          "type": "uint256"
        },
        {
          "name": "commissionRedeemed",
          "type": "uint256"
        }
      ],
      "payable": false,
      "stateMutability": "view",
      "type": "function"
    },
    {
      "constant": true,
      "inputs": [
        {
          "name": "",
          "type": "address"
        },
        {
          "name": "",
          "type": "uint256"
        }
      ],
      "name": "stakedContractStakers",
      "outputs": [
        {
          "name": "stakerAddress",
          "type": "address"
        },
        {
          "name": "stakerIndex",
          "type": "uint256"
        }
      ],
      "payable": false,
      "stateMutability": "view",
      "type": "function"
    },
    {
      "constant": true,
      "inputs": [
        {
          "name": "",
          "type": "address"
        },
        {
          "name": "",
          "type": "uint256"
        }
      ],
      "name": "stakerStakedContracts",
      "outputs": [
        {
          "name": "stakedContractAddress",
          "type": "address"
        },
        {
          "name": "stakedContractIndex",
          "type": "uint256"
        },
        {
          "name": "dateAdd",
          "type": "uint256"
        },
        {
          "name": "stakeAmount",
          "type": "uint256"
        },
        {
          "name": "unlockedAmount",
          "type": "uint256"
        },
        {
          "name": "burnedAmount",
          "type": "uint256"
        },
        {
          "name": "unLockableBeforeLastBurn",
          "type": "uint256"
        }
      ],
      "payable": false,
      "stateMutability": "view",
      "type": "function"
    },
    {
      "constant": true,
      "inputs": [],
      "name": "scValidDays",
      "outputs": [
        {
          "name": "",
          "type": "uint256"
        }
      ],
      "payable": false,
      "stateMutability": "view",
      "type": "function"
    },
    {
      "constant": true,
      "inputs": [],
      "name": "lockTokenTimeAfterCoverExp",
      "outputs": [
        {
          "name": "",
          "type": "uint256"
        }
      ],
      "payable": false,
      "stateMutability": "view",
      "type": "function"
    },
    {
      "constant": false,
      "inputs": [
        {
          "name": "_masterAddress",
          "type": "address"
        }
      ],
      "name": "changeMasterAddress",
      "outputs": [],
      "payable": false,
      "stateMutability": "nonpayable",
      "type": "function"
    },
    {
      "constant": true,
      "inputs": [
        {
          "name": "",
          "type": "address"
        }
      ],
      "name": "lastCompletedStakeCommission",
      "outputs": [
        {
          "name": "",
          "type": "uint256"
        }
      ],
      "payable": false,
      "stateMutability": "view",
      "type": "function"
    },
    {
      "constant": true,
      "inputs": [],
      "name": "stakerCommissionPer",
      "outputs": [
        {
          "name": "",
          "type": "uint256"
        }
      ],
      "payable": false,
      "stateMutability": "view",
      "type": "function"
    },
    {
      "constant": true,
      "inputs": [],
      "name": "tokenExponent",
      "outputs": [
        {
          "name": "",
          "type": "uint256"
        }
      ],
      "payable": false,
      "stateMutability": "view",
      "type": "function"
    },
    {
      "constant": true,
      "inputs": [],
      "name": "nxMasterAddress",
      "outputs": [
        {
          "name": "",
          "type": "address"
        }
      ],
      "payable": false,
      "stateMutability": "view",
      "type": "function"
    },
    {
      "constant": true,
      "inputs": [
        {
          "name": "",
          "type": "address"
        }
      ],
      "name": "stakedContractCurrentBurnIndex",
      "outputs": [
        {
          "name": "",
          "type": "uint256"
        }
      ],
      "payable": false,
      "stateMutability": "view",
      "type": "function"
    },
    {
      "inputs": [
        {
          "name": "_walletAdd",
          "type": "address"
        }
      ],
      "payable": false,
      "stateMutability": "nonpayable",
      "type": "constructor"
    },
    {
      "anonymous": false,
      "inputs": [
        {
          "indexed": true,
          "name": "stakedContractAddress",
          "type": "address"
        },
        {
          "indexed": true,
          "name": "stakerAddress",
          "type": "address"
        },
        {
          "indexed": true,
          "name": "scIndex",
          "type": "uint256"
        },
        {
          "indexed": false,
          "name": "commissionAmount",
          "type": "uint256"
        }
      ],
      "name": "Commission",
      "type": "event"
    },
    {
      "constant": false,
      "inputs": [
        {
          "name": "_address",
          "type": "address"
        }
      ],
      "name": "changeWalletAddress",
      "outputs": [],
      "payable": false,
      "stateMutability": "nonpayable",
      "type": "function"
    },
    {
      "constant": true,
      "inputs": [
        {
          "name": "code",
          "type": "bytes8"
        }
      ],
      "name": "getUintParameters",
      "outputs": [
        {
          "name": "codeVal",
          "type": "bytes8"
        },
        {
          "name": "val",
          "type": "uint256"
        }
      ],
      "payable": false,
      "stateMutability": "view",
      "type": "function"
    },
    {
      "constant": false,
      "inputs": [],
      "name": "changeDependentContractAddress",
      "outputs": [],
      "payable": false,
      "stateMutability": "nonpayable",
      "type": "function"
    },
    {
      "constant": true,
      "inputs": [
        {
          "name": "_stakerAddress",
          "type": "address"
        },
        {
          "name": "_stakerIndex",
          "type": "uint256"
        }
      ],
      "name": "getStakerStakedContractByIndex",
      "outputs": [
        {
          "name": "stakedContractAddress",
          "type": "address"
        }
      ],
      "payable": false,
      "stateMutability": "view",
      "type": "function"
    },
    {
      "constant": true,
      "inputs": [
        {
          "name": "_stakerAddress",
          "type": "address"
        },
        {
          "name": "_stakerIndex",
          "type": "uint256"
        }
      ],
      "name": "getStakerStakedBurnedByIndex",
      "outputs": [
        {
          "name": "burnedAmount",
          "type": "uint256"
        }
      ],
      "payable": false,
      "stateMutability": "view",
      "type": "function"
    },
    {
      "constant": true,
      "inputs": [
        {
          "name": "_stakerAddress",
          "type": "address"
        },
        {
          "name": "_stakerIndex",
          "type": "uint256"
        }
      ],
      "name": "getStakerStakedUnlockableBeforeLastBurnByIndex",
      "outputs": [
        {
          "name": "unlockable",
          "type": "uint256"
        }
      ],
      "payable": false,
      "stateMutability": "view",
      "type": "function"
    },
    {
      "constant": true,
      "inputs": [
        {
          "name": "_stakerAddress",
          "type": "address"
        },
        {
          "name": "_stakerIndex",
          "type": "uint256"
        }
      ],
      "name": "getStakerStakedContractIndex",
      "outputs": [
        {
          "name": "scIndex",
          "type": "uint256"
        }
      ],
      "payable": false,
      "stateMutability": "view",
      "type": "function"
    },
    {
      "constant": true,
      "inputs": [
        {
          "name": "_stakedContractAddress",
          "type": "address"
        },
        {
          "name": "_stakedContractIndex",
          "type": "uint256"
        }
      ],
      "name": "getStakedContractStakerIndex",
      "outputs": [
        {
          "name": "sIndex",
          "type": "uint256"
        }
      ],
      "payable": false,
      "stateMutability": "view",
      "type": "function"
    },
    {
      "constant": true,
      "inputs": [
        {
          "name": "_stakerAddress",
          "type": "address"
        },
        {
          "name": "_stakerIndex",
          "type": "uint256"
        }
      ],
      "name": "getStakerInitialStakedAmountOnContract",
      "outputs": [
        {
          "name": "amount",
          "type": "uint256"
        }
      ],
      "payable": false,
      "stateMutability": "view",
      "type": "function"
    },
    {
      "constant": true,
      "inputs": [
        {
          "name": "_stakerAddress",
          "type": "address"
        }
      ],
      "name": "getStakerStakedContractLength",
      "outputs": [
        {
          "name": "length",
          "type": "uint256"
        }
      ],
      "payable": false,
      "stateMutability": "view",
      "type": "function"
    },
    {
      "constant": true,
      "inputs": [
        {
          "name": "_stakerAddress",
          "type": "address"
        },
        {
          "name": "_stakerIndex",
          "type": "uint256"
        }
      ],
      "name": "getStakerUnlockedStakedTokens",
      "outputs": [
        {
          "name": "amount",
          "type": "uint256"
        }
      ],
      "payable": false,
      "stateMutability": "view",
      "type": "function"
    },
    {
      "constant": false,
      "inputs": [
        {
          "name": "_stakerAddress",
          "type": "address"
        },
        {
          "name": "_stakerIndex",
          "type": "uint256"
        },
        {
          "name": "_amount",
          "type": "uint256"
        }
      ],
      "name": "pushUnlockedStakedTokens",
      "outputs": [],
      "payable": false,
      "stateMutability": "nonpayable",
      "type": "function"
    },
    {
      "constant": false,
      "inputs": [
        {
          "name": "_stakerAddress",
          "type": "address"
        },
        {
          "name": "_stakerIndex",
          "type": "uint256"
        },
        {
          "name": "_amount",
          "type": "uint256"
        }
      ],
      "name": "pushBurnedTokens",
      "outputs": [],
      "payable": false,
      "stateMutability": "nonpayable",
      "type": "function"
    },
    {
      "constant": false,
      "inputs": [
        {
          "name": "_stakerAddress",
          "type": "address"
        },
        {
          "name": "_stakerIndex",
          "type": "uint256"
        },
        {
          "name": "_amount",
          "type": "uint256"
        }
      ],
      "name": "pushUnlockableBeforeLastBurnTokens",
      "outputs": [],
      "payable": false,
      "stateMutability": "nonpayable",
      "type": "function"
    },
    {
      "constant": false,
      "inputs": [
        {
          "name": "_stakerAddress",
          "type": "address"
        },
        {
          "name": "_stakerIndex",
          "type": "uint256"
        },
        {
          "name": "_amount",
          "type": "uint256"
        }
      ],
      "name": "setUnlockableBeforeLastBurnTokens",
      "outputs": [],
      "payable": false,
      "stateMutability": "nonpayable",
      "type": "function"
    },
    {
      "constant": false,
      "inputs": [
        {
          "name": "_stakerAddress",
          "type": "address"
        },
        {
          "name": "_stakedContractAddress",
          "type": "address"
        },
        {
          "name": "_stakedContractIndex",
          "type": "uint256"
        },
        {
          "name": "_commissionAmount",
          "type": "uint256"
        }
      ],
      "name": "pushEarnedStakeCommissions",
      "outputs": [],
      "payable": false,
      "stateMutability": "nonpayable",
      "type": "function"
    },
    {
      "constant": false,
      "inputs": [
        {
          "name": "_stakerAddress",
          "type": "address"
        },
        {
          "name": "_stakerIndex",
          "type": "uint256"
        },
        {
          "name": "_amount",
          "type": "uint256"
        }
      ],
      "name": "pushRedeemedStakeCommissions",
      "outputs": [],
      "payable": false,
      "stateMutability": "nonpayable",
      "type": "function"
    },
    {
      "constant": true,
      "inputs": [
        {
          "name": "_stakerAddress",
          "type": "address"
        },
        {
          "name": "_stakerIndex",
          "type": "uint256"
        }
      ],
      "name": "getStakerEarnedStakeCommission",
      "outputs": [
        {
          "name": "",
          "type": "uint256"
        }
      ],
      "payable": false,
      "stateMutability": "view",
      "type": "function"
    },
    {
      "constant": true,
      "inputs": [
        {
          "name": "_stakerAddress",
          "type": "address"
        },
        {
          "name": "_stakerIndex",
          "type": "uint256"
        }
      ],
      "name": "getStakerRedeemedStakeCommission",
      "outputs": [
        {
          "name": "",
          "type": "uint256"
        }
      ],
      "payable": false,
      "stateMutability": "view",
      "type": "function"
    },
    {
      "constant": true,
      "inputs": [
        {
          "name": "_stakerAddress",
          "type": "address"
        }
      ],
      "name": "getStakerTotalEarnedStakeCommission",
      "outputs": [
        {
          "name": "totalCommissionEarned",
          "type": "uint256"
        }
      ],
      "payable": false,
      "stateMutability": "view",
      "type": "function"
    },
    {
      "constant": true,
      "inputs": [
        {
          "name": "_stakerAddress",
          "type": "address"
        }
      ],
      "name": "getStakerTotalReedmedStakeCommission",
      "outputs": [
        {
          "name": "totalCommissionRedeemed",
          "type": "uint256"
        }
      ],
      "payable": false,
      "stateMutability": "view",
      "type": "function"
    },
    {
      "constant": false,
      "inputs": [
        {
          "name": "coverId",
          "type": "uint256"
        },
        {
          "name": "flag",
          "type": "bool"
        }
      ],
      "name": "setDepositCN",
      "outputs": [],
      "payable": false,
      "stateMutability": "nonpayable",
      "type": "function"
    },
    {
      "constant": false,
      "inputs": [
        {
          "name": "coverId",
          "type": "uint256"
        },
        {
          "name": "amount",
          "type": "uint256"
        }
      ],
      "name": "setDepositCNAmount",
      "outputs": [],
      "payable": false,
      "stateMutability": "nonpayable",
      "type": "function"
    },
    {
      "constant": true,
      "inputs": [
        {
          "name": "_stakedContractAddress",
          "type": "address"
        },
        {
          "name": "_stakedContractIndex",
          "type": "uint256"
        }
      ],
      "name": "getStakedContractStakerByIndex",
      "outputs": [
        {
          "name": "stakerAddress",
          "type": "address"
        }
      ],
      "payable": false,
      "stateMutability": "view",
      "type": "function"
    },
    {
      "constant": true,
      "inputs": [
        {
          "name": "_stakedContractAddress",
          "type": "address"
        }
      ],
      "name": "getStakedContractStakersLength",
      "outputs": [
        {
          "name": "length",
          "type": "uint256"
        }
      ],
      "payable": false,
      "stateMutability": "view",
      "type": "function"
    },
    {
      "constant": false,
      "inputs": [
        {
          "name": "_stakerAddress",
          "type": "address"
        },
        {
          "name": "_stakedContractAddress",
          "type": "address"
        },
        {
          "name": "_amount",
          "type": "uint256"
        }
      ],
      "name": "addStake",
      "outputs": [
        {
          "name": "scIndex",
          "type": "uint256"
        }
      ],
      "payable": false,
      "stateMutability": "nonpayable",
      "type": "function"
    },
    {
      "constant": false,
      "inputs": [
        {
          "name": "_of",
          "type": "address"
        }
      ],
      "name": "bookCATokens",
      "outputs": [],
      "payable": false,
      "stateMutability": "nonpayable",
      "type": "function"
    },
    {
      "constant": true,
      "inputs": [
        {
          "name": "_of",
          "type": "address"
        }
      ],
      "name": "isCATokensBooked",
      "outputs": [
        {
          "name": "res",
          "type": "bool"
        }
      ],
      "payable": false,
      "stateMutability": "view",
      "type": "function"
    },
    {
      "constant": false,
      "inputs": [
        {
          "name": "_stakedContractAddress",
          "type": "address"
        },
        {
          "name": "_index",
          "type": "uint256"
        }
      ],
      "name": "setStakedContractCurrentCommissionIndex",
      "outputs": [],
      "payable": false,
      "stateMutability": "nonpayable",
      "type": "function"
    },
    {
      "constant": false,
      "inputs": [
        {
          "name": "_stakerAddress",
          "type": "address"
        },
        {
          "name": "_index",
          "type": "uint256"
        }
      ],
      "name": "setLastCompletedStakeCommissionIndex",
      "outputs": [],
      "payable": false,
      "stateMutability": "nonpayable",
      "type": "function"
    },
    {
      "constant": false,
      "inputs": [
        {
          "name": "_stakedContractAddress",
          "type": "address"
        },
        {
          "name": "_index",
          "type": "uint256"
        }
      ],
      "name": "setStakedContractCurrentBurnIndex",
      "outputs": [],
      "payable": false,
      "stateMutability": "nonpayable",
      "type": "function"
    },
    {
      "constant": false,
      "inputs": [
        {
          "name": "code",
          "type": "bytes8"
        },
        {
          "name": "val",
          "type": "uint256"
        }
      ],
      "name": "updateUintParameters",
      "outputs": [],
      "payable": false,
      "stateMutability": "nonpayable",
      "type": "function"
    }
  ],
  "bytecode": "0x608060405234801561001057600080fd5b506040516020806124098339810180604052602081101561003057600080fd5b5051600280546001600160a01b0319166001600160a01b0390921691909117905561a8c0600490815566071afd498d0000600855622e248060035560fa60075562093a806005556202a30060065560146009556032600a55600b556103e8600c55612369806100a06000396000f3fe608060405234801561001057600080fd5b50600436106103275760003560e01c806397440d40116101b8578063ddaffe5811610104578063efd9066f116100a2578063f7138aae1161007c578063f7138aae14610a72578063f75ce5d414610a9e578063fed57f1814610ac4578063ff1b450414610af657610327565b8063efd9066f14610a3c578063f17a3bec14610a44578063f480454a14610a4c57610327565b8063e2950c9c116100de578063e2950c9c1461098a578063e325ef74146109c4578063eaf53c77146109ea578063ec8edf7a14610a1657610327565b8063ddaffe5814610926578063dfc2d1ba1461094c578063e22648501461098257610327565b8063b8ea578e11610171578063c88587031161014b578063c88587031461089a578063ce0a6d5f146108c6578063d46655f4146108ce578063d9249bff146108f457610327565b8063b8ea578e146107d5578063c1ed5a7414610824578063c47ac1ac1461089257610327565b806397440d40146106d15780639dd86e0f14610703578063a0b2d57f14610730578063a1692f0414610738578063a34e79bf1461077d578063a72c3520146107a957610327565b806343148d23116102775780636eeeaaa5116102305780638831d5901161020a5780638831d5901461067057806388d519c4146106955780639532cb2c1461069d57806396cf1455146106a557610327565b80636eeeaaa51461061657806379ade32f1461061e578063832c2e401461064a57610327565b806343148d231461052a5780634e718659146105565780636101c166146105795780636122f8401461059f5780636a964451146105ea5780636ad5b3ea146105f257610327565b8063200e7ccf116102e457806334f15b69116102be57806334f15b691461047657806334f45c3e146104b25780633739e439146104de5780633f4a7efa1461050457610327565b8063200e7ccf1461041657806324da7b691461041e5780632bc226281461044a57610327565b8063048dc9901461032c5780630d2c1104146103605780630ea9c9841461037a57806314f07b3c1461038257806318190817146103b45780631dc130a2146103e0575b600080fd5b61035e6004803603606081101561034257600080fd5b506001600160a01b038135169060208101359060400135610b22565b005b610368610c2d565b60408051918252519081900360200190f35b61035e610c33565b61035e6004803603606081101561039857600080fd5b506001600160a01b038135169060208101359060400135610c35565b61035e600480360360408110156103ca57600080fd5b506001600160a01b038135169060200135610d40565b6103fd600480360360208110156103f657600080fd5b5035610ddf565b6040805192835290151560208301528051918290030190f35b610368610dfb565b6103686004803603604081101561043457600080fd5b506001600160a01b038135169060200135610e01565b6103686004803603604081101561046057600080fd5b506001600160a01b038135169060200135610e3f565b61035e6004803603608081101561048c57600080fd5b506001600160a01b03813581169160208101359091169060408101359060600135610e52565b610368600480360360408110156104c857600080fd5b506001600160a01b038135169060200135610f6e565b61035e600480360360208110156104f457600080fd5b50356001600160a01b0316610fac565b6103686004803603602081101561051a57600080fd5b50356001600160a01b03166110bd565b6103686004803603604081101561054057600080fd5b506001600160a01b03813516906020013561110b565b61035e6004803603604081101561056c57600080fd5b5080359060200135611149565b6103686004803603602081101561058f57600080fd5b50356001600160a01b03166111de565b6105c6600480360360208110156105b557600080fd5b50356001600160c01b031916611219565b604080516001600160c01b0319909316835260208301919091528051918290030190f35b6103686113c6565b6105fa6113cc565b604080516001600160a01b039092168252519081900360200190f35b6103686113db565b6103686004803603604081101561063457600080fd5b506001600160a01b0381351690602001356113e1565b6103686004803603602081101561066057600080fd5b50356001600160a01b031661141f565b61035e6004803603604081101561068657600080fd5b50803590602001351515611431565b61036861154c565b610368611552565b6105fa600480360360408110156106bb57600080fd5b506001600160a01b038135169060200135611558565b61035e600480360360608110156106e757600080fd5b506001600160a01b03813516906020810135906040013561159d565b61035e6004803603604081101561071957600080fd5b506001600160c01b031981351690602001356116a8565b6105fa611925565b6107646004803603604081101561074e57600080fd5b506001600160a01b038135169060200135611934565b6040805192835260208301919091528051918290030190f35b6103686004803603604081101561079357600080fd5b506001600160a01b038135169060200135611958565b6105fa600480360360408110156107bf57600080fd5b506001600160a01b038135169060200135611996565b610801600480360360408110156107eb57600080fd5b506001600160a01b0381351690602001356119db565b604080516001600160a01b03909316835260208301919091528051918290030190f35b6108506004803603604081101561083a57600080fd5b506001600160a01b038135169060200135611a1e565b604080516001600160a01b0390981688526020880196909652868601949094526060860192909252608085015260a084015260c0830152519081900360e00190f35b610368611a7f565b61035e600480360360408110156108b057600080fd5b506001600160a01b038135169060200135611a85565b610368611b24565b61035e600480360360208110156108e457600080fd5b50356001600160a01b0316611b2a565b61035e6004803603606081101561090a57600080fd5b506001600160a01b038135169060208101359060400135611bb9565b6103686004803603602081101561093c57600080fd5b50356001600160a01b0316611d1c565b6103686004803603606081101561096257600080fd5b506001600160a01b03813581169160208101359091169060400135611d2e565b610368611edd565b6109b0600480360360208110156109a057600080fd5b50356001600160a01b0316611ee3565b604080519115158252519081900360200190f35b610368600480360360208110156109da57600080fd5b50356001600160a01b0316611f0c565b61035e60048036036040811015610a0057600080fd5b506001600160a01b038135169060200135611f27565b61035e60048036036020811015610a2c57600080fd5b50356001600160a01b0316611fc6565b61036861206b565b6105fa612071565b61036860048036036020811015610a6257600080fd5b50356001600160a01b0316612080565b61036860048036036040811015610a8857600080fd5b506001600160a01b03813516906020013561209b565b61036860048036036020811015610ab457600080fd5b50356001600160a01b03166120a7565b61035e60048036036060811015610ada57600080fd5b506001600160a01b0381351690602081013590604001356120b9565b61036860048036036040811015610b0c57600080fd5b506001600160a01b038135169060200135612163565b60005460408051600160e21b6323c5b10702815233600482015290516001600160a01b0390921691638f16c41c91602480820192602092909190829003018186803b158015610b7057600080fd5b505afa158015610b84573d6000803e3d6000fd5b505050506040513d6020811015610b9a57600080fd5b5051610ba557600080fd5b6001600160a01b0383166000908152600d602052604090208054610bef91839185908110610bcf57fe5b9060005260206000209060070201600501546121a190919063ffffffff16565b6001600160a01b0384166000908152600d60205260409020805484908110610c1357fe5b906000526020600020906007020160050181905550505050565b60055481565b565b60005460408051600160e21b6323c5b10702815233600482015290516001600160a01b0390921691638f16c41c91602480820192602092909190829003018186803b158015610c8357600080fd5b505afa158015610c97573d6000803e3d6000fd5b505050506040513d6020811015610cad57600080fd5b5051610cb857600080fd5b6001600160a01b0383166000908152600d602052604090208054610d0291839185908110610ce257fe5b9060005260206000209060070201600601546121a190919063ffffffff16565b6001600160a01b0384166000908152600d60205260409020805484908110610d2657fe5b906000526020600020906007020160060181905550505050565b60005460408051600160e21b6323c5b10702815233600482015290516001600160a01b0390921691638f16c41c91602480820192602092909190829003018186803b158015610d8e57600080fd5b505afa158015610da2573d6000803e3d6000fd5b505050506040513d6020811015610db857600080fd5b5051610dc357600080fd5b6001600160a01b03909116600090815260106020526040902055565b6013602052600090815260409020805460019091015460ff1682565b60065481565b6001600160a01b0382166000908152600e60205260408120805483908110610e2557fe5b906000526020600020906002020160010154905092915050565b6000610e4b83836121b3565b9392505050565b60005460408051600160e21b6323c5b10702815233600482015290516001600160a01b0390921691638f16c41c91602480820192602092909190829003018186803b158015610ea057600080fd5b505afa158015610eb4573d6000803e3d6000fd5b505050506040513d6020811015610eca57600080fd5b5051610ed557600080fd5b6001600160a01b0383166000908152600f60209081526040808320858452909152902054610f09908263ffffffff6121a116565b6001600160a01b038085166000818152600f602090815260408083208884528252918290209490945580518581529051869492938916927f05456de91d83e21ad7c41a09ae7cb41836049c49e6ddaf07bdfc40c2231885d2928290030190a450505050565b6001600160a01b0382166000908152600d60205260408120805483908110610f9257fe5b906000526020600020906007020160050154905092915050565b60005460408051600160e21b6323c5b10702815233600482015290516001600160a01b0390921691638f16c41c91602480820192602092909190829003018186803b158015610ffa57600080fd5b505afa15801561100e573d6000803e3d6000fd5b505050506040513d602081101561102457600080fd5b505161102f57600080fd5b61103881611ee3565b1561108d5760408051600160e51b62461bcd02815260206004820152601560248201527f546f6b656e7320616c726561647920626f6f6b65640000000000000000000000604482015290519081900360640190fd5b6004546110a190429063ffffffff6121a116565b6001600160a01b03909116600090815260146020526040902055565b6000805b6001600160a01b0383166000908152600d6020526040902054811015611105576110fb6110ee8483612254565b839063ffffffff6121a116565b91506001016110c1565b50919050565b6001600160a01b0382166000908152600d6020526040812080548390811061112f57fe5b906000526020600020906007020160030154905092915050565b60005460408051600160e21b6323c5b10702815233600482015290516001600160a01b0390921691638f16c41c91602480820192602092909190829003018186803b15801561119757600080fd5b505afa1580156111ab573d6000803e3d6000fd5b505050506040513d60208110156111c157600080fd5b50516111cc57600080fd5b60009182526013602052604090912055565b6000805b6001600160a01b0383166000908152600d60205260409020548110156111055761120f6110ee84836121b3565b91506001016111e2565b806000600160d41b650544f4b45585026001600160c01b0319831614156112435750600b546113c1565b600160cc1b660544f4b5354455026001600160c01b03198416141561126b5750600c546113c1565b600160ca1b6614905313d0d2d5026001600160c01b03198416141561129357506007546113c1565b600160d01b655241434f4d4d026001600160c01b0319841614156112ba57506009546113c1565b600160d01b6552414d415843026001600160c01b0319841614156112e15750600a546113c1565b600160ca1b6610d05093d3d2d5026001600160c01b03198416141561131557610e106004548161130d57fe5b0490506113c1565b600160ca1b6610d05313d0d2d5026001600160c01b03198416141561134257620151806005548161130d57fe5b600160ca1b6613559313d0d2d5026001600160c01b03198416141561136f57620151806006548161130d57fe5b600160c21b67145553d313d0d2d5026001600160c01b03198416141561139d57620151806003548161130d57fe5b600160c81b664a4f494e464545026001600160c01b0319841614156113c157506008545b915091565b600a5481565b6002546001600160a01b031681565b60085481565b6001600160a01b0382166000908152600d6020526040812080548390811061140557fe5b906000526020600020906007020160010154905092915050565b60116020526000908152604090205481565b60005460408051600160e21b6323c5b10702815233600482015290516001600160a01b0390921691638f16c41c91602480820192602092909190829003018186803b15801561147f57600080fd5b505afa158015611493573d6000803e3d6000fd5b505050506040513d60208110156114a957600080fd5b50516114b457600080fd5b600181151514156115295760008281526013602052604090206001015460ff16156115295760408051600160e51b62461bcd02815260206004820152601c60248201527f436f766572206e6f746520616c7265616479206465706f736974656400000000604482015290519081900360640190fd5b600091825260136020526040909120600101805460ff1916911515919091179055565b600c5481565b60045481565b6001600160a01b0382166000908152600d6020526040812080548390811061157c57fe5b60009182526020909120600790910201546001600160a01b03169392505050565b60005460408051600160e21b6323c5b10702815233600482015290516001600160a01b0390921691638f16c41c91602480820192602092909190829003018186803b1580156115eb57600080fd5b505afa1580156115ff573d6000803e3d6000fd5b505050506040513d602081101561161557600080fd5b505161162057600080fd5b6001600160a01b0383166000908152600d60205260409020805461166a9183918590811061164a57fe5b9060005260206000209060070201600401546121a190919063ffffffff16565b6001600160a01b0384166000908152600d6020526040902080548490811061168e57fe5b906000526020600020906007020160040181905550505050565b60005460408051600160e11b632c1a733d02815233600482015290516001600160a01b0390921691635834e67a91602480820192602092909190829003018186803b1580156116f657600080fd5b505afa15801561170a573d6000803e3d6000fd5b505050506040513d602081101561172057600080fd5b505161172b57600080fd5b600160d41b650544f4b45585026001600160c01b03198316141561175757611752816122f6565b611921565b600160cc1b660544f4b5354455026001600160c01b03198316141561177f57611752816122fb565b600160ca1b6614905313d0d2d5026001600160c01b0319831614156117a75761175281612300565b600160d01b655241434f4d4d026001600160c01b0319831614156117ce5761175281612305565b600160d01b6552414d415843026001600160c01b0319831614156117f5576117528161230a565b600160ca1b6610d05093d3d2d5026001600160c01b0319831614156118215761175281610e100261230f565b600160ca1b6610d05313d0d2d5026001600160c01b03198316141561184e57611752816201518002612314565b600160ca1b6613559313d0d2d5026001600160c01b03198316141561187b57611752816201518002612319565b600160c21b67145553d313d0d2d5026001600160c01b0319831614156118a95761175281620151800261231e565b600160c81b664a4f494e464545026001600160c01b0319831614156118d15761175281612323565b60408051600160e51b62461bcd02815260206004820152601260248201527f496e76616c696420706172616d20636f64650000000000000000000000000000604482015290519081900360640190fd5b5050565b6000546001600160a01b031681565b600f6020908152600092835260408084209091529082529020805460019091015482565b6001600160a01b0382166000908152600d6020526040812080548390811061197c57fe5b906000526020600020906007020160060154905092915050565b6001600160a01b0382166000908152600e602052604081208054839081106119ba57fe5b60009182526020909120600290910201546001600160a01b03169392505050565b600e60205281600052604060002081815481106119f457fe5b6000918252602090912060029091020180546001909101546001600160a01b039091169250905082565b600d6020528160005260406000208181548110611a3757fe5b600091825260209091206007909102018054600182015460028301546003840154600485015460058601546006909601546001600160a01b0390951697509295509093909287565b60075481565b60005460408051600160e21b6323c5b10702815233600482015290516001600160a01b0390921691638f16c41c91602480820192602092909190829003018186803b158015611ad357600080fd5b505afa158015611ae7573d6000803e3d6000fd5b505050506040513d6020811015611afd57600080fd5b5051611b0857600080fd5b6001600160a01b03909116600090815260116020526040902055565b60035481565b6000546001600160a01b031615611b8d576000546001600160a01b03163314611b8d5760408051600160e51b62461bcd02815260206004820152600a6024820152600160b11b692737ba1036b0b9ba32b902604482015290519081900360640190fd5b600080546001600160a01b039092166001600160a01b0319928316811790915560018054909216179055565b60005460408051600160e21b6323c5b10702815233600482015290516001600160a01b0390921691638f16c41c91602480820192602092909190829003018186803b158015611c0757600080fd5b505afa158015611c1b573d6000803e3d6000fd5b505050506040513d6020811015611c3157600080fd5b5051611c3c57600080fd5b6001600160a01b0383166000908152600d60205260408120805484908110611c6057fe5b90600052602060002090600702016001015490506000600d6000866001600160a01b03166001600160a01b031681526020019081526020016000208481548110611ca657fe5b600091825260208083206007909202909101546001600160a01b0316808352600f82526040808420868552909252912060010154909150611ced908463ffffffff6121a116565b6001600160a01b039091166000908152600f602090815260408083209483529390529190912060010155505050565b60106020526000908152604090205481565b6000805460408051600160e21b6323c5b10702815233600482015290516001600160a01b0390921691638f16c41c91602480820192602092909190829003018186803b158015611d7d57600080fd5b505afa158015611d91573d6000803e3d6000fd5b505050506040513d6020811015611da757600080fd5b5051611db257600080fd5b6001600160a01b038381166000908152600e60209081526040808320815180830183528986168082528552600d84529184205482840190815281546001808201808555938752949095209251600290950290920180546001600160a01b031916949095169390931784555192810192909255611e2d91612328565b6001600160a01b039485166000908152600d60209081526040808320815160e081018352978916885287830185815242928901928352606089019788526080890185815260a08a0186815260c08b01878152845460018082018755958952969097209a516007909602909a0180546001600160a01b03191695909b16949094178a555190890155516002880155935160038701559251600486015592516005850155505160069092019190915590565b60095481565b6001600160a01b038116600090815260146020526040812054421015611f07575060015b919050565b6001600160a01b03166000908152600d602052604090205490565b60005460408051600160e21b6323c5b10702815233600482015290516001600160a01b0390921691638f16c41c91602480820192602092909190829003018186803b158015611f7557600080fd5b505afa158015611f89573d6000803e3d6000fd5b505050506040513d6020811015611f9f57600080fd5b5051611faa57600080fd5b6001600160a01b03909116600090815260126020526040902055565b60005460408051600160e21b6323c5b10702815233600482015290516001600160a01b0390921691638f16c41c91602480820192602092909190829003018186803b15801561201457600080fd5b505afa158015612028573d6000803e3d6000fd5b505050506040513d602081101561203e57600080fd5b505161204957600080fd5b600280546001600160a01b0319166001600160a01b0392909216919091179055565b600b5481565b6001546001600160a01b031681565b6001600160a01b03166000908152600e602052604090205490565b6000610e4b8383612254565b60126020526000908152604090205481565b60005460408051600160e21b6323c5b10702815233600482015290516001600160a01b0390921691638f16c41c91602480820192602092909190829003018186803b15801561210757600080fd5b505afa15801561211b573d6000803e3d6000fd5b505050506040513d602081101561213157600080fd5b505161213c57600080fd5b6001600160a01b0383166000908152600d60205260409020805482919084908110610d2657fe5b6001600160a01b0382166000908152600d6020526040812080548390811061218757fe5b906000526020600020906007020160040154905092915050565b600082820183811015610e4b57600080fd5b6001600160a01b0382166000908152600d60205260408120805482918291859081106121db57fe5b600091825260208083206007909202909101546001600160a01b038881168452600d909252604090922080549190921692508590811061221757fe5b60009182526020808320600160079093020191909101546001600160a01b039093168252600f815260408083209383529290522054949350505050565b6001600160a01b0382166000908152600d602052604081208054829182918590811061227c57fe5b600091825260208083206007909202909101546001600160a01b038881168452600d90925260409092208054919092169250859081106122b857fe5b6000918252602080832060016007909302018201546001600160a01b039094168352600f815260408084209484529390529190200154949350505050565b600b55565b600c55565b600755565b600955565b600a55565b600455565b600555565b600655565b600355565b600855565b60008282111561233757600080fd5b5090039056fea165627a7a7230582016272a0bca0335559738e63f6d098c16b9c48404a2a61e2e347a79820b582ccc0029",
  "source": "/* Copyright (C) 2017 NexusMutual.io\n\n  This program is free software: you can redistribute it and/or modify\n    it under the terms of the GNU General Public License as published by\n    the Free Software Foundation, either version 3 of the License, or\n    (at your option) any later version.\n\n  This program is distributed in the hope that it will be useful,\n    but WITHOUT ANY WARRANTY; without even the implied warranty of\n    MERCHANTABILITY or FITNESS FOR A PARTICULAR PURPOSE.  See the\n    GNU General Public License for more details.\n\n  You should have received a copy of the GNU General Public License\n    along with this program.  If not, see http://www.gnu.org/licenses/ */\n    \npragma solidity 0.5.7;\n\nimport \"./Iupgradable.sol\";\nimport \"./external/openzeppelin-solidity/math/SafeMath.sol\";\n\n\ncontract TokenData is Iupgradable {\n    using SafeMath for uint;\n\n    address payable public walletAddress;\n    uint public lockTokenTimeAfterCoverExp;\n    uint public bookTime;\n    uint public lockCADays;\n    uint public lockMVDays;\n    uint public scValidDays;\n    uint public joiningFee;\n    uint public stakerCommissionPer;\n    uint public stakerMaxCommissionPer;\n    uint public tokenExponent;\n    uint public priceStep;\n\n    struct StakeCommission {\n        uint commissionEarned;\n        uint commissionRedeemed;\n    }\n\n    struct Stake {\n        address stakedContractAddress;\n        uint stakedContractIndex;\n        uint dateAdd;\n        uint stakeAmount;\n        uint unlockedAmount;\n        uint burnedAmount;\n        uint unLockableBeforeLastBurn;\n    }\n\n    struct Staker {\n        address stakerAddress;\n        uint stakerIndex;\n    }\n\n    struct CoverNote {\n        uint amount;\n        bool isDeposited;\n    }\n\n    /**\n     * @dev mapping of uw address to array of sc address to fetch \n     * all staked contract address of underwriter, pushing\n     * data into this array of Stake returns stakerIndex \n     */ \n    mapping(address => Stake[]) public stakerStakedContracts; \n\n    /** \n     * @dev mapping of sc address to array of UW address to fetch\n     * all underwritters of the staked smart contract\n     * pushing data into this mapped array returns scIndex \n     */\n    mapping(address => Staker[]) public stakedContractStakers;\n\n    /**\n     * @dev mapping of staked contract Address to the array of StakeCommission\n     * here index of this array is stakedContractIndex\n     */ \n    mapping(address => mapping(uint => StakeCommission)) public stakedContractStakeCommission;\n\n    mapping(address => uint) public lastCompletedStakeCommission;\n\n    /** \n     * @dev mapping of the staked contract address to the current \n     * staker index who will receive commission.\n     */ \n    mapping(address => uint) public stakedContractCurrentCommissionIndex;\n\n    /** \n     * @dev mapping of the staked contract address to the \n     * current staker index to burn token from.\n     */ \n    mapping(address => uint) public stakedContractCurrentBurnIndex;\n\n    /** \n     * @dev mapping to return true if Cover Note deposited against coverId\n     */ \n    mapping(uint => CoverNote) public depositedCN;\n\n    mapping(address => uint) internal isBookedTokens;\n\n    event Commission(\n        address indexed stakedContractAddress,\n        address indexed stakerAddress,\n        uint indexed scIndex,\n        uint commissionAmount\n    );\n\n    constructor(address payable _walletAdd) public {\n        walletAddress = _walletAdd;\n        bookTime = 12 hours;\n        joiningFee = 2000000000000000; // 0.002 Ether\n        lockTokenTimeAfterCoverExp = 35 days;\n        scValidDays = 250;\n        lockCADays = 7 days;\n        lockMVDays = 2 days;\n        stakerCommissionPer = 20;\n        stakerMaxCommissionPer = 50;\n        tokenExponent = 4;\n        priceStep = 1000;\n\n    }\n\n    /**\n     * @dev Change the wallet address which receive Joining Fee\n     */\n    function changeWalletAddress(address payable _address) external onlyInternal {\n        walletAddress = _address;\n    }\n\n    /**\n     * @dev Gets Uint Parameters of a code\n     * @param code whose details we want\n     * @return string value of the code\n     * @return associated amount (time or perc or value) to the code\n     */\n    function getUintParameters(bytes8 code) external view returns(bytes8 codeVal, uint val) {\n        codeVal = code;\n        if (code == \"TOKEXP\") {\n\n            val = tokenExponent; \n\n        } else if (code == \"TOKSTEP\") {\n\n            val = priceStep;\n\n        } else if (code == \"RALOCKT\") {\n\n            val = scValidDays;\n\n        } else if (code == \"RACOMM\") {\n\n            val = stakerCommissionPer;\n\n        } else if (code == \"RAMAXC\") {\n\n            val = stakerMaxCommissionPer;\n\n        } else if (code == \"CABOOKT\") {\n\n            val = bookTime / (1 hours);\n\n        } else if (code == \"CALOCKT\") {\n\n            val = lockCADays / (1 days);\n\n        } else if (code == \"MVLOCKT\") {\n\n            val = lockMVDays / (1 days);\n\n        } else if (code == \"QUOLOCKT\") {\n\n            val = lockTokenTimeAfterCoverExp / (1 days);\n\n        } else if (code == \"JOINFEE\") {\n\n            val = joiningFee;\n\n        } \n    }\n\n    /**\n    * @dev Just for interface\n    */\n    function changeDependentContractAddress() public { //solhint-disable-line\n    }\n    \n    /**\n     * @dev to get the contract staked by a staker \n     * @param _stakerAddress is the address of the staker\n     * @param _stakerIndex is the index of staker\n     * @return the address of staked contract\n     */\n    function getStakerStakedContractByIndex(\n        address _stakerAddress,\n        uint _stakerIndex\n    ) \n        public\n        view\n        returns (address stakedContractAddress) \n    {\n        stakedContractAddress = stakerStakedContracts[\n            _stakerAddress][_stakerIndex].stakedContractAddress;\n    }\n\n    /**\n     * @dev to get the staker's staked burned \n     * @param _stakerAddress is the address of the staker\n     * @param _stakerIndex is the index of staker\n     * @return amount burned\n     */\n    function getStakerStakedBurnedByIndex(\n        address _stakerAddress,\n        uint _stakerIndex\n    ) \n        public\n        view\n        returns (uint burnedAmount) \n    {\n        burnedAmount = stakerStakedContracts[\n            _stakerAddress][_stakerIndex].burnedAmount;\n    }\n\n    /**\n     * @dev to get the staker's staked unlockable before the last burn \n     * @param _stakerAddress is the address of the staker\n     * @param _stakerIndex is the index of staker\n     * @return unlockable staked tokens\n     */\n    function getStakerStakedUnlockableBeforeLastBurnByIndex(\n        address _stakerAddress,\n        uint _stakerIndex\n    ) \n        public\n        view\n        returns (uint unlockable) \n    {\n        unlockable = stakerStakedContracts[\n            _stakerAddress][_stakerIndex].unLockableBeforeLastBurn;\n    }\n\n    /**\n     * @dev to get the staker's staked contract index \n     * @param _stakerAddress is the address of the staker\n     * @param _stakerIndex is the index of staker\n     * @return is the index of the smart contract address\n     */\n    function getStakerStakedContractIndex(\n        address _stakerAddress,\n        uint _stakerIndex\n    ) \n        public\n        view\n        returns (uint scIndex) \n    {\n        scIndex = stakerStakedContracts[\n            _stakerAddress][_stakerIndex].stakedContractIndex;\n    }\n\n    /**\n     * @dev to get the staker index of the staked contract\n     * @param _stakedContractAddress is the address of the staked contract\n     * @param _stakedContractIndex is the index of staked contract\n     * @return is the index of the staker\n     */\n    function getStakedContractStakerIndex(\n        address _stakedContractAddress,\n        uint _stakedContractIndex\n    ) \n        public\n        view\n        returns (uint sIndex) \n    {\n        sIndex = stakedContractStakers[\n            _stakedContractAddress][_stakedContractIndex].stakerIndex;\n    }\n\n    /**\n     * @dev to get the staker's initial staked amount on the contract \n     * @param _stakerAddress is the address of the staker\n     * @param _stakerIndex is the index of staker\n     * @return staked amount\n     */\n    function getStakerInitialStakedAmountOnContract(\n        address _stakerAddress,\n        uint _stakerIndex\n    )\n        public \n        view\n        returns (uint amount)\n    {\n        amount = stakerStakedContracts[\n            _stakerAddress][_stakerIndex].stakeAmount;\n    }\n\n    /**\n     * @dev to get the staker's staked contract length \n     * @param _stakerAddress is the address of the staker\n     * @return length of staked contract\n     */\n    function getStakerStakedContractLength(\n        address _stakerAddress\n    ) \n        public\n        view\n        returns (uint length)\n    {\n        length = stakerStakedContracts[_stakerAddress].length;\n    }\n\n    /**\n     * @dev to get the staker's unlocked tokens which were staked \n     * @param _stakerAddress is the address of the staker\n     * @param _stakerIndex is the index of staker\n     * @return amount\n     */\n    function getStakerUnlockedStakedTokens(\n        address _stakerAddress,\n        uint _stakerIndex\n    )\n        public \n        view\n        returns (uint amount)\n    {\n        amount = stakerStakedContracts[\n            _stakerAddress][_stakerIndex].unlockedAmount;\n    }\n\n    /**\n     * @dev pushes the unlocked staked tokens by a staker.\n     * @param _stakerAddress address of staker.\n     * @param _stakerIndex index of the staker to distribute commission.\n     * @param _amount amount to be given as commission.\n     */ \n    function pushUnlockedStakedTokens(\n        address _stakerAddress,\n        uint _stakerIndex,\n        uint _amount\n    )   \n        public\n        onlyInternal\n    {   \n        stakerStakedContracts[_stakerAddress][\n            _stakerIndex].unlockedAmount = stakerStakedContracts[_stakerAddress][\n                _stakerIndex].unlockedAmount.add(_amount);\n    }\n\n    /**\n     * @dev pushes the Burned tokens for a staker.\n     * @param _stakerAddress address of staker.\n     * @param _stakerIndex index of the staker.\n     * @param _amount amount to be burned.\n     */ \n    function pushBurnedTokens(\n        address _stakerAddress,\n        uint _stakerIndex,\n        uint _amount\n    )   \n        public\n        onlyInternal\n    {   \n        stakerStakedContracts[_stakerAddress][\n            _stakerIndex].burnedAmount = stakerStakedContracts[_stakerAddress][\n                _stakerIndex].burnedAmount.add(_amount);\n    }\n\n    /**\n     * @dev pushes the unLockable tokens for a staker before last burn.\n     * @param _stakerAddress address of staker.\n     * @param _stakerIndex index of the staker.\n     * @param _amount amount to be added to unlockable.\n     */ \n    function pushUnlockableBeforeLastBurnTokens(\n        address _stakerAddress,\n        uint _stakerIndex,\n        uint _amount\n    )   \n        public\n        onlyInternal\n    {   \n        stakerStakedContracts[_stakerAddress][\n            _stakerIndex].unLockableBeforeLastBurn = stakerStakedContracts[_stakerAddress][\n                _stakerIndex].unLockableBeforeLastBurn.add(_amount);\n    }\n\n    /**\n     * @dev sets the unLockable tokens for a staker before last burn.\n     * @param _stakerAddress address of staker.\n     * @param _stakerIndex index of the staker.\n     * @param _amount amount to be added to unlockable.\n     */ \n    function setUnlockableBeforeLastBurnTokens(\n        address _stakerAddress,\n        uint _stakerIndex,\n        uint _amount\n    )   \n        public\n        onlyInternal\n    {   \n        stakerStakedContracts[_stakerAddress][\n            _stakerIndex].unLockableBeforeLastBurn = _amount;\n    }\n\n    /**\n     * @dev pushes the earned commission earned by a staker.\n     * @param _stakerAddress address of staker.\n     * @param _stakedContractAddress address of smart contract.\n     * @param _stakedContractIndex index of the staker to distribute commission.\n     * @param _commissionAmount amount to be given as commission.\n     */ \n    function pushEarnedStakeCommissions(\n        address _stakerAddress,\n        address _stakedContractAddress,\n        uint _stakedContractIndex,\n        uint _commissionAmount\n    )   \n        public\n        onlyInternal\n    {\n        stakedContractStakeCommission[_stakedContractAddress][_stakedContractIndex].\n            commissionEarned = stakedContractStakeCommission[_stakedContractAddress][\n                _stakedContractIndex].commissionEarned.add(_commissionAmount);\n                \n        emit Commission(\n            _stakerAddress,\n            _stakedContractAddress,\n            _stakedContractIndex,\n            _commissionAmount\n        );\n    }\n\n    /**\n     * @dev pushes the redeemed commission redeemed by a staker.\n     * @param _stakerAddress address of staker.\n     * @param _stakerIndex index of the staker to distribute commission.\n     * @param _amount amount to be given as commission.\n     */ \n    function pushRedeemedStakeCommissions(\n        address _stakerAddress,\n        uint _stakerIndex,\n        uint _amount\n    )   \n        public\n        onlyInternal\n    {   \n        uint stakedContractIndex = stakerStakedContracts[\n            _stakerAddress][_stakerIndex].stakedContractIndex;\n        address stakedContractAddress = stakerStakedContracts[\n            _stakerAddress][_stakerIndex].stakedContractAddress;\n        stakedContractStakeCommission[stakedContractAddress][stakedContractIndex].\n            commissionRedeemed = stakedContractStakeCommission[\n                stakedContractAddress][stakedContractIndex].commissionRedeemed.add(_amount);\n    }\n\n    /**\n     * @dev Gets stake commission given to an underwriter\n     * for particular stakedcontract on given index.\n     * @param _stakerAddress address of staker.\n     * @param _stakerIndex index of the staker commission.\n     */ \n    function getStakerEarnedStakeCommission(\n        address _stakerAddress,\n        uint _stakerIndex\n    )\n        public \n        view\n        returns (uint) \n    {\n        return _getStakerEarnedStakeCommission(_stakerAddress, _stakerIndex);\n    }\n\n    /**\n     * @dev Gets stake commission redeemed by an underwriter\n     * for particular staked contract on given index.\n     * @param _stakerAddress address of staker.\n     * @param _stakerIndex index of the staker commission.\n     * @return commissionEarned total amount given to staker.\n     */ \n    function getStakerRedeemedStakeCommission(\n        address _stakerAddress,\n        uint _stakerIndex\n    )\n        public \n        view\n        returns (uint) \n    {\n        return _getStakerRedeemedStakeCommission(_stakerAddress, _stakerIndex);\n    }\n\n    /**\n     * @dev Gets total stake commission given to an underwriter\n     * @param _stakerAddress address of staker.\n     * @return totalCommissionEarned total commission earned by staker.\n     */ \n    function getStakerTotalEarnedStakeCommission(\n        address _stakerAddress\n    )\n        public \n        view\n        returns (uint totalCommissionEarned) \n    {\n        totalCommissionEarned = 0;\n        for (uint i = 0; i < stakerStakedContracts[_stakerAddress].length; i++) {\n            totalCommissionEarned = totalCommissionEarned.\n                add(_getStakerEarnedStakeCommission(_stakerAddress, i));\n        }\n    }\n\n    /**\n     * @dev Gets total stake commission given to an underwriter\n     * @param _stakerAddress address of staker.\n     * @return totalCommissionEarned total commission earned by staker.\n     */ \n    function getStakerTotalReedmedStakeCommission(\n        address _stakerAddress\n    )\n        public \n        view\n        returns(uint totalCommissionRedeemed) \n    {\n        totalCommissionRedeemed = 0;\n        for (uint i = 0; i < stakerStakedContracts[_stakerAddress].length; i++) {\n            totalCommissionRedeemed = totalCommissionRedeemed.add(\n                _getStakerRedeemedStakeCommission(_stakerAddress, i));\n        }\n    }\n\n    /**\n     * @dev set flag to deposit/ undeposit cover note \n     * against a cover Id\n     * @param coverId coverId of Cover\n     * @param flag true/false for deposit/undeposit\n     */\n    function setDepositCN(uint coverId, bool flag) public onlyInternal {\n\n        if (flag == true) {\n            require(!depositedCN[coverId].isDeposited, \"Cover note already deposited\");    \n        }\n\n        depositedCN[coverId].isDeposited = flag;\n    }\n\n    /**\n     * @dev set locked cover note amount\n     * against a cover Id\n     * @param coverId coverId of Cover\n     * @param amount amount of nxm to be locked\n     */\n    function setDepositCNAmount(uint coverId, uint amount) public onlyInternal {\n\n        depositedCN[coverId].amount = amount;\n    }\n\n    /**\n     * @dev to get the staker address on a staked contract \n     * @param _stakedContractAddress is the address of the staked contract in concern\n     * @param _stakedContractIndex is the index of staked contract's index\n     * @return address of staker\n     */\n    function getStakedContractStakerByIndex(\n        address _stakedContractAddress,\n        uint _stakedContractIndex\n    )\n        public\n        view\n        returns (address stakerAddress)\n    {\n        stakerAddress = stakedContractStakers[\n            _stakedContractAddress][_stakedContractIndex].stakerAddress;\n    }\n\n    /**\n     * @dev to get the length of stakers on a staked contract \n     * @param _stakedContractAddress is the address of the staked contract in concern\n     * @return length in concern\n     */\n    function getStakedContractStakersLength(\n        address _stakedContractAddress\n    ) \n        public\n        view\n        returns (uint length)\n    {\n        length = stakedContractStakers[_stakedContractAddress].length;\n    } \n    \n    /**\n     * @dev Adds a new stake record.\n     * @param _stakerAddress staker address.\n     * @param _stakedContractAddress smart contract address.\n     * @param _amount amountof NXM to be staked.\n     */\n    function addStake(\n        address _stakerAddress,\n        address _stakedContractAddress,\n        uint _amount\n    ) \n        public\n        onlyInternal\n        returns(uint scIndex) \n    {\n        scIndex = (stakedContractStakers[_stakedContractAddress].push(\n            Staker(_stakerAddress, stakerStakedContracts[_stakerAddress].length))).sub(1);\n        stakerStakedContracts[_stakerAddress].push(\n            Stake(_stakedContractAddress, scIndex, now, _amount, 0, 0, 0));\n    }\n\n    /**\n     * @dev books the user's tokens for maintaining Assessor Velocity, \n     * i.e. once a token is used to cast a vote as a Claims assessor,\n     * @param _of user's address.\n     */\n    function bookCATokens(address _of) public onlyInternal {\n        require(!isCATokensBooked(_of), \"Tokens already booked\");\n        isBookedTokens[_of] = now.add(bookTime);\n    }\n\n    /**\n     * @dev to know if claim assessor's tokens are booked or not \n     * @param _of is the claim assessor's address in concern\n     * @return boolean representing the status of tokens booked\n     */\n    function isCATokensBooked(address _of) public view returns(bool res) {\n        if (now < isBookedTokens[_of])\n            res = true;\n    }\n\n    /**\n     * @dev Sets the index which will receive commission.\n     * @param _stakedContractAddress smart contract address.\n     * @param _index current index.\n     */\n    function setStakedContractCurrentCommissionIndex(\n        address _stakedContractAddress,\n        uint _index\n    )\n        public\n        onlyInternal\n    {\n        stakedContractCurrentCommissionIndex[_stakedContractAddress] = _index;\n    }\n\n    /**\n     * @dev Sets the last complete commission index\n     * @param _stakerAddress smart contract address.\n     * @param _index current index.\n     */\n    function setLastCompletedStakeCommissionIndex(\n        address _stakerAddress,\n        uint _index\n    )\n        public\n        onlyInternal\n    {\n        lastCompletedStakeCommission[_stakerAddress] = _index;\n    }\n\n    /**\n     * @dev Sets the index till which commission is distrubuted.\n     * @param _stakedContractAddress smart contract address.\n     * @param _index current index.\n     */\n    function setStakedContractCurrentBurnIndex(\n        address _stakedContractAddress,\n        uint _index\n    )\n        public\n        onlyInternal\n    {\n        stakedContractCurrentBurnIndex[_stakedContractAddress] = _index;\n    }\n\n    /**\n     * @dev Updates Uint Parameters of a code\n     * @param code whose details we want to update\n     * @param val value to set\n     */\n    function updateUintParameters(bytes8 code, uint val) public {\n        require(ms.checkIsAuthToGoverned(msg.sender));\n        if (code == \"TOKEXP\") {\n\n            _setTokenExponent(val); \n\n        } else if (code == \"TOKSTEP\") {\n\n            _setPriceStep(val);\n\n        } else if (code == \"RALOCKT\") {\n\n            _changeSCValidDays(val);\n\n        } else if (code == \"RACOMM\") {\n\n            _setStakerCommissionPer(val);\n\n        } else if (code == \"RAMAXC\") {\n\n            _setStakerMaxCommissionPer(val);\n\n        } else if (code == \"CABOOKT\") {\n\n            _changeBookTime(val * 1 hours);\n\n        } else if (code == \"CALOCKT\") {\n\n            _changelockCADays(val * 1 days);\n\n        } else if (code == \"MVLOCKT\") {\n\n            _changelockMVDays(val * 1 days);\n\n        } else if (code == \"QUOLOCKT\") {\n\n            _setLockTokenTimeAfterCoverExp(val * 1 days);\n\n        } else if (code == \"JOINFEE\") {\n\n            _setJoiningFee(val);\n\n        } else {\n            revert(\"Invalid param code\");\n        } \n    }\n\n    /**\n     * @dev Internal function to get stake commission given to an \n     * underwriter for particular stakedcontract on given index.\n     * @param _stakerAddress address of staker.\n     * @param _stakerIndex index of the staker commission.\n     */ \n    function _getStakerEarnedStakeCommission(\n        address _stakerAddress,\n        uint _stakerIndex\n    )\n        internal\n        view \n        returns (uint amount) \n    {\n        uint _stakedContractIndex;\n        address _stakedContractAddress;\n        _stakedContractAddress = stakerStakedContracts[\n            _stakerAddress][_stakerIndex].stakedContractAddress;\n        _stakedContractIndex = stakerStakedContracts[\n            _stakerAddress][_stakerIndex].stakedContractIndex;\n        amount = stakedContractStakeCommission[\n            _stakedContractAddress][_stakedContractIndex].commissionEarned;\n    }\n\n    /**\n     * @dev Internal function to get stake commission redeemed by an \n     * underwriter for particular stakedcontract on given index.\n     * @param _stakerAddress address of staker.\n     * @param _stakerIndex index of the staker commission.\n     */ \n    function _getStakerRedeemedStakeCommission(\n        address _stakerAddress,\n        uint _stakerIndex\n    )\n        internal\n        view \n        returns (uint amount) \n    {\n        uint _stakedContractIndex;\n        address _stakedContractAddress;\n        _stakedContractAddress = stakerStakedContracts[\n            _stakerAddress][_stakerIndex].stakedContractAddress;\n        _stakedContractIndex = stakerStakedContracts[\n            _stakerAddress][_stakerIndex].stakedContractIndex;\n        amount = stakedContractStakeCommission[\n            _stakedContractAddress][_stakedContractIndex].commissionRedeemed;\n    }\n\n    /**\n     * @dev to set the percentage of staker commission \n     * @param _val is new percentage value\n     */\n    function _setStakerCommissionPer(uint _val) internal {\n        stakerCommissionPer = _val;\n    }\n\n    /**\n     * @dev to set the max percentage of staker commission \n     * @param _val is new percentage value\n     */\n    function _setStakerMaxCommissionPer(uint _val) internal {\n        stakerMaxCommissionPer = _val;\n    }\n\n    /**\n     * @dev to set the token exponent value \n     * @param _val is new value\n     */\n    function _setTokenExponent(uint _val) internal {\n        tokenExponent = _val;\n    }\n\n    /**\n     * @dev to set the price step \n     * @param _val is new value\n     */\n    function _setPriceStep(uint _val) internal {\n        priceStep = _val;\n    }\n\n    /**\n     * @dev Changes number of days for which NXM needs to staked in case of underwriting\n     */ \n    function _changeSCValidDays(uint _days) internal {\n        scValidDays = _days;\n    }\n\n    /**\n     * @dev Changes the time period up to which tokens will be locked.\n     *      Used to generate the validity period of tokens booked by\n     *      a user for participating in claim's assessment/claim's voting.\n     */ \n    function _changeBookTime(uint _time) internal {\n        bookTime = _time;\n    }\n\n    /**\n     * @dev Changes lock CA days - number of days for which tokens \n     * are locked while submitting a vote.\n     */ \n    function _changelockCADays(uint _val) internal {\n        lockCADays = _val;\n    }\n    \n    /**\n     * @dev Changes lock MV days - number of days for which tokens are locked\n     * while submitting a vote.\n     */ \n    function _changelockMVDays(uint _val) internal {\n        lockMVDays = _val;\n    }\n\n    /**\n     * @dev Changes extra lock period for a cover, post its expiry.\n     */ \n    function _setLockTokenTimeAfterCoverExp(uint time) internal {\n        lockTokenTimeAfterCoverExp = time;\n    }\n\n    /**\n     * @dev Set the joining fee for membership\n     */\n    function _setJoiningFee(uint _amount) internal {\n        joiningFee = _amount;\n    }\n}",
  "sourcePath": "/Users/oker/Downloads/smart-contracts-master3/contracts/TokenData.sol",
  "compiler": {
    "name": "solc",
    "version": "0.5.7+commit.6da8b019.Emscripten.clang"
  },
  "schemaVersion": "3.2.3",
  "updatedAt": "2021-01-04T08:17:04.690Z",
  "devdoc": {
    "methods": {
      "addStake(address,address,uint256)": {
        "details": "Adds a new stake record.",
        "params": {
          "_amount": "amountof NXM to be staked.",
          "_stakedContractAddress": "smart contract address.",
          "_stakerAddress": "staker address."
        }
      },
      "bookCATokens(address)": {
        "details": "books the user's tokens for maintaining Assessor Velocity,  i.e. once a token is used to cast a vote as a Claims assessor,",
        "params": {
          "_of": "user's address."
        }
      },
      "changeDependentContractAddress()": {
        "details": "Just for interface"
      },
      "changeMasterAddress(address)": {
        "details": "change master address",
        "params": {
          "_masterAddress": "is the new address"
        }
      },
      "changeWalletAddress(address)": {
        "details": "Change the wallet address which receive Joining Fee"
      },
      "getStakedContractStakerByIndex(address,uint256)": {
        "details": "to get the staker address on a staked contract ",
        "params": {
          "_stakedContractAddress": "is the address of the staked contract in concern",
          "_stakedContractIndex": "is the index of staked contract's index"
        },
        "return": "address of staker"
      },
      "getStakedContractStakerIndex(address,uint256)": {
        "details": "to get the staker index of the staked contract",
        "params": {
          "_stakedContractAddress": "is the address of the staked contract",
          "_stakedContractIndex": "is the index of staked contract"
        },
        "return": "is the index of the staker"
      },
      "getStakedContractStakersLength(address)": {
        "details": "to get the length of stakers on a staked contract ",
        "params": {
          "_stakedContractAddress": "is the address of the staked contract in concern"
        },
        "return": "length in concern"
      },
      "getStakerEarnedStakeCommission(address,uint256)": {
        "details": "Gets stake commission given to an underwriter for particular stakedcontract on given index.",
        "params": {
          "_stakerAddress": "address of staker.",
          "_stakerIndex": "index of the staker commission."
        }
      },
      "getStakerInitialStakedAmountOnContract(address,uint256)": {
        "details": "to get the staker's initial staked amount on the contract ",
        "params": {
          "_stakerAddress": "is the address of the staker",
          "_stakerIndex": "is the index of staker"
        },
        "return": "staked amount"
      },
      "getStakerRedeemedStakeCommission(address,uint256)": {
        "details": "Gets stake commission redeemed by an underwriter for particular staked contract on given index.",
        "params": {
          "_stakerAddress": "address of staker.",
          "_stakerIndex": "index of the staker commission."
        },
        "return": "commissionEarned total amount given to staker."
      },
      "getStakerStakedBurnedByIndex(address,uint256)": {
        "details": "to get the staker's staked burned ",
        "params": {
          "_stakerAddress": "is the address of the staker",
          "_stakerIndex": "is the index of staker"
        },
        "return": "amount burned"
      },
      "getStakerStakedContractByIndex(address,uint256)": {
        "details": "to get the contract staked by a staker ",
        "params": {
          "_stakerAddress": "is the address of the staker",
          "_stakerIndex": "is the index of staker"
        },
        "return": "the address of staked contract"
      },
      "getStakerStakedContractIndex(address,uint256)": {
        "details": "to get the staker's staked contract index ",
        "params": {
          "_stakerAddress": "is the address of the staker",
          "_stakerIndex": "is the index of staker"
        },
        "return": "is the index of the smart contract address"
      },
      "getStakerStakedContractLength(address)": {
        "details": "to get the staker's staked contract length ",
        "params": {
          "_stakerAddress": "is the address of the staker"
        },
        "return": "length of staked contract"
      },
      "getStakerStakedUnlockableBeforeLastBurnByIndex(address,uint256)": {
        "details": "to get the staker's staked unlockable before the last burn ",
        "params": {
          "_stakerAddress": "is the address of the staker",
          "_stakerIndex": "is the index of staker"
        },
        "return": "unlockable staked tokens"
      },
      "getStakerTotalEarnedStakeCommission(address)": {
        "details": "Gets total stake commission given to an underwriter",
        "params": {
          "_stakerAddress": "address of staker."
        },
        "return": "totalCommissionEarned total commission earned by staker."
      },
      "getStakerTotalReedmedStakeCommission(address)": {
        "details": "Gets total stake commission given to an underwriter",
        "params": {
          "_stakerAddress": "address of staker."
        },
        "return": "totalCommissionEarned total commission earned by staker."
      },
      "getStakerUnlockedStakedTokens(address,uint256)": {
        "details": "to get the staker's unlocked tokens which were staked ",
        "params": {
          "_stakerAddress": "is the address of the staker",
          "_stakerIndex": "is the index of staker"
        },
        "return": "amount"
      },
      "getUintParameters(bytes8)": {
        "details": "Gets Uint Parameters of a code",
        "params": {
          "code": "whose details we want"
        },
        "return": "string value of the codeassociated amount (time or perc or value) to the code"
      },
      "isCATokensBooked(address)": {
        "details": "to know if claim assessor's tokens are booked or not ",
        "params": {
          "_of": "is the claim assessor's address in concern"
        },
        "return": "boolean representing the status of tokens booked"
      },
      "pushBurnedTokens(address,uint256,uint256)": {
        "details": "pushes the Burned tokens for a staker.",
        "params": {
          "_amount": "amount to be burned.",
          "_stakerAddress": "address of staker.",
          "_stakerIndex": "index of the staker."
        }
      },
      "pushEarnedStakeCommissions(address,address,uint256,uint256)": {
        "details": "pushes the earned commission earned by a staker.",
        "params": {
          "_commissionAmount": "amount to be given as commission.",
          "_stakedContractAddress": "address of smart contract.",
          "_stakedContractIndex": "index of the staker to distribute commission.",
          "_stakerAddress": "address of staker."
        }
      },
      "pushRedeemedStakeCommissions(address,uint256,uint256)": {
        "details": "pushes the redeemed commission redeemed by a staker.",
        "params": {
          "_amount": "amount to be given as commission.",
          "_stakerAddress": "address of staker.",
          "_stakerIndex": "index of the staker to distribute commission."
        }
      },
      "pushUnlockableBeforeLastBurnTokens(address,uint256,uint256)": {
        "details": "pushes the unLockable tokens for a staker before last burn.",
        "params": {
          "_amount": "amount to be added to unlockable.",
          "_stakerAddress": "address of staker.",
          "_stakerIndex": "index of the staker."
        }
      },
      "pushUnlockedStakedTokens(address,uint256,uint256)": {
        "details": "pushes the unlocked staked tokens by a staker.",
        "params": {
          "_amount": "amount to be given as commission.",
          "_stakerAddress": "address of staker.",
          "_stakerIndex": "index of the staker to distribute commission."
        }
      },
      "setDepositCN(uint256,bool)": {
        "details": "set flag to deposit/ undeposit cover note  against a cover Id",
        "params": {
          "coverId": "coverId of Cover",
          "flag": "true/false for deposit/undeposit"
        }
      },
      "setDepositCNAmount(uint256,uint256)": {
        "details": "set locked cover note amount against a cover Id",
        "params": {
          "amount": "amount of nxm to be locked",
          "coverId": "coverId of Cover"
        }
      },
      "setLastCompletedStakeCommissionIndex(address,uint256)": {
        "details": "Sets the last complete commission index",
        "params": {
          "_index": "current index.",
          "_stakerAddress": "smart contract address."
        }
      },
      "setStakedContractCurrentBurnIndex(address,uint256)": {
        "details": "Sets the index till which commission is distrubuted.",
        "params": {
          "_index": "current index.",
          "_stakedContractAddress": "smart contract address."
        }
      },
      "setStakedContractCurrentCommissionIndex(address,uint256)": {
        "details": "Sets the index which will receive commission.",
        "params": {
          "_index": "current index.",
          "_stakedContractAddress": "smart contract address."
        }
      },
      "setUnlockableBeforeLastBurnTokens(address,uint256,uint256)": {
        "details": "sets the unLockable tokens for a staker before last burn.",
        "params": {
          "_amount": "amount to be added to unlockable.",
          "_stakerAddress": "address of staker.",
          "_stakerIndex": "index of the staker."
        }
      },
      "updateUintParameters(bytes8,uint256)": {
        "details": "Updates Uint Parameters of a code",
        "params": {
          "code": "whose details we want to update",
          "val": "value to set"
        }
      }
    }
  },
  "userdoc": {
    "methods": {}
  }
}