{
  "contractName": "TokenFunctions",
  "abi": [
    {
      "constant": true,
      "inputs": [],
      "name": "tk",
      "outputs": [
        {
          "name": "",
          "type": "address"
        }
      ],
      "payable": false,
      "stateMutability": "view",
      "type": "function"
    },
    {
      "constant": true,
      "inputs": [],
      "name": "ms",
      "outputs": [
        {
          "name": "",
          "type": "address"
        }
      ],
      "payable": false,
      "stateMutability": "view",
      "type": "function"
    },
    {
      "constant": false,
      "inputs": [
        {
          "name": "_masterAddress",
          "type": "address"
        }
      ],
      "name": "changeMasterAddress",
      "outputs": [],
      "payable": false,
      "stateMutability": "nonpayable",
      "type": "function"
    },
    {
      "constant": true,
      "inputs": [],
      "name": "nxMasterAddress",
      "outputs": [
        {
          "name": "",
          "type": "address"
        }
      ],
      "payable": false,
      "stateMutability": "view",
      "type": "function"
    },
    {
      "anonymous": false,
      "inputs": [
        {
          "indexed": false,
          "name": "claimId",
          "type": "uint256"
        },
        {
          "indexed": false,
          "name": "addr",
          "type": "address"
        },
        {
          "indexed": false,
          "name": "amount",
          "type": "uint256"
        }
      ],
      "name": "BurnCATokens",
      "type": "event"
    },
    {
      "constant": false,
      "inputs": [
        {
          "name": "_contractAddress",
          "type": "address"
        },
        {
          "name": "_coverPriceNXM",
          "type": "uint256"
        }
      ],
      "name": "pushStakerRewards",
      "outputs": [],
      "payable": false,
      "stateMutability": "nonpayable",
      "type": "function"
    },
    {
      "constant": false,
      "inputs": [
        {
          "name": "",
          "type": "uint256"
        },
        {
          "name": "",
          "type": "bytes4"
        },
        {
          "name": "",
          "type": "uint256"
        }
      ],
      "name": "burnStakerLockedToken",
      "outputs": [],
      "payable": false,
      "stateMutability": "nonpayable",
      "type": "function"
    },
    {
      "constant": false,
      "inputs": [
        {
          "name": "coverId",
          "type": "uint256"
        },
        {
          "name": "coverCurrency",
          "type": "bytes4"
        },
        {
          "name": "sumAssured",
          "type": "uint256"
        }
      ],
      "name": "burnStakedTokens",
      "outputs": [],
      "payable": false,
      "stateMutability": "nonpayable",
      "type": "function"
    },
    {
      "constant": true,
      "inputs": [
        {
          "name": "_stakedContractAddress",
          "type": "address"
        }
      ],
      "name": "deprecated_getTotalStakedTokensOnSmartContract",
      "outputs": [
        {
          "name": "",
          "type": "uint256"
        }
      ],
      "payable": false,
      "stateMutability": "view",
      "type": "function"
    },
    {
      "constant": true,
      "inputs": [
        {
          "name": "_of",
          "type": "address"
        },
        {
          "name": "_coverId",
          "type": "uint256"
        }
      ],
      "name": "getUserLockedCNTokens",
      "outputs": [
        {
          "name": "",
          "type": "uint256"
        }
      ],
      "payable": false,
      "stateMutability": "view",
      "type": "function"
    },
    {
      "constant": true,
      "inputs": [
        {
          "name": "_of",
          "type": "address"
        }
      ],
      "name": "getUserAllLockedCNTokens",
      "outputs": [
        {
          "name": "amount",
          "type": "uint256"
        }
      ],
      "payable": false,
      "stateMutability": "view",
      "type": "function"
    },
    {
      "constant": true,
      "inputs": [
        {
          "name": "_coverId",
          "type": "uint256"
        }
      ],
      "name": "getLockedCNAgainstCover",
      "outputs": [
        {
          "name": "",
          "type": "uint256"
        }
      ],
      "payable": false,
      "stateMutability": "view",
      "type": "function"
    },
    {
      "constant": true,
      "inputs": [
        {
          "name": "_stakerAddress",
          "type": "address"
        }
      ],
      "name": "deprecated_getStakerAllLockedTokens",
      "outputs": [
        {
          "name": "amount",
          "type": "uint256"
        }
      ],
      "payable": false,
      "stateMutability": "view",
      "type": "function"
    },
    {
      "constant": true,
      "inputs": [
        {
          "name": "_stakerAddress",
          "type": "address"
        }
      ],
      "name": "deprecated_getStakerAllUnlockableStakedTokens",
      "outputs": [
        {
          "name": "amount",
          "type": "uint256"
        }
      ],
      "payable": false,
      "stateMutability": "view",
      "type": "function"
    },
    {
      "constant": false,
      "inputs": [],
      "name": "changeDependentContractAddress",
      "outputs": [],
      "payable": false,
      "stateMutability": "nonpayable",
      "type": "function"
    },
    {
      "constant": true,
      "inputs": [
        {
          "name": "curr",
          "type": "bytes4"
        }
      ],
      "name": "getTokenPrice",
      "outputs": [
        {
          "name": "price",
          "type": "uint256"
        }
      ],
      "payable": false,
      "stateMutability": "view",
      "type": "function"
    },
    {
      "constant": false,
      "inputs": [
        {
          "name": "coverId",
          "type": "uint256"
        }
      ],
      "name": "depositCN",
      "outputs": [
        {
          "name": "success",
          "type": "bool"
        }
      ],
      "payable": false,
      "stateMutability": "nonpayable",
      "type": "function"
    },
    {
      "constant": false,
      "inputs": [
        {
          "name": "_of",
          "type": "address"
        },
        {
          "name": "_coverId",
          "type": "uint256"
        },
        {
          "name": "_lockTime",
          "type": "uint256"
        }
      ],
      "name": "extendCNEPOff",
      "outputs": [],
      "payable": false,
      "stateMutability": "nonpayable",
      "type": "function"
    },
    {
      "constant": false,
      "inputs": [
        {
          "name": "coverId",
          "type": "uint256"
        }
      ],
      "name": "burnDepositCN",
      "outputs": [
        {
          "name": "success",
          "type": "bool"
        }
      ],
      "payable": false,
      "stateMutability": "nonpayable",
      "type": "function"
    },
    {
      "constant": false,
      "inputs": [
        {
          "name": "coverId",
          "type": "uint256"
        }
      ],
      "name": "unlockCN",
      "outputs": [],
      "payable": false,
      "stateMutability": "nonpayable",
      "type": "function"
    },
    {
      "constant": false,
      "inputs": [
        {
          "name": "claimid",
          "type": "uint256"
        },
        {
          "name": "_value",
          "type": "uint256"
        },
        {
          "name": "_of",
          "type": "address"
        }
      ],
      "name": "burnCAToken",
      "outputs": [],
      "payable": false,
      "stateMutability": "nonpayable",
      "type": "function"
    },
    {
      "constant": false,
      "inputs": [
        {
          "name": "coverNoteAmount",
          "type": "uint256"
        },
        {
          "name": "coverPeriod",
          "type": "uint256"
        },
        {
          "name": "coverId",
          "type": "uint256"
        },
        {
          "name": "_of",
          "type": "address"
        }
      ],
      "name": "lockCN",
      "outputs": [],
      "payable": false,
      "stateMutability": "nonpayable",
      "type": "function"
    },
    {
      "constant": true,
      "inputs": [
        {
          "name": "_of",
          "type": "address"
        }
      ],
      "name": "isLockedForMemberVote",
      "outputs": [
        {
          "name": "",
          "type": "bool"
        }
      ],
      "payable": false,
      "stateMutability": "view",
      "type": "function"
    },
    {
      "constant": true,
      "inputs": [
        {
          "name": "_stakerAddress",
          "type": "address"
        },
        {
          "name": "_stakedContractAddress",
          "type": "address"
        },
        {
          "name": "_stakedContractIndex",
          "type": "uint256"
        }
      ],
      "name": "deprecated_getStakerLockedTokensOnSmartContract",
      "outputs": [
        {
          "name": "amount",
          "type": "uint256"
        }
      ],
      "payable": false,
      "stateMutability": "view",
      "type": "function"
    },
    {
      "constant": true,
      "inputs": [
        {
          "name": "stakerAddress",
          "type": "address"
        },
        {
          "name": "stakedContractAddress",
          "type": "address"
        },
        {
          "name": "stakerIndex",
          "type": "uint256"
        }
      ],
      "name": "deprecated_getStakerUnlockableTokensOnSmartContract",
      "outputs": [
        {
          "name": "",
          "type": "uint256"
        }
      ],
      "payable": false,
      "stateMutability": "view",
      "type": "function"
    },
    {
      "constant": false,
      "inputs": [
        {
          "name": "_stakerAddress",
          "type": "address"
        }
      ],
      "name": "deprecated_unlockStakerUnlockableTokens",
      "outputs": [],
      "payable": false,
      "stateMutability": "nonpayable",
      "type": "function"
    },
    {
      "constant": true,
      "inputs": [
        {
          "name": "stakerAdd",
          "type": "address"
        },
        {
          "name": "stakedAdd",
          "type": "address"
        },
        {
          "name": "stakerIndex",
          "type": "uint256"
        }
      ],
      "name": "_deprecated_unlockableBeforeBurningAndCanBurn",
      "outputs": [
        {
          "name": "amount",
          "type": "uint256"
        },
        {
          "name": "canBurn",
          "type": "uint256"
        }
      ],
      "payable": false,
      "stateMutability": "view",
      "type": "function"
    },
    {
      "constant": true,
      "inputs": [
        {
          "name": "_stakerAddress",
          "type": "address"
        },
        {
          "name": "_stakedContractAddress",
          "type": "address"
        },
        {
          "name": "_stakedContractIndex",
          "type": "uint256"
        }
      ],
      "name": "_deprecated_getStakerUnlockableTokensOnSmartContract",
      "outputs": [
        {
          "name": "amount",
          "type": "uint256"
        }
      ],
      "payable": false,
      "stateMutability": "view",
      "type": "function"
    }
  ],
  "bytecode": "0x608060405234801561001057600080fd5b50613184806100206000396000f3fe608060405234801561001057600080fd5b50600436106101a95760003560e01c80638df30fad116100f9578063d3e3c5f211610097578063f075be1f11610071578063f075be1f1461055c578063f17a3bec14610594578063f9acac081461059c578063fd5509b7146105cf576101a9565b8063d3e3c5f2146104b5578063d46655f414610504578063e8ed92141461052a576101a9565b8063ac5adaf6116100d3578063ac5adaf6146103fb578063b2a59c9214610421578063ba90320214610457578063ccace7df14610483576101a9565b80638df30fad146103a757806390c510cf146103cd578063a0b2d57f146103f3576101a9565b806354d20439116101665780636a4e9268116101405780636a4e92681461031b5780637dded30d1461034157806385f522041461035e578063899ec98f1461037b576101a9565b806354d2043914610299578063626ad88a146102bf57806364cc59d8146102e5576101a9565b80630ea9c984146101ae578063200537a4146101b857806321f408be146101e7578063448a0bb31461020b578063463c24a3146102415780634c14b3a814610268575b600080fd5b6101b6610602565b005b6101d5600480360360208110156101ce57600080fd5b5035610bd9565b60408051918252519081900360200190f35b6101ef610bea565b604080516001600160a01b039092168252519081900360200190f35b6101d56004803603606081101561022157600080fd5b506001600160a01b03813581169160208101359091169060400135610bf9565b6101d56004803603602081101561025757600080fd5b50356001600160e01b031916610de4565b6102856004803603602081101561027e57600080fd5b5035610e6e565b604080519115158252519081900360200190f35b6101d5600480360360208110156102af57600080fd5b50356001600160a01b0316610fc9565b6101d5600480360360208110156102d557600080fd5b50356001600160a01b031661116b565b6101d5600480360360608110156102fb57600080fd5b506001600160a01b0381358116916020810135909116906040013561132e565b6101d56004803603602081101561033157600080fd5b50356001600160a01b0316611343565b6102856004803603602081101561035757600080fd5b5035611503565b6101b66004803603602081101561037457600080fd5b503561176a565b6101b66004803603604081101561039157600080fd5b506001600160a01b0381351690602001356119fa565b6101d5600480360360208110156103bd57600080fd5b50356001600160a01b0316611b85565b6101b6600480360360208110156103e357600080fd5b50356001600160a01b0316611d52565b6101ef612139565b6102856004803603602081101561041157600080fd5b50356001600160a01b0316612148565b6101d56004803603606081101561043757600080fd5b506001600160a01b038135811691602081013590911690604001356121d2565b6101d56004803603604081101561046d57600080fd5b506001600160a01b03813516906020013561226c565b6101b66004803603606081101561049957600080fd5b50803590602081013590604001356001600160a01b0316612278565b6104eb600480360360608110156104cb57600080fd5b506001600160a01b038135811691602081013590911690604001356123c8565b6040805192835260208301919091528051918290030190f35b6101b66004803603602081101561051a57600080fd5b50356001600160a01b03166126b4565b6101b66004803603606081101561054057600080fd5b506001600160a01b038135169060208101359060400135612743565b6101b66004803603608081101561057257600080fd5b50803590602081013590604081013590606001356001600160a01b0316612937565b6101ef612b63565b6101b6600480360360608110156105b257600080fd5b508035906001600160e01b031960208201351690604001356119f5565b6101b6600480360360608110156105e557600080fd5b508035906001600160e01b03196020820135169060400135612b72565b6000809054906101000a90046001600160a01b03166001600160a01b0316639d76ea586040518163ffffffff1660e01b815260040160206040518083038186803b15801561064f57600080fd5b505afa158015610663573d6000803e3d6000fd5b505050506040513d602081101561067957600080fd5b5051600480546001600160a01b0319166001600160a01b0392831617815560005460408051600160e31b6227050b028152600160f21b611511029381019390935251921691630138285891602480820192602092909190829003018186803b1580156106e457600080fd5b505afa1580156106f8573d6000803e3d6000fd5b505050506040513d602081101561070e57600080fd5b5051600680546001600160a01b0319166001600160a01b0392831617905560005460408051600160e31b6227050b028152600160f01b615443026004820152905191909216916301382858916024808301926020929190829003018186803b15801561077957600080fd5b505afa15801561078d573d6000803e3d6000fd5b505050506040513d60208110156107a357600080fd5b5051600580546001600160a01b0319166001600160a01b0392831617905560005460408051600160e31b6227050b028152600160f11b6121a9026004820152905191909216916301382858916024808301926020929190829003018186803b15801561080e57600080fd5b505afa158015610822573d6000803e3d6000fd5b505050506040513d602081101561083857600080fd5b5051600880546001600160a01b0319166001600160a01b0392831617905560005460408051600160e31b6227050b028152600160f21b611451026004820152905191909216916301382858916024808301926020929190829003018186803b1580156108a357600080fd5b505afa1580156108b7573d6000803e3d6000fd5b505050506040513d60208110156108cd57600080fd5b5051600780546001600160a01b0319166001600160a01b0392831617905560005460408051600160e31b6227050b028152600160f01b614d43026004820152905191909216916301382858916024808301926020929190829003018186803b15801561093857600080fd5b505afa15801561094c573d6000803e3d6000fd5b505050506040513d602081101561096257600080fd5b5051600280546001600160a01b0319166001600160a01b0392831617905560005460408051600160e31b6227050b028152600160f11b6123ab026004820152905191909216916301382858916024808301926020929190829003018186803b1580156109cd57600080fd5b505afa1580156109e1573d6000803e3d6000fd5b505050506040513d60208110156109f757600080fd5b5051600980546001600160a01b0319166001600160a01b0392831617905560005460408051600160e31b6227050b028152600160f11b6126a9026004820152905191909216916301382858916024808301926020929190829003018186803b158015610a6257600080fd5b505afa158015610a76573d6000803e3d6000fd5b505050506040513d6020811015610a8c57600080fd5b5051600380546001600160a01b0319166001600160a01b0392831617905560005460408051600160e31b6227050b028152600160f21b611411026004820152905191909216916301382858916024808301926020929190829003018186803b158015610af757600080fd5b505afa158015610b0b573d6000803e3d6000fd5b505050506040513d6020811015610b2157600080fd5b5051600a80546001600160a01b0319166001600160a01b0392831617905560005460408051600160e31b6227050b028152600160f01b615053026004820152905191909216916301382858916024808301926020929190829003018186803b158015610b8c57600080fd5b505afa158015610ba0573d6000803e3d6000fd5b505050506040513d6020811015610bb657600080fd5b5051600b80546001600160a01b0319166001600160a01b03909216919091179055565b6000610be482612d92565b92915050565b6004546001600160a01b031681565b60065460408051600160e01b6324da7b690281526001600160a01b038581166004830152602482018590529151600093849384939116916324da7b6991604480820192602092909190829003018186803b158015610c5657600080fd5b505afa158015610c6a573d6000803e3d6000fd5b505050506040513d6020811015610c8057600080fd5b505160065460408051600160e21b63307b569d0281526001600160a01b038a81166004830152602482018590529151939450600093919092169163c1ed5a749160448083019260e0929190829003018186803b158015610cdf57600080fd5b505afa158015610cf3573d6000803e3d6000fd5b505050506040513d60e0811015610d0957600080fd5b50606081015160a090910151600654604080516001600160e21b62392ebf02031981526001600160a01b038c8116600483015260248201889052915194975092945060009391169163ff1b4504916044808301926020929190829003018186803b158015610d7657600080fd5b505afa158015610d8a573d6000803e3d6000fd5b505050506040513d6020811015610da057600080fd5b505190506000610db18989866123c8565b9150610dd7905083610dcb8481898663ffffffff612ee416565b9063ffffffff612ee416565b9998505050505050505050565b60025460408051600160e01b633cb23b2d0281526001600160e01b03198416600482015290516000926001600160a01b031691633cb23b2d916024808301926020929190829003018186803b158015610e3c57600080fd5b505afa158015610e50573d6000803e3d6000fd5b505050506040513d6020811015610e6657600080fd5b505192915050565b6000805460408051600160e21b6323c5b10702815233600482015290516001600160a01b0390921691638f16c41c91602480820192602092909190829003018186803b158015610ebd57600080fd5b505afa158015610ed1573d6000803e3d6000fd5b505050506040513d6020811015610ee757600080fd5b5051610ef257600080fd5b6000610efd83612d92565b11610f525760408051600160e51b62461bcd02815260206004820152601760248201527f4e6f20636f766572206e6f746520617661696c61626c65000000000000000000604482015290519081900360640190fd5b60065460408051600160e41b6308831d59028152600481018590526001602482015290516001600160a01b0390921691638831d5909160448082019260009290919082900301818387803b158015610fa957600080fd5b505af1158015610fbd573d6000803e3d6000fd5b50600195945050505050565b6000805b60075460408051600160e01b63544ef03d0281526001600160a01b0386811660048301529151919092169163544ef03d916024808301926020929190829003018186803b15801561101d57600080fd5b505afa158015611031573d6000803e3d6000fd5b505050506040513d602081101561104757600080fd5b50518110156111655760075460408051600160e21b633f9f3eff0281526001600160a01b038087166004830152915161115b9361114e93889391169163fe7cfbfc91602480820192600092909190829003018186803b1580156110a957600080fd5b505afa1580156110bd573d6000803e3d6000fd5b505050506040513d6000823e601f3d908101601f1916820160405260208110156110e657600080fd5b8101908080516401000000008111156110fe57600080fd5b8201602081018481111561111157600080fd5b815185602082028301116401000000008211171561112e57600080fd5b5050929190505050848151811061114157fe5b6020026020010151612ef9565b839063ffffffff612f9816565b9150600101610fcd565b50919050565b6000808080805b60065460408051600160e21b6338c97bdd0281526001600160a01b0389811660048301529151919092169163e325ef74916024808301926020929190829003018186803b1580156111c257600080fd5b505afa1580156111d6573d6000803e3d6000fd5b505050506040513d60208110156111ec57600080fd5b50518110156113245760065460408051600160e01b6396cf14550281526001600160a01b03898116600483015260248201859052915191909216916396cf1455916044808301926020929190829003018186803b15801561124c57600080fd5b505afa158015611260573d6000803e3d6000fd5b505050506040513d602081101561127657600080fd5b505160065460408051600160e01b6379ade32f0281526001600160a01b038a811660048301526024820186905291519396509116916379ade32f91604480820192602092909190829003018186803b1580156112d157600080fd5b505afa1580156112e5573d6000803e3d6000fd5b505050506040513d60208110156112fb57600080fd5b5051915061131a61130d878585610bf9565b859063ffffffff612f9816565b9350600101611172565b5091949350505050565b600061133b848484612faa565b949350505050565b6000808080805b60065460408051600160e21b6338c97bdd0281526001600160a01b0389811660048301529151919092169163e325ef74916024808301926020929190829003018186803b15801561139a57600080fd5b505afa1580156113ae573d6000803e3d6000fd5b505050506040513d60208110156113c457600080fd5b50518110156113245760065460408051600160e01b6396cf14550281526001600160a01b03898116600483015260248201859052915191909216916396cf1455916044808301926020929190829003018186803b15801561142457600080fd5b505afa158015611438573d6000803e3d6000fd5b505050506040513d602081101561144e57600080fd5b505160065460408051600160e01b6379ade32f0281526001600160a01b038a811660048301526024820186905291519396509116916379ade32f91604480820192602092909190829003018186803b1580156114a957600080fd5b505afa1580156114bd573d6000803e3d6000fd5b505050506040513d60208110156114d357600080fd5b5051915060006114e48785846123c8565b91506114f89050858263ffffffff612f9816565b94505060010161134a565b6000805460408051600160e21b6323c5b10702815233600482015290516001600160a01b0390921691638f16c41c91602480820192602092909190829003018186803b15801561155257600080fd5b505afa158015611566573d6000803e3d6000fd5b505050506040513d602081101561157c57600080fd5b505161158757600080fd5b60075460408051600160e01b633c2d4daf0281526004810185905290516000926001600160a01b031691633c2d4daf916024808301926020929190829003018186803b1580156115d657600080fd5b505afa1580156115ea573d6000803e3d6000fd5b505050506040513d602081101561160057600080fd5b505160065460408051600160e11b630ee098510281526004810187905281519394506000936001600160a01b0390931692631dc130a292602480840193919291829003018186803b15801561165457600080fd5b505afa158015611668573d6000803e3d6000fd5b505050506040513d604081101561167e57600080fd5b505190506116a4606461169883603263ffffffff61308216565b9063ffffffff6130a916565b60408051600160f11b6121a7026020808301919091526001600160a01b03808716606081901b602285015260368085018b9052855180860390910181526056850180875281519190940120600554600160e01b637aef5b7302909452605a850191909152607a8401819052609a840186905293519495509293921691637aef5b739160ba8082019260009290919082900301818387803b15801561174757600080fd5b505af115801561175b573d6000803e3d6000fd5b50600198975050505050505050565b60005460408051600160e21b6323c5b10702815233600482015290516001600160a01b0390921691638f16c41c91602480820192602092909190829003018186803b1580156117b857600080fd5b505afa1580156117cc573d6000803e3d6000fd5b505050506040513d60208110156117e257600080fd5b50516117ed57600080fd5b60065460408051600160e11b630ee098510281526004810184905281516000936001600160a01b031692631dc130a29260248082019391829003018186803b15801561183857600080fd5b505afa15801561184c573d6000803e3d6000fd5b505050506040513d604081101561186257600080fd5b5060200151905080156118a957604051600160e51b62461bcd02815260040180806020018281038252602f81526020018061312a602f913960400191505060405180910390fd5b60006118b483612d92565b905080156119f55760075460408051600160e01b633c2d4daf0281526004810186905290516000926001600160a01b031691633c2d4daf916024808301926020929190829003018186803b15801561190b57600080fd5b505afa15801561191f573d6000803e3d6000fd5b505050506040513d602081101561193557600080fd5b505160408051600160f11b6121a7026020828101919091526001600160a01b03808516606081901b602285015260368085018b9052855180860390910181526056850180875281519190940120600554600160e11b634063ab0d02909452605a850191909152607a8401819052609a8401889052935194955092939216916380c7561a9160ba8082019260009290919082900301818387803b1580156119da57600080fd5b505af11580156119ee573d6000803e3d6000fd5b5050505050505b505050565b60005460408051600160e21b6323c5b10702815233600482015290516001600160a01b0390921691638f16c41c91602480820192602092909190829003018186803b158015611a4857600080fd5b505afa158015611a5c573d6000803e3d6000fd5b505050506040513d6020811015611a7257600080fd5b5051611a7d57600080fd5b6000611b0e6064611698600660009054906101000a90046001600160a01b03166001600160a01b031663e22648506040518163ffffffff1660e01b815260040160206040518083038186803b158015611ad557600080fd5b505afa158015611ae9573d6000803e3d6000fd5b505050506040513d6020811015611aff57600080fd5b5051859063ffffffff61308216565b600b5460408051600160e01b6318417c590281526001600160a01b0387811660048301526024820185905291519394509116916318417c599160448082019260009290919082900301818387803b158015611b6857600080fd5b505af1158015611b7c573d6000803e3d6000fd5b50505050505050565b60065460408051600160e11b637a4022a50281526001600160a01b0384811660048301529151600093849384938493919092169163f480454a916024808301926020929190829003018186803b158015611bde57600080fd5b505afa158015611bf2573d6000803e3d6000fd5b505050506040513d6020811015611c0857600080fd5b5051905060005b818110156113245760065460408051600160e51b63053961a90281526001600160a01b038981166004830152602482018590529151919092169163a72c3520916044808301926020929190829003018186803b158015611c6e57600080fd5b505afa158015611c82573d6000803e3d6000fd5b505050506040513d6020811015611c9857600080fd5b505160065460408051600160e01b6324da7b690281526001600160a01b038a8116600483015260248201869052915193965060009391909216916324da7b69916044808301926020929190829003018186803b158015611cf757600080fd5b505afa158015611d0b573d6000803e3d6000fd5b505050506040513d6020811015611d2157600080fd5b505190506000611d328589846123c8565b9150611d469050868263ffffffff612f9816565b95505050600101611c0f565b6000809054906101000a90046001600160a01b03166001600160a01b031663ff0938a76040518163ffffffff1660e01b815260040160206040518083038186803b158015611d9f57600080fd5b505afa158015611db3573d6000803e3d6000fd5b505050506040513d6020811015611dc957600080fd5b505115611dd557600080fd5b6000808080805b60065460408051600160e21b6338c97bdd0281526001600160a01b0389811660048301529151919092169163e325ef74916024808301926020929190829003018186803b158015611e2c57600080fd5b505afa158015611e40573d6000803e3d6000fd5b505050506040513d6020811015611e5657600080fd5b50518110156121315760065460408051600160e01b6396cf14550281526001600160a01b03898116600483015260248201859052915191909216916396cf1455916044808301926020929190829003018186803b158015611eb657600080fd5b505afa158015611eca573d6000803e3d6000fd5b505050506040513d6020811015611ee057600080fd5b505160065460408051600160e01b6379ade32f0281526001600160a01b038a811660048301526024820186905291519397509116916379ade32f91604480820192602092909190829003018186803b158015611f3b57600080fd5b505afa158015611f4f573d6000803e3d6000fd5b505050506040513d6020811015611f6557600080fd5b50519150611f74868584610bf9565b60065460408051600160e31b631fdaafe30281526001600160a01b038a811660048301526024820186905260006044830181905292519499509092169263fed57f1892606480820193929182900301818387803b158015611fd457600080fd5b505af1158015611fe8573d6000803e3d6000fd5b505060065460408051600160e61b63025d10350281526001600160a01b038b8116600483015260248201879052604482018b905291519190921693506397440d409250606480830192600092919082900301818387803b15801561204b57600080fd5b505af115801561205f573d6000803e3d6000fd5b505060408051600160f01b615557026020808301919091526001600160a01b03808c16606081811b6022860152828c16901b6036850152604a8085018a905285518086039091018152606a850180875281519190940120600554600160e11b634063ab0d02909452606e850191909152608e840181905260ae84018c905293519398501693506380c7561a925060ce8082019260009290919082900301818387803b15801561210d57600080fd5b505af1158015612121573d6000803e3d6000fd5b505060019092019150611ddc9050565b505050505050565b6000546001600160a01b031681565b6004805460408051600160e01b6398fd371f0281526001600160a01b03858116948201949094529051600093909216916398fd371f91602480820192602092909190829003018186803b15801561219e57600080fd5b505afa1580156121b2573d6000803e3d6000fd5b505050506040513d60208110156121c857600080fd5b5051421092915050565b60065460408051600160e01b6379ade32f0281526001600160a01b03808716600483015260248201859052915160009361133b938893889391909216916379ade32f916044808301926020929190829003018186803b15801561223457600080fd5b505afa158015612248573d6000803e3d6000fd5b505050506040513d602081101561225e57600080fd5b5051610bf9565b9392505050565b60006122658383612ef9565b60005460408051600160e11b632c1a733d02815233600482015290516001600160a01b0390921691635834e67a91602480820192602092909190829003018186803b1580156122c657600080fd5b505afa1580156122da573d6000803e3d6000fd5b505050506040513d60208110156122f057600080fd5b50516122fb57600080fd5b60055460408051600160e01b637aef5b730281526001600160a01b038481166004830152600160e81b62434c410260248301526044820186905291519190921691637aef5b7391606480830192600092919082900301818387803b15801561236257600080fd5b505af1158015612376573d6000803e3d6000fd5b5050604080518681526001600160a01b038516602082015280820186905290517fbe5088ade50b808020f6e22db338b1dc96918b163ce3cffedfcccfe68f08477f9350908190036060019150a1505050565b60065460408051600160e21b63307b569d0281526001600160a01b03868116600483015260248201859052915160009384938493849384938493169163c1ed5a749160448083019260e0929190829003018186803b15801561242957600080fd5b505afa15801561243d573d6000803e3d6000fd5b505050506040513d60e081101561245357600080fd5b506040810151606082015160a083015160c0909301519196509450909250905061250d8361248e62015180611698428963ffffffff612ee416565b600660009054906101000a90046001600160a01b03166001600160a01b031663c47ac1ac6040518163ffffffff1660e01b815260040160206040518083038186803b1580156124dc57600080fd5b505afa1580156124f0573d6000803e3d6000fd5b505050506040513d602081101561250657600080fd5b50516130cb565b600654604080516001600160e21b62392ebf02031981526001600160a01b038d81166004830152602482018c905291519398506000938593929092169163ff1b450491604480820192602092909190829003018186803b15801561257057600080fd5b505afa158015612584573d6000803e3d6000fd5b505050506040513d602081101561259a57600080fd5b8101908080519060200190929190505050848887030303039050600061265f8b8b600660009054906101000a90046001600160a01b03166001600160a01b03166379ade32f8f8e6040518363ffffffff1660e01b815260040180836001600160a01b03166001600160a01b031681526020018281526020019250505060206040518083038186803b15801561262e57600080fd5b505afa158015612642573d6000803e3d6000fd5b505050506040513d602081101561265857600080fd5b5051612faa565b9050600082121561266f57600091505b909650869061268883610dcb838563ffffffff612ee416565b8711156126a6576126a383610dcb838b63ffffffff612ee416565b96505b505050505050935093915050565b6000546001600160a01b031615612717576000546001600160a01b031633146127175760408051600160e51b62461bcd02815260206004820152600a6024820152600160b11b692737ba1036b0b9ba32b902604482015290519081900360640190fd5b600080546001600160a01b039092166001600160a01b0319928316811790915560018054909216179055565b60005460408051600160e21b6323c5b10702815233600482015290516001600160a01b0390921691638f16c41c91602480820192602092909190829003018186803b15801561279157600080fd5b505afa1580156127a5573d6000803e3d6000fd5b505050506040513d60208110156127bb57600080fd5b50516127c657600080fd5b60006127d8428363ffffffff612f9816565b60075460408051600160e11b63388d67c30281526004810187905290519293506000926001600160a01b039092169163711acf8691602480820192602092909190829003018186803b15801561282d57600080fd5b505afa158015612841573d6000803e3d6000fd5b505050506040513d602081101561285757600080fd5b505190508082106129305760408051600160f11b6121a7026020808301919091526001600160a01b03808916606081901b602285015260368085018a90528551808603909101815260568501808752815191850191909120600554600160e11b631634ea0b02909252605a860192909252607a8501829052609a85018890529451909490911692632c69d4169260ba8083019391928290030181600087803b15801561290257600080fd5b505af1158015612916573d6000803e3d6000fd5b505050506040513d602081101561292c57600080fd5b5050505b5050505050565b60005460408051600160e21b6323c5b10702815233600482015290516001600160a01b0390921691638f16c41c91602480820192602092909190829003018186803b15801561298557600080fd5b505afa158015612999573d6000803e3d6000fd5b505050506040513d60208110156129af57600080fd5b50516129ba57600080fd5b6000612a4b600660009054906101000a90046001600160a01b03166001600160a01b031663ce0a6d5f6040518163ffffffff1660e01b815260040160206040518083038186803b158015612a0d57600080fd5b505afa158015612a21573d6000803e3d6000fd5b505050506040513d6020811015612a3757600080fd5b50516201518086029063ffffffff612f9816565b60408051600160f11b6121a7026020808301919091526001600160a01b0380871660601b60228401526036808401899052845180850390910181526056840180865281519190930120600654600160e01b634e71865902909352605a8401899052607a84018b905293519495509293921691634e71865991609a8082019260009290919082900301818387803b158015612ae457600080fd5b505af1158015612af8573d6000803e3d6000fd5b505060055460408051600160e01b63fa64f8c10281526001600160a01b03888116600483015260248201879052604482018c905260648201889052915191909216935063fa64f8c1925060848083019260209291908290030181600087803b15801561290257600080fd5b6001546001600160a01b031681565b60005460408051600160e21b6323c5b10702815233600482015290516001600160a01b0390921691638f16c41c91602480820192602092909190829003018186803b158015612bc057600080fd5b505afa158015612bd4573d6000803e3d6000fd5b505050506040513d6020811015612bea57600080fd5b5051612bf557600080fd5b60075460408051600160e01b638d16a1050281526004810186905281516000936001600160a01b031692638d16a1059260248082019391829003018186803b158015612c4057600080fd5b505afa158015612c54573d6000803e3d6000fd5b505050506040513d6040811015612c6a57600080fd5b5060209081015160025460408051600160e01b633cb23b2d0281526001600160e01b03198816600482015290519294506000936001600160a01b0390921692633cb23b2d92602480840193919291829003018186803b158015612ccc57600080fd5b505afa158015612ce0573d6000803e3d6000fd5b505050506040513d6020811015612cf657600080fd5b505190506000612d188261169886670de0b6b3a764000063ffffffff61308216565b600b5460408051600160e01b6368989a590281526001600160a01b0387811660048301526024820185905291519394509116916368989a599160448082019260009290919082900301818387803b158015612d7257600080fd5b505af1158015612d86573d6000803e3d6000fd5b50505050505050505050565b60075460408051600160e01b633c2d4daf02815260048101849052905160009283926001600160a01b0390911691633c2d4daf91602480820192602092909190829003018186803b158015612de657600080fd5b505afa158015612dfa573d6000803e3d6000fd5b505050506040513d6020811015612e1057600080fd5b505160408051600160f11b6121a7026020828101919091526001600160a01b03808516606081901b602285015260368085018a90528551808603909101815260568501808752815191850191909120600554600160e01b63179e91f102909252605a860192909252607a850182905242609a86015294519596509493169263179e91f19260ba808201939291829003018186803b158015612eb057600080fd5b505afa158015612ec4573d6000803e3d6000fd5b505050506040513d6020811015612eda57600080fd5b5051949350505050565b600082821115612ef357600080fd5b50900390565b60408051600160f11b6121a7026020808301919091526001600160a01b03808616606081901b602285015260368085018790528551808603909101815260568501808752815191850191909120600554600160e01b63179e91f102909252605a860192909252607a850182905242609a86015294516000959194919092169263179e91f19260ba80840193829003018186803b158015612eb057600080fd5b60008282018381101561226557600080fd5b60408051600160f01b615557026020808301919091526001600160a01b03808716606081811b6022860152828816901b6036850152604a80850187905285518086039091018152606a8501808752815191850191909120600554600160e21b631729236302909252606e860192909252608e8501829052945160009591949190921692635ca48d8c9260ae80840193829003018186803b15801561304d57600080fd5b505afa158015613061573d6000803e3d6000fd5b505050506040513d602081101561307757600080fd5b505195945050505050565b60008261309157506000610be4565b8282028284828161309e57fe5b041461226557600080fd5b60008082116130b757600080fd5b60008284816130c257fe5b04949350505050565b60008282111561311f5760006130fe83611698620186a06130f2838963ffffffff612ee416565b9063ffffffff61308216565b9050613117620186a0611698838863ffffffff61308216565b915050612265565b506000939250505056fe436f766572206e6f7465206973206465706f736974656420616e642063616e206e6f742062652072656c6561736564a165627a7a7230582098eb2f3af5bbb08df58ca7509655fcaf19493ae058ccd65c91795756bc89a2030029",
  "source": "/* Copyright (C) 2020 NexusMutual.io\n\n  This program is free software: you can redistribute it and/or modify\n    it under the terms of the GNU General Public License as published by\n    the Free Software Foundation, either version 3 of the License, or\n    (at your option) any later version.\n\n  This program is distributed in the hope that it will be useful,\n    but WITHOUT ANY WARRANTY; without even the implied warranty of\n    MERCHANTABILITY or FITNESS FOR A PARTICULAR PURPOSE.  See the\n    GNU General Public License for more details.\n\n  You should have received a copy of the GNU General Public License\n    along with this program.  If not, see http://www.gnu.org/licenses/ */\n\npragma solidity 0.5.7;\n\nimport \"./NXMToken.sol\";\nimport \"./Governance.sol\";\nimport \"./interfaces/IPooledStaking.sol\";\n\n\ncontract TokenFunctions is Iupgradable {\n    using SafeMath for uint;\n\n    MCR internal m1;\n    MemberRoles internal mr;\n    NXMToken public tk;\n    TokenController internal tc;\n    TokenData internal td;\n    QuotationData internal qd;\n    ClaimsReward internal cr;\n    Governance internal gv;\n    PoolData internal pd;\n    IPooledStaking pooledStaking;\n\n    event BurnCATokens(uint claimId, address addr, uint amount);\n\n    /**\n     * @dev Rewards stakers on purchase of cover on smart contract.\n     * @param _contractAddress smart contract address.\n     * @param _coverPriceNXM cover price in NXM.\n     */\n    function pushStakerRewards(address _contractAddress, uint _coverPriceNXM) external onlyInternal {\n        uint rewardValue = _coverPriceNXM.mul(td.stakerCommissionPer()).div(100);\n        pooledStaking.pushReward(_contractAddress, rewardValue);\n    }\n\n    /**\n    * @dev Deprecated in favor of burnStakedTokens\n    */\n    function burnStakerLockedToken(uint, bytes4, uint) external {\n        // noop\n    }\n\n    /**\n    * @dev Burns tokens staked on smart contract covered by coverId. Called when a payout is succesfully executed.\n    * @param coverId cover id\n    * @param coverCurrency cover currency\n    * @param sumAssured amount of $curr to burn\n    */\n    function burnStakedTokens(uint coverId, bytes4 coverCurrency, uint sumAssured) external onlyInternal {\n        (, address scAddress) = qd.getscAddressOfCover(coverId);\n        uint tokenPrice = m1.calculateTokenPrice(coverCurrency);\n        uint burnNXMAmount = sumAssured.mul(1e18).div(tokenPrice);\n        pooledStaking.pushBurn(scAddress, burnNXMAmount);\n    }\n\n    /**\n     * @dev Gets the total staked NXM tokens against\n     * Smart contract by all stakers\n     * @param _stakedContractAddress smart contract address.\n     * @return amount total staked NXM tokens.\n     */\n    function deprecated_getTotalStakedTokensOnSmartContract(\n        address _stakedContractAddress\n    )\n        external\n        view\n        returns(uint)\n    {\n        uint stakedAmount = 0;\n        address stakerAddress;\n        uint staketLen = td.getStakedContractStakersLength(_stakedContractAddress);\n\n        for (uint i = 0; i < staketLen; i++) {\n            stakerAddress = td.getStakedContractStakerByIndex(_stakedContractAddress, i);\n            uint stakerIndex = td.getStakedContractStakerIndex(\n                _stakedContractAddress, i);\n            uint currentlyStaked;\n            (, currentlyStaked) = _deprecated_unlockableBeforeBurningAndCanBurn(stakerAddress,\n                _stakedContractAddress, stakerIndex);\n            stakedAmount = stakedAmount.add(currentlyStaked);\n        }\n\n        return stakedAmount;\n    }\n\n    /**\n     * @dev Returns amount of NXM Tokens locked as Cover Note for given coverId.\n     * @param _of address of the coverHolder.\n     * @param _coverId coverId of the cover.\n     */\n    function getUserLockedCNTokens(address _of, uint _coverId) external view returns(uint) {\n        return _getUserLockedCNTokens(_of, _coverId);\n    } \n\n    /**\n     * @dev to get the all the cover locked tokens of a user \n     * @param _of is the user address in concern\n     * @return amount locked\n     */\n    function getUserAllLockedCNTokens(address _of) external view returns(uint amount) {\n        for (uint i = 0; i < qd.getUserCoverLength(_of); i++) {\n            amount = amount.add(_getUserLockedCNTokens(_of, qd.getAllCoversOfUser(_of)[i]));\n        }\n    }\n\n    /**\n     * @dev Returns amount of NXM Tokens locked as Cover Note against given coverId.\n     * @param _coverId coverId of the cover.\n     */\n    function getLockedCNAgainstCover(uint _coverId) external view returns(uint) {\n        return _getLockedCNAgainstCover(_coverId);\n    }\n\n    /**\n     * @dev Returns total amount of staked NXM Tokens on all smart contracts.\n     * @param _stakerAddress address of the Staker.\n     */ \n    function deprecated_getStakerAllLockedTokens(address _stakerAddress) external view returns (uint amount) {\n        uint stakedAmount = 0;\n        address scAddress;\n        uint scIndex;\n        for (uint i = 0; i < td.getStakerStakedContractLength(_stakerAddress); i++) {\n            scAddress = td.getStakerStakedContractByIndex(_stakerAddress, i);\n            scIndex = td.getStakerStakedContractIndex(_stakerAddress, i);\n            uint currentlyStaked;\n            (, currentlyStaked) = _deprecated_unlockableBeforeBurningAndCanBurn(_stakerAddress, scAddress, i);\n            stakedAmount = stakedAmount.add(currentlyStaked);\n        }\n        amount = stakedAmount;\n    }\n\n    /**\n     * @dev Returns total unlockable amount of staked NXM Tokens on all smart contract .\n     * @param _stakerAddress address of the Staker.\n     */\n    function deprecated_getStakerAllUnlockableStakedTokens(\n        address _stakerAddress\n    )\n    external\n    view\n    returns (uint amount)\n    {\n        uint unlockableAmount = 0;\n        address scAddress;\n        uint scIndex;\n        for (uint i = 0; i < td.getStakerStakedContractLength(_stakerAddress); i++) {\n            scAddress = td.getStakerStakedContractByIndex(_stakerAddress, i);\n            scIndex = td.getStakerStakedContractIndex(_stakerAddress, i);\n            unlockableAmount = unlockableAmount.add(\n                _deprecated_getStakerUnlockableTokensOnSmartContract(_stakerAddress, scAddress,\n                scIndex));\n        }\n        amount = unlockableAmount;\n    }\n\n    /**\n     * @dev Change Dependent Contract Address\n     */\n    function changeDependentContractAddress() public {\n        tk = NXMToken(ms.tokenAddress());\n        td = TokenData(ms.getLatestAddress(\"TD\"));\n        tc = TokenController(ms.getLatestAddress(\"TC\"));\n        cr = ClaimsReward(ms.getLatestAddress(\"CR\"));\n        qd = QuotationData(ms.getLatestAddress(\"QD\"));\n        m1 = MCR(ms.getLatestAddress(\"MC\"));\n        gv = Governance(ms.getLatestAddress(\"GV\"));\n        mr = MemberRoles(ms.getLatestAddress(\"MR\"));\n        pd = PoolData(ms.getLatestAddress(\"PD\"));\n        pooledStaking = IPooledStaking(ms.getLatestAddress(\"PS\"));\n    }\n\n    /**\n     * @dev Gets the Token price in a given currency\n     * @param curr Currency name.\n     * @return price Token Price.\n     */\n    function getTokenPrice(bytes4 curr) public view returns(uint price) {\n        price = m1.calculateTokenPrice(curr);\n    }\n\n    /**\n     * @dev Set the flag to check if cover note is deposited against the cover id\n     * @param coverId Cover Id.\n     */ \n    function depositCN(uint coverId) public onlyInternal returns (bool success) {\n        require(_getLockedCNAgainstCover(coverId) > 0, \"No cover note available\");\n        td.setDepositCN(coverId, true);\n        success = true;    \n    }\n\n    /**\n     * @param _of address of Member\n     * @param _coverId Cover Id\n     * @param _lockTime Pending Time + Cover Period 7*1 days\n     */ \n    function extendCNEPOff(address _of, uint _coverId, uint _lockTime) public onlyInternal {\n        uint timeStamp = now.add(_lockTime);\n        uint coverValidUntil = qd.getValidityOfCover(_coverId);\n        if (timeStamp >= coverValidUntil) {\n            bytes32 reason = keccak256(abi.encodePacked(\"CN\", _of, _coverId));\n            tc.extendLockOf(_of, reason, timeStamp);\n        } \n    }\n\n    /**\n     * @dev to burn the deposited cover tokens \n     * @param coverId is id of cover whose tokens have to be burned\n     * @return the status of the successful burning\n     */\n    function burnDepositCN(uint coverId) public onlyInternal returns (bool success) {\n        address _of = qd.getCoverMemberAddress(coverId);\n        uint amount;\n        (amount, ) = td.depositedCN(coverId);\n        amount = (amount.mul(50)).div(100);\n        bytes32 reason = keccak256(abi.encodePacked(\"CN\", _of, coverId));\n        tc.burnLockedTokens(_of, reason, amount);\n        success = true;\n    }\n\n    /**\n     * @dev Unlocks covernote locked against a given cover \n     * @param coverId id of cover\n     */ \n    function unlockCN(uint coverId) public onlyInternal {\n        (, bool isDeposited) = td.depositedCN(coverId);\n        require(!isDeposited,\"Cover note is deposited and can not be released\");\n        uint lockedCN = _getLockedCNAgainstCover(coverId);\n        if (lockedCN != 0) {\n            address coverHolder = qd.getCoverMemberAddress(coverId);\n            bytes32 reason = keccak256(abi.encodePacked(\"CN\", coverHolder, coverId));\n            tc.releaseLockedTokens(coverHolder, reason, lockedCN);\n        }\n    }\n\n    /** \n     * @dev Burns tokens used for fraudulent voting against a claim\n     * @param claimid Claim Id.\n     * @param _value number of tokens to be burned\n     * @param _of Claim Assessor's address.\n     */     \n    function burnCAToken(uint claimid, uint _value, address _of) public {\n\n        require(ms.checkIsAuthToGoverned(msg.sender));\n        tc.burnLockedTokens(_of, \"CLA\", _value);\n        emit BurnCATokens(claimid, _of, _value);\n    }\n\n    /**\n     * @dev to lock cover note tokens\n     * @param coverNoteAmount is number of tokens to be locked\n     * @param coverPeriod is cover period in concern\n     * @param coverId is the cover id of cover in concern\n     * @param _of address whose tokens are to be locked\n     */\n    function lockCN(\n        uint coverNoteAmount,\n        uint coverPeriod,\n        uint coverId,\n        address _of\n    )\n        public\n        onlyInternal\n    {\n        uint validity = (coverPeriod * 1 days).add(td.lockTokenTimeAfterCoverExp());\n        bytes32 reason = keccak256(abi.encodePacked(\"CN\", _of, coverId));\n        td.setDepositCNAmount(coverId, coverNoteAmount);\n        tc.lockOf(_of, reason, coverNoteAmount, validity);\n    }\n\n    /**\n     * @dev to check if a  member is locked for member vote \n     * @param _of is the member address in concern\n     * @return the boolean status\n     */\n    function isLockedForMemberVote(address _of) public view returns(bool) {\n        return now < tk.isLockedForMV(_of);\n    }\n\n    /**\n     * @dev Internal function to gets amount of locked NXM tokens,\n     * staked against smartcontract by index\n     * @param _stakerAddress address of user\n     * @param _stakedContractAddress staked contract address\n     * @param _stakedContractIndex index of staking\n     */\n    function deprecated_getStakerLockedTokensOnSmartContract (\n        address _stakerAddress,\n        address _stakedContractAddress,\n        uint _stakedContractIndex\n    )\n        public\n        view\n        returns\n        (uint amount)\n    {\n        amount = _deprecated_getStakerLockedTokensOnSmartContract(_stakerAddress,\n            _stakedContractAddress, _stakedContractIndex);\n    }\n\n    /**\n     * @dev Function to gets unlockable amount of locked NXM\n     * tokens, staked against smartcontract by index\n     * @param stakerAddress address of staker\n     * @param stakedContractAddress staked contract address\n     * @param stakerIndex index of staking\n     */\n    function deprecated_getStakerUnlockableTokensOnSmartContract (\n        address stakerAddress,\n        address stakedContractAddress,\n        uint stakerIndex\n    )\n        public\n        view\n        returns (uint)\n    {\n        return _deprecated_getStakerUnlockableTokensOnSmartContract(stakerAddress, stakedContractAddress,\n        td.getStakerStakedContractIndex(stakerAddress, stakerIndex));\n    }\n\n    /**\n     * @dev releases unlockable staked tokens to staker \n     */\n    function deprecated_unlockStakerUnlockableTokens(address _stakerAddress) public checkPause {\n        uint unlockableAmount;\n        address scAddress;\n        bytes32 reason;\n        uint scIndex;\n        for (uint i = 0; i < td.getStakerStakedContractLength(_stakerAddress); i++) {\n            scAddress = td.getStakerStakedContractByIndex(_stakerAddress, i);\n            scIndex = td.getStakerStakedContractIndex(_stakerAddress, i);\n            unlockableAmount = _deprecated_getStakerUnlockableTokensOnSmartContract(\n            _stakerAddress, scAddress,\n            scIndex);\n            td.setUnlockableBeforeLastBurnTokens(_stakerAddress, i, 0);\n            td.pushUnlockedStakedTokens(_stakerAddress, i, unlockableAmount);\n            reason = keccak256(abi.encodePacked(\"UW\", _stakerAddress, scAddress, scIndex));\n            tc.releaseLockedTokens(_stakerAddress, reason, unlockableAmount);\n        }\n    }\n\n    /**\n     * @dev to get tokens of staker locked before burning that are allowed to burn \n     * @param stakerAdd is the address of the staker \n     * @param stakedAdd is the address of staked contract in concern \n     * @param stakerIndex is the staker index in concern\n     * @return amount of unlockable tokens\n     * @return amount of tokens that can burn\n     */\n    function _deprecated_unlockableBeforeBurningAndCanBurn(\n        address stakerAdd, \n        address stakedAdd, \n        uint stakerIndex\n    )\n    public\n    view\n    returns\n    (uint amount, uint canBurn) {\n\n        uint dateAdd;\n        uint initialStake;\n        uint totalBurnt;\n        uint ub;\n        (, , dateAdd, initialStake, , totalBurnt, ub) = td.stakerStakedContracts(stakerAdd, stakerIndex);\n        canBurn = _deprecated_calculateStakedTokens(initialStake, now.sub(dateAdd).div(1 days), td.scValidDays());\n        // Can't use SafeMaths for int.\n        int v = int(initialStake - (canBurn) - (totalBurnt) - (\n            td.getStakerUnlockedStakedTokens(stakerAdd, stakerIndex)) - (ub));\n        uint currentLockedTokens = _deprecated_getStakerLockedTokensOnSmartContract(\n            stakerAdd, stakedAdd, td.getStakerStakedContractIndex(stakerAdd, stakerIndex));\n        if (v < 0) {\n            v = 0;\n        }\n        amount = uint(v);\n        if (canBurn > currentLockedTokens.sub(amount).sub(ub)) {\n            canBurn = currentLockedTokens.sub(amount).sub(ub);\n        }\n    }\n\n    /**\n     * @dev to get tokens of staker that are unlockable\n     * @param _stakerAddress is the address of the staker \n     * @param _stakedContractAddress is the address of staked contract in concern \n     * @param _stakedContractIndex is the staked contract index in concern\n     * @return amount of unlockable tokens\n     */\n    function _deprecated_getStakerUnlockableTokensOnSmartContract (\n        address _stakerAddress,\n        address _stakedContractAddress,\n        uint _stakedContractIndex\n    ) \n        public\n        view\n        returns\n        (uint amount)\n    {   \n        uint initialStake;\n        uint stakerIndex = td.getStakedContractStakerIndex(\n            _stakedContractAddress, _stakedContractIndex);\n        uint burnt;\n        (, , , initialStake, , burnt,) = td.stakerStakedContracts(_stakerAddress, stakerIndex);\n        uint alreadyUnlocked = td.getStakerUnlockedStakedTokens(_stakerAddress, stakerIndex);\n        uint currentStakedTokens;\n        (, currentStakedTokens) = _deprecated_unlockableBeforeBurningAndCanBurn(_stakerAddress,\n            _stakedContractAddress, stakerIndex);\n        amount = initialStake.sub(currentStakedTokens).sub(alreadyUnlocked).sub(burnt);\n    }\n\n    /**\n     * @dev Internal function to get the amount of locked NXM tokens,\n     * staked against smartcontract by index\n     * @param _stakerAddress address of user\n     * @param _stakedContractAddress staked contract address\n     * @param _stakedContractIndex index of staking\n     */\n    function _deprecated_getStakerLockedTokensOnSmartContract (\n        address _stakerAddress,\n        address _stakedContractAddress,\n        uint _stakedContractIndex\n    )\n        internal\n        view\n        returns\n        (uint amount)\n    {   \n        bytes32 reason = keccak256(abi.encodePacked(\"UW\", _stakerAddress,\n            _stakedContractAddress, _stakedContractIndex));\n        amount = tc.tokensLocked(_stakerAddress, reason);\n    }\n\n    /**\n     * @dev Returns amount of NXM Tokens locked as Cover Note for given coverId.\n     * @param _coverId coverId of the cover.\n     */\n    function _getLockedCNAgainstCover(uint _coverId) internal view returns(uint) {\n        address coverHolder = qd.getCoverMemberAddress(_coverId);\n        bytes32 reason = keccak256(abi.encodePacked(\"CN\", coverHolder, _coverId));\n        return tc.tokensLockedAtTime(coverHolder, reason, now); \n    }\n\n    /**\n     * @dev Returns amount of NXM Tokens locked as Cover Note for given coverId.\n     * @param _of address of the coverHolder.\n     * @param _coverId coverId of the cover.\n     */\n    function _getUserLockedCNTokens(address _of, uint _coverId) internal view returns(uint) {\n        bytes32 reason = keccak256(abi.encodePacked(\"CN\", _of, _coverId));\n        return tc.tokensLockedAtTime(_of, reason, now); \n    }\n\n    /**\n     * @dev Internal function to gets remaining amount of staked NXM tokens,\n     * against smartcontract by index\n     * @param _stakeAmount address of user\n     * @param _stakeDays staked contract address\n     * @param _validDays index of staking\n     */\n    function _deprecated_calculateStakedTokens(\n        uint _stakeAmount,\n        uint _stakeDays,\n        uint _validDays\n    ) \n        internal\n        pure \n        returns (uint amount)\n    {\n        if (_validDays > _stakeDays) {\n            uint rf = ((_validDays.sub(_stakeDays)).mul(100000)).div(_validDays);\n            amount = (rf.mul(_stakeAmount)).div(100000);\n        } else {\n            amount = 0;\n        }\n    }\n\n    /**\n     * @dev Gets the total staked NXM tokens against Smart contract \n     * by all stakers\n     * @param _stakedContractAddress smart contract address.\n     * @return amount total staked NXM tokens.\n     */\n    function _deprecated_burnStakerTokenLockedAgainstSmartContract(\n        address _stakerAddress,\n        address _stakedContractAddress,\n        uint _stakedContractIndex,\n        uint _amount\n    ) \n        internal\n    {\n        uint stakerIndex = td.getStakedContractStakerIndex(\n            _stakedContractAddress, _stakedContractIndex);\n        td.pushBurnedTokens(_stakerAddress, stakerIndex, _amount);\n        bytes32 reason = keccak256(abi.encodePacked(\"UW\", _stakerAddress,\n            _stakedContractAddress, _stakedContractIndex));\n        tc.burnLockedTokens(_stakerAddress, reason, _amount);\n    }\n}\n",
  "sourcePath": "/Users/oker/Downloads/smart-contracts-master/contracts/TokenFunctions.sol",
  "compiler": {
    "name": "solc",
    "version": "0.5.7+commit.6da8b019.Emscripten.clang"
  },
  "schemaVersion": "3.2.3",
  "updatedAt": "2020-11-02T03:12:12.208Z",
  "devdoc": {
    "methods": {
      "_deprecated_getStakerUnlockableTokensOnSmartContract(address,address,uint256)": {
        "details": "to get tokens of staker that are unlockable",
        "params": {
          "_stakedContractAddress": "is the address of staked contract in concern ",
          "_stakedContractIndex": "is the staked contract index in concern",
          "_stakerAddress": "is the address of the staker "
        },
        "return": "amount of unlockable tokens"
      },
      "_deprecated_unlockableBeforeBurningAndCanBurn(address,address,uint256)": {
        "details": "to get tokens of staker locked before burning that are allowed to burn ",
        "params": {
          "stakedAdd": "is the address of staked contract in concern ",
          "stakerAdd": "is the address of the staker ",
          "stakerIndex": "is the staker index in concern"
        },
        "return": "amount of unlockable tokensamount of tokens that can burn"
      },
      "burnCAToken(uint256,uint256,address)": {
        "details": "Burns tokens used for fraudulent voting against a claim",
        "params": {
          "_of": "Claim Assessor's address.",
          "_value": "number of tokens to be burned",
          "claimid": "Claim Id."
        }
      },
      "burnDepositCN(uint256)": {
        "details": "to burn the deposited cover tokens ",
        "params": {
          "coverId": "is id of cover whose tokens have to be burned"
        },
        "return": "the status of the successful burning"
      },
      "burnStakedTokens(uint256,bytes4,uint256)": {
        "details": "Burns tokens staked on smart contract covered by coverId. Called when a payout is succesfully executed.",
        "params": {
          "coverCurrency": "cover currency",
          "coverId": "cover id",
          "sumAssured": "amount of $curr to burn"
        }
      },
      "burnStakerLockedToken(uint256,bytes4,uint256)": {
        "details": "Deprecated in favor of burnStakedTokens"
      },
      "changeDependentContractAddress()": {
        "details": "Change Dependent Contract Address"
      },
      "changeMasterAddress(address)": {
        "details": "change master address",
        "params": {
          "_masterAddress": "is the new address"
        }
      },
      "depositCN(uint256)": {
        "details": "Set the flag to check if cover note is deposited against the cover id",
        "params": {
          "coverId": "Cover Id."
        }
      },
      "deprecated_getStakerAllLockedTokens(address)": {
        "details": "Returns total amount of staked NXM Tokens on all smart contracts.",
        "params": {
          "_stakerAddress": "address of the Staker."
        }
      },
      "deprecated_getStakerAllUnlockableStakedTokens(address)": {
        "details": "Returns total unlockable amount of staked NXM Tokens on all smart contract .",
        "params": {
          "_stakerAddress": "address of the Staker."
        }
      },
      "deprecated_getStakerLockedTokensOnSmartContract(address,address,uint256)": {
        "details": "Internal function to gets amount of locked NXM tokens, staked against smartcontract by index",
        "params": {
          "_stakedContractAddress": "staked contract address",
          "_stakedContractIndex": "index of staking",
          "_stakerAddress": "address of user"
        }
      },
      "deprecated_getStakerUnlockableTokensOnSmartContract(address,address,uint256)": {
        "details": "Function to gets unlockable amount of locked NXM tokens, staked against smartcontract by index",
        "params": {
          "stakedContractAddress": "staked contract address",
          "stakerAddress": "address of staker",
          "stakerIndex": "index of staking"
        }
      },
      "deprecated_getTotalStakedTokensOnSmartContract(address)": {
        "details": "Gets the total staked NXM tokens against Smart contract by all stakers",
        "params": {
          "_stakedContractAddress": "smart contract address."
        },
        "return": "amount total staked NXM tokens."
      },
      "deprecated_unlockStakerUnlockableTokens(address)": {
        "details": "releases unlockable staked tokens to staker "
      },
      "extendCNEPOff(address,uint256,uint256)": {
        "params": {
          "_coverId": "Cover Id",
          "_lockTime": "Pending Time + Cover Period 7*1 days",
          "_of": "address of Member"
        }
      },
      "getLockedCNAgainstCover(uint256)": {
        "details": "Returns amount of NXM Tokens locked as Cover Note against given coverId.",
        "params": {
          "_coverId": "coverId of the cover."
        }
      },
      "getTokenPrice(bytes4)": {
        "details": "Gets the Token price in a given currency",
        "params": {
          "curr": "Currency name."
        },
        "return": "price Token Price."
      },
      "getUserAllLockedCNTokens(address)": {
        "details": "to get the all the cover locked tokens of a user ",
        "params": {
          "_of": "is the user address in concern"
        },
        "return": "amount locked"
      },
      "getUserLockedCNTokens(address,uint256)": {
        "details": "Returns amount of NXM Tokens locked as Cover Note for given coverId.",
        "params": {
          "_coverId": "coverId of the cover.",
          "_of": "address of the coverHolder."
        }
      },
      "isLockedForMemberVote(address)": {
        "details": "to check if a  member is locked for member vote ",
        "params": {
          "_of": "is the member address in concern"
        },
        "return": "the boolean status"
      },
      "lockCN(uint256,uint256,uint256,address)": {
        "details": "to lock cover note tokens",
        "params": {
          "_of": "address whose tokens are to be locked",
          "coverId": "is the cover id of cover in concern",
          "coverNoteAmount": "is number of tokens to be locked",
          "coverPeriod": "is cover period in concern"
        }
      },
      "pushStakerRewards(address,uint256)": {
        "details": "Rewards stakers on purchase of cover on smart contract.",
        "params": {
          "_contractAddress": "smart contract address.",
          "_coverPriceNXM": "cover price in NXM."
        }
      },
      "unlockCN(uint256)": {
        "details": "Unlocks covernote locked against a given cover ",
        "params": {
          "coverId": "id of cover"
        }
      }
    }
  },
  "userdoc": {
    "methods": {}
  }
}