{
  "contractName": "TokenController",
  "abi": [
    {
      "constant": true,
      "inputs": [],
      "name": "pooledStaking",
      "outputs": [
        {
          "name": "",
          "type": "address"
        }
      ],
      "payable": false,
      "stateMutability": "view",
      "type": "function"
    },
    {
      "constant": true,
      "inputs": [
        {
          "name": "",
          "type": "address"
        },
        {
          "name": "",
          "type": "uint256"
        }
      ],
      "name": "lockReason",
      "outputs": [
        {
          "name": "",
          "type": "bytes32"
        }
      ],
      "payable": false,
      "stateMutability": "view",
      "type": "function"
    },
    {
      "constant": true,
      "inputs": [],
      "name": "ms",
      "outputs": [
        {
          "name": "",
          "type": "address"
        }
      ],
      "payable": false,
      "stateMutability": "view",
      "type": "function"
    },
    {
      "constant": true,
      "inputs": [],
      "name": "minCALockTime",
      "outputs": [
        {
          "name": "",
          "type": "uint256"
        }
      ],
      "payable": false,
      "stateMutability": "view",
      "type": "function"
    },
    {
      "constant": false,
      "inputs": [
        {
          "name": "_masterAddress",
          "type": "address"
        }
      ],
      "name": "changeMasterAddress",
      "outputs": [],
      "payable": false,
      "stateMutability": "nonpayable",
      "type": "function"
    },
    {
      "constant": true,
      "inputs": [
        {
          "name": "",
          "type": "address"
        },
        {
          "name": "",
          "type": "bytes32"
        }
      ],
      "name": "locked",
      "outputs": [
        {
          "name": "amount",
          "type": "uint256"
        },
        {
          "name": "validity",
          "type": "uint256"
        },
        {
          "name": "claimed",
          "type": "bool"
        }
      ],
      "payable": false,
      "stateMutability": "view",
      "type": "function"
    },
    {
      "constant": true,
      "inputs": [],
      "name": "nxMasterAddress",
      "outputs": [
        {
          "name": "",
          "type": "address"
        }
      ],
      "payable": false,
      "stateMutability": "view",
      "type": "function"
    },
    {
      "constant": true,
      "inputs": [],
      "name": "token",
      "outputs": [
        {
          "name": "",
          "type": "address"
        }
      ],
      "payable": false,
      "stateMutability": "view",
      "type": "function"
    },
    {
      "anonymous": false,
      "inputs": [
        {
          "indexed": true,
          "name": "member",
          "type": "address"
        },
        {
          "indexed": false,
          "name": "lockedUnder",
          "type": "bytes32"
        },
        {
          "indexed": false,
          "name": "amount",
          "type": "uint256"
        }
      ],
      "name": "Burned",
      "type": "event"
    },
    {
      "anonymous": false,
      "inputs": [
        {
          "indexed": true,
          "name": "_of",
          "type": "address"
        },
        {
          "indexed": true,
          "name": "_reason",
          "type": "bytes32"
        },
        {
          "indexed": false,
          "name": "_amount",
          "type": "uint256"
        },
        {
          "indexed": false,
          "name": "_validity",
          "type": "uint256"
        }
      ],
      "name": "Locked",
      "type": "event"
    },
    {
      "anonymous": false,
      "inputs": [
        {
          "indexed": true,
          "name": "_of",
          "type": "address"
        },
        {
          "indexed": true,
          "name": "_reason",
          "type": "bytes32"
        },
        {
          "indexed": false,
          "name": "_amount",
          "type": "uint256"
        }
      ],
      "name": "Unlocked",
      "type": "event"
    },
    {
      "constant": false,
      "inputs": [],
      "name": "changeDependentContractAddress",
      "outputs": [],
      "payable": false,
      "stateMutability": "nonpayable",
      "type": "function"
    },
    {
      "constant": false,
      "inputs": [
        {
          "name": "_newOperator",
          "type": "address"
        }
      ],
      "name": "changeOperator",
      "outputs": [],
      "payable": false,
      "stateMutability": "nonpayable",
      "type": "function"
    },
    {
      "constant": false,
      "inputs": [
        {
          "name": "_from",
          "type": "address"
        },
        {
          "name": "_to",
          "type": "address"
        },
        {
          "name": "_value",
          "type": "uint256"
        }
      ],
      "name": "operatorTransfer",
      "outputs": [
        {
          "name": "",
          "type": "bool"
        }
      ],
      "payable": false,
      "stateMutability": "nonpayable",
      "type": "function"
    },
    {
      "constant": false,
      "inputs": [
        {
          "name": "_reason",
          "type": "bytes32"
        },
        {
          "name": "_amount",
          "type": "uint256"
        },
        {
          "name": "_time",
          "type": "uint256"
        }
      ],
      "name": "lock",
      "outputs": [
        {
          "name": "",
          "type": "bool"
        }
      ],
      "payable": false,
      "stateMutability": "nonpayable",
      "type": "function"
    },
    {
      "constant": false,
      "inputs": [
        {
          "name": "_of",
          "type": "address"
        },
        {
          "name": "_reason",
          "type": "bytes32"
        },
        {
          "name": "_amount",
          "type": "uint256"
        },
        {
          "name": "_time",
          "type": "uint256"
        }
      ],
      "name": "lockOf",
      "outputs": [
        {
          "name": "",
          "type": "bool"
        }
      ],
      "payable": false,
      "stateMutability": "nonpayable",
      "type": "function"
    },
    {
      "constant": false,
      "inputs": [
        {
          "name": "_reason",
          "type": "bytes32"
        },
        {
          "name": "_time",
          "type": "uint256"
        }
      ],
      "name": "extendLock",
      "outputs": [
        {
          "name": "",
          "type": "bool"
        }
      ],
      "payable": false,
      "stateMutability": "nonpayable",
      "type": "function"
    },
    {
      "constant": false,
      "inputs": [
        {
          "name": "_of",
          "type": "address"
        },
        {
          "name": "_reason",
          "type": "bytes32"
        },
        {
          "name": "_time",
          "type": "uint256"
        }
      ],
      "name": "extendLockOf",
      "outputs": [
        {
          "name": "",
          "type": "bool"
        }
      ],
      "payable": false,
      "stateMutability": "nonpayable",
      "type": "function"
    },
    {
      "constant": false,
      "inputs": [
        {
          "name": "_reason",
          "type": "bytes32"
        },
        {
          "name": "_amount",
          "type": "uint256"
        }
      ],
      "name": "increaseLockAmount",
      "outputs": [
        {
          "name": "",
          "type": "bool"
        }
      ],
      "payable": false,
      "stateMutability": "nonpayable",
      "type": "function"
    },
    {
      "constant": false,
      "inputs": [
        {
          "name": "_of",
          "type": "address"
        },
        {
          "name": "amount",
          "type": "uint256"
        }
      ],
      "name": "burnFrom",
      "outputs": [
        {
          "name": "",
          "type": "bool"
        }
      ],
      "payable": false,
      "stateMutability": "nonpayable",
      "type": "function"
    },
    {
      "constant": false,
      "inputs": [
        {
          "name": "_of",
          "type": "address"
        },
        {
          "name": "_reason",
          "type": "bytes32"
        },
        {
          "name": "_amount",
          "type": "uint256"
        }
      ],
      "name": "burnLockedTokens",
      "outputs": [],
      "payable": false,
      "stateMutability": "nonpayable",
      "type": "function"
    },
    {
      "constant": false,
      "inputs": [
        {
          "name": "_of",
          "type": "address"
        },
        {
          "name": "_reason",
          "type": "bytes32"
        },
        {
          "name": "_time",
          "type": "uint256"
        }
      ],
      "name": "reduceLock",
      "outputs": [],
      "payable": false,
      "stateMutability": "nonpayable",
      "type": "function"
    },
    {
      "constant": false,
      "inputs": [
        {
          "name": "_of",
          "type": "address"
        },
        {
          "name": "_reason",
          "type": "bytes32"
        },
        {
          "name": "_amount",
          "type": "uint256"
        }
      ],
      "name": "releaseLockedTokens",
      "outputs": [],
      "payable": false,
      "stateMutability": "nonpayable",
      "type": "function"
    },
    {
      "constant": false,
      "inputs": [
        {
          "name": "_member",
          "type": "address"
        }
      ],
      "name": "addToWhitelist",
      "outputs": [],
      "payable": false,
      "stateMutability": "nonpayable",
      "type": "function"
    },
    {
      "constant": false,
      "inputs": [
        {
          "name": "_member",
          "type": "address"
        }
      ],
      "name": "removeFromWhitelist",
      "outputs": [],
      "payable": false,
      "stateMutability": "nonpayable",
      "type": "function"
    },
    {
      "constant": false,
      "inputs": [
        {
          "name": "_member",
          "type": "address"
        },
        {
          "name": "_amount",
          "type": "uint256"
        }
      ],
      "name": "mint",
      "outputs": [],
      "payable": false,
      "stateMutability": "nonpayable",
      "type": "function"
    },
    {
      "constant": false,
      "inputs": [
        {
          "name": "_of",
          "type": "address"
        },
        {
          "name": "_days",
          "type": "uint256"
        }
      ],
      "name": "lockForMemberVote",
      "outputs": [],
      "payable": false,
      "stateMutability": "nonpayable",
      "type": "function"
    },
    {
      "constant": false,
      "inputs": [
        {
          "name": "_of",
          "type": "address"
        }
      ],
      "name": "unlock",
      "outputs": [
        {
          "name": "unlockableTokens",
          "type": "uint256"
        }
      ],
      "payable": false,
      "stateMutability": "nonpayable",
      "type": "function"
    },
    {
      "constant": false,
      "inputs": [
        {
          "name": "code",
          "type": "bytes8"
        },
        {
          "name": "val",
          "type": "uint256"
        }
      ],
      "name": "updateUintParameters",
      "outputs": [],
      "payable": false,
      "stateMutability": "nonpayable",
      "type": "function"
    },
    {
      "constant": true,
      "inputs": [
        {
          "name": "_of",
          "type": "address"
        },
        {
          "name": "reason",
          "type": "bytes32"
        }
      ],
      "name": "getLockedTokensValidity",
      "outputs": [
        {
          "name": "validity",
          "type": "uint256"
        }
      ],
      "payable": false,
      "stateMutability": "view",
      "type": "function"
    },
    {
      "constant": true,
      "inputs": [
        {
          "name": "_of",
          "type": "address"
        }
      ],
      "name": "getUnlockableTokens",
      "outputs": [
        {
          "name": "unlockableTokens",
          "type": "uint256"
        }
      ],
      "payable": false,
      "stateMutability": "view",
      "type": "function"
    },
    {
      "constant": true,
      "inputs": [
        {
          "name": "_of",
          "type": "address"
        },
        {
          "name": "_reason",
          "type": "bytes32"
        }
      ],
      "name": "tokensLocked",
      "outputs": [
        {
          "name": "amount",
          "type": "uint256"
        }
      ],
      "payable": false,
      "stateMutability": "view",
      "type": "function"
    },
    {
      "constant": true,
      "inputs": [
        {
          "name": "_of",
          "type": "address"
        },
        {
          "name": "_reason",
          "type": "bytes32"
        }
      ],
      "name": "tokensUnlockable",
      "outputs": [
        {
          "name": "amount",
          "type": "uint256"
        }
      ],
      "payable": false,
      "stateMutability": "view",
      "type": "function"
    },
    {
      "constant": true,
      "inputs": [],
      "name": "totalSupply",
      "outputs": [
        {
          "name": "",
          "type": "uint256"
        }
      ],
      "payable": false,
      "stateMutability": "view",
      "type": "function"
    },
    {
      "constant": true,
      "inputs": [
        {
          "name": "_of",
          "type": "address"
        },
        {
          "name": "_reason",
          "type": "bytes32"
        },
        {
          "name": "_time",
          "type": "uint256"
        }
      ],
      "name": "tokensLockedAtTime",
      "outputs": [
        {
          "name": "amount",
          "type": "uint256"
        }
      ],
      "payable": false,
      "stateMutability": "view",
      "type": "function"
    },
    {
      "constant": true,
      "inputs": [
        {
          "name": "_of",
          "type": "address"
        }
      ],
      "name": "totalBalanceOf",
      "outputs": [
        {
          "name": "amount",
          "type": "uint256"
        }
      ],
      "payable": false,
      "stateMutability": "view",
      "type": "function"
    },
    {
      "constant": true,
      "inputs": [
        {
          "name": "_of",
          "type": "address"
        },
        {
          "name": "_time",
          "type": "uint256"
        }
      ],
      "name": "totalLockedBalance",
      "outputs": [
        {
          "name": "amount",
          "type": "uint256"
        }
      ],
      "payable": false,
      "stateMutability": "view",
      "type": "function"
    }
  ],
  "bytecode": "0x60806040526200002262015180601e6200003960201b620027a21790919060201c565b6006553480156200003257600080fd5b506200006d565b6000826200004a5750600062000067565b828202828482816200005857fe5b04146200006457600080fd5b90505b92915050565b612978806200007d6000396000f3fe608060405234801561001057600080fd5b50600436106102065760003560e01c806371d66f001161011a578063a9dab167116100ad578063d71be8db1161007c578063d71be8db14610687578063e43252d7146106d3578063f17a3bec146106f9578063fa64f8c114610701578063fc0c546a1461073957610206565b8063a9dab16714610610578063ab4a2eb314610633578063ceed948d14610659578063d46655f41461066157610206565b806381fc4d90116100e957806381fc4d90146105925780638ab1d681146105b55780639dd86e0f146105db578063a0b2d57f1461060857610206565b806371d66f00146104d657806379cc6790146105025780637aef5b731461052e57806380c7561a1461056057610206565b80632c69d4161161019d57806340c10f191161016c57806340c10f19146104005780634b0ee02a1461042c5780634c47e71d146104525780635294d0e81461047e5780635ca48d8c146104aa57610206565b80632c69d416146103535780632e82aaf2146103855780632f6c493c146103ae57806339081b92146103d457610206565b8063133663f9116101d9578063133663f9146102c3578063179e91f1146102e757806318160ddd146103195780631fea558f1461032157610206565b806306394c9b1461020b57806308f802cc146102335780630d1af103146102715780630ea9c984146102bb575b600080fd5b6102316004803603602081101561022157600080fd5b50356001600160a01b0316610741565b005b61025f6004803603604081101561024957600080fd5b506001600160a01b038135169060200135610849565b60408051918252519081900360200190f35b6102a76004803603606081101561028757600080fd5b506001600160a01b03813581169160208101359091169060400135610873565b604080519115158252519081900360200190f35b610231610b07565b6102cb610c37565b604080516001600160a01b039092168252519081900360200190f35b61025f600480360360608110156102fd57600080fd5b506001600160a01b038135169060208101359060400135610c46565b61025f610c5b565b6102316004803603606081101561033757600080fd5b506001600160a01b038135169060208101359060400135610cdc565b6102a76004803603606081101561036957600080fd5b506001600160a01b038135169060208101359060400135610d6a565b6102a76004803603606081101561039b57600080fd5b5080359060208101359060400135610df8565b61025f600480360360208110156103c457600080fd5b50356001600160a01b0316610f3f565b61025f600480360360408110156103ea57600080fd5b506001600160a01b0381351690602001356110d2565b6102316004803603604081101561041657600080fd5b506001600160a01b0381351690602001356111e3565b61025f6004803603602081101561044257600080fd5b50356001600160a01b03166112de565b6102316004803603604081101561046857600080fd5b506001600160a01b0381351690602001356114fa565b61025f6004803603604081101561049457600080fd5b506001600160a01b0381351690602001356115d9565b61025f600480360360408110156104c057600080fd5b506001600160a01b0381351690602001356115eb565b61025f600480360360408110156104ec57600080fd5b506001600160a01b0381351690602001356115f7565b6102a76004803603604081101561051857600080fd5b506001600160a01b038135169060200135611625565b6102316004803603606081101561054457600080fd5b506001600160a01b038135169060208101359060400135611738565b6102316004803603606081101561057657600080fd5b506001600160a01b0381351690602081013590604001356117c6565b6102a7600480360360408110156105a857600080fd5b5080359060200135611854565b610231600480360360208110156105cb57600080fd5b50356001600160a01b0316611a5a565b610231600480360360408110156105f157600080fd5b506001600160c01b03198135169060200135611b32565b6102cb611c41565b6102a76004803603604081101561062657600080fd5b5080359060200135611c50565b61025f6004803603602081101561064957600080fd5b50356001600160a01b0316611d45565b61025f611dbf565b6102316004803603602081101561067757600080fd5b50356001600160a01b0316611dc5565b6106b36004803603604081101561069d57600080fd5b506001600160a01b038135169060200135611e54565b604080519384526020840192909252151582820152519081900360600190f35b610231600480360360208110156106e957600080fd5b50356001600160a01b0316611e7f565b6102cb611f58565b6102a76004803603608081101561071757600080fd5b506001600160a01b038135169060208101359060408101359060600135611f67565b6102cb612001565b60025460408051600160e21b6323c5b10702815233600482015290516001600160a01b0390921691638f16c41c91602480820192602092909190829003018186803b15801561078f57600080fd5b505afa1580156107a3573d6000803e3d6000fd5b505050506040513d60208110156107b957600080fd5b50516107c457600080fd5b6004805460408051600160e01b6306394c9b0281526001600160a01b0385811694820194909452905192909116916306394c9b916024808201926020929091908290030181600087803b15801561081a57600080fd5b505af115801561082e573d6000803e3d6000fd5b505050506040513d602081101561084457600080fd5b505050565b6001600160a01b039091166000908152600160208181526040808420948452939052919020015490565b60025460408051600160e21b6323c5b10702815233600482015290516000926001600160a01b031691638f16c41c916024808301926020929190829003018186803b1580156108c157600080fd5b505afa1580156108d5573d6000803e3d6000fd5b505050506040513d60208110156108eb57600080fd5b50516108f657600080fd5b6005546001600160a01b0316331461094257604051600160e51b62461bcd02815260040180806020018281038252602f81526020018061291e602f913960400191505060405180910390fd5b6004805460408051600160e01b63b0e65d070281526001600160a01b0388811694820194909452602481018690529051929091169163b0e65d07916044808201926020929091908290030181600087803b15801561099f57600080fd5b505af11580156109b3573d6000803e3d6000fd5b505050506040513d60208110156109c957600080fd5b5051610a1f5760408051600160e51b62461bcd02815260206004820152601860248201527f4f70657261746f72207472616e73666572206661696c65640000000000000000604482015290519081900360640190fd5b6004805460408051600160e01b63a9059cbb0281526001600160a01b0387811694820194909452602481018690529051929091169163a9059cbb916044808201926020929091908290030181600087803b158015610a7c57600080fd5b505af1158015610a90573d6000803e3d6000fd5b505050506040513d6020811015610aa657600080fd5b5051610afc5760408051600160e51b62461bcd02815260206004820152601860248201527f496e7465726e616c207472616e73666572206661696c65640000000000000000604482015290519081900360640190fd5b5060015b9392505050565b600260009054906101000a90046001600160a01b03166001600160a01b0316639d76ea586040518163ffffffff1660e01b815260040160206040518083038186803b158015610b5557600080fd5b505afa158015610b69573d6000803e3d6000fd5b505050506040513d6020811015610b7f57600080fd5b5051600480546001600160a01b0319166001600160a01b0392831617815560025460408051600160e31b6227050b028152600160f01b615053029381019390935251921691630138285891602480820192602092909190829003018186803b158015610bea57600080fd5b505afa158015610bfe573d6000803e3d6000fd5b505050506040513d6020811015610c1457600080fd5b5051600580546001600160a01b0319166001600160a01b03909216919091179055565b6005546001600160a01b031681565b6000610c53848484612010565b949350505050565b6000600460009054906101000a90046001600160a01b03166001600160a01b03166318160ddd6040518163ffffffff1660e01b815260040160206040518083038186803b158015610cab57600080fd5b505afa158015610cbf573d6000803e3d6000fd5b505050506040513d6020811015610cd557600080fd5b5051905090565b60025460408051600160e21b6323c5b10702815233600482015290516001600160a01b0390921691638f16c41c91602480820192602092909190829003018186803b158015610d2a57600080fd5b505afa158015610d3e573d6000803e3d6000fd5b505050506040513d6020811015610d5457600080fd5b5051610d5f57600080fd5b610844838383612066565b60025460408051600160e21b6323c5b10702815233600482015290516000926001600160a01b031691638f16c41c916024808301926020929190829003018186803b158015610db857600080fd5b505afa158015610dcc573d6000803e3d6000fd5b505050506040513d6020811015610de257600080fd5b5051610ded57600080fd5b610afc848484612162565b600254604080516001600160e01b62f6c759020319815290516000926001600160a01b03169163ff0938a7916004808301926020929190829003018186803b158015610e4357600080fd5b505afa158015610e57573d6000803e3d6000fd5b505050506040513d6020811015610e6d57600080fd5b505115610e7957600080fd5b600160e81b62434c41028414610ed95760408051600160e51b62461bcd02815260206004820152601860248201527f5265737472696374656420746f20726561736f6e20434c410000000000000000604482015290519081900360640190fd5b816006541115610f335760408051600160e51b62461bcd02815260206004820152601c60248201527f53686f756c64206c6f636b20666f72206d696e696d756d2074696d6500000000604482015290519081900360640190fd5b610afc338585856121f4565b600254604080516001600160e01b62f6c759020319815290516000926001600160a01b03169163ff0938a7916004808301926020929190829003018186803b158015610f8a57600080fd5b505afa158015610f9e573d6000803e3d6000fd5b505050506040513d6020811015610fb457600080fd5b505115610fc057600080fd5b610fd382600160e81b62434c41026123aa565b905080156110cd576001600160a01b0382166000818152600160208181526040808420600160e81b62434c410280865290835293819020600201805460ff1916909317909255815185815291519293926000805160206128fe8339815191529281900390910190a36004805460408051600160e01b63a9059cbb0281526001600160a01b0386811694820194909452602481018590529051929091169163a9059cbb916044808201926020929091908290030181600087803b15801561109857600080fd5b505af11580156110ac573d6000803e3d6000fd5b505050506040513d60208110156110c257600080fd5b50516110cd57600080fd5b919050565b6000805b6001600160a01b0384166000908152602081905260409020548110156111545761114a61113d85600080886001600160a01b03166001600160a01b03168152602001908152602001600020848154811061112c57fe5b906000526020600020015486612010565b839063ffffffff61243316565b91506001016110d6565b5060055460408051600160e01b6339ac5eb90281526001600160a01b0386811660048301529151610b009392909216916339ac5eb991602480820192602092909190829003018186803b1580156111aa57600080fd5b505afa1580156111be573d6000803e3d6000fd5b505050506040513d60208110156111d457600080fd5b5051829063ffffffff61243316565b60025460408051600160e21b6323c5b10702815233600482015290516001600160a01b0390921691638f16c41c91602480820192602092909190829003018186803b15801561123157600080fd5b505afa158015611245573d6000803e3d6000fd5b505050506040513d602081101561125b57600080fd5b505161126657600080fd5b6004805460408051600160e01b6340c10f190281526001600160a01b038681169482019490945260248101859052905192909116916340c10f199160448082019260009290919082900301818387803b1580156112c257600080fd5b505af11580156112d6573d6000803e3d6000fd5b505050505050565b6004805460408051600160e01b6370a082310281526001600160a01b03858116948201949094529051600093909216916370a0823191602480820192602092909190829003018186803b15801561133457600080fd5b505afa158015611348573d6000803e3d6000fd5b505050506040513d602081101561135e57600080fd5b5051905060005b6001600160a01b0383166000908152602081905260409020548110156113d5576113cb61113d84600080876001600160a01b03166001600160a01b0316815260200190815260200160002084815481106113bb57fe5b9060005260206000200154612445565b9150600101611365565b5060055460408051600160e01b630ea474c70281526001600160a01b03858116600483015291516000939290921691630ea474c791602480820192602092909190829003018186803b15801561142a57600080fd5b505afa15801561143e573d6000803e3d6000fd5b505050506040513d602081101561145457600080fd5b505160055460408051600160e01b6339ac5eb90281526001600160a01b038781166004830152915193945060009391909216916339ac5eb9916024808301926020929190829003018186803b1580156114ac57600080fd5b505afa1580156114c0573d6000803e3d6000fd5b505050506040513d60208110156114d657600080fd5b50519050610c53826114ee858463ffffffff61243316565b9063ffffffff61243316565b60025460408051600160e21b6323c5b10702815233600482015290516001600160a01b0390921691638f16c41c91602480820192602092909190829003018186803b15801561154857600080fd5b505afa15801561155c573d6000803e3d6000fd5b505050506040513d602081101561157257600080fd5b505161157d57600080fd5b6004805460408051600160e01b634c47e71d0281526001600160a01b03868116948201949094526024810185905290519290911691634c47e71d9160448082019260009290919082900301818387803b1580156112c257600080fd5b6000610b0083836123aa565b92915050565b6000610b008383612445565b6000602052816000526040600020818154811061161057fe5b90600052602060002001600091509150505481565b60025460408051600160e21b6323c5b10702815233600482015290516000926001600160a01b031691638f16c41c916024808301926020929190829003018186803b15801561167357600080fd5b505afa158015611687573d6000803e3d6000fd5b505050506040513d602081101561169d57600080fd5b50516116a857600080fd5b6004805460408051600160e41b63079cc6790281526001600160a01b038781169482019490945260248101869052905192909116916379cc6790916044808201926020929091908290030181600087803b15801561170557600080fd5b505af1158015611719573d6000803e3d6000fd5b505050506040513d602081101561172f57600080fd5b50519392505050565b60025460408051600160e21b6323c5b10702815233600482015290516001600160a01b0390921691638f16c41c91602480820192602092909190829003018186803b15801561178657600080fd5b505afa15801561179a573d6000803e3d6000fd5b505050506040513d60208110156117b057600080fd5b50516117bb57600080fd5b61084483838361249c565b60025460408051600160e21b6323c5b10702815233600482015290516001600160a01b0390921691638f16c41c91602480820192602092909190829003018186803b15801561181457600080fd5b505afa158015611828573d6000803e3d6000fd5b505050506040513d602081101561183e57600080fd5b505161184957600080fd5b61084483838361261e565b600254604080516001600160e01b62f6c759020319815290516000926001600160a01b03169163ff0938a7916004808301926020929190829003018186803b15801561189f57600080fd5b505afa1580156118b3573d6000803e3d6000fd5b505050506040513d60208110156118c957600080fd5b5051156118d557600080fd5b600160e81b62434c410283146119355760408051600160e51b62461bcd02815260206004820152601860248201527f5265737472696374656420746f20726561736f6e20434c410000000000000000604482015290519081900360640190fd5b60006119413385612445565b1161194b57600080fd5b6004805460408051600160e01b63b0e65d07028152339381019390935260248301859052516001600160a01b039091169163b0e65d079160448083019260209291908290030181600087803b1580156119a357600080fd5b505af11580156119b7573d6000803e3d6000fd5b505050506040513d60208110156119cd57600080fd5b50503360009081526001602090815260408083208684529091529020546119fa908363ffffffff61243316565b336000818152600160208181526040808420898552825292839020948555930154815186815293840152805186937fea90ef40963535482537f0689e05cb8d259e459ebd21530e826702294d0eafdd92908290030190a350600192915050565b60025460408051600160e21b6323c5b10702815233600482015290516001600160a01b0390921691638f16c41c91602480820192602092909190829003018186803b158015611aa857600080fd5b505afa158015611abc573d6000803e3d6000fd5b505050506040513d6020811015611ad257600080fd5b5051611add57600080fd5b6004805460408051600160e31b6237ecc90281526001600160a01b0385811694820194909452905192909116916301bf6648916024808201926020929091908290030181600087803b15801561081a57600080fd5b60025460408051600160e11b632c1a733d02815233600482015290516001600160a01b0390921691635834e67a91602480820192602092909190829003018186803b158015611b8057600080fd5b505afa158015611b94573d6000803e3d6000fd5b505050506040513d6020811015611baa57600080fd5b5051611bb557600080fd5b600160da1b64135390d315026001600160c01b031983161415611bed57611be5816201518063ffffffff6127a216565b600655611c3d565b60408051600160e51b62461bcd02815260206004820152601260248201527f496e76616c696420706172616d20636f64650000000000000000000000000000604482015290519081900360640190fd5b5050565b6002546001600160a01b031681565b600254604080516001600160e01b62f6c759020319815290516000926001600160a01b03169163ff0938a7916004808301926020929190829003018186803b158015611c9b57600080fd5b505afa158015611caf573d6000803e3d6000fd5b505050506040513d6020811015611cc557600080fd5b505115611cd157600080fd5b600160e81b62434c41028314611d315760408051600160e51b62461bcd02815260206004820152601860248201527f5265737472696374656420746f20726561736f6e20434c410000000000000000604482015290519081900360640190fd5b611d3c338484612162565b50600192915050565b6000805b6001600160a01b038316600090815260208190526040902054811015611db957611daf61113d84600080876001600160a01b03166001600160a01b031681526020019081526020016000208481548110611d9f57fe5b90600052602060002001546123aa565b9150600101611d49565b50919050565b60065481565b6002546001600160a01b031615611e28576002546001600160a01b03163314611e285760408051600160e51b62461bcd02815260206004820152600a6024820152600160b11b692737ba1036b0b9ba32b902604482015290519081900360640190fd5b600280546001600160a01b039092166001600160a01b0319928316811790915560038054909216179055565b6001602081815260009384526040808520909152918352912080549181015460029091015460ff1683565b60025460408051600160e21b6323c5b10702815233600482015290516001600160a01b0390921691638f16c41c91602480820192602092909190829003018186803b158015611ecd57600080fd5b505afa158015611ee1573d6000803e3d6000fd5b505050506040513d6020811015611ef757600080fd5b5051611f0257600080fd5b6004805460408051600160e21b6311fb80e50281526001600160a01b0385811694820194909452905192909116916347ee0394916024808201926020929091908290030181600087803b15801561081a57600080fd5b6003546001600160a01b031681565b60025460408051600160e21b6323c5b10702815233600482015290516000926001600160a01b031691638f16c41c916024808301926020929190829003018186803b158015611fb557600080fd5b505afa158015611fc9573d6000803e3d6000fd5b505050506040513d6020811015611fdf57600080fd5b5051611fea57600080fd5b611ff6858585856121f4565b506001949350505050565b6004546001600160a01b031681565b6001600160a01b038316600090815260016020818152604080842086855290915282200154821015610b005750506001600160a01b03919091166000908152600160209081526040808320938352929052205490565b60006120728484612445565b1161207c57600080fd5b6001600160a01b038316600081815260016020908152604080832086845282529182902054825190815291518593926000805160206128fe83398151915292908290030190a36001600160a01b038316600090815260016020818152604080842086855290915290912001546120f8908263ffffffff6127c916565b6001600160a01b03841660008181526001602081815260408084208885528252928390209182018590559054825190815290810193909352805185937fea90ef40963535482537f0689e05cb8d259e459ebd21530e826702294d0eafdd92908290030190a3505050565b600061216e8484612445565b1161217857600080fd5b6001600160a01b038316600081815260016020908152604080832086845282529182902054825190815291518593926000805160206128fe83398151915292908290030190a36001600160a01b038316600090815260016020818152604080842086855290915290912001546120f8908263ffffffff61243316565b6121fe8484612445565b1561220857600080fd5b8161221257600080fd5b6001600160a01b0384166000908152600160209081526040808320868452909152902054612264576001600160a01b038416600090815260208181526040822080546001810182559083529120018390555b6004805460408051600160e01b63b0e65d070281526001600160a01b0388811694820194909452602481018690529051929091169163b0e65d07916044808201926020929091908290030181600087803b1580156122c157600080fd5b505af11580156122d5573d6000803e3d6000fd5b505050506040513d60208110156122eb57600080fd5b50516122f657600080fd5b6000612308428363ffffffff61243316565b60408051606081018252858152602080820184815260008385018181526001600160a01b038c1680835260018086528784208d855286529287902095518655925191850191909155516002909301805460ff19169315159390931790925582518781529081018490528251939450879391927fea90ef40963535482537f0689e05cb8d259e459ebd21530e826702294d0eafdd92918290030190a35050505050565b6001600160a01b038216600090815260016020818152604080842085855290915282200154421080159061240557506001600160a01b038316600090815260016020908152604080832085845290915290206002015460ff16155b156115e557506001600160a01b03919091166000908152600160209081526040808320938352929052205490565b600082820183811015610b0057600080fd5b6001600160a01b038216600090815260016020908152604080832084845290915281206002015460ff166115e557506001600160a01b03919091166000908152600160209081526040808320938352929052205490565b60006124a88484612445565b9050818110156124b757600080fd5b818114156124f2576001600160a01b0384166000908152600160208181526040808420878552909152909120600201805460ff191690911790555b6001600160a01b0384166000908152600160209081526040808320868452909152902054612526908363ffffffff6127c916565b6001600160a01b0385166000908152600160209081526040808320878452909152902081905561255a5761255a84846127de565b6004805460408051600160e31b630852cd8d028152928301859052516001600160a01b03909116916342966c689160248083019260209291908290030181600087803b1580156125a957600080fd5b505af11580156125bd573d6000803e3d6000fd5b505050506040513d60208110156125d357600080fd5b5050604080518481526020810184905281516001600160a01b038716927f7298c49d4a02f128c91eac867376070b76cb09e92a8867b22356c6c797cac1b2928290030190a250505050565b600061262a8484612445565b90508181101561263957600080fd5b81811415612674576001600160a01b0384166000908152600160208181526040808420878552909152909120600201805460ff191690911790555b6001600160a01b03841660009081526001602090815260408083208684529091529020546126a8908363ffffffff6127c916565b6001600160a01b038516600090815260016020908152604080832087845290915290208190556126dc576126dc84846127de565b6004805460408051600160e01b63a9059cbb0281526001600160a01b0388811694820194909452602481018690529051929091169163a9059cbb916044808201926020929091908290030181600087803b15801561273957600080fd5b505af115801561274d573d6000803e3d6000fd5b505050506040513d602081101561276357600080fd5b505161276e57600080fd5b60408051838152905184916001600160a01b038716916000805160206128fe8339815191529181900360200190a350505050565b6000826127b1575060006115e5565b828202828482816127be57fe5b0414610b0057600080fd5b6000828211156127d857600080fd5b50900390565b6001600160a01b038216600090815260208190526040812054905b818110156128f7576001600160a01b038416600090815260208190526040902080548491908390811061282857fe5b906000526020600020015414156128ef576001600160a01b038416600090815260208190526040902061286283600163ffffffff6127c916565b8154811061286c57fe5b9060005260206000200154600080866001600160a01b03166001600160a01b0316815260200190815260200160002082815481106128a657fe5b60009182526020808320909101929092556001600160a01b038616815290819052604090208054806128d457fe5b600190038181906000526020600020016000905590556128f7565b6001016127f9565b5050505056fe11f87fd5adcd05786919b8b868f59a70d78ae4eb6f305c5927f9c5b1659841a443616c6c206973206f6e6c7920616c6c6f7765642066726f6d20506f6f6c65645374616b696e672061646472657373a165627a7a723058208a645c7348e19ff11207e14d6e8b670b86d10768fab118cff87c991a11d00d3a0029",
  "source": "/* Copyright (C) 2020 NexusMutual.io\n\n  This program is free software: you can redistribute it and/or modify\n  it under the terms of the GNU General Public License as published by\n  the Free Software Foundation, either version 3 of the License, or\n  (at your option) any later version.\n\n  This program is distributed in the hope that it will be useful,\n  but WITHOUT ANY WARRANTY; without even the implied warranty of\n  MERCHANTABILITY or FITNESS FOR A PARTICULAR PURPOSE.  See the\n  GNU General Public License for more details.\n\n  You should have received a copy of the GNU General Public License\n  along with this program.  If not, see http://www.gnu.org/licenses/ */\n\npragma solidity 0.5.7;\n\nimport \"./Iupgradable.sol\";\nimport \"./external/ERC1132/IERC1132.sol\";\nimport \"./NXMToken.sol\";\nimport \"./interfaces/IPooledStaking.sol\";\n\n\ncontract TokenController is IERC1132, Iupgradable {\n    using SafeMath for uint256;\n\n    event Burned(address indexed member, bytes32 lockedUnder, uint256 amount);\n\n    NXMToken public token;\n    IPooledStaking public pooledStaking;\n    uint public minCALockTime = uint(30).mul(1 days);\n    bytes32 private constant CLA = bytes32(\"CLA\");\n\n    /**\n    * @dev Just for interface\n    */\n    function changeDependentContractAddress() public {\n        token = NXMToken(ms.tokenAddress());\n        pooledStaking = IPooledStaking(ms.getLatestAddress('PS'));\n    }\n\n    /**\n     * @dev to change the operator address\n     * @param _newOperator is the new address of operator\n     */\n    function changeOperator(address _newOperator) public onlyInternal {\n        token.changeOperator(_newOperator);\n    }\n\n    /**\n     * @dev Proxies token transfer through this contract to allow staking when members are locked for voting\n     * @param _from   Source address\n     * @param _to     Destination address\n     * @param _value  Amount to transfer\n     */\n    function operatorTransfer(address _from, address _to, uint _value) onlyInternal external returns (bool) {\n        require(msg.sender == address(pooledStaking), \"Call is only allowed from PooledStaking address\");\n        require(token.operatorTransfer(_from, _value), \"Operator transfer failed\");\n        require(token.transfer(_to, _value), \"Internal transfer failed\");\n        return true;\n    }\n\n    /**\n    * @dev Locks a specified amount of tokens,\n    *    for CLA reason and for a specified time\n    * @param _reason The reason to lock tokens, currently restricted to CLA\n    * @param _amount Number of tokens to be locked\n    * @param _time Lock time in seconds\n    */\n    function lock(bytes32 _reason, uint256 _amount, uint256 _time) public checkPause returns (bool)\n    {\n        require(_reason == CLA,\"Restricted to reason CLA\");\n        require(minCALockTime <= _time,\"Should lock for minimum time\");\n        // If tokens are already locked, then functions extendLock or\n        // increaseLockAmount should be used to make any changes\n        _lock(msg.sender, _reason, _amount, _time);\n        return true;\n    }\n\n    /**\n    * @dev Locks a specified amount of tokens against an address,\n    *    for a specified reason and time\n    * @param _reason The reason to lock tokens\n    * @param _amount Number of tokens to be locked\n    * @param _time Lock time in seconds\n    * @param _of address whose tokens are to be locked\n    */\n    function lockOf(address _of, bytes32 _reason, uint256 _amount, uint256 _time)\n        public\n        onlyInternal\n        returns (bool)\n    {\n        // If tokens are already locked, then functions extendLock or\n        // increaseLockAmount should be used to make any changes\n        _lock(_of, _reason, _amount, _time);\n        return true;\n    }\n\n    /**\n    * @dev Extends lock for reason CLA for a specified time\n    * @param _reason The reason to lock tokens, currently restricted to CLA\n    * @param _time Lock extension time in seconds\n    */\n    function extendLock(bytes32 _reason, uint256 _time)\n        public\n        checkPause\n        returns (bool)\n    {\n        require(_reason == CLA,\"Restricted to reason CLA\");\n        _extendLock(msg.sender, _reason, _time);\n        return true;\n    }\n\n    /**\n    * @dev Extends lock for a specified reason and time\n    * @param _reason The reason to lock tokens\n    * @param _time Lock extension time in seconds\n    */\n    function extendLockOf(address _of, bytes32 _reason, uint256 _time)\n        public\n        onlyInternal\n        returns (bool)\n    {\n        _extendLock(_of, _reason, _time);\n        return true;\n    }\n\n    /**\n    * @dev Increase number of tokens locked for a CLA reason\n    * @param _reason The reason to lock tokens, currently restricted to CLA\n    * @param _amount Number of tokens to be increased\n    */\n    function increaseLockAmount(bytes32 _reason, uint256 _amount)\n        public\n        checkPause\n        returns (bool)\n    {    \n        require(_reason == CLA,\"Restricted to reason CLA\");\n        require(_tokensLocked(msg.sender, _reason) > 0);\n        token.operatorTransfer(msg.sender, _amount);\n\n        locked[msg.sender][_reason].amount = locked[msg.sender][_reason].amount.add(_amount);\n        emit Locked(msg.sender, _reason, _amount, locked[msg.sender][_reason].validity);\n        return true;\n    }\n\n    /**\n     * @dev burns tokens of an address\n     * @param _of is the address to burn tokens of\n     * @param amount is the amount to burn\n     * @return the boolean status of the burning process\n     */\n    function burnFrom (address _of, uint amount) public onlyInternal returns (bool) {\n        return token.burnFrom(_of, amount);\n    }\n\n    /**\n    * @dev Burns locked tokens of a user\n    * @param _of address whose tokens are to be burned\n    * @param _reason lock reason for which tokens are to be burned\n    * @param _amount amount of tokens to burn\n    */\n    function burnLockedTokens(address _of, bytes32 _reason, uint256 _amount) public onlyInternal {\n        _burnLockedTokens(_of, _reason, _amount);\n    }\n\n    /**\n    * @dev reduce lock duration for a specified reason and time\n    * @param _of The address whose tokens are locked\n    * @param _reason The reason to lock tokens\n    * @param _time Lock reduction time in seconds\n    */\n    function reduceLock(address _of, bytes32 _reason, uint256 _time) public onlyInternal {\n        _reduceLock(_of, _reason, _time);\n    }\n\n    /**\n    * @dev Released locked tokens of an address locked for a specific reason\n    * @param _of address whose tokens are to be released from lock\n    * @param _reason reason of the lock\n    * @param _amount amount of tokens to release\n    */\n    function releaseLockedTokens(address _of, bytes32 _reason, uint256 _amount)\n        public\n        onlyInternal\n    {\n        _releaseLockedTokens(_of, _reason, _amount);\n    }\n\n    /**\n    * @dev Adds an address to whitelist maintained in the contract\n    * @param _member address to add to whitelist\n    */\n    function addToWhitelist(address _member) public onlyInternal {\n        token.addToWhiteList(_member);\n    }\n\n    /**\n    * @dev Removes an address from the whitelist in the token\n    * @param _member address to remove\n    */\n    function removeFromWhitelist(address _member) public onlyInternal {\n        token.removeFromWhiteList(_member);\n    }\n\n    /**\n    * @dev Mints new token for an address\n    * @param _member address to reward the minted tokens\n    * @param _amount number of tokens to mint\n    */\n    function mint(address _member, uint _amount) public onlyInternal {\n        token.mint(_member, _amount);\n    }\n\n    /**\n     * @dev Lock the user's tokens\n     * @param _of user's address.\n     */\n    function lockForMemberVote(address _of, uint _days) public onlyInternal {\n        token.lockForMemberVote(_of, _days);\n    }\n\n    /**\n    * @dev Unlocks the unlockable tokens against CLA of a specified address\n    * @param _of Address of user, claiming back unlockable tokens against CLA\n    */\n    function unlock(address _of)\n        public\n        checkPause\n        returns (uint256 unlockableTokens)\n    {\n        unlockableTokens = _tokensUnlockable(_of, CLA);\n        if (unlockableTokens > 0) {\n            locked[_of][CLA].claimed = true;\n            emit Unlocked(_of, CLA, unlockableTokens);\n            require(token.transfer(_of, unlockableTokens));\n        }\n    }\n\n    /**\n     * @dev Updates Uint Parameters of a code\n     * @param code whose details we want to update\n     * @param val value to set\n     */\n    function updateUintParameters(bytes8 code, uint val) public {\n        require(ms.checkIsAuthToGoverned(msg.sender));\n        if (code == \"MNCLT\") {\n            minCALockTime = val.mul(1 days);\n        } else {\n            revert(\"Invalid param code\");\n        }\n    }\n\n    /**\n    * @dev Gets the validity of locked tokens of a specified address\n    * @param _of The address to query the validity\n    * @param reason reason for which tokens were locked\n    */\n    function getLockedTokensValidity(address _of, bytes32 reason)\n        public\n        view\n        returns (uint256 validity)\n    {\n        validity = locked[_of][reason].validity;\n    }\n\n    /**\n    * @dev Gets the unlockable tokens of a specified address\n    * @param _of The address to query the the unlockable token count of\n    */\n    function getUnlockableTokens(address _of)\n        public\n        view\n        returns (uint256 unlockableTokens)\n    {\n        for (uint256 i = 0; i < lockReason[_of].length; i++) {\n            unlockableTokens = unlockableTokens.add(_tokensUnlockable(_of, lockReason[_of][i]));\n        }\n    }\n\n    /**\n    * @dev Returns tokens locked for a specified address for a\n    *    specified reason\n    *\n    * @param _of The address whose tokens are locked\n    * @param _reason The reason to query the lock tokens for\n    */\n    function tokensLocked(address _of, bytes32 _reason)\n        public\n        view\n        returns (uint256 amount)\n    {\n        return _tokensLocked(_of, _reason);\n    }\n\n    /**\n    * @dev Returns unlockable tokens for a specified address for a specified reason\n    * @param _of The address to query the the unlockable token count of\n    * @param _reason The reason to query the unlockable tokens for\n    */\n    function tokensUnlockable(address _of, bytes32 _reason)\n        public\n        view\n        returns (uint256 amount)\n    {\n        return _tokensUnlockable(_of, _reason);\n    }\n\n    function totalSupply() public view returns (uint256)\n    {\n        return token.totalSupply();\n    }\n\n    /**\n    * @dev Returns tokens locked for a specified address for a\n    *    specified reason at a specific time\n    *\n    * @param _of The address whose tokens are locked\n    * @param _reason The reason to query the lock tokens for\n    * @param _time The timestamp to query the lock tokens for\n    */\n    function tokensLockedAtTime(address _of, bytes32 _reason, uint256 _time)\n        public\n        view\n        returns (uint256 amount)\n    {\n        return _tokensLockedAtTime(_of, _reason, _time);\n    }\n\n    /**\n    * @dev Returns the total amount of tokens held by an address:\n    *   transferable + locked + staked for pooled staking - pending burns.\n    *   Used by Claims and Governance in member voting to calculate the user's vote weight.\n    *\n    * @param _of The address to query the total balance of\n    * @param _of The address to query the total balance of\n    */\n    function totalBalanceOf(address _of) public view returns (uint256 amount) {\n\n        amount = token.balanceOf(_of);\n\n        for (uint256 i = 0; i < lockReason[_of].length; i++) {\n            amount = amount.add(_tokensLocked(_of, lockReason[_of][i]));\n        }\n\n        uint stakerReward = pooledStaking.stakerReward(_of);\n        uint stakerDeposit = pooledStaking.stakerDeposit(_of);\n\n        amount = amount.add(stakerDeposit).add(stakerReward);\n    }\n\n    /**\n    * @dev Returns the total locked tokens at time\n    *   Returns the total amount of locked and staked tokens at a given time. Used by MemberRoles to check eligibility\n    *   for withdraw / switch membership. Includes tokens locked for Claim Assessment and staked for Risk Assessment.\n    *   Does not take into account pending burns.\n    *\n    * @param _of member whose locked tokens are to be calculate\n    * @param _time timestamp when the tokens should be locked\n    */\n    function totalLockedBalance(address _of, uint256 _time) public view returns (uint256 amount) {\n\n        for (uint256 i = 0; i < lockReason[_of].length; i++) {\n            amount = amount.add(_tokensLockedAtTime(_of, lockReason[_of][i], _time));\n        }\n\n        amount = amount.add(pooledStaking.stakerDeposit(_of));\n    }\n\n    /**\n    * @dev Locks a specified amount of tokens against an address,\n    *    for a specified reason and time\n    * @param _of address whose tokens are to be locked\n    * @param _reason The reason to lock tokens\n    * @param _amount Number of tokens to be locked\n    * @param _time Lock time in seconds\n    */\n    function _lock(address _of, bytes32 _reason, uint256 _amount, uint256 _time) internal {\n        require(_tokensLocked(_of, _reason) == 0);\n        require(_amount != 0);\n\n        if (locked[_of][_reason].amount == 0) {\n            lockReason[_of].push(_reason);\n        }\n\n        require(token.operatorTransfer(_of, _amount));\n\n        uint256 validUntil = now.add(_time); //solhint-disable-line\n        locked[_of][_reason] = LockToken(_amount, validUntil, false);\n        emit Locked(_of, _reason, _amount, validUntil);\n    }\n\n    /**\n    * @dev Returns tokens locked for a specified address for a\n    *    specified reason\n    *\n    * @param _of The address whose tokens are locked\n    * @param _reason The reason to query the lock tokens for\n    */\n    function _tokensLocked(address _of, bytes32 _reason)\n        internal\n        view\n        returns (uint256 amount)\n    {\n        if (!locked[_of][_reason].claimed) {\n            amount = locked[_of][_reason].amount;\n        }\n    }\n\n    /**\n    * @dev Returns tokens locked for a specified address for a\n    *    specified reason at a specific time\n    *\n    * @param _of The address whose tokens are locked\n    * @param _reason The reason to query the lock tokens for\n    * @param _time The timestamp to query the lock tokens for\n    */\n    function _tokensLockedAtTime(address _of, bytes32 _reason, uint256 _time)\n        internal\n        view\n        returns (uint256 amount)\n    {\n        if (locked[_of][_reason].validity > _time) {\n            amount = locked[_of][_reason].amount;\n        }\n    }\n\n    /**\n    * @dev Extends lock for a specified reason and time\n    * @param _of The address whose tokens are locked\n    * @param _reason The reason to lock tokens\n    * @param _time Lock extension time in seconds\n    */\n    function _extendLock(address _of, bytes32 _reason, uint256 _time) internal {\n        require(_tokensLocked(_of, _reason) > 0);\n        emit Unlocked(_of, _reason, locked[_of][_reason].amount);\n        locked[_of][_reason].validity = locked[_of][_reason].validity.add(_time);\n        emit Locked(_of, _reason, locked[_of][_reason].amount, locked[_of][_reason].validity);\n    }\n\n    /**\n    * @dev reduce lock duration for a specified reason and time\n    * @param _of The address whose tokens are locked\n    * @param _reason The reason to lock tokens\n    * @param _time Lock reduction time in seconds\n    */\n    function _reduceLock(address _of, bytes32 _reason, uint256 _time) internal {\n        require(_tokensLocked(_of, _reason) > 0);\n        emit Unlocked(_of, _reason, locked[_of][_reason].amount);\n        locked[_of][_reason].validity = locked[_of][_reason].validity.sub(_time);\n        emit Locked(_of, _reason, locked[_of][_reason].amount, locked[_of][_reason].validity);\n    }\n\n    /**\n    * @dev Returns unlockable tokens for a specified address for a specified reason\n    * @param _of The address to query the the unlockable token count of\n    * @param _reason The reason to query the unlockable tokens for\n    */\n    function _tokensUnlockable(address _of, bytes32 _reason) internal view returns (uint256 amount)\n    {\n        if (locked[_of][_reason].validity <= now && !locked[_of][_reason].claimed) {\n            amount = locked[_of][_reason].amount;\n        }\n    }\n\n    /**\n    * @dev Burns locked tokens of a user\n    * @param _of address whose tokens are to be burned\n    * @param _reason lock reason for which tokens are to be burned\n    * @param _amount amount of tokens to burn\n    */\n    function _burnLockedTokens(address _of, bytes32 _reason, uint256 _amount) internal {\n        uint256 amount = _tokensLocked(_of, _reason);\n        require(amount >= _amount);\n\n        if (amount == _amount) {\n            locked[_of][_reason].claimed = true;\n        }\n\n        locked[_of][_reason].amount = locked[_of][_reason].amount.sub(_amount);\n        if (locked[_of][_reason].amount == 0) {\n            _removeReason(_of, _reason);\n        }\n        token.burn(_amount);\n        emit Burned(_of, _reason, _amount);\n    }\n\n    /**\n    * @dev Released locked tokens of an address locked for a specific reason\n    * @param _of address whose tokens are to be released from lock\n    * @param _reason reason of the lock\n    * @param _amount amount of tokens to release\n    */\n    function _releaseLockedTokens(address _of, bytes32 _reason, uint256 _amount) internal\n    {\n        uint256 amount = _tokensLocked(_of, _reason);\n        require(amount >= _amount);\n\n        if (amount == _amount) {\n            locked[_of][_reason].claimed = true;\n        }\n\n        locked[_of][_reason].amount = locked[_of][_reason].amount.sub(_amount);\n        if (locked[_of][_reason].amount == 0) {\n            _removeReason(_of, _reason);\n        }\n        require(token.transfer(_of, _amount));\n        emit Unlocked(_of, _reason, _amount);\n    }\n\n    function _removeReason(address _of, bytes32 _reason) internal {\n        uint len = lockReason[_of].length;\n        for (uint i = 0; i < len; i++) {\n            if (lockReason[_of][i] == _reason) {\n                lockReason[_of][i] = lockReason[_of][len.sub(1)];\n                lockReason[_of].pop();\n                break;\n            }\n        }   \n    }\n}\n",
  "sourcePath": "/Users/oker/Downloads/smart-contracts-master/contracts/TokenController.sol",
  "compiler": {
    "name": "solc",
    "version": "0.5.7+commit.6da8b019.Emscripten.clang"
  },
  "schemaVersion": "3.2.3",
  "updatedAt": "2020-11-02T03:21:46.152Z",
  "networkType": "ethereum",
  "devdoc": {
    "methods": {
      "addToWhitelist(address)": {
        "details": "Adds an address to whitelist maintained in the contract",
        "params": {
          "_member": "address to add to whitelist"
        }
      },
      "burnFrom(address,uint256)": {
        "details": "burns tokens of an address",
        "params": {
          "_of": "is the address to burn tokens of",
          "amount": "is the amount to burn"
        },
        "return": "the boolean status of the burning process"
      },
      "burnLockedTokens(address,bytes32,uint256)": {
        "details": "Burns locked tokens of a user",
        "params": {
          "_amount": "amount of tokens to burn",
          "_of": "address whose tokens are to be burned",
          "_reason": "lock reason for which tokens are to be burned"
        }
      },
      "changeDependentContractAddress()": {
        "details": "Just for interface"
      },
      "changeMasterAddress(address)": {
        "details": "change master address",
        "params": {
          "_masterAddress": "is the new address"
        }
      },
      "changeOperator(address)": {
        "details": "to change the operator address",
        "params": {
          "_newOperator": "is the new address of operator"
        }
      },
      "extendLock(bytes32,uint256)": {
        "details": "Extends lock for reason CLA for a specified time",
        "params": {
          "_reason": "The reason to lock tokens, currently restricted to CLA",
          "_time": "Lock extension time in seconds"
        }
      },
      "extendLockOf(address,bytes32,uint256)": {
        "details": "Extends lock for a specified reason and time",
        "params": {
          "_reason": "The reason to lock tokens",
          "_time": "Lock extension time in seconds"
        }
      },
      "getLockedTokensValidity(address,bytes32)": {
        "details": "Gets the validity of locked tokens of a specified address",
        "params": {
          "_of": "The address to query the validity",
          "reason": "reason for which tokens were locked"
        }
      },
      "getUnlockableTokens(address)": {
        "details": "Gets the unlockable tokens of a specified address",
        "params": {
          "_of": "The address to query the the unlockable token count of"
        }
      },
      "increaseLockAmount(bytes32,uint256)": {
        "details": "Increase number of tokens locked for a CLA reason",
        "params": {
          "_amount": "Number of tokens to be increased",
          "_reason": "The reason to lock tokens, currently restricted to CLA"
        }
      },
      "lock(bytes32,uint256,uint256)": {
        "details": "Locks a specified amount of tokens,   for CLA reason and for a specified time",
        "params": {
          "_amount": "Number of tokens to be locked",
          "_reason": "The reason to lock tokens, currently restricted to CLA",
          "_time": "Lock time in seconds"
        }
      },
      "lockForMemberVote(address,uint256)": {
        "details": "Lock the user's tokens",
        "params": {
          "_of": "user's address."
        }
      },
      "lockOf(address,bytes32,uint256,uint256)": {
        "details": "Locks a specified amount of tokens against an address,   for a specified reason and time",
        "params": {
          "_amount": "Number of tokens to be locked",
          "_of": "address whose tokens are to be locked",
          "_reason": "The reason to lock tokens",
          "_time": "Lock time in seconds"
        }
      },
      "mint(address,uint256)": {
        "details": "Mints new token for an address",
        "params": {
          "_amount": "number of tokens to mint",
          "_member": "address to reward the minted tokens"
        }
      },
      "operatorTransfer(address,address,uint256)": {
        "details": "Proxies token transfer through this contract to allow staking when members are locked for voting",
        "params": {
          "_from": "Source address",
          "_to": "Destination address",
          "_value": "Amount to transfer"
        }
      },
      "reduceLock(address,bytes32,uint256)": {
        "details": "reduce lock duration for a specified reason and time",
        "params": {
          "_of": "The address whose tokens are locked",
          "_reason": "The reason to lock tokens",
          "_time": "Lock reduction time in seconds"
        }
      },
      "releaseLockedTokens(address,bytes32,uint256)": {
        "details": "Released locked tokens of an address locked for a specific reason",
        "params": {
          "_amount": "amount of tokens to release",
          "_of": "address whose tokens are to be released from lock",
          "_reason": "reason of the lock"
        }
      },
      "removeFromWhitelist(address)": {
        "details": "Removes an address from the whitelist in the token",
        "params": {
          "_member": "address to remove"
        }
      },
      "tokensLocked(address,bytes32)": {
        "details": "Returns tokens locked for a specified address for a   specified reason",
        "params": {
          "_of": "The address whose tokens are locked",
          "_reason": "The reason to query the lock tokens for"
        }
      },
      "tokensLockedAtTime(address,bytes32,uint256)": {
        "details": "Returns tokens locked for a specified address for a   specified reason at a specific time",
        "params": {
          "_of": "The address whose tokens are locked",
          "_reason": "The reason to query the lock tokens for",
          "_time": "The timestamp to query the lock tokens for"
        }
      },
      "tokensUnlockable(address,bytes32)": {
        "details": "Returns unlockable tokens for a specified address for a specified reason",
        "params": {
          "_of": "The address to query the the unlockable token count of",
          "_reason": "The reason to query the unlockable tokens for"
        }
      },
      "totalBalanceOf(address)": {
        "details": "Returns the total amount of tokens held by an address:  transferable + locked + staked for pooled staking - pending burns.  Used by Claims and Governance in member voting to calculate the user's vote weight.",
        "params": {
          "_of": "The address to query the total balance of"
        }
      },
      "totalLockedBalance(address,uint256)": {
        "details": "Returns the total locked tokens at time  Returns the total amount of locked and staked tokens at a given time. Used by MemberRoles to check eligibility  for withdraw / switch membership. Includes tokens locked for Claim Assessment and staked for Risk Assessment.  Does not take into account pending burns.",
        "params": {
          "_of": "member whose locked tokens are to be calculate",
          "_time": "timestamp when the tokens should be locked"
        }
      },
      "unlock(address)": {
        "details": "Unlocks the unlockable tokens against CLA of a specified address",
        "params": {
          "_of": "Address of user, claiming back unlockable tokens against CLA"
        }
      },
      "updateUintParameters(bytes8,uint256)": {
        "details": "Updates Uint Parameters of a code",
        "params": {
          "code": "whose details we want to update",
          "val": "value to set"
        }
      }
    }
  },
  "userdoc": {
    "methods": {}
  }
}