{
  "contractName": "wSOTE",
  "abi": [
    {
      "inputs": [
        {
          "internalType": "contract ISOTE",
          "name": "_SOTE",
          "type": "address"
        }
      ],
      "payable": false,
      "stateMutability": "nonpayable",
      "type": "constructor"
    },
    {
      "anonymous": false,
      "inputs": [
        {
          "indexed": true,
          "internalType": "address",
          "name": "owner",
          "type": "address"
        },
        {
          "indexed": true,
          "internalType": "address",
          "name": "spender",
          "type": "address"
        },
        {
          "indexed": false,
          "internalType": "uint256",
          "name": "value",
          "type": "uint256"
        }
      ],
      "name": "Approval",
      "type": "event"
    },
    {
      "anonymous": false,
      "inputs": [
        {
          "indexed": true,
          "internalType": "address",
          "name": "from",
          "type": "address"
        },
        {
          "indexed": true,
          "internalType": "address",
          "name": "to",
          "type": "address"
        },
        {
          "indexed": false,
          "internalType": "uint256",
          "name": "value",
          "type": "uint256"
        }
      ],
      "name": "Transfer",
      "type": "event"
    },
    {
      "constant": true,
      "inputs": [],
      "name": "SOTE",
      "outputs": [
        {
          "internalType": "contract ISOTE",
          "name": "",
          "type": "address"
        }
      ],
      "payable": false,
      "stateMutability": "view",
      "type": "function"
    },
    {
      "constant": true,
      "inputs": [
        {
          "internalType": "address",
          "name": "owner",
          "type": "address"
        },
        {
          "internalType": "address",
          "name": "spender",
          "type": "address"
        }
      ],
      "name": "allowance",
      "outputs": [
        {
          "internalType": "uint256",
          "name": "",
          "type": "uint256"
        }
      ],
      "payable": false,
      "stateMutability": "view",
      "type": "function"
    },
    {
      "constant": false,
      "inputs": [
        {
          "internalType": "address",
          "name": "spender",
          "type": "address"
        },
        {
          "internalType": "uint256",
          "name": "amount",
          "type": "uint256"
        }
      ],
      "name": "approve",
      "outputs": [
        {
          "internalType": "bool",
          "name": "",
          "type": "bool"
        }
      ],
      "payable": false,
      "stateMutability": "nonpayable",
      "type": "function"
    },
    {
      "constant": true,
      "inputs": [
        {
          "internalType": "address",
          "name": "account",
          "type": "address"
        }
      ],
      "name": "balanceOf",
      "outputs": [
        {
          "internalType": "uint256",
          "name": "",
          "type": "uint256"
        }
      ],
      "payable": false,
      "stateMutability": "view",
      "type": "function"
    },
    {
      "constant": true,
      "inputs": [],
      "name": "blockTimestamp",
      "outputs": [
        {
          "internalType": "uint256",
          "name": "",
          "type": "uint256"
        }
      ],
      "payable": false,
      "stateMutability": "view",
      "type": "function"
    },
    {
      "constant": true,
      "inputs": [],
      "name": "chainID",
      "outputs": [
        {
          "internalType": "uint256",
          "name": "_chainID",
          "type": "uint256"
        }
      ],
      "payable": false,
      "stateMutability": "view",
      "type": "function"
    },
    {
      "constant": true,
      "inputs": [],
      "name": "decimals",
      "outputs": [
        {
          "internalType": "uint8",
          "name": "",
          "type": "uint8"
        }
      ],
      "payable": false,
      "stateMutability": "view",
      "type": "function"
    },
    {
      "constant": false,
      "inputs": [
        {
          "internalType": "address",
          "name": "spender",
          "type": "address"
        },
        {
          "internalType": "uint256",
          "name": "subtractedValue",
          "type": "uint256"
        }
      ],
      "name": "decreaseAllowance",
      "outputs": [
        {
          "internalType": "bool",
          "name": "",
          "type": "bool"
        }
      ],
      "payable": false,
      "stateMutability": "nonpayable",
      "type": "function"
    },
    {
      "constant": false,
      "inputs": [
        {
          "internalType": "address",
          "name": "spender",
          "type": "address"
        },
        {
          "internalType": "uint256",
          "name": "addedValue",
          "type": "uint256"
        }
      ],
      "name": "increaseAllowance",
      "outputs": [
        {
          "internalType": "bool",
          "name": "",
          "type": "bool"
        }
      ],
      "payable": false,
      "stateMutability": "nonpayable",
      "type": "function"
    },
    {
      "constant": true,
      "inputs": [],
      "name": "name",
      "outputs": [
        {
          "internalType": "string",
          "name": "",
          "type": "string"
        }
      ],
      "payable": false,
      "stateMutability": "view",
      "type": "function"
    },
    {
      "constant": true,
      "inputs": [
        {
          "internalType": "address",
          "name": "owner",
          "type": "address"
        }
      ],
      "name": "nonces",
      "outputs": [
        {
          "internalType": "uint256",
          "name": "",
          "type": "uint256"
        }
      ],
      "payable": false,
      "stateMutability": "view",
      "type": "function"
    },
    {
      "constant": false,
      "inputs": [
        {
          "internalType": "address",
          "name": "owner",
          "type": "address"
        },
        {
          "internalType": "address",
          "name": "spender",
          "type": "address"
        },
        {
          "internalType": "uint256",
          "name": "amount",
          "type": "uint256"
        },
        {
          "internalType": "uint256",
          "name": "deadline",
          "type": "uint256"
        },
        {
          "internalType": "uint8",
          "name": "v",
          "type": "uint8"
        },
        {
          "internalType": "bytes32",
          "name": "r",
          "type": "bytes32"
        },
        {
          "internalType": "bytes32",
          "name": "s",
          "type": "bytes32"
        }
      ],
      "name": "permit",
      "outputs": [],
      "payable": false,
      "stateMutability": "nonpayable",
      "type": "function"
    },
    {
      "constant": true,
      "inputs": [],
      "name": "symbol",
      "outputs": [
        {
          "internalType": "string",
          "name": "",
          "type": "string"
        }
      ],
      "payable": false,
      "stateMutability": "view",
      "type": "function"
    },
    {
      "constant": true,
      "inputs": [],
      "name": "totalSupply",
      "outputs": [
        {
          "internalType": "uint256",
          "name": "",
          "type": "uint256"
        }
      ],
      "payable": false,
      "stateMutability": "view",
      "type": "function"
    },
    {
      "constant": false,
      "inputs": [
        {
          "internalType": "address",
          "name": "recipient",
          "type": "address"
        },
        {
          "internalType": "uint256",
          "name": "amount",
          "type": "uint256"
        }
      ],
      "name": "transfer",
      "outputs": [
        {
          "internalType": "bool",
          "name": "",
          "type": "bool"
        }
      ],
      "payable": false,
      "stateMutability": "nonpayable",
      "type": "function"
    },
    {
      "constant": false,
      "inputs": [
        {
          "internalType": "address",
          "name": "sender",
          "type": "address"
        },
        {
          "internalType": "address",
          "name": "recipient",
          "type": "address"
        },
        {
          "internalType": "uint256",
          "name": "amount",
          "type": "uint256"
        }
      ],
      "name": "transferFrom",
      "outputs": [
        {
          "internalType": "bool",
          "name": "",
          "type": "bool"
        }
      ],
      "payable": false,
      "stateMutability": "nonpayable",
      "type": "function"
    },
    {
      "constant": false,
      "inputs": [
        {
          "internalType": "uint256",
          "name": "_amount",
          "type": "uint256"
        }
      ],
      "name": "wrap",
      "outputs": [],
      "payable": false,
      "stateMutability": "nonpayable",
      "type": "function"
    },
    {
      "constant": false,
      "inputs": [
        {
          "internalType": "uint256",
          "name": "_amount",
          "type": "uint256"
        }
      ],
      "name": "unwrap",
      "outputs": [],
      "payable": false,
      "stateMutability": "nonpayable",
      "type": "function"
    },
    {
      "constant": false,
      "inputs": [
        {
          "internalType": "address",
          "name": "_to",
          "type": "address"
        },
        {
          "internalType": "uint256",
          "name": "_amount",
          "type": "uint256"
        }
      ],
      "name": "unwrapTo",
      "outputs": [],
      "payable": false,
      "stateMutability": "nonpayable",
      "type": "function"
    },
    {
      "constant": true,
      "inputs": [
        {
          "internalType": "address",
          "name": "_owner",
          "type": "address"
        },
        {
          "internalType": "uint256",
          "name": "_amount",
          "type": "uint256"
        }
      ],
      "name": "canWrap",
      "outputs": [
        {
          "internalType": "bool",
          "name": "success",
          "type": "bool"
        },
        {
          "internalType": "string",
          "name": "reason",
          "type": "string"
        }
      ],
      "payable": false,
      "stateMutability": "view",
      "type": "function"
    },
    {
      "constant": true,
      "inputs": [
        {
          "internalType": "address",
          "name": "_owner",
          "type": "address"
        },
        {
          "internalType": "address",
          "name": "_recipient",
          "type": "address"
        },
        {
          "internalType": "uint256",
          "name": "_amount",
          "type": "uint256"
        }
      ],
      "name": "canUnwrap",
      "outputs": [
        {
          "internalType": "bool",
          "name": "success",
          "type": "bool"
        },
        {
          "internalType": "string",
          "name": "reason",
          "type": "string"
        }
      ],
      "payable": false,
      "stateMutability": "view",
      "type": "function"
    },
    {
      "constant": false,
      "inputs": [
        {
          "internalType": "contract ERC20",
          "name": "_token",
          "type": "address"
        },
        {
          "internalType": "address payable",
          "name": "_to",
          "type": "address"
        },
        {
          "internalType": "uint256",
          "name": "_balance",
          "type": "uint256"
        }
      ],
      "name": "claimTokens",
      "outputs": [],
      "payable": false,
      "stateMutability": "nonpayable",
      "type": "function"
    }
  ],
  "bytecode": "0x60806040523480156200001157600080fd5b506040516200254338038062002543833981810160405260208110156200003757600080fd5b5051604080518082018252600c81526b5772617070656420534f544560a01b60208281019182528351808501909452600584526477534f544560d81b9084015281519192916012916200008e916003919062000268565b508151620000a490600490602085019062000268565b506005805460ff191660ff9290921691909117905550620000c69050620000ed565b50600880546001600160a01b0319166001600160a01b03929092169190911790556200030a565b600080620001036001600160e01b03620001ca16565b905060006040518080620024f1605291396040519081900360520190209050620001356001600160e01b03620001ce16565b805160209182012060408051808201825260018152603160f81b90840152805180840194909452838101919091527fc89efdaa54c0f20c7adf612882df0950f5a951637e0307cdcb4c672f298b8bc66060840152608083018590523060a0808501919091528151808503909101815260c090930181528251928201929092206000948552600790915292208290555090505b90565b4690565b60038054604080516020601f60026000196101006001881615020190951694909404938401819004810282018101909252828152606093909290918301828280156200025e5780601f1062000232576101008083540402835291602001916200025e565b820191906000526020600020905b8154815290600101906020018083116200024057829003601f168201915b5050505050905090565b828054600181600116156101000203166002900490600052602060002090601f016020900481019282601f10620002ab57805160ff1916838001178555620002db565b82800160010185558215620002db579182015b82811115620002db578251825591602001919060010190620002be565b50620002e9929150620002ed565b5090565b620001c791905b80821115620002e95760008155600101620002f4565b6121d7806200031a6000396000f3fe608060405234801561001057600080fd5b50600436106101425760003560e01c80639fc314c8116100b8578063c12ea3ca1161007c578063c12ea3ca14610477578063d505accf146104a3578063dd62ed3e146104f4578063de0e9a3e14610522578063ea598cb01461053f578063f22fac151461055c57610142565b80639fc314c8146103d7578063a457c2d71461040f578063a9059cbb1461043b578063adb6183214610467578063adc879e91461046f57610142565b8063395093511161010a578063395093511461027257806347d8a0591461029e5780635bd481191461034d57806370a08231146103835780637ecebe00146103a957806395d89b41146103cf57610142565b806306fdde0314610147578063095ea7b3146101c457806318160ddd1461020457806323b872dd1461021e578063313ce56714610254575b600080fd5b61014f610580565b6040805160208082528351818301528351919283929083019185019080838360005b83811015610189578181015183820152602001610171565b50505050905090810190601f1680156101b65780820380516001836020036101000a031916815260200191505b509250505060405180910390f35b6101f0600480360360408110156101da57600080fd5b506001600160a01b038135169060200135610617565b604080519115158252519081900360200190f35b61020c610634565b60408051918252519081900360200190f35b6101f06004803603606081101561023457600080fd5b506001600160a01b0381358116916020810135909116906040013561063a565b61025c6106c7565b6040805160ff9092168252519081900360200190f35b6101f06004803603604081101561028857600080fd5b506001600160a01b0381351690602001356106d0565b6102ca600480360360408110156102b457600080fd5b506001600160a01b038135169060200135610724565b604051808315151515815260200180602001828103825283818151815260200191508051906020019080838360005b838110156103115781810151838201526020016102f9565b50505050905090810190601f16801561033e5780820380516001836020036101000a031916815260200191505b50935050505060405180910390f35b6102ca6004803603606081101561036357600080fd5b506001600160a01b03813581169160208101359091169060400135610a3c565b61020c6004803603602081101561039957600080fd5b50356001600160a01b0316610c17565b61020c600480360360208110156103bf57600080fd5b50356001600160a01b0316610c32565b61014f610c4d565b61040d600480360360608110156103ed57600080fd5b506001600160a01b03813581169160208101359091169060400135610cae565b005b6101f06004803603604081101561042557600080fd5b506001600160a01b038135169060200135610f84565b6101f06004803603604081101561045157600080fd5b506001600160a01b038135169060200135610ff2565b61020c611006565b61020c61100a565b61040d6004803603604081101561048d57600080fd5b506001600160a01b03813516906020013561100e565b61040d600480360360e08110156104b957600080fd5b506001600160a01b03813581169160208101359091169060408101359060608101359060ff6080820135169060a08101359060c00135611143565b61020c6004803603604081101561050a57600080fd5b506001600160a01b0381358116916020013516611319565b61040d6004803603602081101561053857600080fd5b5035611344565b61040d6004803603602081101561055557600080fd5b5035611351565b610564611432565b604080516001600160a01b039092168252519081900360200190f35b60038054604080516020601f600260001961010060018816150201909516949094049384018190048102820181019092528281526060939092909183018282801561060c5780601f106105e15761010080835404028352916020019161060c565b820191906000526020600020905b8154815290600101906020018083116105ef57829003601f168201915b505050505090505b90565b600061062b610624611441565b8484611445565b50600192915050565b60025490565b6000610647848484611531565b6106bd84610653611441565b6106b885604051806060016040528060288152602001612099602891396001600160a01b038a16600090815260016020526040812090610691611441565b6001600160a01b03168152602081019190915260400160002054919063ffffffff6115a116565b611445565b5060019392505050565b60055460ff1690565b600061062b6106dd611441565b846106b885600160006106ee611441565b6001600160a01b03908116825260208083019390935260409182016000908120918c16815292529020549063ffffffff61163816565b60085460408051636eb1769f60e11b81526001600160a01b0385811660048301523060248301529151600093606093869391169163dd62ed3e91604480820192602092909190829003018186803b15801561077e57600080fd5b505afa158015610792573d6000803e3d6000fd5b505050506040513d60208110156107a857600080fd5b505110156107e7575050604080518082019091526016815275696e73756666696369656e7420616c6c6f77616e636560501b6020820152600090610a35565b600854604080516370a0823160e01b81526001600160a01b0387811660048301529151869392909216916370a0823191602480820192602092909190829003018186803b15801561083757600080fd5b505afa15801561084b573d6000803e3d6000fd5b505050506040513d602081101561086157600080fd5b505110156108a757505060408051808201909152601981527f696e73756666696369656e7420534f54452062616c616e6365000000000000006020820152600090610a35565b600854604080516398fd371f60e01b81526001600160a01b0387811660048301529151429392909216916398fd371f91602480820192602092909190829003018186803b1580156108f757600080fd5b505afa15801561090b573d6000803e3d6000fd5b505050506040513d602081101561092157600080fd5b5051111561096757505060408051808201909152601881527f534f54452062616c616e6365206c6f636b6564466f724d7600000000000000006020820152600090610a35565b60085460408051633e83f2a160e21b815230600482015290516001600160a01b039092169163fa0fca8491602480820192602092909190829003018186803b1580156109b257600080fd5b505afa1580156109c6573d6000803e3d6000fd5b505050506040513d60208110156109dc57600080fd5b5051610a2057505060408051808201909152601881527f77534f5445206973206e6f742077686974656c697374656400000000000000006020820152600090610a35565b50506040805160208101909152600081526001905b9250929050565b6000606082610a4a86610c17565b1015610a8e57505060408051808201909152601a81527f696e73756666696369656e742077534f54452062616c616e63650000000000006020820152600090610c0f565b60085460408051633e83f2a160e21b81526001600160a01b0387811660048301529151919092169163fa0fca84916024808301926020929190829003018186803b158015610adb57600080fd5b505afa158015610aef573d6000803e3d6000fd5b505050506040513d6020811015610b0557600080fd5b5051610b4957505060408051808201909152601c81527f726563697069656e74206973206e6f742077686974656c6973746564000000006020820152600090610c0f565b600854604080516398fd371f60e01b8152306004820152905142926001600160a01b0316916398fd371f916024808301926020929190829003018186803b158015610b9357600080fd5b505afa158015610ba7573d6000803e3d6000fd5b505050506040513d6020811015610bbd57600080fd5b50511115610bfa5750506040805180820190915260148152733ba9a7aa229034b9903637b1b5b2b22337b926bb60611b6020820152600090610c0f565b50506040805160208101909152600081526001905b935093915050565b6001600160a01b031660009081526020819052604090205490565b6001600160a01b031660009081526006602052604090205490565b60048054604080516020601f600260001961010060018816150201909516949094049384018190048102820181019092528281526060939092909183018282801561060c5780601f106105e15761010080835404028352916020019161060c565b6001600160a01b038216610cf35760405162461bcd60e51b8152600401808060200182810382526023815260200180611f686023913960400191505060405180910390fd5b6008546001600160a01b0384811691161415610e11576000610d94610d16610634565b604080516370a0823160e01b815230600482015290516001600160a01b038816916370a08231916024808301926020929190829003018186803b158015610d5c57600080fd5b505afa158015610d70573d6000803e3d6000fd5b505050506040513d6020811015610d8657600080fd5b50519063ffffffff61169916565b905060008111610dd55760405162461bcd60e51b81526004018080602001828103825260298152602001806121076029913960400191505060405180910390fd5b60008215610dec57610de782846116db565b610dee565b815b9050610e0a6001600160a01b038616858363ffffffff6116f116565b5050610f7f565b6001600160a01b038316610e7a574760008215610e3757610e3282846116db565b610e39565b815b6040519091506001600160a01b0385169082156108fc029083906000818181858888f19350505050158015610e72573d6000803e3d6000fd5b505050610f7f565b604080516370a0823160e01b815230600482015290516000916001600160a01b038616916370a0823191602480820192602092909190829003018186803b158015610ec457600080fd5b505afa158015610ed8573d6000803e3d6000fd5b505050506040513d6020811015610eee57600080fd5b5051905060008215610f0957610f0482846116db565b610f0b565b815b905060008111610f62576040805162461bcd60e51b815260206004820152601f60248201527f77534f54453a20747279696e6720746f2073656e6420302062616c616e636500604482015290519081900360640190fd5b610f7c6001600160a01b038616858363ffffffff6116f116565b50505b505050565b600061062b610f91611441565b846106b88560405180606001604052806025815260200161217e6025913960016000610fbb611441565b6001600160a01b03908116825260208083019390935260409182016000908120918d1681529252902054919063ffffffff6115a116565b600061062b610fff611441565b8484611531565b4290565b4690565b816001600160a01b03811630141561106d576040805162461bcd60e51b815260206004820152601b60248201527f77534f54453a2063616e206e6f742073656e6420746f2073656c660000000000604482015290519081900360640190fd5b6110773383611743565b6008546040805163a9059cbb60e01b81526001600160a01b038681166004830152602482018690529151919092169163a9059cbb9160448083019260209291908290030181600087803b1580156110cd57600080fd5b505af11580156110e1573d6000803e3d6000fd5b505050506040513d60208110156110f757600080fd5b5051610f7f576040805162461bcd60e51b81526020600482015260166024820152751dd4d3d5114e881d1c985b9cd9995c8819985a5b195960521b604482015290519081900360640190fd5b8361114c611006565b111561119f576040805162461bcd60e51b815260206004820152601d60248201527f45524332305065726d69743a206578706972656420646561646c696e65000000604482015290519081900360640190fd5b60006040518080611fd360529139604080519182900360520182206001600160a01b03808d16600081815260066020908152858220548188019590955286860192909252918d166060860152608085018c905260a085019290925260c08085018b90528351808603909101815260e090940190925282519201919091209250905061190161122b61183f565b83604051602001808461ffff1661ffff1660f01b81526002018381526020018281526020019350505050604051602081830303815290604052805190602001209050600061127b8287878761187e565b9050896001600160a01b0316816001600160a01b0316146112e3576040805162461bcd60e51b815260206004820152601e60248201527f45524332305065726d69743a20696e76616c6964207369676e61747572650000604482015290519081900360640190fd5b6001600160a01b038a1660009081526006602052604090208054600101905561130d8a8a8a611445565b50505050505050505050565b6001600160a01b03918216600090815260016020908152604080832093909416825291909152205490565b61134e338261100e565b50565b600854604080516323b872dd60e01b81523360048201523060248201526044810184905290516001600160a01b03909216916323b872dd916064808201926020929091908290030181600087803b1580156113ab57600080fd5b505af11580156113bf573d6000803e3d6000fd5b505050506040513d60208110156113d557600080fd5b5051611428576040805162461bcd60e51b815260206004820152601a60248201527f77534f54453a207472616e7366657246726f6d206661696c6564000000000000604482015290519081900360640190fd5b61134e33826119fc565b6008546001600160a01b031681565b3390565b6001600160a01b03831661148a5760405162461bcd60e51b81526004018080602001828103825260248152602001806121306024913960400191505060405180910390fd5b6001600160a01b0382166114cf5760405162461bcd60e51b8152600401808060200182810382526022815260200180611f466022913960400191505060405180910390fd5b6001600160a01b03808416600081815260016020908152604080832094871680845294825291829020859055815185815291517f8c5be1e5ebec7d5bd14f71427d1e84f3dd0314c0f7b2291e5b200ac8c7c3b9259281900390910190a3505050565b816001600160a01b038116301415611590576040805162461bcd60e51b815260206004820152601b60248201527f77534f54453a2063616e206e6f742073656e6420746f2073656c660000000000604482015290519081900360640190fd5b61159b848484611aec565b50505050565b600081848411156116305760405162461bcd60e51b81526004018080602001828103825283818151815260200191508051906020019080838360005b838110156115f55781810151838201526020016115dd565b50505050905090810190601f1680156116225780820380516001836020036101000a031916815260200191505b509250505060405180910390fd5b505050900390565b600082820183811015611692576040805162461bcd60e51b815260206004820152601b60248201527f536166654d6174683a206164646974696f6e206f766572666c6f770000000000604482015290519081900360640190fd5b9392505050565b600061169283836040518060400160405280601e81526020017f536166654d6174683a207375627472616374696f6e206f766572666c6f7700008152506115a1565b60008183106116ea5781611692565b5090919050565b604080516001600160a01b038416602482015260448082018490528251808303909101815260649091019091526020810180516001600160e01b031663a9059cbb60e01b179052610f7f908490611c48565b6001600160a01b0382166117885760405162461bcd60e51b81526004018080602001828103825260218152602001806120c16021913960400191505060405180910390fd5b6117cb81604051806060016040528060228152602001611f24602291396001600160a01b038516600090815260208190526040902054919063ffffffff6115a116565b6001600160a01b0383166000908152602081905260409020556002546117f7908263ffffffff61169916565b6002556040805182815290516000916001600160a01b038516917fddf252ad1be2c89b69c2b068fc378daa952ba7f163c4a11628f55a4df523b3ef9181900360200190a35050565b6000806007600061184e61100a565b81526020810191909152604001600020549050801561186e579050610614565b611876611e00565b915050610614565b60007f7fffffffffffffffffffffffffffffff5d576e7357a4501ddfe92f46681b20a08211156118df5760405162461bcd60e51b8152600401808060200182810382526022815260200180611fb16022913960400191505060405180910390fd5b8360ff16601b141580156118f757508360ff16601c14155b156119335760405162461bcd60e51b81526004018080602001828103825260228152602001806120256022913960400191505060405180910390fd5b604080516000808252602080830180855289905260ff88168385015260608301879052608083018690529251909260019260a080820193601f1981019281900390910190855afa15801561198b573d6000803e3d6000fd5b5050604051601f1901519150506001600160a01b0381166119f3576040805162461bcd60e51b815260206004820152601860248201527f45434453413a20696e76616c6964207369676e61747572650000000000000000604482015290519081900360640190fd5b95945050505050565b6001600160a01b038216611a57576040805162461bcd60e51b815260206004820152601f60248201527f45524332303a206d696e7420746f20746865207a65726f206164647265737300604482015290519081900360640190fd5b600254611a6a908263ffffffff61163816565b6002556001600160a01b038216600090815260208190526040902054611a96908263ffffffff61163816565b6001600160a01b0383166000818152602081815260408083209490945583518581529351929391927fddf252ad1be2c89b69c2b068fc378daa952ba7f163c4a11628f55a4df523b3ef9281900390910190a35050565b6001600160a01b038316611b315760405162461bcd60e51b81526004018080602001828103825260258152602001806120e26025913960400191505060405180910390fd5b6001600160a01b038216611b765760405162461bcd60e51b8152600401808060200182810382526023815260200180611f016023913960400191505060405180910390fd5b611bb981604051806060016040528060268152602001611f8b602691396001600160a01b038616600090815260208190526040902054919063ffffffff6115a116565b6001600160a01b038085166000908152602081905260408082209390935590841681522054611bee908263ffffffff61163816565b6001600160a01b038084166000818152602081815260409182902094909455805185815290519193928716927fddf252ad1be2c89b69c2b068fc378daa952ba7f163c4a11628f55a4df523b3ef92918290030190a3505050565b611c5a826001600160a01b0316611ec4565b611cab576040805162461bcd60e51b815260206004820152601f60248201527f5361666545524332303a2063616c6c20746f206e6f6e2d636f6e747261637400604482015290519081900360640190fd5b60006060836001600160a01b0316836040518082805190602001908083835b60208310611ce95780518252601f199092019160209182019101611cca565b6001836020036101000a0380198251168184511680821785525050505050509050019150506000604051808303816000865af19150503d8060008114611d4b576040519150601f19603f3d011682016040523d82523d6000602084013e611d50565b606091505b509150915081611da7576040805162461bcd60e51b815260206004820181905260248201527f5361666545524332303a206c6f772d6c6576656c2063616c6c206661696c6564604482015290519081900360640190fd5b80511561159b57808060200190516020811015611dc357600080fd5b505161159b5760405162461bcd60e51b815260040180806020018281038252602a815260200180612154602a913960400191505060405180910390fd5b600080611e0b61100a565b9050600060405180806120476052913960520190506040518091039020611e30610580565b805160209182012060408051808201825260018152603160f81b90840152805180840194909452838101919091527fc89efdaa54c0f20c7adf612882df0950f5a951637e0307cdcb4c672f298b8bc66060840152608083018590523060a0808501919091528151808503909101815260c0909301815282519282019290922060009485526007909152922082905550905090565b6000813f7fc5d2460186f7233c927e7db2dcc703c0e500b653ca82273b7bfad8045d85a470818114801590611ef857508115155b94935050505056fe45524332303a207472616e7366657220746f20746865207a65726f206164647265737345524332303a206275726e20616d6f756e7420657863656564732062616c616e636545524332303a20617070726f766520746f20746865207a65726f206164647265737377534f54453a2063616e206e6f742073656e6420746f207a65726f206164647265737345524332303a207472616e7366657220616d6f756e7420657863656564732062616c616e636545434453413a20696e76616c6964207369676e6174757265202773272076616c75655065726d69742861646472657373206f776e65722c61646472657373207370656e6465722c75696e743235362076616c75652c75696e74323536206e6f6e63652c75696e7432353620646561646c696e652945434453413a20696e76616c6964207369676e6174757265202776272076616c7565454950373132446f6d61696e28737472696e67206e616d652c737472696e672076657273696f6e2c75696e7432353620636861696e49642c6164647265737320766572696679696e67436f6e74726163742945524332303a207472616e7366657220616d6f756e74206578636565647320616c6c6f77616e636545524332303a206275726e2066726f6d20746865207a65726f206164647265737345524332303a207472616e736665722066726f6d20746865207a65726f206164647265737377534f54453a207468657265206973206e6f206163636964656e74616c6c792073656e7420534f544545524332303a20617070726f76652066726f6d20746865207a65726f20616464726573735361666545524332303a204552433230206f7065726174696f6e20646964206e6f74207375636365656445524332303a2064656372656173656420616c6c6f77616e63652062656c6f77207a65726fa265627a7a7231582052fc339cdea55fe3f79b0c071eee0cfb8c8dae1ed94bf8c4af2bf933d41fdcb664736f6c63430005110032454950373132446f6d61696e28737472696e67206e616d652c737472696e672076657273696f6e2c75696e7432353620636861696e49642c6164647265737320766572696679696e67436f6e747261637429",
  "source": "pragma solidity 0.5.17;\n\n/*\n * @dev Provides information about the current execution context, including the\n * sender of the transaction and its data. While these are generally available\n * via msg.sender and msg.data, they should not be accessed in such a direct\n * manner, since when dealing with GSN meta-transactions the account sending and\n * paying for execution may not be the actual sender (as far as an application\n * is concerned).\n *\n * This contract is only required for intermediate, library-like contracts.\n */\ncontract Context {\n    // Empty internal constructor, to prevent people from mistakenly deploying\n    // an instance of this contract, which should be used via inheritance.\n    constructor () internal { }\n    // solhint-disable-previous-line no-empty-blocks\n\n    function _msgSender() internal view returns (address payable) {\n        return msg.sender;\n    }\n\n    function _msgData() internal view returns (bytes memory) {\n        this; // silence state mutability warning without generating bytecode - see https://github.com/ethereum/solidity/issues/2691\n        return msg.data;\n    }\n}\n\n// File: @openzeppelin/contracts/token/ERC20/IERC20.sol\n\npragma solidity ^0.5.0;\n\n/**\n * @dev Interface of the ERC20 standard as defined in the EIP. Does not include\n * the optional functions; to access them see {ERC20Detailed}.\n */\ninterface IERC20 {\n    /**\n     * @dev Returns the amount of tokens in existence.\n     */\n    function totalSupply() external view returns (uint256);\n\n    /**\n     * @dev Returns the amount of tokens owned by `account`.\n     */\n    function balanceOf(address account) external view returns (uint256);\n\n    /**\n     * @dev Moves `amount` tokens from the caller's account to `recipient`.\n     *\n     * Returns a boolean value indicating whether the operation succeeded.\n     *\n     * Emits a {Transfer} event.\n     */\n    function transfer(address recipient, uint256 amount) external returns (bool);\n\n    /**\n     * @dev Returns the remaining number of tokens that `spender` will be\n     * allowed to spend on behalf of `owner` through {transferFrom}. This is\n     * zero by default.\n     *\n     * This value changes when {approve} or {transferFrom} are called.\n     */\n    function allowance(address owner, address spender) external view returns (uint256);\n\n    /**\n     * @dev Sets `amount` as the allowance of `spender` over the caller's tokens.\n     *\n     * Returns a boolean value indicating whether the operation succeeded.\n     *\n     * IMPORTANT: Beware that changing an allowance with this method brings the risk\n     * that someone may use both the old and the new allowance by unfortunate\n     * transaction ordering. One possible solution to mitigate this race\n     * condition is to first reduce the spender's allowance to 0 and set the\n     * desired value afterwards:\n     * https://github.com/ethereum/EIPs/issues/20#issuecomment-263524729\n     *\n     * Emits an {Approval} event.\n     */\n    function approve(address spender, uint256 amount) external returns (bool);\n\n    /**\n     * @dev Moves `amount` tokens from `sender` to `recipient` using the\n     * allowance mechanism. `amount` is then deducted from the caller's\n     * allowance.\n     *\n     * Returns a boolean value indicating whether the operation succeeded.\n     *\n     * Emits a {Transfer} event.\n     */\n    function transferFrom(address sender, address recipient, uint256 amount) external returns (bool);\n\n    /**\n     * @dev Emitted when `value` tokens are moved from one account (`from`) to\n     * another (`to`).\n     *\n     * Note that `value` may be zero.\n     */\n    event Transfer(address indexed from, address indexed to, uint256 value);\n\n    /**\n     * @dev Emitted when the allowance of a `spender` for an `owner` is set by\n     * a call to {approve}. `value` is the new allowance.\n     */\n    event Approval(address indexed owner, address indexed spender, uint256 value);\n}\n\n// File: @openzeppelin/contracts/math/SafeMath.sol\n\npragma solidity ^0.5.0;\n\n/**\n * @dev Wrappers over Solidity's arithmetic operations with added overflow\n * checks.\n *\n * Arithmetic operations in Solidity wrap on overflow. This can easily result\n * in bugs, because programmers usually assume that an overflow raises an\n * error, which is the standard behavior in high level programming languages.\n * `SafeMath` restores this intuition by reverting the transaction when an\n * operation overflows.\n *\n * Using this library instead of the unchecked operations eliminates an entire\n * class of bugs, so it's recommended to use it always.\n */\nlibrary SafeMath {\n    /**\n     * @dev Returns the addition of two unsigned integers, reverting on\n     * overflow.\n     *\n     * Counterpart to Solidity's `+` operator.\n     *\n     * Requirements:\n     * - Addition cannot overflow.\n     */\n    function add(uint256 a, uint256 b) internal pure returns (uint256) {\n        uint256 c = a + b;\n        require(c >= a, \"SafeMath: addition overflow\");\n\n        return c;\n    }\n\n    /**\n     * @dev Returns the subtraction of two unsigned integers, reverting on\n     * overflow (when the result is negative).\n     *\n     * Counterpart to Solidity's `-` operator.\n     *\n     * Requirements:\n     * - Subtraction cannot overflow.\n     */\n    function sub(uint256 a, uint256 b) internal pure returns (uint256) {\n        return sub(a, b, \"SafeMath: subtraction overflow\");\n    }\n\n    /**\n     * @dev Returns the subtraction of two unsigned integers, reverting with custom message on\n     * overflow (when the result is negative).\n     *\n     * Counterpart to Solidity's `-` operator.\n     *\n     * Requirements:\n     * - Subtraction cannot overflow.\n     *\n     * _Available since v2.4.0._\n     */\n    function sub(uint256 a, uint256 b, string memory errorMessage) internal pure returns (uint256) {\n        require(b <= a, errorMessage);\n        uint256 c = a - b;\n\n        return c;\n    }\n\n    /**\n     * @dev Returns the multiplication of two unsigned integers, reverting on\n     * overflow.\n     *\n     * Counterpart to Solidity's `*` operator.\n     *\n     * Requirements:\n     * - Multiplication cannot overflow.\n     */\n    function mul(uint256 a, uint256 b) internal pure returns (uint256) {\n        // Gas optimization: this is cheaper than requiring 'a' not being zero, but the\n        // benefit is lost if 'b' is also tested.\n        // See: https://github.com/OpenZeppelin/openzeppelin-contracts/pull/522\n        if (a == 0) {\n            return 0;\n        }\n\n        uint256 c = a * b;\n        require(c / a == b, \"SafeMath: multiplication overflow\");\n\n        return c;\n    }\n\n    /**\n     * @dev Returns the integer division of two unsigned integers. Reverts on\n     * division by zero. The result is rounded towards zero.\n     *\n     * Counterpart to Solidity's `/` operator. Note: this function uses a\n     * `revert` opcode (which leaves remaining gas untouched) while Solidity\n     * uses an invalid opcode to revert (consuming all remaining gas).\n     *\n     * Requirements:\n     * - The divisor cannot be zero.\n     */\n    function div(uint256 a, uint256 b) internal pure returns (uint256) {\n        return div(a, b, \"SafeMath: division by zero\");\n    }\n\n    /**\n     * @dev Returns the integer division of two unsigned integers. Reverts with custom message on\n     * division by zero. The result is rounded towards zero.\n     *\n     * Counterpart to Solidity's `/` operator. Note: this function uses a\n     * `revert` opcode (which leaves remaining gas untouched) while Solidity\n     * uses an invalid opcode to revert (consuming all remaining gas).\n     *\n     * Requirements:\n     * - The divisor cannot be zero.\n     *\n     * _Available since v2.4.0._\n     */\n    function div(uint256 a, uint256 b, string memory errorMessage) internal pure returns (uint256) {\n        // Solidity only automatically asserts when dividing by 0\n        require(b > 0, errorMessage);\n        uint256 c = a / b;\n        // assert(a == b * c + a % b); // There is no case in which this doesn't hold\n\n        return c;\n    }\n\n    /**\n     * @dev Returns the remainder of dividing two unsigned integers. (unsigned integer modulo),\n     * Reverts when dividing by zero.\n     *\n     * Counterpart to Solidity's `%` operator. This function uses a `revert`\n     * opcode (which leaves remaining gas untouched) while Solidity uses an\n     * invalid opcode to revert (consuming all remaining gas).\n     *\n     * Requirements:\n     * - The divisor cannot be zero.\n     */\n    function mod(uint256 a, uint256 b) internal pure returns (uint256) {\n        return mod(a, b, \"SafeMath: modulo by zero\");\n    }\n\n    /**\n     * @dev Returns the remainder of dividing two unsigned integers. (unsigned integer modulo),\n     * Reverts with custom message when dividing by zero.\n     *\n     * Counterpart to Solidity's `%` operator. This function uses a `revert`\n     * opcode (which leaves remaining gas untouched) while Solidity uses an\n     * invalid opcode to revert (consuming all remaining gas).\n     *\n     * Requirements:\n     * - The divisor cannot be zero.\n     *\n     * _Available since v2.4.0._\n     */\n    function mod(uint256 a, uint256 b, string memory errorMessage) internal pure returns (uint256) {\n        require(b != 0, errorMessage);\n        return a % b;\n    }\n}\n\n// File: @openzeppelin/contracts/token/ERC20/ERC20.sol\n\npragma solidity ^0.5.0;\n\n\n\n\n/**\n * @dev Implementation of the {IERC20} interface.\n *\n * This implementation is agnostic to the way tokens are created. This means\n * that a supply mechanism has to be added in a derived contract using {_mint}.\n * For a generic mechanism see {ERC20Mintable}.\n *\n * TIP: For a detailed writeup see our guide\n * https://forum.zeppelin.solutions/t/how-to-implement-erc20-supply-mechanisms/226[How\n * to implement supply mechanisms].\n *\n * We have followed general OpenZeppelin guidelines: functions revert instead\n * of returning `false` on failure. This behavior is nonetheless conventional\n * and does not conflict with the expectations of ERC20 applications.\n *\n * Additionally, an {Approval} event is emitted on calls to {transferFrom}.\n * This allows applications to reconstruct the allowance for all accounts just\n * by listening to said events. Other implementations of the EIP may not emit\n * these events, as it isn't required by the specification.\n *\n * Finally, the non-standard {decreaseAllowance} and {increaseAllowance}\n * functions have been added to mitigate the well-known issues around setting\n * allowances. See {IERC20-approve}.\n */\ncontract ERC20 is Context, IERC20 {\n    using SafeMath for uint256;\n\n    mapping (address => uint256) private _balances;\n\n    mapping (address => mapping (address => uint256)) private _allowances;\n\n    uint256 private _totalSupply;\n\n    /**\n     * @dev See {IERC20-totalSupply}.\n     */\n    function totalSupply() public view returns (uint256) {\n        return _totalSupply;\n    }\n\n    /**\n     * @dev See {IERC20-balanceOf}.\n     */\n    function balanceOf(address account) public view returns (uint256) {\n        return _balances[account];\n    }\n\n    /**\n     * @dev See {IERC20-transfer}.\n     *\n     * Requirements:\n     *\n     * - `recipient` cannot be the zero address.\n     * - the caller must have a balance of at least `amount`.\n     */\n    function transfer(address recipient, uint256 amount) public returns (bool) {\n        _transfer(_msgSender(), recipient, amount);\n        return true;\n    }\n\n    /**\n     * @dev See {IERC20-allowance}.\n     */\n    function allowance(address owner, address spender) public view returns (uint256) {\n        return _allowances[owner][spender];\n    }\n\n    /**\n     * @dev See {IERC20-approve}.\n     *\n     * Requirements:\n     *\n     * - `spender` cannot be the zero address.\n     */\n    function approve(address spender, uint256 amount) public returns (bool) {\n        _approve(_msgSender(), spender, amount);\n        return true;\n    }\n\n    /**\n     * @dev See {IERC20-transferFrom}.\n     *\n     * Emits an {Approval} event indicating the updated allowance. This is not\n     * required by the EIP. See the note at the beginning of {ERC20};\n     *\n     * Requirements:\n     * - `sender` and `recipient` cannot be the zero address.\n     * - `sender` must have a balance of at least `amount`.\n     * - the caller must have allowance for `sender`'s tokens of at least\n     * `amount`.\n     */\n    function transferFrom(address sender, address recipient, uint256 amount) public returns (bool) {\n        _transfer(sender, recipient, amount);\n        _approve(sender, _msgSender(), _allowances[sender][_msgSender()].sub(amount, \"ERC20: transfer amount exceeds allowance\"));\n        return true;\n    }\n\n    /**\n     * @dev Atomically increases the allowance granted to `spender` by the caller.\n     *\n     * This is an alternative to {approve} that can be used as a mitigation for\n     * problems described in {IERC20-approve}.\n     *\n     * Emits an {Approval} event indicating the updated allowance.\n     *\n     * Requirements:\n     *\n     * - `spender` cannot be the zero address.\n     */\n    function increaseAllowance(address spender, uint256 addedValue) public returns (bool) {\n        _approve(_msgSender(), spender, _allowances[_msgSender()][spender].add(addedValue));\n        return true;\n    }\n\n    /**\n     * @dev Atomically decreases the allowance granted to `spender` by the caller.\n     *\n     * This is an alternative to {approve} that can be used as a mitigation for\n     * problems described in {IERC20-approve}.\n     *\n     * Emits an {Approval} event indicating the updated allowance.\n     *\n     * Requirements:\n     *\n     * - `spender` cannot be the zero address.\n     * - `spender` must have allowance for the caller of at least\n     * `subtractedValue`.\n     */\n    function decreaseAllowance(address spender, uint256 subtractedValue) public returns (bool) {\n        _approve(_msgSender(), spender, _allowances[_msgSender()][spender].sub(subtractedValue, \"ERC20: decreased allowance below zero\"));\n        return true;\n    }\n\n    /**\n     * @dev Moves tokens `amount` from `sender` to `recipient`.\n     *\n     * This is internal function is equivalent to {transfer}, and can be used to\n     * e.g. implement automatic token fees, slashing mechanisms, etc.\n     *\n     * Emits a {Transfer} event.\n     *\n     * Requirements:\n     *\n     * - `sender` cannot be the zero address.\n     * - `recipient` cannot be the zero address.\n     * - `sender` must have a balance of at least `amount`.\n     */\n    function _transfer(address sender, address recipient, uint256 amount) internal {\n        require(sender != address(0), \"ERC20: transfer from the zero address\");\n        require(recipient != address(0), \"ERC20: transfer to the zero address\");\n\n        _balances[sender] = _balances[sender].sub(amount, \"ERC20: transfer amount exceeds balance\");\n        _balances[recipient] = _balances[recipient].add(amount);\n        emit Transfer(sender, recipient, amount);\n    }\n\n    /** @dev Creates `amount` tokens and assigns them to `account`, increasing\n     * the total supply.\n     *\n     * Emits a {Transfer} event with `from` set to the zero address.\n     *\n     * Requirements\n     *\n     * - `to` cannot be the zero address.\n     */\n    function _mint(address account, uint256 amount) internal {\n        require(account != address(0), \"ERC20: mint to the zero address\");\n\n        _totalSupply = _totalSupply.add(amount);\n        _balances[account] = _balances[account].add(amount);\n        emit Transfer(address(0), account, amount);\n    }\n\n    /**\n     * @dev Destroys `amount` tokens from `account`, reducing the\n     * total supply.\n     *\n     * Emits a {Transfer} event with `to` set to the zero address.\n     *\n     * Requirements\n     *\n     * - `account` cannot be the zero address.\n     * - `account` must have at least `amount` tokens.\n     */\n    function _burn(address account, uint256 amount) internal {\n        require(account != address(0), \"ERC20: burn from the zero address\");\n\n        _balances[account] = _balances[account].sub(amount, \"ERC20: burn amount exceeds balance\");\n        _totalSupply = _totalSupply.sub(amount);\n        emit Transfer(account, address(0), amount);\n    }\n\n    /**\n     * @dev Sets `amount` as the allowance of `spender` over the `owner`s tokens.\n     *\n     * This is internal function is equivalent to `approve`, and can be used to\n     * e.g. set automatic allowances for certain subsystems, etc.\n     *\n     * Emits an {Approval} event.\n     *\n     * Requirements:\n     *\n     * - `owner` cannot be the zero address.\n     * - `spender` cannot be the zero address.\n     */\n    function _approve(address owner, address spender, uint256 amount) internal {\n        require(owner != address(0), \"ERC20: approve from the zero address\");\n        require(spender != address(0), \"ERC20: approve to the zero address\");\n\n        _allowances[owner][spender] = amount;\n        emit Approval(owner, spender, amount);\n    }\n\n    /**\n     * @dev Destroys `amount` tokens from `account`.`amount` is then deducted\n     * from the caller's allowance.\n     *\n     * See {_burn} and {_approve}.\n     */\n    function _burnFrom(address account, uint256 amount) internal {\n        _burn(account, amount);\n        _approve(account, _msgSender(), _allowances[account][_msgSender()].sub(amount, \"ERC20: burn amount exceeds allowance\"));\n    }\n}\n\n// File: @openzeppelin/contracts/token/ERC20/ERC20Detailed.sol\n\npragma solidity ^0.5.0;\n\n\n/**\n * @dev Optional functions from the ERC20 standard.\n */\ncontract ERC20Detailed is IERC20 {\n    string private _name;\n    string private _symbol;\n    uint8 private _decimals;\n\n    /**\n     * @dev Sets the values for `name`, `symbol`, and `decimals`. All three of\n     * these values are immutable: they can only be set once during\n     * construction.\n     */\n    constructor (string memory name, string memory symbol, uint8 decimals) public {\n        _name = name;\n        _symbol = symbol;\n        _decimals = decimals;\n    }\n\n    /**\n     * @dev Returns the name of the token.\n     */\n    function name() public view returns (string memory) {\n        return _name;\n    }\n\n    /**\n     * @dev Returns the symbol of the token, usually a shorter version of the\n     * name.\n     */\n    function symbol() public view returns (string memory) {\n        return _symbol;\n    }\n\n    /**\n     * @dev Returns the number of decimals used to get its user representation.\n     * For example, if `decimals` equals `2`, a balance of `505` tokens should\n     * be displayed to a user as `5,05` (`505 / 10 ** 2`).\n     *\n     * Tokens usually opt for a value of 18, imitating the relationship between\n     * Ether and Wei.\n     *\n     * NOTE: This information is only used for _display_ purposes: it in\n     * no way affects any of the arithmetic of the contract, including\n     * {IERC20-balanceOf} and {IERC20-transfer}.\n     */\n    function decimals() public view returns (uint8) {\n        return _decimals;\n    }\n}\n\n// File: @openzeppelin/contracts/math/Math.sol\n\npragma solidity ^0.5.0;\n\n/**\n * @dev Standard math utilities missing in the Solidity language.\n */\nlibrary Math {\n    /**\n     * @dev Returns the largest of two numbers.\n     */\n    function max(uint256 a, uint256 b) internal pure returns (uint256) {\n        return a >= b ? a : b;\n    }\n\n    /**\n     * @dev Returns the smallest of two numbers.\n     */\n    function min(uint256 a, uint256 b) internal pure returns (uint256) {\n        return a < b ? a : b;\n    }\n\n    /**\n     * @dev Returns the average of two numbers. The result is rounded towards\n     * zero.\n     */\n    function average(uint256 a, uint256 b) internal pure returns (uint256) {\n        // (a + b) / 2 can overflow, so we distribute\n        return (a / 2) + (b / 2) + ((a % 2 + b % 2) / 2);\n    }\n}\n\n// File: @openzeppelin/contracts/utils/Address.sol\n\npragma solidity ^0.5.5;\n\n/**\n * @dev Collection of functions related to the address type\n */\nlibrary Address {\n    /**\n     * @dev Returns true if `account` is a contract.\n     *\n     * [IMPORTANT]\n     * ====\n     * It is unsafe to assume that an address for which this function returns\n     * false is an externally-owned account (EOA) and not a contract.\n     *\n     * Among others, `isContract` will return false for the following\n     * types of addresses:\n     *\n     *  - an externally-owned account\n     *  - a contract in construction\n     *  - an address where a contract will be created\n     *  - an address where a contract lived, but was destroyed\n     * ====\n     */\n    function isContract(address account) internal view returns (bool) {\n        // According to EIP-1052, 0x0 is the value returned for not-yet created accounts\n        // and 0xc5d2460186f7233c927e7db2dcc703c0e500b653ca82273b7bfad8045d85a470 is returned\n        // for accounts without code, i.e. `keccak256('')`\n        bytes32 codehash;\n        bytes32 accountHash = 0xc5d2460186f7233c927e7db2dcc703c0e500b653ca82273b7bfad8045d85a470;\n        // solhint-disable-next-line no-inline-assembly\n        assembly { codehash := extcodehash(account) }\n        return (codehash != accountHash && codehash != 0x0);\n    }\n\n    /**\n     * @dev Converts an `address` into `address payable`. Note that this is\n     * simply a type cast: the actual underlying value is not changed.\n     *\n     * _Available since v2.4.0._\n     */\n    function toPayable(address account) internal pure returns (address payable) {\n        return address(uint160(account));\n    }\n\n    /**\n     * @dev Replacement for Solidity's `transfer`: sends `amount` wei to\n     * `recipient`, forwarding all available gas and reverting on errors.\n     *\n     * https://eips.ethereum.org/EIPS/eip-1884[EIP1884] increases the gas cost\n     * of certain opcodes, possibly making contracts go over the 2300 gas limit\n     * imposed by `transfer`, making them unable to receive funds via\n     * `transfer`. {sendValue} removes this limitation.\n     *\n     * https://diligence.consensys.net/posts/2019/09/stop-using-soliditys-transfer-now/[Learn more].\n     *\n     * IMPORTANT: because control is transferred to `recipient`, care must be\n     * taken to not create reentrancy vulnerabilities. Consider using\n     * {ReentrancyGuard} or the\n     * https://solidity.readthedocs.io/en/v0.5.11/security-considerations.html#use-the-checks-effects-interactions-pattern[checks-effects-interactions pattern].\n     *\n     * _Available since v2.4.0._\n     */\n    function sendValue(address payable recipient, uint256 amount) internal {\n        require(address(this).balance >= amount, \"Address: insufficient balance\");\n\n        // solhint-disable-next-line avoid-call-value\n        (bool success, ) = recipient.call.value(amount)(\"\");\n        require(success, \"Address: unable to send value, recipient may have reverted\");\n    }\n}\n\n// File: @openzeppelin/contracts/token/ERC20/SafeERC20.sol\n\npragma solidity ^0.5.0;\n\n\n\n\n/**\n * @title SafeERC20\n * @dev Wrappers around ERC20 operations that throw on failure (when the token\n * contract returns false). Tokens that return no value (and instead revert or\n * throw on failure) are also supported, non-reverting calls are assumed to be\n * successful.\n * To use this library you can add a `using SafeERC20 for ERC20;` statement to your contract,\n * which allows you to call the safe operations as `token.safeTransfer(...)`, etc.\n */\nlibrary SafeERC20 {\n    using SafeMath for uint256;\n    using Address for address;\n\n    function safeTransfer(IERC20 token, address to, uint256 value) internal {\n        callOptionalReturn(token, abi.encodeWithSelector(token.transfer.selector, to, value));\n    }\n\n    function safeTransferFrom(IERC20 token, address from, address to, uint256 value) internal {\n        callOptionalReturn(token, abi.encodeWithSelector(token.transferFrom.selector, from, to, value));\n    }\n\n    function safeApprove(IERC20 token, address spender, uint256 value) internal {\n        // safeApprove should only be called when setting an initial allowance,\n        // or when resetting it to zero. To increase and decrease it, use\n        // 'safeIncreaseAllowance' and 'safeDecreaseAllowance'\n        // solhint-disable-next-line max-line-length\n        require((value == 0) || (token.allowance(address(this), spender) == 0),\n            \"SafeERC20: approve from non-zero to non-zero allowance\"\n        );\n        callOptionalReturn(token, abi.encodeWithSelector(token.approve.selector, spender, value));\n    }\n\n    function safeIncreaseAllowance(IERC20 token, address spender, uint256 value) internal {\n        uint256 newAllowance = token.allowance(address(this), spender).add(value);\n        callOptionalReturn(token, abi.encodeWithSelector(token.approve.selector, spender, newAllowance));\n    }\n\n    function safeDecreaseAllowance(IERC20 token, address spender, uint256 value) internal {\n        uint256 newAllowance = token.allowance(address(this), spender).sub(value, \"SafeERC20: decreased allowance below zero\");\n        callOptionalReturn(token, abi.encodeWithSelector(token.approve.selector, spender, newAllowance));\n    }\n\n    /**\n     * @dev Imitates a Solidity high-level call (i.e. a regular function call to a contract), relaxing the requirement\n     * on the return value: the return value is optional (but if data is returned, it must not be false).\n     * @param token The token targeted by the call.\n     * @param data The call data (encoded using abi.encode or one of its variants).\n     */\n    function callOptionalReturn(IERC20 token, bytes memory data) private {\n        // We need to perform a low level call here, to bypass Solidity's return data size checking mechanism, since\n        // we're implementing it ourselves.\n\n        // A Solidity high level call has three parts:\n        //  1. The target address is checked to verify it contains contract code\n        //  2. The call itself is made, and success asserted\n        //  3. The return value is decoded, which in turn checks the size of the returned data.\n        // solhint-disable-next-line max-line-length\n        require(address(token).isContract(), \"SafeERC20: call to non-contract\");\n\n        // solhint-disable-next-line avoid-low-level-calls\n        (bool success, bytes memory returndata) = address(token).call(data);\n        require(success, \"SafeERC20: low-level call failed\");\n\n        if (returndata.length > 0) { // Return data is optional\n            // solhint-disable-next-line max-line-length\n            require(abi.decode(returndata, (bool)), \"SafeERC20: ERC20 operation did not succeed\");\n        }\n    }\n}\n\n// File: contracts/ISOTE.sol\n\npragma solidity 0.5.17;\n\n\ncontract ISOTE is IERC20 {\n    function whiteListed(address owner) external view returns (bool);\n    function isLockedForMV(address owner) external view returns (uint256);\n}\n\n// File: contracts/ECDSA.sol\n\npragma solidity ^0.5.0;\n\n// A copy from https://github.com/OpenZeppelin/openzeppelin-contracts/pull/2237/files\n\n/**\n * @dev Elliptic Curve Digital Signature Algorithm (ECDSA) operations.\n *\n * These functions can be used to verify that a message was signed by the holder\n * of the private keys of a given address.\n */\nlibrary ECDSA {\n    /**\n     * @dev Returns the address that signed a hashed message (`hash`) with\n     * `signature`. This address can then be used for verification purposes.\n     *\n     * The `ecrecover` EVM opcode allows for malleable (non-unique) signatures:\n     * this function rejects them by requiring the `s` value to be in the lower\n     * half order, and the `v` value to be either 27 or 28.\n     *\n     * IMPORTANT: `hash` _must_ be the result of a hash operation for the\n     * verification to be secure: it is possible to craft signatures that\n     * recover to arbitrary addresses for non-hashed data. A safe way to ensure\n     * this is by receiving a hash of the original message (which may otherwise\n     * be too long), and then calling {toEthSignedMessageHash} on it.\n     */\n    function recover(bytes32 hash, bytes memory signature) internal pure returns (address) {\n        // Check the signature length\n        if (signature.length != 65) {\n            revert(\"ECDSA: invalid signature length\");\n        }\n\n        // Divide the signature in r, s and v variables\n        bytes32 r;\n        bytes32 s;\n        uint8 v;\n\n        // ecrecover takes the signature parameters, and the only way to get them\n        // currently is to use assembly.\n        // solhint-disable-next-line no-inline-assembly\n        assembly {\n            r := mload(add(signature, 0x20))\n            s := mload(add(signature, 0x40))\n            v := byte(0, mload(add(signature, 0x60)))\n        }\n\n        return recover(hash, v, r, s);\n    }\n\n    /**\n     * @dev Overload of {ECDSA-recover-bytes32-bytes-} that receives the `v`,\n     * `r` and `s` signature fields separately.\n     */\n    function recover(bytes32 hash, uint8 v, bytes32 r, bytes32 s) internal pure returns (address) {\n        // EIP-2 still allows signature malleability for ecrecover(). Remove this possibility and make the signature\n        // unique. Appendix F in the Ethereum Yellow paper (https://ethereum.github.io/yellowpaper/paper.pdf), defines\n        // the valid range for s in (281): 0 < s < secp256k1n  2 + 1, and for v in (282): v  {27, 28}. Most\n        // signatures from current libraries generate a unique signature with an s-value in the lower half order.\n        //\n        // If your library generates malleable signatures, such as s-values in the upper range, calculate a new s-value\n        // with 0xFFFFFFFFFFFFFFFFFFFFFFFFFFFFFFFEBAAEDCE6AF48A03BBFD25E8CD0364141 - s1 and flip v from 27 to 28 or\n        // vice versa. If your library also generates signatures with 0/1 for v instead 27/28, add 27 to v to accept\n        // these malleable signatures as well.\n        if (uint256(s) > 0x7FFFFFFFFFFFFFFFFFFFFFFFFFFFFFFF5D576E7357A4501DDFE92F46681B20A0) {\n            revert(\"ECDSA: invalid signature 's' value\");\n        }\n\n        if (v != 27 && v != 28) {\n            revert(\"ECDSA: invalid signature 'v' value\");\n        }\n\n        // If the signature is valid (and not malleable), return the signer address\n        address signer = ecrecover(hash, v, r, s);\n        require(signer != address(0), \"ECDSA: invalid signature\");\n\n        return signer;\n    }\n\n    /**\n     * @dev Returns an Ethereum Signed Message, created from a `hash`. This\n     * replicates the behavior of the\n     * https://github.com/ethereum/wiki/wiki/JSON-RPC#eth_sign[`eth_sign`]\n     * JSON-RPC method.\n     *\n     * See {recover}.\n     */\n    function toEthSignedMessageHash(bytes32 hash) internal pure returns (bytes32) {\n        // 32 is the length in bytes of hash,\n        // enforced by the type signature above\n        return keccak256(abi.encodePacked(\"\\x19Ethereum Signed Message:\\n32\", hash));\n    }\n}\n\n// File: contracts/ERC20Permit.sol\n\npragma solidity ^0.5.0;\n\n// Adapted copy from https://github.com/OpenZeppelin/openzeppelin-contracts/pull/2237/files\n\n\n\n\n\n/**\n * @dev Extension of {ERC20} that allows token holders to use their tokens\n * without sending any transactions by setting {IERC20-allowance} with a\n * signature using the {permit} method, and then spend them via\n * {IERC20-transferFrom}.\n *\n * The {permit} signature mechanism conforms to the {IERC2612Permit} interface.\n */\ncontract ERC20Permit is ERC20, ERC20Detailed {\n    mapping(address => uint256) private _nonces;\n\n    bytes32 private constant _PERMIT_TYPEHASH = keccak256(\n        \"Permit(address owner,address spender,uint256 value,uint256 nonce,uint256 deadline)\"\n    );\n\n    // Mapping of ChainID to domain separators. This is a very gas efficient way\n    // to not recalculate the domain separator on every call, while still\n    // automatically detecting ChainID changes.\n    mapping(uint256 => bytes32) private _domainSeparators;\n\n    constructor() internal {\n        _updateDomainSeparator();\n    }\n\n    /**\n     * @dev See {IERC2612Permit-permit}.\n     *\n     * If https://eips.ethereum.org/EIPS/eip-1344[ChainID] ever changes, the\n     * EIP712 Domain Separator is automatically recalculated.\n     */\n    function permit(\n        address owner,\n        address spender,\n        uint256 amount,\n        uint256 deadline,\n        uint8 v,\n        bytes32 r,\n        bytes32 s\n    ) public {\n        require(blockTimestamp() <= deadline, \"ERC20Permit: expired deadline\");\n\n        bytes32 hashStruct = keccak256(\n            abi.encode(_PERMIT_TYPEHASH, owner, spender, amount, _nonces[owner], deadline)\n        );\n\n        bytes32 hash = keccak256(abi.encodePacked(uint16(0x1901), _domainSeparator(), hashStruct));\n\n        address signer = ECDSA.recover(hash, v, r, s);\n        require(signer == owner, \"ERC20Permit: invalid signature\");\n\n        _nonces[owner]++;\n        _approve(owner, spender, amount);\n    }\n\n    /**\n     * @dev See {IERC2612Permit-nonces}.\n     */\n    function nonces(address owner) public view returns (uint256) {\n        return _nonces[owner];\n    }\n\n    function _updateDomainSeparator() private returns (bytes32) {\n        uint256 _chainID = chainID();\n\n        bytes32 newDomainSeparator = keccak256(\n            abi.encode(\n                keccak256(\n                    \"EIP712Domain(string name,string version,uint256 chainId,address verifyingContract)\"\n                ),\n                keccak256(bytes(name())),\n                keccak256(bytes(\"1\")), // Version\n                _chainID,\n                address(this)\n            )\n        );\n\n        _domainSeparators[_chainID] = newDomainSeparator;\n\n        return newDomainSeparator;\n    }\n\n    // Returns the domain separator, updating it if chainID changes\n    function _domainSeparator() private returns (bytes32) {\n        bytes32 domainSeparator = _domainSeparators[chainID()];\n        if (domainSeparator != 0x00) {\n            return domainSeparator;\n        } else {\n            return _updateDomainSeparator();\n        }\n    }\n\n    function chainID() public view returns (uint256 _chainID) {\n        assembly {\n            _chainID := chainid()\n        }\n    }\n\n    function blockTimestamp() public view returns (uint256) {\n        return block.timestamp;\n    }\n}\n\n// File: contracts/wSOTE.sol\n\npragma solidity 0.5.17;\n\ncontract wSOTE is ERC20, ERC20Detailed, ERC20Permit {\n    using SafeERC20 for ERC20;\n    using SafeMath for uint256;\n\n    ISOTE public SOTE;\n\n    modifier notwSOTE(address recipient) {\n        require(recipient != address(this), \"wSOTE: can not send to self\");\n        _;\n    }\n\n    constructor(ISOTE _SOTE) public ERC20Detailed(\"Wrapped SOTE\", \"wSOTE\", 18) {\n        SOTE = _SOTE;\n    }\n\n    function _transfer(address sender, address recipient, uint256 amount)\n        internal\n        notwSOTE(recipient)\n    {\n        super._transfer(sender, recipient, amount);\n    }\n\n    function wrap(uint256 _amount) external {\n        require(SOTE.transferFrom(msg.sender, address(this), _amount), \"wSOTE: transferFrom failed\");\n        _mint(msg.sender, _amount);\n    }\n\n    function unwrap(uint256 _amount) external {\n        unwrapTo(msg.sender, _amount);\n    }\n\n    function unwrapTo(address _to, uint256 _amount) public notwSOTE(_to) {\n        _burn(msg.sender, _amount);\n        require(SOTE.transfer(_to, _amount), \"wSOTE: transfer failed\");\n    }\n\n    function canWrap(address _owner, uint256 _amount)\n        external\n        view\n        returns (bool success, string memory reason)\n    {\n        if (SOTE.allowance(_owner, address(this)) < _amount) {\n            return (false, \"insufficient allowance\");\n        }\n\n        if (SOTE.balanceOf(_owner) < _amount) {\n            return (false, \"insufficient SOTE balance\");\n        }\n\n        if (SOTE.isLockedForMV(_owner) > now) {\n            return (false, \"SOTE balance lockedForMv\");\n        }\n\n        if (!SOTE.whiteListed(address(this))) {\n            return (false, \"wSOTE is not whitelisted\");\n        }\n\n        return (true, \"\");\n    }\n\n    function canUnwrap(address _owner, address _recipient, uint256 _amount)\n        external\n        view\n        returns (bool success, string memory reason)\n    {\n        if (balanceOf(_owner) < _amount) {\n            return (false, \"insufficient wSOTE balance\");\n        }\n\n        if (!SOTE.whiteListed(_recipient)) {\n            return (false, \"recipient is not whitelisted\");\n        }\n\n        if (SOTE.isLockedForMV(address(this)) > now) {\n            return (false, \"wSOTE is lockedForMv\");\n        }\n\n        return (true, \"\");\n    }\n\n    /// @dev Method to claim junk and accidentally sent tokens\n    function claimTokens(ERC20 _token, address payable _to, uint256 _balance) external {\n        require(_to != address(0), \"wSOTE: can not send to zero address\");\n\n        if (_token == ERC20(address(SOTE))) {\n            uint256 surplusBalance = _token.balanceOf(address(this)).sub(totalSupply());\n            require(surplusBalance > 0, \"wSOTE: there is no accidentally sent SOTE\");\n            uint256 balance = _balance == 0 ? surplusBalance : Math.min(surplusBalance, _balance);\n            _token.safeTransfer(_to, balance);\n        } else if (_token == ERC20(0)) {\n            // for Ether\n            uint256 totalBalance = address(this).balance;\n            uint256 balance = _balance == 0 ? totalBalance : Math.min(totalBalance, _balance);\n            _to.transfer(balance);\n        } else {\n            // any other erc20\n            uint256 totalBalance = _token.balanceOf(address(this));\n            uint256 balance = _balance == 0 ? totalBalance : Math.min(totalBalance, _balance);\n            require(balance > 0, \"wSOTE: trying to send 0 balance\");\n            _token.safeTransfer(_to, balance);\n        }\n    }\n}",
  "sourcePath": "/Users/oker/Desktop/solcompile/contracts/wSOTE.sol",
  "compiler": {
    "name": "solc",
    "version": "0.5.17+commit.d19bba13.Emscripten.clang"
  },
  "schemaVersion": "3.2.3",
  "updatedAt": "2020-11-30T07:07:31.077Z",
  "devdoc": {
    "methods": {
      "allowance(address,address)": {
        "details": "See {IERC20-allowance}."
      },
      "approve(address,uint256)": {
        "details": "See {IERC20-approve}.     * Requirements:     * - `spender` cannot be the zero address."
      },
      "balanceOf(address)": {
        "details": "See {IERC20-balanceOf}."
      },
      "claimTokens(address,address,uint256)": {
        "details": "Method to claim junk and accidentally sent tokens"
      },
      "decimals()": {
        "details": "Returns the number of decimals used to get its user representation. For example, if `decimals` equals `2`, a balance of `505` tokens should be displayed to a user as `5,05` (`505 / 10 ** 2`).     * Tokens usually opt for a value of 18, imitating the relationship between Ether and Wei.     * NOTE: This information is only used for _display_ purposes: it in no way affects any of the arithmetic of the contract, including {IERC20-balanceOf} and {IERC20-transfer}."
      },
      "decreaseAllowance(address,uint256)": {
        "details": "Atomically decreases the allowance granted to `spender` by the caller.     * This is an alternative to {approve} that can be used as a mitigation for problems described in {IERC20-approve}.     * Emits an {Approval} event indicating the updated allowance.     * Requirements:     * - `spender` cannot be the zero address. - `spender` must have allowance for the caller of at least `subtractedValue`."
      },
      "increaseAllowance(address,uint256)": {
        "details": "Atomically increases the allowance granted to `spender` by the caller.     * This is an alternative to {approve} that can be used as a mitigation for problems described in {IERC20-approve}.     * Emits an {Approval} event indicating the updated allowance.     * Requirements:     * - `spender` cannot be the zero address."
      },
      "name()": {
        "details": "Returns the name of the token."
      },
      "nonces(address)": {
        "details": "See {IERC2612Permit-nonces}."
      },
      "permit(address,address,uint256,uint256,uint8,bytes32,bytes32)": {
        "details": "See {IERC2612Permit-permit}.     * If https://eips.ethereum.org/EIPS/eip-1344[ChainID] ever changes, the EIP712 Domain Separator is automatically recalculated."
      },
      "symbol()": {
        "details": "Returns the symbol of the token, usually a shorter version of the name."
      },
      "totalSupply()": {
        "details": "See {IERC20-totalSupply}."
      },
      "transfer(address,uint256)": {
        "details": "See {IERC20-transfer}.     * Requirements:     * - `recipient` cannot be the zero address. - the caller must have a balance of at least `amount`."
      },
      "transferFrom(address,address,uint256)": {
        "details": "See {IERC20-transferFrom}.     * Emits an {Approval} event indicating the updated allowance. This is not required by the EIP. See the note at the beginning of {ERC20};     * Requirements: - `sender` and `recipient` cannot be the zero address. - `sender` must have a balance of at least `amount`. - the caller must have allowance for `sender`'s tokens of at least `amount`."
      }
    }
  },
  "userdoc": {
    "methods": {}
  }
}